:100000000C94990E0C94B60E0C94B60E0C94B60E7D
:100010000C94B60E0C94B60E0C94B60E0C94B60E50
:100020000C94B60E0C94B60E0C94B60E0C94B60E40
:100030000C9430280C94B60E0C94B60E0C94B60E9C
:100040000C94B60E0C94B60E0C94B60E0C94B60E20
:100050000C94B60E0C94B60E0C94B60E0C94B60E10
:100060000C94B60E0C94B60E10094A6F6E61732094
:100070004C696E6473746564740000FF104564011C
:10008000A1926B006C3BDBC47B083B80100F683C8B
:10009000A18E6935D89663004300101DA191D2321C
:1000A00063008C407CFF6B038CB26B004C0010270C
:1000B0007B057CFF10226100A181FB1EF065A196EB
:1000C000F11EF05571017B01310610286D086E0597
:1000D00066006A01A19680D0D0E57014306C1038AB
:1000E00020A42109207D20C44F4210182128346308
:1000F000103D00E0A1546D286E0A6C0ADDEA7D080F
:10010000FC1E3D58104AA1726D346E196C05DDE578
:100110007D08FC1E3D4C10536D2D6E286C05DDE5F1
:100120007D08FC1E3D45105BA195F065A19CF03358
:100130006C00A19CFC1EF065F029DDE57D057C01CD
:100140003C0310656C20EC9E106FA1946000610070
:10015000F1556C366F0A214F00C17CFF3C001076D0
:10016000100B33001097CC0F3C001096CC077C018D
:100170008C06A199FC1EF0654000109682D083E0A9
:1001800073054C00109272147CFF108DA191D23235
:100190003F00109E00EEA191D2327301333A1092CB
:1001A000630000EE6C358B308BC53F00646300EE5E
:1001B0008040700180066C00A199FC1EF0557C0106
:1001C0003C0510A8A19CF43320B86C78FC15FC0702
:1001D0003C0010B320B800EEA19DF065F0306C3704
:1001E0006B1BDCBAA19EF065F0306C41DCBA00EE0E
:1001F00046001102A191D56276FF46001102D56238
:100200004F0011028CE07C058C654F001103D56214
:1002100075FB66008CD060008BC08B553F0010DFF3
:100220007C14700110D8A199F01EF06570FFF05594
:10023000A1964000DCE56C0AFC18A194F0656CFF07
:1002400080C3F055300010F4A195F0657001F055B1
:100250006C006B00A199FC1EF06530007B017C01F5
:100260003C0510F63B00110274016F4200EEA191B3
:10027000D232D5626300660000EE6B006C08ECA120
:100280006BFF6C10ECA16B014B00111C48016B0162
:1002900048786BFFA18E6935D89688B4D896112519
:1002A0006C20EC9E11253600112585806635A191C4
:1002B000D5626F06214F00EEF00730001137601E47
:1002C000F01567003D2111326AFF11353D071136E7
:1002D0006A016701213800EE8BD06C0089B081E0A3
:1002E000A199FC1EF06540001146A196D91589A47C
:1002F0008174D9157C017B143C05113A8DA48E7450
:100300004E30646300EEFF15FF073F00115000EE12
:100310003C0C1E1E33333F6161F31F0C0C0C0C0CA4
:100320000C8C8CDF070101010101010161E7E7830A
:1003300083838383838383E7FB190161E161010187
:1003400019FB9F86C6E6E6B69E9E8EE6E494E7908D
:10035000F7878080808788888888AF66884828C625
:100360004CAAACAA4AE088C088E0000018FF3C0014
:10037000183CFF81423C3C3C423C5A5A7E7E000085
:10038000243C24000018183C7EFF1818FF225588D2
:10039000000000000000000000000000000000005D
:1003A000000000000000100100FF80038113A36D16
:1003B000F1556005A36FF0558773866322C400E092
:1003C00022D56E4087E26E2787E1683469186A702B
:1003D0006B006C046D3422B2A390DAB8DCD860FFF5
:1003E0006E1470FF3000101E7EFF3E00101E20F2C3
:1003F0003E00103BA36FF0658500C4FF8452218549
:10040000C4FF845222196012E0A122F936F7101CB1
:100410008E60234B6E64234B22F9100AF0074000D4
:10042000108D80808006800681A08106810680155F
:100430004000104C4001104C40FF104C1065809063
:100440008006800681B08106810680154000105A22
:100450004001105A40FF105A1065A390DAB86A7034
:100460006B00DAB86EF387E26E0487E16E32234BDD
:1004700080808006800681C081068106801540004C
:1004800010734001107340FF107310278090800696
:10049000800681D0810681068015400010814001D0
:1004A000108140FF10811027A390DCD86C046D34BC
:1004B000DCD86ECF87E26E2087E16E19234B1027C0
:1004C0006009236222B2A390DAB8DCD86E4087E3D9
:1004D000807080E23000100E8E60234B235300E0CA
:1004E00066246714A36E230166246720A36D23018D
:1004F000640065106601670FA4BCD460A4CCD5600D
:10050000600423623E0010E8A4BCD460A4CCD56093
:1005100074047504346010A9A4BCD460A4CCD56064
:10052000600423623E0010E8A4BCD460A4CCD56073
:100530007604362D10B9A4BCD460A4CCD560600478
:1005400023623E0010E8A4BCD460A4CCD56074FC47
:1005500075FC340010C8A4BCD460A4CCD560600481
:1005600023623E0010E8A4BCD460A4CCD56076FC25
:10057000360110D810A9A4CCD560A4DCD5606003E6
:10058000F015F007300010EE100183706E0383E267
:10059000848085906E04EEA111236E02EEA1112FCE
:1005A0006E10EEA1113B6E08EEA1114743037504D6
:1005B000430075FC43027404430174FC8040815085
:1005C00022E982006E0880E2300011536E0780201D
:1005D00082E242051157420611634207118022B29E
:1005E0006EFC87E287318840895012B2804081508A
:1005F000710422E982006E0880E230001103630377
:10060000750411118040815071FC22E982006E084E
:1006100080E230001103630075FC111180408150AD
:10062000700422E982006E0880E230001103630248
:10063000740411118040815070FC22E982006E0820
:1006400080E230001103630174FC111122B2D898CA
:100650008EF000EE6EF080E28031F055A394D45815
:1006600076016105F0074000F118111C6EF080E280
:100670008031F055A398D458760480A081B022E947
:100680006EF080E2300011736E0C87E380C081D081
:1006900022E96EF080E23000117C6E3087E360FF6B
:1006A000F018F015111C4301647443026400111C1E
:1006B000827083706E0C82E280A081B022E9A390E8
:1006C0006EF080E23000119CDAB8420C7B044200EC
:1006D0007BFC42087A0442047AFCDAB800EE6E80B1
:1006E000F107310011F4340011F48100830E3F0052
:1006F00011B5839083B54F0011D0330011C487E347
:10070000838083A54F0011E8330011DC87E311F4E7
:10071000838083A54F0011E8330011DC87E38390C9
:1007200083B54F0011D0330011C487E311F4634047
:100730008132410011F4DAB87B04DAB86EF387E253
:10074000620C872100EE63108132410011F4DAB8A7
:100750007BFCDAB86EF387E26200872100EE63204B
:100760008132410011F4DAB87A04DAB86EF387E224
:100770006208872100EE63808132410011F4DAB80B
:100780007AFCDAB86EF387E26204872100EEC1F0EA
:100790008012300011FC6E0C87E382E31191DAB80D
:1007A000800E4F00120362047AFC1214800E4F0078
:1007B0001209620C7B041214800E4F00120F6208A3
:1007C0007A041214800E4F0011F862007BFCDAB834
:1007D0006EF387E2872100EE827083706E3082E2D2
:1007E00080C081D022E9A3906EF080E23000123008
:1007F000DCD842307D0442007DFC42207C04421063
:100800007CFCDCD800EE6E80F1073100128C3400E5
:10081000128C8100830E4F001249839083D54F00C4
:1008200012653300125887E3838083C54F00127F1F
:100830003300127287E3128C838083C54F00127FCE
:100840003300127287E3839083D54F001265330023
:10085000125887E3128C634081324100128CDCD83D
:100860007D04DCD887E36ECF87E26230872100EE1B
:10087000631081324100128CDCD87DFCDCD887E328
:100880006ECF87E26200872100EE63208132410053
:10089000128CDCD87C04DCD887E36ECF87E2622040
:1008A000872100EE638081324100128CDCD87CFC11
:1008B000DCD887E36ECF87E26210872100EEC1F0BB
:1008C00080123000129587E36E3087E382E31225B1
:1008D000DCD8800E4F00129C62907CFC12AD800E22
:1008E0004F0012A262307D0412AD800E4F0012A89C
:1008F00062A07C0412AD800E4F00129062007DFC5D
:10090000DCD86E4F87E2872100EE80706E0380E2B4
:10091000800E818081946E0481E241007001800E1E
:10092000800E800EA370F01ED8988EF000EE6E0040
:10093000A3BCFE1EFE1EFE1EFE1EF365A4ECFE1EE4
:10094000FE1EFE1EFE1EF3557E013E8012C500EE09
:10095000822383336E0F8020813022EB80E2800E71
:10096000800EA39CF01ED2347204328012D88223EF
:100970007304434000EE12D87004710480068006B0
:1009800081068106810E810E810E810EA4ECF11E7E
:10099000F11EF01EF06500EEA36FF0658006F055C5
:1009A0006012E0A112FE00EEF1656E018443820048
:1009B0008310651083554F0082E54F00131465279F
:1009C00082554F0013148020813084E41306F430E4
:1009D000D67A760C84438200831065E883554F00F5
:1009E00082E54F001328650382554F0013288020AD
:1009F000813084E4131AF430D67A760C8443820072
:100A00008310656483554F0082E54F0013388020C2
:100A1000813084E4132EF430D67A760C844382003D
:100A20008310650A83554F001345813084E4133EDB
:100A3000F430D67A760CF130D67A00EEA36DF165FB
:100A400081E43F007001A36DF15500EEA36DF365E5
:100A50008E008E254F0000EE3E00135F8E108E3507
:100A60004F0000EEA36EF15500EE8EE36220F0150C
:100A7000E2A1136BF0073000136500EE6E0100EE8B
:100A800000000000050000226363777F3E1C001C0D
:100A90001E5D5D6F3E1C003C7E0F070F7E3C001C00
:100AA000267F7F7B061C001E3F7870783F1E001C4F
:100AB000327F7F6F301C001C3E7F77636322001CF7
:100AC0003E6F5D5D1E1C001C3E49777F637F00000A
:100AD00000000800000000000000080800000000FE
:100AE0000000000000000000000000000000000006
:100AF0000000800000008080000000000000F00086
:100B00000000000000008080808000000000F08075
:100B1000808080808080F0000000800000000C0851
:100B2000080808080808080808080808080D0C083C
:100B3000080808080808080808080808080D0A65D1
:100B400005050505E50505E505050505C50A0A656B
:100B500005050505E50505E505050505C50A0A05BB
:100B60000C08080F050C0D050808080D050E0F05EB
:100B70000C08080F050C0D050808080D050A0A05E4
:100B80000A650605950A0A350505C50A3505059560
:100B90000A650505950A0A350506C50A050A0A0506
:100BA0000F0508080808080C080F050808080808B9
:100BB0000F0508080C080808080F050F050A0A7534
:100BC00005B505050505C50A6505B505E50505E590
:100BD00005B505C50A6505050505B505D50A0A0566
:100BE0000C080808080D050F050C080F05080F056F
:100BF00008080D050F050C080808080D050A0F0563
:100C00000F650505C50A35E5950A6505B00505B505
:100C100005C50A35E5950A650505C50F050F077475
:100C200005D5080F050E0F05080F050C0808080864
:100C30000D05080F05080F05080F7505D4070A05EF
:100C40000A350505F50505B50505D508080D0C0897
:100C50000F750505B50505F50505950A050A0A058B
:100C60000808080D050C0808080D3505C50A0A65B1
:100C700005950C0808080D050C08080F050A0A75EB
:100C80000506C50A050808080808080F05080F0525
:100C90000808080808080F050A650605D50A0A05A8
:100CA0000C0D050A3505050505E50505F50505F5F0
:100CB0000505E505050505950A050C0D050A0A0556
:100CC000080F0508080808080F050C0D05080F0592
:100CD0000C0D0508080808080F05080F050A0A3555
:100CE0000505B5050505050505950A0A35050595AA
:100CF0000A0A35050505050505B50505950A08081F
:100D0000080808080808080808080F08080808085C
:100D10000F0808080808080808080808080F01E074
:100D2000021004C809E40BF40BB409E504C902136A
:100D300001E70007018303F001FF00FF003F0F0000
:100D4000108026404F205FA05DA04F20264090805D
:100D5000CF00C00083001F80FF00FE00F8000F00DE
:100D60001F803FC07FE07FE05FE047E020C09080D1
:100D7000CF00C08083C01F80FF00FE00F80000008D
:100D8000100F312E3030204B2E762E53656E676259
:100D9000757363682032342F342D2739340000FFF7
:100DA0006C0420A4653266326728835084606264D4
:100DB00069006A016B0000C120666001820560283D
:100DC0005200101BA0C8D348A0C8D34800C1D568A2
:100DD0003F0010402066600132008205208483506D
:100DE00084606008E0A120586010E0A12054C00396
:100DF0004000205DC0034000206180C020BD102461
:100E000080B0700380068006F03080707011611B26
:100E1000D01A606420BD00C860006100A0CC9012B0
:100E2000F00A40FF105010117501456E656D00EE1F
:100E3000600185054F00650000EE77014746674574
:100E400000EE600187054714671500EE8090612D64
:100E50008105881061008070A0C2D011808461007B
:100E6000D0117A014A046A014A01A0C34A02A0C40F
:100E70004A03A0C561006000D0116008D011607005
:100E8000D0116078D01100EE320000EEC00F8074F7
:100E900070086100A0C8622D4B1E20963B21D0181F
:100EA0007B0180908205390B790100EE7B03A0C69F
:100EB00080707005D0117008D0117008D0117008C2
:100EC000A0C7D011626400EE00E060006100A0D213
:100ED0009012620882C5F229602AD015F00A4002F9
:100EE00020BA400420B7302010A400E000EE3C07F8
:100EF0007C0110BC3C017CFF600FF015F007300056
:100F000010BE00EE8800880055002200FF00F800A7
:100F1000DBFFDB1824E7E7DB616E79206B65792E58
:100F20002E2E000073706565643A20006361727450
:100F30006520534420616273656E746521004352DD
:100F40004153482120626164206F70636F64650AB9
:100F50000043524153482120626164206F70636FE7
:100F600064650A00464154206472697665720A43DA
:100F70006F7079726967687420323030362D323084
:100F800031320A526F6C616E642052696567656C1C
:100F90000A004C454D0A4341520A574F524D0A41EF
:100FA0004C49454E0A424C494E4B590A00274627A8
:100FB000697265207472616365206F7220616E7959
:100FC000007661725B5D3A002053503A00493A0066
:100FD00050433A004563686563206F7576657274A7
:100FE0002E20666963682E0A004563686563206188
:100FF00063636573207265706572742E0A004563C1
:101000006865632061636365732066696368696509
:1010100072730A00456368656320616363657320CA
:10102000706172746974696F6E0A00626F75746FB3
:101030006E2E2E2E0000E020C26900680078019E0E
:101040000860108E058E066D006C006B006A6420CF
:1010500087206D20B34A00102B6008E0A1101C60AF
:1010600010E0A110206020E0A11024102B20B37C00
:10107000FF7AFF102920B37C017AFF102920B37B6F
:10108000FE3A017AFF7AFF904420B320B3206D8EA0
:10109000C4607F8E028DB47B01206D4F01104B2008
:1010A000B34A00103B60142046101020B3600A6160
:1010B0000490116004204620B36004901120461073
:1010C00010F015F0073000104700EE20B3600280EA
:1010D000B53F01105C600280C53F01105C5E70107E
:1010E0005C7901A0E86100621091221060A0E261C9
:1010F00000621091222070603C20466020E09E102B
:10110000646101620A9121E0A1106900E01004A06D
:10111000CFDED000EE6100620AA10CF933207CA082
:10112000DFD1257104A10CF833207C00EE6300A10F
:101130000CF31EF065F029D12571047301330310FF
:101140007D00EE6500C7FF90086310803590068033
:101150007590073F01870084707410C10F9009815A
:1011600007835083753F01109E835083453F0110D4
:10117000AD9009800680153F007101900970FF80D5
:10118000173F0071FFC3038306330071FE710195A1
:1011900013750190085500109600EE61006200631F
:1011A00000A10CFA33A10CF31EF065F030D12A71C6
:1011B000087301330310B800EEA0F06100920982B9
:1011C000069122910900D16003204671FF31001081
:1011D000C800EE03C006601FF83FFC2004AFF56CAA
:1011E000362C346FF6A0053FFC3FFC12902448607B
:1011F0000CC006204040808000796F7520637261CA
:101200007368656400636F6E67726174756C617496
:10121000696F6E21004C454D0A4A616371756573B3
:10122000204465736368656E65730A436F707972F5
:101230006967687420323031342C323031350A6CB1
:101240006963656E63652047504C7633000000008B
:1012500000FFFFFFFFFFFFFFFFFFFFFFFFFFFFFF9D
:10126000FFFFFFFFFFFFFFFFFFFFFFFFFFFFFFFF8E
:10127000FFFFFFFFFFFFFFFFFFFFFFFFFFFFFFFF7E
:10128000FFFFFFFFFFFFFFFFFFFFFFFFFFFFFFFF6E
:10129000FFFFFFFFFFFFFFFFFFFFFFFFFFFFFFFF5E
:1012A000FFFFFFFFFFFFFFFFFFFFFFFFFFFFFFFF4E
:1012B000FFFFFFFFFFFFFFFFFFFFFFFFFFFFFFFF3E
:1012C000FFFFFFFFFFFFFFFFFFFFFFFFFFFFFFFF2E
:1012D000FFFFFFFFFFFFFFFFFFFFFFFFFFFFFFFF1E
:1012E000FFFFFFFFFFFFFFFFFFFFFFFFFFFFFFFF0E
:1012F000FFFFFFFFFFFFFFFFFFFFFFFFFFFFFFFFFE
:10130000FFFFFFFFFFFFFFFFFFFFFFFFFFFFFFFFED
:10131000FFFFFFFFFFFFFFFFFFFFFFFFFFFFFFFFDD
:10132000FFFFFFC1CF9981FFFFFFFFFFFFFFFFFF1F
:10133000FFFFFF80CF9980FFFFFFFFFFFFFFFFFF51
:10134000FFFFFF1C4F999C7FFFFFFFFFFFFFFFFF89
:10135000FFFFFF3ECF999E7FFFFFFFFFFBFE7FFF5A
:10136000FFFFFE7FCF999E787C3C87FFFBFDBFFF90
:10137000FFFFFE7FCF999E70381C03FFF3FBDFFF5A
:10138000FFFFFE7FC0199C63118C73EFABFBDFFF87
:10139000FFFFFE7FC01980E793CCF3F77BFBDFFFF5
:1013A000FFFFFE7FCF9981E7F3CCF3F77BFBDFFFF5
:1013B000FFFFFE7ECF999FE7F3CCF3F77BFBDFFFC8
:1013C000FFFFFF3C4F999FE793CCF3FAFBFBDFFF56
:1013D000FFFFFF1CCF999FE3118CF3FAFBFBDFFFAC
:1013E000FFFFFF80CF999FF0381CF3FAFBFDBFFF92
:1013F000FFFFFFC1CF999FF87C3CF3FDFBDE7FFF31
:10140000FFFFFFFFFFFFFFFFFFFFFFFFFFFFFFFFEC
:10141000FFFFFFFFFFFFFFFFFFFFFFFFFFFFFFFFDC
:10142000FFFFFFFFFFFFFFFFFFFFFFFFFFFFFFFFCC
:10143000FFFFFFFFFFFFFFFFFFFFFFFFFFFFFFFFBC
:10144000FFFFFFFFFFFFFFFFFFFFFFFFFFFFFFFFAC
:10145000FFFFFFFFFFFFFFFFFFFFFFFFFFFFFFFF9C
:10146000FFFFFFFFFFFFFFFFFFFFFFFFFFFFFFFF8C
:10147000FFFFFFFFFFFFFFFFFFFFFFFFFFFFFFFF7C
:10148000FFFFFF8FFFFFF7F7DF3EFBF7FBFC3FFFA0
:10149000FFFFFF77FFFFFFF7DEDD73E7FBFDDFFFF9
:1014A000FFFFFEF634DD56548EEBABE7FB1DEC7F01
:1014B000FFFFFEFDD35D35935FEBBBD7FAEDEBBFCE
:1014C000FFFFFEFDD76B75D75FDBBBD7FBEDEBBF37
:1014D000FFFFFEFDD76B75D75FBBBBB7FB0DE83FCA
:1014E000FFFFFEF5D76B75D75F7BBB83DAEDEBFFB4
:1014F000FFFFFF75D37775975EFD7BF7DAEDDBBFF6
:10150000FFFFFF8E34F776574E0EFBF7E70C3C7F5C
:10151000FFFFFFFFF7F7FFDFFFFFFFFFFFFFFFFF0B
:10152000FFFFFFFFF7F7FDDFFFFFFFFFFFFFFFFFFD
:10153000FFFFFFFFF7CFFE3FFFFFFFFFFFFFFFFFB4
:10154000FFFFFFFFFFFFFFFFFFFFFFFFFFFFFFFFAB
:10155000FFFFFFFFFFFFFFFFFFFFFFFFFFFFFFFF9B
:10156000FFFFFFFFFFFFFFFFFFFFFFFFFFFFFFFF8B
:10157000FFFFFFFFFFFFFFFFFFFFFFFFFFFFFFFF7B
:10158000FFFFFFFFFFFFFFFFFFFFFFFFFFFFFFFF6B
:10159000FFFFFFFFFFFFFFFFFFFFFFFFFFFFFFFF5B
:1015A000FFFFFFFFFFFFFFFFFFFFFFFFFFFFFFFF4B
:1015B000FFFFFFFFFFFFFFFFFFFFFFFFFFFFFFFF3B
:1015C000FFFFFFFFFFFFFFFFFFFFFFFFFFFFFFFF2B
:1015D000FFFFFFFFFFFFFFFFFFFFFFFFFFFFFFFF1B
:1015E000FFFFFFFFFFFFFFFFFFFFFFFFFFFFFFFF0B
:1015F000FFFFFFFFFFFFFFFFFFFFFFFFFFFFFFFFFB
:10160000FFFFFFFFFFFFFFFFFFFFFFFFFFFFFFFFEA
:10161000FFFFFFFFFFFFFFFFFFFFFFFFFFFFFFFFDA
:10162000FFFFFFFFFFFFFFFFFFFFFFFFFFFFFFFFCA
:10163000FFFFFFFFFFFFFFFFFFFFFFFFFFFFFFFFBA
:10164000FFFFFFFFFFFFFFFFFFFFFFFFFFFFFFFFAA
:10165000FF000000000000000020202020200020CB
:101660000050505000000000005050F850F850500A
:10167000002078A07028F02000C0C81020409818E2
:10168000006090A040A8906800602040000000002A
:10169000001020404040201000402010101020403A
:1016A000000020A870A8200000002020F8202000C2
:1016B000000000000060204000000000F00000007A
:1016C0000000000000006060000008102040800062
:1016D00000708898A8C8887000206020202020F81A
:1016E00000708810204080F800F00808F00808F02A
:1016F0000010305090F8101000F88080F00808F0CA
:1017000000304080F088887000F808102040404089
:1017100000708888708888700070888870080870E9
:1017200000006060006060000000606000602040B9
:101730000010204080402010000000F800F8000059
:101740000040201008102040007088081020002061
:101750000070880868A8A87000708888F888888851
:1017600000F08888F08888F0007880808080807819
:1017700000F08888888888F000F88080F88080F8F9
:1017800000F88080F880808000788080B088887041
:1017900000888888F88888880070202020202070A1
:1017A0000078080808089060008890A0C0A0908881
:1017B00000808080808080F80088D8A88888888809
:1017C000008888C8A8988888007088888888887069
:1017D00000F08888F08080800070888888A89878D9
:1017E00000F08888F0A0908800788080700808F069
:1017F00000F8202020202020008888888888887091
:10180000008888888888502000888888A8A8D88878
:1018100000888850205088880088888850202020A0
:1018200000F81020408080F8006040404040406058
:101830000000804020100800001808080808081858
:10184000002050880000000000000000000000F8A8
:101850000040201000000000000000700878887828
:1018600000808080B0C888F00000007080808870A0
:1018700000080808689888780000007088F8807070
:1018800000304840E04040400000007888887808F8
:10189000708080B0C8888888000020002020202028
:1018A000001000301010906000808090A0C0A090C8
:1018B0000060202020202070000000D0A8A8888888
:1018C000000000B0C8888888000000708888887090
:1018D000000000F08888F080800000689090B05090
:1018E000180000B0C880808000000070807008F090
:1018F000004040E0404048300000008888889868F8
:1019000000000088888850200000008888A8A8501F
:1019100000000088502050880000008888887808DF
:10192000700000F8102040F8002040408040402027
:1019300000202020202020200040202010202040B7
:1019400000000040A810000000FCFCFCFCFCFCFCBB
:10195000FC402010F810204000102040F8402010DB
:10196000002070A8202020000000202020A8702047
:10197000000070F8F8F87000007C82868A92A2C29B
:10198000827C0008182808080808083E00384482AD
:101990000408102040FE00384482023C0282443891
:1019A00000848484847E04040404007E8080807C1F
:1019B000020202FE0078848080FC8282827C007EAB
:1019C000820408080808080800384482827C828261
:1019D00044380038448282463A020438003844824F
:1019E00082FE8282828200FC828282FC828282FC6F
:1019F000003E408080808080403E00F88482828269
:101A0000828284F800FE808080FE808080FE00FE5E
:101A1000808080FE8080808000E0A0A0A0E000C0E8
:101A2000404040E000E020E080E000E020E020E0F6
:101A300000A0A0E0202000E080E020E0008080E026
:101A4000A0E000E02020202000E0A0E0A0E000E0F6
:101A5000A0E0202000E0A0E0A0A000C0A0C0A0C0A6
:101A600000E0808080E000C0A0A0A0C000E080E096
:101A700080E000E080E08080000B022A024B026ED2
:101A8000029302BA02E40210033F037003A403DCD2
:101A900003170455049704DD04100E576F726D0090
:101AA00052423932000000003E05002B7C00000647
:101AB0001E0100040000FF00E0A006FE65A0CCF0BF
:101AC00055FC1E710131001013A0B5DAB3D421D436
:101AD000317403347A101AA0BE6304D329D4297256
:101AE00009323F1021A003F065A001F033632E20DE
:101AF00073A001F533207220A6A0BDD76176FE3613
:101B0000111030630AF315A0CCF81EF06584008034
:101B1000A0F055A14CF81EF065810080B0F055A0F2
:101B2000B63400D413A0B1F91EF165A0B8DAB28AB8
:101B3000048B14A0B5DAB33F00107FC00F40002023
:101B4000A4780198E068006108E19E6600E19E10BB
:101B500061360010617902660689626110E19E6754
:101B600000E19E106B3700106B79FE67068972F3F7
:101B7000073300105710352072A001F5336300645D
:101B80007CA001F265F029D4357306F129D43573B0
:101B900006F229D43500EE20AEA0B5DAB3DAB33FB1
:101BA00000108A6402F4187501206F1054640AF45E
:101BB00018DAB38A058B15A0B8DAB2A003F06580F5
:101BC0005580504F00F0556064F015F0073000105C
:101BD0009900C88100A0C39012F00A302010A01014
:101BE0000E7E0100EEA0B9CC7C7C02CD3C7D02DCF7
:101BF000D74F0000EEA0B9DCD710A7040000FCFC12
:101C0000000004E0E0E0A0E0000040387CDEFEFEE2
:101C10007C3800F00080808080808080808000732D
:101C2000656C65637420726573746172742E2E2EF8
:101C300000000000000000000000000000000000A4
:101C40000000000000000000000000000000000094
:101C50000000000000000000000000000000000084
:101C60000000000000000000000000000000000074
:101C70000000000000000000000000000000000064
:101C80000000000000000000000000000000000054
:101C90000000000000000000000000000000000044
:101CA0000000000000000000000000000000000034
:101CB0000000000000000000000000000000000024
:101CC0000000000000000000000000000000000014
:101CD0000000000000000000000000000000000004
:101CE00000000000000000000000000000000000F4
:101CF00000000000000000000000000000000000E4
:101D000000000000000000000000000000000000D3
:101D100000000000000000000000000000000000C3
:101D200000000000000000000000000000000000B3
:101D3000000011241FBECFEFD8E0DEBFCDBF11E001
:101D4000A0E0B1E0E6E1F4E502C005900D92A83014
:101D5000B107D9F727E0A8E0B1E001C01D92A63C89
:101D6000B207E1F70E94A4110C94092A0C94000018
:101D7000FC01818190E0982F88272081822B089593
:101D8000FC0123816281862F90E0A0E0B0E0DC01BD
:101D900099278827B22B2081822B2181BC01CD017C
:101DA000722B0895EF92FF920F931F93CF93DF93BF
:101DB0007C018B016115710569F0C0E0D0E0F7018D
:101DC000EC0FFD1F6491CE010E945D222196C01789
:101DD000D107A9F7DF91CF911F910F91FF90EF905D
:101DE0000895FF920F931F93CF93DF93CDB7DEB784
:101DF000A0970FB6F894DEBF0FBECDBF8C01000FC9
:101E0000111F880F991F880F991F880F991F080F9E
:101E1000191F000F111F02951295107F1027007FC8
:101E20001027F12CAE014F5F5F4F60E270E0C801F8
:101E30000E94C9228981882391F080E20E945B235D
:101E4000CE0101960E94D42386E08F1510F00E94E7
:101E50002123F394005E1F4F8AE0F812E3CF8F2D09
:101E6000A0960FB6F894DEBF0FBECDBFDF91CF9125
:101E70001F910F91FF9008956F927F928F929F9282
:101E8000AF92BF92CF92DF92EF92FF920F931F9388
:101E9000CF93DF936C010E94662782E08093C50296
:101EA0008091C5028111FCCF80E090E00E94F10E8C
:101EB000A82EC0E0D0E0E12CF12C812C912C0F2E2B
:101EC000F7E06F2EF02D712C00E021E539E148E0BC
:101ED0001C2F110F110F110F612F80E00E94782528
:101EE0000E94E51EB82E21E539E148E0612F80E02F
:101EF0000E94782588E0B81609F18B1548F082E039
:101F0000B81609F451C084E0B81609F460C027C0BF
:101F100080E1B81651F180E2B81221C00E94ED1E96
:101F2000C701880F991FEE0CFF1CEE0CFF1CEE0C76
:101F3000FF1C8E0D9F1D8C0F9D1F78C0E114F104B6
:101F400061F081E0E81AF1080E946627C7010E944B
:101F5000F10EA82EC62DD72D02C0C82DD92D86B1C1
:101F60008E738E3309F058C0AFCFE70121969E01E2
:101F7000220F331FCE01880F991F880F991F880FDA
:101F8000991F820F931F8C159D0554F40E9466279C
:101F9000CE010E94F10EA82E7E01C82DD92DDFCFD3
:101FA000CA2DD0E02197DBCF209711F02197D7CF12
:101FB000E114F104A1F281E0E81AF1080E94662719
:101FC000C7010E94F10EA82EC62DD72DC8CF8A2D8D
:101FD00090E00197C817D90714F42196C0CF870164
:101FE0000F5F1F4F9801220F331FC801880F991FE1
:101FF000880F991F880F991F820F931F8C159D05BD
:102000000CF0ADCF0E946627C8010E94F10EA82EE9
:102010007801C82DD92DA3CF41E062E08B2D0E941D
:10202000D22486B18E738E33B9F74ECFDF91CF9124
:102030001F910F91FF90EF90DF90CF90BF90AF90E6
:102040009F908F907F906F9008950F931F93CF93E1
:10205000DF93CDB7DEB7CB54D1090FB6F894DEBF0E
:102060000FBECDBF18A200E010E027C022968FADB2
:10207000229784FD1EC0BE016F5D7F4FCE01019689
:102080000E94E329AE014F5F5F4F60E270E0C8013C
:10209000880F991F82959295907F9827807F982727
:1020A0000E94F4220F5F1F4F011588E018072CF0E3
:1020B0000AC0011588E0180734F4CE0181960E9409
:1020C000D71E8111D3CF1982AE014F5F5F4F60E2FF
:1020D00070E0C801880F991F82959295907F98278C
:1020E000807F98270E94F422C801C55BDF4F0FB69E
:1020F000F894DEBF0FBECDBFDF91CF911F910F913E
:1021000008950E942510009799F00E943C0F992392
:102110007CF00E94861E882359F00E94662782E088
:102120000E945712823021F481E59FE00E94ED1158
:1021300008959F92AF92BF92CF92DF92EF92FF925B
:102140000F931F93CF93DF93CDB7DEB7A0970FB652
:10215000F894DEBF0FBECDBFFE01319680E2DF01F5
:102160001D928A95E9F7A12CB12CE12CF12CE0E02D
:10217000F0E0CE0101966C016894992495F80DC0A9
:10218000ED930F5F1F4FF801EF56F04FE491EE23F0
:1021900009F462C0EA30A1F779C08F010F5F1F4FC9
:1021A000EE56F04FE491EE2329F0EA3009F46EC0C8
:1021B000D601E6CFAE014F5F5F4F60E270E0C7012E
:1021C000880F991F82959295907F9827807F9827F6
:1021D0000E94F4220E946627C7010E943C0F8230B1
:1021E0009105D1F028F4009749F0019771F061C092
:1021F00083309105C1F00497E9F05BC06CE172E0B7
:1022000085E390E10E94D20E1BC06CEA71E080E889
:102210009DE00E94D20E14C068E972E089E99AE15B
:102220000E94D20E0DC06EE373E088E690E00E943B
:10223000D20E06C06AED79E086EA93E00E94D20EE3
:102240000E94662782E00E945712823091F58EE349
:102250009FE00E94ED112DC08E010F5F1F4FA8015E
:1022600060E270E0C701880F991F82959295907F78
:102270009827807F98270E94F4229FEFE91AF90A95
:1022800080E2D8011D928A95E9F794CFA60160E219
:1022900070E0C5010E94F422BFEFEB1AFB0AF601C1
:1022A000892D11928A95E9F790E2A90EB11CF801E7
:1022B00074CFA0960FB6F894DEBF0FBECDBFDF91EE
:1022C000CF911F910F91FF90EF90DF90CF90BF9033
:1022D000AF909F900895EF92FF920F931F93CF932B
:1022E000DF9301E516E1C1E5D2E180E090E89C01D1
:1022F000215532417901FE016491C7018C0F9D1F68
:102300000E945D222196C017D107A9F70E942728B5
:1023100088E78093C5020BC086B18E738E3339F087
:1023200062E088EE93E00E94C0241092C502809182
:10233000C5028111F1CF0E94ED1EDF91CF911F9157
:102340000F91FF90EF900895E1E6F0E080E8808340
:1023500010820E94FB2484B1886284B980E58CBD20
:102360008DB581608DBD87B1817C87B988B18E6361
:1023700088B90E94BA240E945522789480918400E2
:10238000909185000E94AB290E9421200E94A11DEE
:10239000882331F085E091E00E94021EC82F01C021
:1023A000C0E00E946B1164E084E69FE00E944F242D
:1023B0000E94662782E00E941E23C1110BC08CE29E
:1023C0009FE00E94E3230E9421230E94FB1E0E94A3
:1023D0009910EECF0E948110EBCF0F931F93CF93F4
:1023E000DF93EC010E941E280E94662782E00E9473
:1023F0001E23CE010E94E32380ED9FE00E94E32391
:10240000809128019091290164E002970E94F523B0
:1024100080914D0162E090E00E94F52380914E0191
:1024200062E090E00E94F5230E9421238DEC9FE062
:102430000E94E32364E080912A0190912B010E9485
:10244000F52388EC9FE00E94E32380912C0162E059
:1024500090E00E94F5230E94212381EC9FE00E94DE
:10246000E323CDE2D1E00DE311E0899162E090E059
:102470000E94F523C017D107C1F70E9421238DEADE
:102480009FE00E94E3230E94E51E803229F0EFE8DE
:10249000F1E080818B7F808386B18E738E33E1F78C
:1024A0000E942728DF91CF911F910F9108952F92BD
:1024B0003F924F925F926F927F928F929F92AF92D4
:1024C000BF92CF92DF92EF92FF920F931F93CF9321
:1024D000DF931F92CDB7DEB781FF0AC010922901AA
:1024E0001092280110922C0110922B0110922A01B7
:1024F0000F2EFDE4EF2EF1E0FF2EF02D0F2EFEE467
:10250000CF2EF1E0DF2EF02D0F2EFAE2AF2EF1E00C
:10251000BF2EF02D0F2EFFE86F2EF1E07F2EF02D55
:102520000F2EF8E02F2EF1E03F2EF02D0F2EFCE2C3
:102530008F2EF1E09F2EF02D0F2EFCE34F2EF1E0B9
:102540005F2EF02D0E940F1F811194C4A8E2B1E00C
:102550008D919C910E949E22F70180839183A8E235
:10256000B1E0ED91FC911197BF016E5F7F4F6D93CC
:102570007C93082F0F70D6014C91142F12951F7069
:10258000807FB0E18B9F90011124211589E03807ED
:10259000F9F040F42115310571F02115A8E03A0752
:1025A000B9F019C02115BEE03B0781F021158FE07D
:1025B000380761F010C0842F807F803C09F419C176
:1025C000803D09F41BC1242F30E005C0242B03C03B
:1025D000842F8F70282B213099E0390709F443C2EA
:1025E00008F07BC02115B4E03B0709F45CC1A0F5FD
:1025F0002C3F310509F41EC1B8F4203E310509F421
:1026000002C148F4203C310509F4F3C0203D3105F6
:1026100009F032C4F3C02E3E310509F4F7C02B3F58
:10262000310509F404C128C42F3F310509F028F40D
:102630002E3F310508F4DBC085CF211592E0390724
:1026400009F409C12115A3E03A0709F41EC12115B7
:10265000314009F011C4F1C0233088E0380709F493
:102660007EC1E0F42115A7E03A0709F448C150F40F
:10267000211585E0380709F425C12115364009F4F4
:1026800038C1FAC32130A8E03A0709F44CC108F078
:1026900058C12115384009F43AC1EEC3263088E00C
:1026A000380709F499C150F42430A8E03A0709F436
:1026B00064C12530384009F47AC1DEC32E3088E089
:1026C000380709F4AAC1211599E0390709F4B3C103
:1026D0002730384009F0D0C38BC12E39BEE03B070C
:1026E00009F4DDC208F03FC02730F9E03F0709F4E4
:1026F00030C2D0F4243099E0390709F4FFC150F416
:102700002230B9E03B0709F4BDC12330394009F458
:10271000E6C1B2C32530F9E03F0709F4F7C126301E
:10272000394009F402C2A8C321159AE0390709F417
:1027300030C250F42830B9E03B0709F41CC22930FC
:10274000394009F41FC298C32115FCE03F0709F482
:1027500043C221158DE0380709F449C221153B40D9
:1027600009F08AC327C22932AFE03A0709F4EBC265
:10277000F8F42A30EFE03E0709F4BDC250F4213AE4
:102780008EE0380709F49EC227303F4009F4ABC2FF
:1027900073C32831AFE03A0709F4BDC22E31BFE060
:1027A0003B0709F4C2C225313F4009F065C3ABC203
:1027B0002535FFE03F0709F42FC350F420339FE095
:1027C000390709F4DAC223333F4009F4F4C254C391
:1027D0002537BFE03B0709F437C32538EFE03E0754
:1027E00009F43DC325363F4009F046C321C381E0CB
:1027F00044C3842F8F700E947527A4CE842F8F70BE
:102800000E949D279FCE0E9466279CCED401EC910A
:102810008FEF8E0F8C93F0E0EE0FFF1FE85DFE4F01
:1028200087A190A5E8E2F1E0918380838BCE0E949E
:10283000D02788CE0E94FA2785CEE02FF0E03E2FE9
:102840002227C901840F911D880F991FA8E2B1E0CA
:102850008D939C9377CEF40180818F5F808390E08D
:10286000880F991FFC01E85DFE4F70A767A3E02F5A
:10287000F0E03E2F2227C901840F911D880F991F78
:10288000A8E2B1E08D939C935DCEA02FB0E0A85D4F
:10289000BE4F15968C91481355CE3496A8E2B1E000
:1028A000ED93FC934FCEA02FB0E0A85DBE4F1596E0
:1028B0008C91481709F446CE3496A8E2B1E0ED9326
:1028C000FC9340CE602F70E0685D7E4FA12FB0E09A
:1028D0009D01285D3E4FDB0115969C91D90115960F
:1028E0008C9198132FCE3496A8E2B1E0ED93FC932F
:1028F00029CEE02FF0E0E85DFE4F458323CEE02FA8
:10290000F0E0E85DFE4F8581480F45831BCEA12F87
:10291000B0E0A85DBE4F15968C91E02FF0E0E85D29
:10292000FE4F85830FCEE02FF0E0E85DFE4FA12F34
:10293000B0E0A85DBE4F15969C918581892B85835B
:1029400001CEE02FF0E0E85DFE4FA12FB0E0A85DE2
:10295000BE4F15969C91858189238583F3CDE02F09
:10296000F0E0E85DFE4FA12FB0E0A85DBE4F1596E8
:102970009C91858189278583E5CDE02FF0E0E85D96
:10298000FE4F2581A12FB0E0A85DBE4F15968C911A
:10299000982F920F958390E0820F911D21E08F3F39
:1029A000910509F00CF420E0F2012083CBCDE02F5B
:1029B000F0E0E85DFE4F9581A12FB0E0A85DBE4F2D
:1029C00015968C91292F281B258321E0981708F450
:1029D00020E0D2012C93B6CDE02FF0E0E85DFE4F71
:1029E0008581982F969595838170F2018083AACD79
:1029F000A12FB0E0A85DBE4F15969C91E02FF0E0AE
:102A0000E85DFE4F8581292F281B258321E098173B
:102A100008F420E0D2012C9395CDE02FF0E0E85DA2
:102A2000FE4F8581982F990F9583881F8827881FCF
:102A3000F201808387CD602F70E0685D7E4FA12F0B
:102A4000B0E09D01285D3E4FDB0115969C91D901B8
:102A500015968C91981709F475CD3496A8E2B1E0DB
:102A6000ED93FC936FCDA12FB0E0A85DBE4FE02F9A
:102A7000F0E0E85DFE4F40E015966C9185810E9484
:102A8000D22460CD82E00E941E23A12FB0E0A85D79
:102A9000BE4FE02FF0E0E85DFE4F15966C9185810A
:102AA0000E94CF23F501808191819C012F5F3F4FD0
:102AB000318320830E947D22882309F443CD0E9424
:102AC0005B23D5018D919C9111979C012F5F3F4F06
:102AD0002D933C930E947D228111F1CF33CDA12F04
:102AE000B0E0A85DBE4FE02FF0E0E85DFE4F42E0B1
:102AF00015966C9185810E94172524CD812FB0E118
:102B00000B9F800D11240E94E7241CCDA12FB0E063
:102B1000A85DBE4FE02FF0E0E85DFE4F41E0159666
:102B20006C9185810E94D2240DCDF401A081AF5F0C
:102B3000A083B0E0AA0FBB1FA85DBE4FE02FF0E05E
:102B4000E85DFE4F858190E098969C938E939797D1
:102B5000F9CCF401A0818FEF8A0F8083E02FF0E0A1
:102B6000E85DFE4FB0E0AA0FBB1FA85DBE4F979671
:102B70008C918583E7CCE02FF0E0E85DFE4F20E804
:102B80002583E0CCE02FF0E0E85DFE4F80E5858313
:102B9000D9CCE02FF0E03E2F2227C901840F911DF0
:102BA000880F991FD5018D939C93F30180818160DB
:102BB0008083C8CC50912D01E02FF0E03E2F2227DA
:102BC000C901840F911D850F911D880F991FA8E2DF
:102BD000B1E08D939C93B6CC0E94A629E02FF0E043
:102BE000E85DFE4FD6019C9189238583ABCC4F7065
:102BF000498341111AC0A10160E270E0F5018081B2
:102C000091810E94C922812F90E0DC01A85DBE4F16
:102C1000E02FF0E0E85DFE4FA10115966C918581F3
:102C20000E944026D2018C938DCCF301808180FDDF
:102C300017C0D5012D913C91A12FB0E0A85DBE4FEA
:102C4000E02FF0E0CF01885D9E4F00E049811596AE
:102C50006C91FC0185810E947825D2018C9372CC05
:102C6000B9816B2F70E0A101F501808191810E94F3
:102C7000C922A12FB0E0A85DBE4FE02FF0E0CF0148
:102C8000885D9E4F01E09101498115966C91DC01B0
:102C900015968C910E947825F201808353CCE02F09
:102CA000F0E0E85DFE4F85810E94DF1E882309F475
:102CB00049CCA8E2B1E08D919C91119702968D9339
:102CC0009C9340CCE02FF0E0E85DFE4F85810E94B0
:102CD000DF1E811137CCE8E2F1E08081918102961C
:102CE000918380832FCC8091C502E02FF0E0E85DD6
:102CF000FE4F858327CC0E94E51EE02FF0E0E85DC3
:102D0000FE4F85831FCCE02FF0E0E85DFE4F85810C
:102D10008093C50217CCE02FF0E0E85DFE4F65819F
:102D20008BE092E00E94C0240DCCE02FF0E0E85D43
:102D3000FE4F2581D5018D919C911197820F911D98
:102D40008D939C93FFCBE02FF0E0E85DFE4F8581F3
:102D500090E09C01220F331F820F931F880F991F51
:102D6000875E954EF5019183808380E00E941E234B
:102D7000D3018C918E7F8C93E5CBE02FF0E0E85D62
:102D8000FE4F858190E09C01220F331F880F991F11
:102D9000880F991F880F991F820F931F8758964E8F
:102DA000F5019183808381E00E941E23D3018C91E1
:102DB0008E7F8C93C7CBE02FF0E0E85DFE4F9581CE
:102DC000BDEC9B9F812D1124869586958695282F95
:102DD000220F322F330F330F230F921BEAE0F1E063
:102DE00090838B9F912D1124969596959695292FDA
:102DF000220F322F330F330F230F821BA9E0B1E0D4
:102E00008C93F1019083A10163E070E0D5018D9175
:102E10009C910E94F42296CB602F70E06F5F7F4FF1
:102E20004DE251E0F501808191810E94F4228ACB2C
:102E3000602F70E06F5F7F4F4DE251E0D5018D91C3
:102E40009C910E94C9227ECB80E0E82FF0E0E85DF3
:102E5000FE4F9581958B8F5F0817B8F773CB80E095
:102E6000E82FF0E0E85DFE4F958995838F5F0817A6
:102E7000B8F768CB81E001C082E00F90DF91CF917D
:102E80001F910F91FF90EF90DF90CF90BF90AF9088
:102E90009F908F907F906F905F904F903F902F907A
:102EA0000895CF92DF92EF92FF920F931F93CF93EB
:102EB000DF9300D0CDB7DEB7009791F16230710596
:102EC00090F1DC01ED91FC911197AB0160E070E0B5
:102ED000440F551F661F771F1696CD90DD90ED901D
:102EE000FC901997CB01BA016C0D7D1D8E1D9F1DA5
:102EF0000190F081E02D22E030E0AE014F5F5F4FA6
:102F00000995882351F029813A81C90101978F3EA3
:102F10009F4F18F4822F932F08C080E090E005C0E7
:102F200080E090E002C080E090E00F900F90DF9191
:102F3000CF911F910F91FF90EF90DF90CF90089568
:102F4000AF92BF92DF92EF92FF920F931F93CF93B6
:102F5000DF937C01E901088119818A819B81809638
:102F60009B838A83D7018C91853E09F49AC088237C
:102F700009F499C01B968C918F3009F496C0980182
:102F80008BE2F80111928A95E9F7D80197964D9353
:102F90005D936D937C939A97F701D080F0E2DF16F2
:102FA00051F1F7013196B70181E090E0A0E0B0E087
:102FB0000AC0BF01D190AC014F5F5F4FB0E2DB169A
:102FC000D9F0DC01CA015D01A20EB31ED501DC926D
:102FD000D7011C964C9143FF09C0DB014C91415431
:102FE0004A3120F440E24D0DD5014C93A82F883092
:102FF0009105F9F601C0A0E0F8018081853011F457
:1030000085EE8083F7018085803259F141E04A0FD7
:103010008EE2F801EA0FF11D8083C7010896F701DF
:1030200050855032F9F0399674E07A0F04C0CF0120
:1030300051915032B9F05901A40EB11CD5015C93E5
:10304000D7011C966C9164FF08C0DC018C918154FF
:103050008A3118F4505ED5015C934F5F4713E7CF78
:1030600001C04A2FF801E40FF11D1082F70183859A
:10307000D80190968C93C7014A960E94B80EF80129
:1030800092A381A3C7014C960E94C00ED8019396CB
:103090006D937D938D939C93969781E08C8380E0D4
:1030A00005C081E003C081E001C081E0DF91CF91E4
:1030B0001F910F91FF90EF90DF90BF90AF90089518
:1030C0002F923F924F925F926F927F928F929F9238
:1030D000AF92BF92CF92DF92EF92FF920F931F9326
:1030E000CF93DF93CDB7DEB7A8970FB6F894DEBFC6
:1030F0000FBECDBF8C01009709F438C180918902C1
:1031000090918A02892B09F434C180E090E061C17A
:10311000CE0101960E94B80E1C01CE0104960E94B9
:10312000B80E9B8F8A8F2B812EA33E813E8FCE01BE
:1031300007960E94B80E98A78FA3CE0109960E9409
:10314000B80E2C01CE010C960E94B80E3C01CE01A7
:1031500046960E94C00E6B017C01611571058105C8
:10316000910539F44114510409F42DC16201E12C97
:10317000F12C6114710409F426C1AA8DBB8DCD0117
:10318000A0E0B0E08A8F9B8FAC8FBD8F9301EE8D56
:10319000AE2FB0E00E943E296E8F7F8F88A399A347
:1031A000260137012A8D3B8D4C8D5D8D421A530AC5
:1031B000640A750A461A570A680A790A8FA198A5FF
:1031C000880F991F82959295907F9827807F9827E6
:1031D000910121503109820F931FB1010E94E9280A
:1031E000A3019201261B370B41095109CA01B901FC
:1031F0003EA1432E512C612C712CA30192010E94FF
:10320000FD2829013A0145EF44164FE054066104B8
:10321000710408F4D8C055EF45165FEF55066104F8
:10322000710428F486E0D80118968C9303C08BE0D3
:10323000F8018087EBE8F2E088E1DF011D928A95D2
:10324000E9F7910140E050E02AA33BA34CA35DA322
:10325000A70196016AA17BA18CA19DA10E94D928FA
:1032600060837183828393832AA13BA14CA15DA1DA
:103270006A8D7B8D8C8D9D8D0E94D9286B017C0180
:10328000C80CD91CEA1CFB1CC0928F02D092900281
:10329000E0929102F0929202C301B2016E5F7F4F01
:1032A0008F4F9F4FD80118962C91263029F422E099
:1032B00030E040E050E004C024E030E040E050E086
:1032C0000E94D92860939302709394028093950290
:1032D000909396023092980220929702BEA1B29DDE
:1032E000C001B39D900D112490939A02809399028E
:1032F0002E8D3F8D48A159A16AA17BA18CA19DA1D2
:103300000E94D928C60ED71EE81EF91EC0929F0241
:10331000D092A002E092A102F092A202EFA1F8A541
:10332000CF01A0E0B0E0880F991FAA1FBB1F880F34
:10333000991FAA1FBB1F880F991FAA1FBB1F880FA9
:10334000991FAA1FBB1F880F991FAA1FBB1FC80E5A
:10335000D91EEA1EFB1EC0929B02D0929C02E092F4
:103360009D02F0929E0289E892E033C080E090E0F6
:1033700030C0E9E8F2E08CE1DF011D928A95E9F7BF
:1033800011830083F801C184D284E384F48446016C
:103390005701072E79E0880C991CAA1CBB1C7A9552
:1033A000D1F7702DC501B401655F7F4F8F4F9F4FDF
:1033B0000190F081E02D29E130E0AE014F5F5F4FD9
:1033C00009958111A5CE10928A021092890280E09F
:1033D00090E0A8960FB6F894DEBF0FBECDBFDF9188
:1033E000CF911F910F91FF90EF90DF90CF90BF9002
:1033F000AF909F908F907F906F905F904F903F9095
:103400002F900895009719F0FC0111821082089501
:10341000CF93DF930097B1F061157105B1F0FB0117
:1034200020A124FD15C02091230230912402232BDA
:1034300091F02091560230915702232B79F080E0D1
:1034400090E023C080E090E020C080E090E01DC0CC
:1034500080E090E01AC0C3E2D2E002C0C6E5D2E04C
:10346000DE0112962BE2FB0101900D922A95E1F705
:10347000998388831DA61EA61FA618AAFB0181A1F9
:1034800092A19AAB89AB8C2F9D2FDF91CF9108959C
:10349000009719F0FC011182108208952F923F923B
:1034A0004F925F926F927F928F929F92AF92BF9254
:1034B000CF92DF92EF92FF920F931F93CF93DF9300
:1034C000CDB7DEB728970FB6F894DEBF0FBECDBFDD
:1034D00098878F831B015E834D83009709F4F6C0A4
:1034E0006115710509F4F5C0452B09F4F5C0DC013F
:1034F0009D96CD90DD90ED90FC90D097FC0185A13C
:1035000096A1A7A1B0A5B701A6012D813E81420FCA
:10351000531F611D711D84179507A607B70740F457
:10352000FC01EC19FD09FE83ED83EF2B09F4D7C0F4
:10353000AF81B885ED91FC91119760887188D19623
:103540000D911C91D29701151105E9F593960D91F6
:103550001C9194970115110561F481E090E0CD284C
:10356000CE28CF2811F480E090E0919581959109C3
:10357000BBC0C114D104E104F10429F14601570193
:10358000C301A0E0B0E089839A83AB83BC83C80108
:10359000830149805A806B807C800EC08418950816
:1035A000A608B708BC01EF81F885808191810E944F
:1035B0005117009709F496C084149504A604B70423
:1035C00068F738018C01C3010197C822D922AD8068
:1035D000BE80912C812C512C412CAF81B885ED916E
:1035E000FC913097A9F002301105B8F0A089B1899B
:1035F0009801225031090E943E2922893389448949
:103600005589DC01CB01820F931FA41FB51F09C090
:10361000892D982DA0E0B0E004C0892D982DA0E060
:10362000B0E07301EC18FD08AE14BF0408F4750196
:103630000190F081E02DBC01CD016C0D7D1D811D3F
:10364000911D0190F081E02D9701A1010995811153
:1036500005C08D819E818A199B0946C02E0C3F1C96
:10366000AE18BF08EF81F88585A596A5A7A5B0A9D6
:103670008E0D9F1DA11DB11D85A796A7A7A7B0AB55
:10368000EC0CFD1CE614F704B0F0B80180819181C8
:103690000E9451178C01009761F42F813885D90160
:1036A000D2961C921E92D1978D819E818A199B0978
:1036B0001BC0C52CD42CEF81F88512AB01ABA11433
:1036C000B10409F08ACF8D819E810EC08FEF9FEFEC
:1036D0000BC08FEF9FEF08C08FEF9FEF05C080E01A
:1036E00090E002C08FEF9FEF28960FB6F894DEBFF0
:1036F0000FBECDBFDF91CF911F910F91FF90EF9043
:10370000DF90CF90BF90AF909F908F907F906F9001
:103710005F904F903F902F900895CF93DF93009745
:10372000E9F061157105E9F0FB0120A124FF1CC03F
:103730002091900130919101232BE1F02091C10162
:103740003091C201232B39F0C2EFD1E028813981B9
:10375000232B69F411C0C1ECD1E00EC080E090E0F1
:103760001EC080E090E01BC080E090E018C080E0C8
:1037700090E015C0C0E9D1E0DE0112962BE2FB011A
:1037800001900D922A95E1F799838883FB0181A12D
:1037900092A19EA78DA718AA1FA68C2F9D2FDF91FF
:1037A000CF910895009719F0FC01118210820895BD
:1037B000FC01009741F083A194A196A785A710AAC8
:1037C00017A681E0089580E008952F923F924F92CE
:1037D0005F926F927F928F929F92AF92BF92CF92A1
:1037E000DF92EF92FF920F931F93CF93DF93CDB7AA
:1037F000DEB7AB970FB6F894DEBF0FBECDBF9FA369
:103800008EA3009709F4C5C06115710509F4C3C002
:10381000DC016D907C901197F301808891889D96D2
:103820002D903C909E979F96AD90BC90D097A814F9
:10383000B90420F00E94D81B80E0B0C0FE01319690
:1038400085E0DF011D928A95E9F78BE2FB01119279
:103850008A95E9F77A8369832114310409F07EC0DF
:10386000D30152968D909C90539756968D919C9132
:103870005797881A990A72C084010A191B096501B1
:10388000E12CF12C2114310461F4F301868997892C
:10389000A08DB18DBC01CD016C0D7D1D8E1D9F1DB8
:1038A0002AC061147104C1F0F2E02F163104C8F08F
:1038B000F301A089B18928A539A54AA55BA50E9475
:1038C0004D292289338944895589DC01CB01820F36
:1038D000931FA41FB51F09C080E090E0A0E0B0E0F6
:1038E00004C080E090E0A0E0B0E0BC01CD016C0D30
:1038F0007D1D8E1D9F1D1C821B82D301ED91FC91AD
:103900000280F381E02D9E012F5F3F4F69010F2E52
:10391000F0EAEF2EF7E1FF2EF02D20E230E0AE01CD
:103920004A5F5F4F09958823C1F18B819C81A80E66
:10393000B91EA814B904E8F0B101C3010E945117DF
:103940001C01009749F48D81811117C08EA19FA1A0
:103950000E94D81B80E022C0A12CB12C210132E0B2
:10396000431A5108C201A0E0B0E088A799A7AAA70E
:10397000BBA78D81882309F47FCFAEA1BFA19E96FE
:103980003C922E929D97D096BC92AE929F978D813D
:1039900005C080E003C080E001C080E0AB960FB6B8
:1039A000F894DEBF0FBECDBFDF91CF911F910F9175
:1039B000FF90EF90DF90CF90BF90AF909F908F904F
:1039C0007F906F905F904F903F902F9008954F920F
:1039D0005F926F927F928F929F92AF92BF92CF929F
:1039E000DF92EF92FF920F931F93CF93DF935C01CF
:1039F0006B01EA01009709F474C06115710509F4BF
:103A000072C0FB018081882309F46FC0209709F4FC
:103A10006EC08F3219F4FFEFCF1ADF0A8BE2FE017E
:103A200011928A95E9F780E188A3F60180818823C5
:103A300009F45FC0412C512CBE01C5010E948D1BB1
:103A40008C01009709F457C06FE270E0C6010E9434
:103A5000CF29009741F0E82EEC184C01FFEF8F1AA8
:103A60009F0AF12C2CC0F60101900020E9F7319754
:103A7000EC19FD09EE2E46018E0E911CF2CFFE01CF
:103A800001900020E9F731973F016C1A7D0A6E140E
:103A90007F04A9F4A301BE01C6010E94EA29892B73
:103AA00071F4C8010E94D21BF601E60DF71D80815A
:103AB000882319F188A184FD09C080E021C0BE01DE
:103AC000C8010E94E51B8111DACF03C06401042DF7
:103AD000152DC8010E94D21BF60180818111ACCF47
:103AE0000EC080E00DC080E00BC080E009C080E027
:103AF00007C081E005C080E003C081E001C081E033
:103B0000DF91CF911F910F91FF90EF90DF90CF90B9
:103B1000BF90AF909F908F907F906F905F904F90ED
:103B20000895CF93DF93EC010E94662782E00E9404
:103B30001E23CE010E94E3230E94FB1EDF91CF9142
:103B400008950F93189940C000E020E030E040E075
:103B500050E069E171E28EE990E20E94291F9093A2
:103B6000A6028093A502892BB9F40FEF20E030E084
:103B700040E050E069E171E28EE990E20E94291F85
:103B80009093A6028093A502892B31F484E190E101
:103B90000E94911D80E01BC08091A5029091A60219
:103BA0000E9460189093AC028093AB02892B71F451
:103BB0008EEF9FE00E94911D8091A5029091A60238
:103BC0000E94C71F80E003C080E001C081E00F9128
:103BD00008958091A7029091A8020E94481A8091AE
:103BE000A9029091AA020E94D21B8091AB029091EF
:103BF000AC020E94021A8091A5029091A6020E9436
:103C0000C71F0895CF93DF93CDB7DEB7AB970FB63D
:103C1000F894DEBF0FBECDBFAE014F5F5F4FBC015A
:103C20008091AB029091AC020E94E71CBE016F5FD5
:103C30007F4F8091AB029091AC020E948D1B9093BC
:103C4000AA028093A902892B41F489EE9FE00E9489
:103C5000911D0E94E91D80E001C081E0AB960FB686
:103C6000F894DEBF0FBECDBFDF91CF9108950F93C3
:103C70001F93CF93DF93CDB7DEB7AB970FB6F89412
:103C8000DEBF0FBECDBF8C011EC0B801CE010196B4
:103C90000E94DA29892BB9F48091A9029091AA0295
:103CA0000E94D81BBE016F5F7F4F8091AB02909145
:103CB000AC020E94081A9093A8028093A702892B55
:103CC00071F081E011C0BE016F5F7F4F8091A9024A
:103CD0009091AA020E94E51B8111D7CF05C084ED07
:103CE0009FE00E94911D80E0AB960FB6F894DEBF76
:103CF0000FBECDBFDF91CF911F910F91089580919D
:103D0000A7029091A8020E94481A0895EF92FF928C
:103D10000F931F93CF93DF93CDB7DEB7DA950FB62E
:103D2000F894DEBF0FBECDBFAE014F5F5F4F60E2C4
:103D300070E0880F991F82959295907F9827807FD9
:103D400098270E94C922CE0101960E94371E88231F
:103D5000F1F0E12CF12C09C0AE014F5F5F4FB801CB
:103D6000C7010E94F422E00EF11E40E051E0BE01C6
:103D70006F5F7F4F8091A7029091A8020E944E1A18
:103D80008C011816190644F30E947F1E02C0E12C14
:103D9000F12C8E2DD3950FB6F894DEBF0FBECDBF9C
:103DA000DF91CF911F910F91FF90EF900895BC018B
:103DB0008091A9029091AA020E94E51B089596B1F4
:103DC000982381E009F080E0089586B18E738E33E8
:103DD000E1F386B180958E73089586B18E738E332C
:103DE00049F062E084EF91E00E94C02486B18E73B6
:103DF0008E33B9F708958BE290E10E94E323359961
:103E0000FECF86B18E738E3349F062E084EF91E08D
:103E10000E94C02486B18E738E33B9F7089586B19F
:103E2000867019F086B1887171F486B18E738E3305
:103E300061F062E084EF91E00E94C02486B18E734D
:103E40008E33B9F704C080E0089581E0089581E0E1
:103E500008958F929F92AF92BF92CF92DF92EF928E
:103E6000FF920F93CF93DF93CDB7DEB760970FB676
:103E7000F894DEBF0FBECDBF7C016B014A01590132
:103E8000009709F44AC06115710509F449C004306E
:103E90000CF049C00023B4F080E10802B001112405
:103EA00062547E4F882777FD8095982F20E130E07F
:103EB000AE014F5F5F4FF70109958823B9F18D81FE
:103EC0008823B9F18091B5028823B1F180E090E0B8
:103ED0004CC08D818093B502CE0109960E94C00E20
:103EE0006093B6027093B7028093B8029093B902C0
:103EF000CE010D960E94C00E6093BA027093BB0271
:103F00008093BC029093BD028DEA92E02EC08FEFA9
:103F10008093B5028DEA92E028C080E090E025C051
:103F200080E090E022C080E090E01FC080E090E060
:103F30001CC080E090E019C0EDEAF2E081E1DF0111
:103F40001D928A95E9F7F182E082D092B002C09288
:103F5000AF029092B2028092B102B092B402A092EB
:103F6000B30200230CF0B5CFD2CF60960FB6F89411
:103F7000DEBF0FBECDBFDF91CF910F91FF90EF90CD
:103F8000DF90CF90BF90AF909F908F900895009753
:103F900021F0FC01108681E0089580E008958EBD37
:103FA0000DB407FEFDCF8DB58F778DBD08958FEFD2
:103FB0008EBD0DB407FEFDCF8DB58F778DBD8EB54F
:103FC0000895FF920F931F93CF93DF93C82FD42FA1
:103FD000152F062FF72E0E94D71F8C2F80640E946A
:103FE000CF1F8F2D0E94CF1F802F0E94CF1F812FA8
:103FF0000E94CF1F8D2F0E94CF1FCC2319F0C830F5
:1040000029F008C085E90E94CF1F0FC087E80E94F1
:10401000CF1F0BC08FEF0E94CF1F07C00E94D71F7A
:104020008F3F29F4C150D1F702C0CAE0F7CFDF912A
:10403000CF911F910F91FF90089583B1809581706A
:1040400008950F931F93CF93DF932098289A239A74
:10405000259A219A2498299A83E58CBD8DB58E7F67
:104060008DBD1092BE020E941D20882309F45FC0FE
:104070001AE00E94D71F1150E1F72998C0E0D2E062
:1040800040E050E0BA0180E00E94E11F813029F059
:1040900021972097A9F7299A4BC040E050E0BA0138
:1040A00087E30E94E11F40E050E0BA0189E20E94EC
:1040B000E11F82FD05C08091BE0281608093BE0237
:1040C000C0E0D0E88091BE02837069F040E050E02B
:1040D000BA0187E30E94E11F40E050E0BA0189E2A3
:1040E0000E94E11F06C040E050E0BA0181E00E945A
:1040F000E11F082F017080FF05C02197209711F75D
:10410000299A16C040E052E060E070E080E10E9431
:10411000E11F882319F0299A102F0AC0299A8CB51B
:104120008C7F8CBD8DB581608DBD11E001C010E02C
:10413000812FDF91CF911F910F9108952F923F9280
:104140004F925F926F927F928F929F92AF92BF92A7
:10415000CF92DF92EF92FF920F931F93CF93DF9353
:104160002B013C017A0159012115310509F44BC09D
:10417000212C6894332431F8820111704101801A96
:10418000910AA814B90408F445012998B301A201C1
:10419000401B510B6109710981E10E94E11F8823D5
:1041A00019F0299A80E032C00E94D71F8E3FE1F7B4
:1041B0006401C00ED11E80E0C82F90E0D92F0E946C
:1041C000D71FC017D10740F0CC15DD0528F4F70143
:1041D0008083C70101967C012196C11592E0D90721
:1041E00071F70E94D71F0E94D71F299A0E94D71FDC
:1041F000A818B908480C591C611C711CA114B10401
:1042000009F0BACF02C081E001C081E0DF91CF9117
:104210001F910F91FF90EF90DF90CF90BF90AF90E4
:104220009F908F907F906F905F904F903F902F90D6
:1042300008952F923F924F925F926F927F928F924A
:104240009F92AF92BF92CF92DF92EF92FF920F9325
:104250001F93CF93DF93CDB7DEB72A970FB6F894AD
:10426000DEBF0FBECDBF4B015C0119012801FC82EE
:10427000EB82DE82CD824115510509F4ADC02115D6
:10428000310509F4ABC00217130708F4A9C0EF28E1
:1042900009F4A8C029986901C40ED51E642E752E94
:1042A0008401117080E092E0801B910B9A838983D6
:1042B000D501C401801B910BA109B1098F83988797
:1042C000A987BA87AC01BD0181E10E94E11F882363
:1042D00019F0299A80E093C00E94D71F8E3FE1F722
:1042E0000115110551F0E12CF12C0E94D71F9FEF11
:1042F000E91AF90AE016F106C1F7A981BA81A215F7
:10430000B30590F04214530488F07D010AC0E21412
:10431000F30408F469C0020D131D4214530408F499
:1043200066C069827A8211C0F12C06C0F12C04C0EB
:10433000FA82E982FF24F39409811A81015011095C
:1043400089819A81892B41F530C00E94D71FA981AC
:10435000BA818D93BA83A983AC15BD05B1F72D81C0
:104360003E81B501A401400F511F611D711D862DB5
:10437000972DEB81FC8109958823D1F2E218F3088F
:1043800042185308E114F10479F04114510409F082
:10439000BECFFA82E9822DC00E94D71FC8010197C3
:1043A000012B19F08C01F8CFF12C0E94D71F0E942D
:1043B000D71F4214530458F08F809884A984BA847C
:1043C000F2E09F0EA11CB11CFF2009F469CF299ACD
:1043D0000E94D71F81E013C080E011C080E00FC0B1
:1043E00080E00DC080E00BC0FA82E98202C0FA8250
:1043F000E98209811A8101501109F12CCDCF2A9649
:104400000FB6F894DEBF0FBECDBFDF91CF911F91E5
:104410000F91FF90EF90DF90CF90BF90AF909F9063
:104420008F907F906F905F904F903F902F90089566
:1044300040989DB591609DBD91E09EBD0DB407FE75
:10444000FDCF9DB591609DBD8EBD0DB407FEFDCF26
:10445000409A089540988DB581608DBD82E08EBDF3
:104460000DB407FEFDCF8DB581608DBD1EBC0DB4B2
:1044700007FEFDCF8DB581608DBD1EBC0DB407FE5E
:10448000FDCF80E090E0A1E0B0E02DB521602DBD32
:104490001EBC0DB407FEFDCF0197A109B10900971D
:1044A000A105B10591F7409A0895389A409A80E4A1
:1044B0000E9418220E942A22089540982DB521605A
:1044C0002DBD22E02EBD0DB407FEFDCF2DB5216020
:1044D0002DBD9EBD0DB407FEFDCF9DB591609DBD68
:1044E0008EBD0DB407FEFDCF8DB581608DBD6EBD57
:1044F0000DB407FEFDCF409A089540982DB5216078
:104500002DBD23E02EBD0DB407FEFDCF2DB52160DE
:104510002DBD9EBD0DB407FEFDCF9DB591609DBD27
:104520008EBD0DB407FEFDCF8DB581608DBD1EBC67
:104530000DB407FEFDCF409A8EB5089540982DB575
:1045400021602DBD23E02EBD0DB407FEFDCF2DB59E
:1045500021602DBD9EBD0DB407FEFDCF9DB59160C0
:104560009DBD8EBD0DB407FEFDCF8DB581608DBDA7
:104570001EBC0DB407FEFDCF8EB590E02DB52160B9
:104580002DBD1EBC0DB407FEFDCF2EB5409A922B5B
:10459000089540982DB521602DBD23E02EBD0DB4AA
:1045A00007FEFDCF2DB521602DBD9EBD0DB407FECC
:1045B000FDCF9DB591609DBD8EBD0DB407FEFDCFB5
:1045C0006115710579F0FA01460F571F8DB58160AD
:1045D0008DBD1EBC0DB407FEFDCF8EB58193E417D3
:1045E000F507A1F7409A089540982DB521602DBD9B
:1045F00022E02EBD0DB407FEFDCF2DB521602DBDEF
:104600009EBD0DB407FEFDCF9DB591609DBD8EBDD5
:104610000DB407FEFDCF6115710571F0FA01460F6B
:10462000571F81919DB591609DBD8EBD0DB407FE54
:10463000FDCFE417F507A9F7409A08958093040188
:1046400008951092C002809104018130A1F018F009
:10465000823009F108952091BF02822F90E00696E2
:104660008C34910524F42A5F2093BF02089586E0DC
:104670000E949D2708952091BF02822F90E00A9604
:104680008834910524F4265F2093BF0208958AE0C0
:104690000E949D2708952091BF02822F90E00896E6
:1046A0008A34910524F4285F2093BF02089588E09E
:1046B0000E949D2708950F9390910401913031F14C
:1046C00020F0923009F445C068C0803108F065C020
:1046D00090E09C01220F331F820F931F9C01220F39
:1046E000331F275E354E00E046E06091BF028091A7
:1046F000C0020E9478258091C0028C5F8093C00226
:104700008E3708F44AC00E94212347C0803108F048
:1047100044C090E09C01220F331F880F991F880F1F
:10472000991F880F991F280F391F2758364E00E010
:104730004AE06091BF028091C0020E94782580917A
:10474000C002885F8093C0028A3738F10E9421231B
:1047500024C08A3019F40E9421231FC090EE980FC4
:104760009536D8F4282F30E0220F331F220F331F45
:10477000220F331F2F5A3A4E00E048E06091BF02EB
:104780008091C0020E9478258091C0028A5F809348
:10479000C0028C3710F00E9421230F91089580935E
:1047A000C0026093BF020895CF93DF93EC0188812C
:1047B000882331F021960E945B2389918111FBCFE0
:1047C000DF91CF910895CF93DF93EC012196FC0107
:1047D0008491882339F00E945B23FE018491219605
:1047E0008111F9CFDF91CF9108950F931F93CF934C
:1047F000DF9300D000D0CDB7DEB7062F13E0282F0F
:104800002F702A3048F4E1E0F0E0EC0FFD1FE10FDB
:10481000F11D205D208308C0E1E0F0E0EC0FFD1FFA
:10482000E10FF11D295C2083929582958F70892775
:104830009F70892711500150009709F780E20E946C
:104840005B23002381F0812F801B20E39FEF910FDA
:10485000E1E0F0E0EC0FFD1FE10FF11D2083981760
:1048600019F0192FF3CF812F8F5F843078F411E086
:10487000180FE1E0F0E0EC0FFD1FE80FF11D808163
:104880000E945B23143011F0812FF1CF0F900F9015
:104890000F900F90DF91CF911F910F910895DF92AC
:1048A000EF92FF920F931F93CF93DF938C01F62E1D
:1048B0000E94662782E080930401E8012196F801B6
:1048C0000491002309F44CC06894EE24E5F8689440
:1048D000DD24D3F81092C002E092BF02002309F455
:1048E0003DC00A3009F43AC0802F0E945B23219614
:1048F000FE01319704910E940F1F81112CC00023EB
:1049000069F10A3089F72AC0F092C5028091C50288
:104910008111FCCF81E00E949D270E940F1F811111
:104920001AC0115089F79E012F5F3F4FFE0104917D
:104930000023B1F0E901CECFF092C5028091C5020B
:104940008111FCCF81E00E949D270E940F1F8111E1
:1049500002C0C15089F70E94662704C01D2DD4CF24
:10496000C0E2EACFDF91CF911F910F91FF90EF90BE
:10497000DF900895569A83E085BD82E484BD089552
:10498000CF93C62F9C0140E050E068E478EE81E0D0
:1049900090E00E941F29215027BD569AC093C4025F
:1049A000CF910895CF93C42F8F70E82FF0E0EE0FD2
:1049B000FF1FE758F54E859194910E94C024CC23A7
:1049C00021F08091C4028111FCCFCF91089514BCD5
:1049D000569A8093C40207C00E94A62980FF02C095
:1049E0005E9A01C05E988091C4028111F5CF5698FD
:1049F00082E484BD0895229A82EC8093C20087EFFE
:104A000093E0909389008093880083E693E09093ED
:104A10008B0080938A0083E38093800089E18093F8
:104A20008100EFE6F0E08081846080830895882330
:104A30000CF45DC0603508F05AC0E82F882314F4E8
:104A4000E7E0E80FE595E595E59587781CF481505A
:104A5000886F8F5F97E0981B4130D9F018F0423093
:104A600081F10895FF27E7FDF09540E16402E00D34
:104A7000F11D1124EA53FD4F21E030E0A90102C0ED
:104A8000440F551F9A95E2F7CA019081892B8083C4
:104A90000895FF27E7FDF09550E16502E00DF11D57
:104AA0001124EA53FD4F21E030E0A90102C0440F78
:104AB000551F9A95E2F7CA018095908189238083DA
:104AC0000895FF27E7FDF09550E16502E00DF11D27
:104AD0001124EA53FD4F21E030E0A90102C0440F48
:104AE000551F9A95E2F7CA0190818927808308951E
:104AF0009F92AF92BF92CF92DF92EF92FF920F936D
:104B00001F93CF93DF93893F0CF4A7C09EE0960FCD
:104B10009E3508F0A4C08823C4F5819550E0141692
:104B200015060CF09EC070E090E0A62F603518F5D9
:104B3000013039F4F901E90FF11D97FDFA95C081B3
:104B400006C0F901E90FF11D97FDFA95C491E0E166
:104B5000AE02D0011124AA53BD4F1C91D0E0FE013A
:104B6000082E02C0EE0FFF1F0A94E2F7F12FFE237A
:104B70007F2BE127EC939F5F6F5FE92FFF27E7FD16
:104B8000F095E417F5078CF263C0F82FF770AF2E9D
:104B90009F2F91959770B92E85958595859550E0B5
:104BA000141615060CF05FC070E010E0E82EFF242C
:104BB000E7FCF09467018FEFC81AD80A862F60359A
:104BC00008F03CC0013039F4F901E10FF11D17FD87
:104BD000FA95C08106C0F901E10FF11D17FDFA95A4
:104BE000C491F701A0E18A02E00DF11D1124CF016B
:104BF000DF01AA53BD4F9C90D0E0FE010A2C02C0F9
:104C0000F595E7950A94E2F7F92DFE237F2BE92528
:104C1000EC93BB2099F0E0E1CE16D1047CF4FC01CA
:104C2000E953FD4F80810B2C02C0CC0FDD1F0A948D
:104C3000E2F79C2F9823792BC827C0831F5F6F5FF3
:104C4000E12FFF27E7FDF095E417F5070CF4B6CF49
:104C500081E0711109C080E007C080E005C080E0FC
:104C600003C080E001C080E0DF91CF911F910F91E0
:104C7000FF90EF90DF90CF90BF90AF909F900895FE
:104C80006F927F928F929F92AF92BF92CF92DF925C
:104C9000EF92FF920F931F93CF93DF93813F0CF41A
:104CA000EFC09FE0960F9F3508F0ECC0893F1CF5E0
:104CB00078EF781BFA01319640E1912C6035A8F429
:104CC00020E16202D0011124AA53BD4F5C912081E2
:104CD00030E0C901072E02C0880F991F0A94E2F73D
:104CE000952F9823992A85278C9341506F5F329690
:104CF0004111E4CFC0C088230CF048C0F82EF194D5
:104D00006894EE24E3F8E80EFA01319670E1912CF4
:104D10006035B0F5C0E16C02C0011124DC01AA537A
:104D2000BD4FDC90EF012197288130E0E9010F2C85
:104D300002C0CC0FDD1F0A94E2F7DC2FDD25DC93E7
:104D4000008110E0A8010E2C02C0559547950A94E9
:104D5000E2F72D2F24272C93DC01A953BD4F9C9102
:104D600098010F2C02C0220F331F0A94E2F7CD21C5
:104D7000892F8223C82B9C2A4D23942A29272C93E0
:104D800071506F5F32967111C3CF75C0D82FD77035
:104D9000BD2E9D2F91959770A92E8595859585950A
:104DA0004F5F5F4F70E1912CE82EFF24E7FCF094F9
:104DB00067012FEFC21AD20A370182E0680E711C18
:104DC000603508F052C0D70190E16902A00DB11D15
:104DD0001124FD01EA53FD4F8080EA01219788816B
:104DE00090E09C010B2C02C0359527950A94E2F7C0
:104DF000382D3223932A28252083C0E1CC16D104F4
:104E0000A4F5AA2009F440C0FD01E953FD4F20811B
:104E10000A2C02C0880F991F0A94E2F7922F982358
:104E2000992A82278083EA019881C92FD0E09E01C8
:104E30000B2C02C0359527950A94E2F7982F922300
:104E4000992A8227808320E16216710474F4A853A2
:104E5000BD4F8C910A2C02C0CC0FDD1F0A94E2F7E3
:104E60009C2F9823992AC827CC9371506F5F4E5F6F
:104E70005F4F7111A5CF81E0911019C080E017C07C
:104E800080E015C080E013C0A953BD4FEC91EA014A
:104E9000288130E0C9010B2C02C0959587950A94B2
:104EA000E2F79E2F9823992A8E278C93DECFDF91ED
:104EB000CF911F910F91FF90EF90DF90CF90BF9017
:104EC000AF909F908F907F906F90089580E095E0D5
:104ED000E6ECF2E0DF019C011D9221503040E1F749
:104EE00060E080E00E94CF230895CF93DF93882372
:104EF00009F18F7190E0EC01C295D295D07FDC274B
:104F0000C07FDC2740E550E0481B590B4295529585
:104F1000507F5427407F542766EC72E0CE018A53BD
:104F20009D4F0E94B629AE0160E070E086EC92E0F1
:104F30000E94C829DF91CF9108950F931F93CF93BB
:104F4000DF93882341F18F71082F10E0E801C295AB
:104F5000D295D07FDC27C07FDC2740E550E0401BA6
:104F6000510B42955295507F5427407F5427BE01E4
:104F70006A537D4F86EC92E00E94B62920EF200311
:104F8000C001219F900D1124AE0160E070E08A53B2
:104F9000984F0E94C829DF91CF911F910F910895DA
:104FA0001F93CF93DF93C6ECD2E066EC77E0AE01BF
:104FB000405F5F4F9E012F5F3F4FDE011F96FA015A
:104FC0008E9110E1819FC0011124929192959F7062
:104FD000892B8083E217F30799F7888182958F7078
:104FE00088836417750711F0EA01E1CFDF91CF9153
:104FF0001F910895CF93DF9325ED32E045ED57E003
:10500000F9013F97E901D9011E976D9162956F7083
:10501000808170E1879FC0011124862B8193EC175A
:10502000FD0799F788818295807F8883205F3F4FB5
:105030002417350729F7DF91CF91089546EC52E008
:1050400060E075E080E090E80E94F422089546EC6C
:1050500052E060E075E080E090E80E94C922089587
:105060001F920F920FB60F9211242F938F939F933D
:10507000AF93BF93CF93DF93EF93FF938091C202DF
:105080009091C30201969093C3028093C2028091D3
:10509000C2029091C3028330910561F130F48130F6
:1050A000910569F00297B1F03EC0813D910569F12B
:1050B000863021E0920761F1C297A9F522C0809164
:1050C000C502882309F467C08091C502815080938E
:1050D000C50261C08091C402882309F45CC080913C
:1050E000C40281508093C4028091C402811153C0D4
:1050F000569851C08AE490E090938B0080938A0088
:105100004AC081E08093C10246C01092C10243C0F0
:105110001092C3021092C20283E693E090938B0038
:1051200080938A0038C08091C1028823A1F1A091A8
:10513000C202B091C302E4ECF0E01182108288E078
:105140008093C10082E090E0918380831092C6003A
:10515000D297B695A795A295B295B07FBA27A07FB2
:10516000BA27AA53BD4FCD014096E0ECF0E0C6EC63
:10517000D0E0208125FFFDCF2D912883A817B90706
:10518000C1F7E0ECF0E0808186FFFDCFE1ECF0E0DC
:105190008081877F8083FF91EF91DF91CF91BF91D5
:1051A000AF919F918F912F910F900FBE0F901F90F5
:1051B0001895DB018F939F930E944D29BF91AF916A
:1051C000A29F800D911DA39F900DB29F900D112461
:1051D0000895AA1BBB1B51E107C0AA1FBB1FA6173E
:1051E000B70710F0A61BB70B881F991F5A95A9F790
:1051F00080959095BC01CD010895A1E21A2EAA1BBD
:10520000BB1BFD010DC0AA1FBB1FEE1FFF1FA21776
:10521000B307E407F50720F0A21BB30BE40BF50B73
:10522000661F771F881F991F1A9469F760957095FC
:10523000809590959B01AC01BD01CF010895052E8D
:1052400097FB1EF400940E94362957FD07D00E9458
:10525000FD2807FC03D04EF40C9436295095409558
:10526000309521953F4F4F4F5F4F08959095809512
:10527000709561957F4F8F4F9F4F0895A29FB0010A
:10528000B39FC001A39F700D811D1124911DB29F7A
:10529000700D811D1124911D08950E943E29A59F26
:1052A000900DB49F900DA49F800D911D1124089521
:1052B0008F929F92AF92BF92CF92DF92EF92FF9226
:1052C000CF93DF93EC01688179818A819B8161159D
:1052D00071058105910521F464E279ED8BE597E094
:1052E0002DE133EF41E050E00E941F2949015A01AE
:1052F0009B01AC01A7EAB1E40E944D296B017C013E
:10530000ACEEB4EFA50194010E94042AC60ED71E8C
:10531000E81EF91EF7FE06C081E0C81AD108E108B0
:1053200080E8F80AC882D982EA82FB82C6019F77A8
:10533000DF91CF91FF90EF90DF90CF90BF90AF9033
:105340009F908F9008950E945829089580E091E0E1
:105350000E9458290895A0E0B0E080930001909346
:105360000101A0930201B093030108956817790722
:1053700068F4FB01DC01E40FF51FA40FB51F02C0A8
:1053800002900E9241505040D8F708950C94F8299D
:10539000DC0101C06D9341505040E0F70895FC01DD
:1053A0008191861721F08823D9F79927089531979D
:1053B000CF010895FB01DC018D910190801901104E
:1053C000D9F3990B0895FB01DC0101900D920020A7
:1053D000E1F70895FB01DC014150504030F08D9120
:1053E0000190801919F40020B9F7881B990B0895D2
:1053F000FB01DC0102C001900D9241505040D8F7F2
:105400000895B7FF0C944D290E944D29821B930BE0
:065410000895F894FFCF9F
:0854160001000000022F00005C
:00000001FF
