:100000000C94130F0C94300F0C94300F0C94300F91
:100010000C94300F0C94300F0C94300F0C94300F64
:100020000C94300F0C94300F0C94300F0C94300F54
:100030000C941F240C94300F0C94300F0C94300F40
:100040000C94300F0C94300F0C94300F0C94300F34
:100050000C94300F0C94300F0C94300F0C94300F24
:100060000C94300F0C94300FA712E712DA12F11231
:10007000F712FD1223130B1312139F13461453147C
:100080005F146A14AE14CD141E13291336134313D0
:1000900050136A13761380138C158C158C158C15E0
:1000A0008C158C159313AB13C013CA13ED13FC13EB
:1000B0000414131427143A14401410094A6F6E6183
:1000C00073204C696E6473746564740000FF10459E
:1000D0006401A1926B006C3BDBC47B083B80100F7A
:1000E000683CA18E6935D89663004300101DA1912C
:1000F000D23263008C407CFF6B038CB26B004C00EF
:1001000010277B057CFF10226100A181FB1EF0659A
:10011000A196F11EF05571017B01310610286D0882
:100120006E0566006A01A19680D0D0E57014306C2F
:10013000103820A42109207D20C44F421018212806
:100140003463103D00E0A1546D286E0A6C0ADDEAAC
:100150007D08FC1E3D58104AA1726D346E196C0565
:10016000DDE57D08FC1E3D4C10536D2D6E286C05A1
:10017000DDE57D08FC1E3D45105BA195F065A19C69
:10018000F0336C00A19CFC1EF065F029DDE57D05D7
:100190007C013C0310656C20EC9E106FA194600004
:1001A0006100F1556C366F0A214F00C17CFF3C00A5
:1001B0001076100B33001097CC0F3C001096CC0734
:1001C0007C018C06A199FC1EF0654000109682D03F
:1001D00083E073054C00109272147CFF108DA19186
:1001E000D2323F00109E00EEA191D2327301333A19
:1001F0001092630000EE6C358B308BC53F0064635A
:1002000000EE8040700180066C00A199FC1EF05544
:100210007C013C0510A8A19CF43320B86C78FC1537
:10022000FC073C0010B320B800EEA19DF065F03053
:100230006C376B1BDCBAA19EF065F0306C41DCBA08
:1002400000EE46001102A191D56276FF4600110230
:10025000D5624F0011028CE07C058C654F001103C4
:10026000D56275FB66008CD060008BC08B553F005B
:1002700010DF7C14700110D8A199F01EF06570FF9A
:10028000F055A1964000DCE56C0AFC18A194F065DD
:100290006CFF80C3F055300010F4A195F06570013B
:1002A000F0556C006B00A199FC1EF06530007B01DD
:1002B0007C013C0510F63B00110274016F4200EE18
:1002C000A191D232D5626300660000EE6B006C082B
:1002D000ECA16BFF6C10ECA16B014B00111C4801F1
:1002E0006B0148786BFFA18E6935D89688B4D89693
:1002F00011256C20EC9E1125360011258580663570
:10030000A191D5626F06214F00EEF0073000113742
:10031000601EF01567003D2111326AFF11353D075F
:1003200011366A016701213800EE8BD06C0089B06C
:1003300081E0A199FC1EF06540001146A196D915F7
:1003400089A48174D9157C017B143C05113A8DA4D4
:100350008E744E30646300EEFF15FF073F001150AE
:1003600000EE3C0C1E1E33333F6161F31F0C0C0C7E
:100370000C0C0C8C8CDF070101010101010161E70C
:10038000E78383838383838383E7FB190161E161CF
:10039000010119FB9F86C6E6E6B69E9E8EE6E494B2
:1003A000E790F7878080808788888888AF6688484C
:1003B00028C64CAAACAA4AE088C088E0000018FF12
:1003C0003C00183CFF81423C3C3C423C5A5A7E7EF9
:1003D0000000243C24000018183C7EFF1818FF225F
:1003E0005588000000000000000000000000000030
:1003F0000000000000000000101B626C696E6B7949
:1004000020322E303020432E2045676562657267AA
:1004100020313939310A4A61637175657320446549
:10042000736368656E65732C20323031350000E0EF
:10043000A001600091098106901291096002238D4C
:1004400000D171FF3100102280038113A392F15576
:100450006005A394F0558773866322E400E022F5DB
:100460006E4087E26E2787E1683469186A706B0016
:100470006C046D3422D2A3B5DAB8DCD86002238DC7
:1004800021123E00105BA394F0658500C4FF8452E6
:1004900021A5C4FF845222396020E0A1231936F738
:1004A00010428E60236B6E64236B23191030F007AB
:1004B000400010AD80808006800681A08106810604
:1004C00080154000106C4001106C40FF106C1085CE
:1004D00080908006800681B08106810680154000EC
:1004E000107A4001107A40FF107A1085A3B5DAB86F
:1004F0006A706B00DAB86EF387E26E0487E16E32E1
:10050000236B80808006800681C08106810680156D
:10051000400010934001109340FF109310478090CB
:100520008006800681D0810681068015400010A1DA
:10053000400110A140FF10A11047A3B5DCD86C0406
:100540006D34DCD86ECF87E26E2087E16E19236BA5
:100550001047603C238222D2A3B5DAB8DCD86E40C3
:1005600087E3807080E2300010348E60236B237349
:1005700000E066246714A393232166246720A392D6
:100580002321640065106601670FA4E1D460A4F123
:10059000D560600A23823E001108A4E1D460A4F172
:1005A000D56074047504346010C9A4E1D460A4F16A
:1005B000D560600A23823E001108A4E1D460A4F152
:1005C000D5607604362D10D9A4E1D460A4F1D560AD
:1005D000600A23823E001108A4E1D460A4F1D56032
:1005E00074FC75FC340010E8A4E1D460A4F1D5607B
:1005F000600A23823E001108A4E1D460A4F1D56012
:1006000076FC360110F810C9A4F1D560A501D560BB
:100610006006F015F0073000110E102883706E038D
:1006200083E2848085906E04EEA111436E02EEA1F8
:10063000114F6E10EEA1115B6E08EEA1116743031E
:100640007504430075FC43027404430174FC80404C
:100650008150230982006E0880E2300011736E071A
:10066000802082E24205117742061183420711A0E1
:1006700022D26EFC87E287318840895012D28040B6
:1006800081507104230982006E0880E2300011233A
:100690006303750411318040815071FC230982008D
:1006A0006E0880E230001123630075FC1131804038
:1006B00081507004230982006E0880E2300011230B
:1006C0006302740411318040815070FC2309820060
:1006D0006E0880E230001123630174FC113122D2D4
:1006E000D8988EF000EE6EF080E28031F055A3B91C
:1006F000D45876016105F0074000F118113C6EF006
:1007000080E28031F055A3BDD458760480A081B03A
:1007100023096EF080E2300011936E0C87E380C0F5
:1007200081D023096EF080E23000119C6E3087E3A7
:1007300060FFF018F015113C43016474430264003B
:10074000113C827083706E0C82E280A081B023091C
:10075000A3B56EF080E2300011BCDAB8420C7B0425
:1007600042007BFC42087A0442047AFCDAB800EECC
:100770006E80F10731001214340012148100830ED0
:100780003F0011D5839083B54F0011F0330011E481
:1007900087E3838083A54F001208330011FC87E3B1
:1007A0001214838083A54F001208330011FC87E3E5
:1007B000839083B54F0011F0330011E487E31214E6
:1007C0006340813241001214DAB87B04DAB86EF368
:1007D00087E2620C872100EE63108132410012141F
:1007E000DAB87BFCDAB86EF387E26200872100EEAC
:1007F0006320813241001214DAB87A04DAB86EF359
:1008000087E26208872100EE638081324100121482
:10081000DAB87AFCDAB86EF387E26204872100EE78
:10082000C1F080123000121C6E0C87E382E311B11C
:10083000DAB8800E4F00122362047AFC1234800E64
:100840004F001229620C7B041234800E4F00122FCD
:1008500062087A041234800E4F00121862007BFC8A
:10086000DAB86EF387E2872100EE827083706E3013
:1008700082E280C081D02309A3B56EF080E230000F
:100880001250DCD842307D0442007DFC42207C04C2
:1008900042107CFCDCD800EE6E80F107310012AC17
:1008A000340012AC8100830E4F001269839083D50F
:1008B0004F0012853300127887E3838083C54F0091
:1008C000129F3300129287E312AC838083C54F00DE
:1008D000129F3300129287E3839083D54F001285D5
:1008E0003300127887E312AC63408132410012ACCE
:1008F000DCD87D04DCD887E36ECF87E262308721C5
:1009000000EE63108132410012ACDCD87DFCDCD8F3
:1009100087E36ECF87E26200872100EE6320813299
:10092000410012ACDCD87C04DCD887E36ECF87E2D0
:100930006220872100EE63808132410012ACDCD856
:100940007CFCDCD887E36ECF87E26210872100EE63
:10095000C1F08012300012B587E36E3087E382E386
:100960001245DCD8800E4F0012BC62907CFC12CD88
:10097000800E4F0012C262307D0412CD800E4F00F7
:1009800012C862A07C0412CD800E4F0012B062002B
:100990007DFCDCD86E4F87E2872100EE80706E030D
:1009A00080E2800E818081946E0481E241007001BA
:1009B000800E800E800EA395F01ED8988EF000EE6B
:1009C0006E00A3E1FE1EFE1EFE1EFE1EF365A511B7
:1009D000FE1EFE1EFE1EFE1EF3557E013E8012E52B
:1009E00000EE822383336E0F80208130230B80E260
:1009F000800E800EA3C1F01ED2347204328012F831
:100A000082237304434000EE12F8700471048006E0
:100A1000800681068106810E810E810E810EA51150
:100A2000F11EF11EF01EF06500EEA394F065800645
:100A3000F0556020E0A1131E00EEF1656E018443C5
:100A400082008310651083554F0082E54F001334F8
:100A5000652782554F0013348020813084E41326AB
:100A6000F430D67A760C84438200831065E883558F
:100A70004F0082E54F001348650382554F0013482D
:100A80008020813084E4133AF430D67A760C8443A3
:100A900082008310656483554F0082E54F00135830
:100AA0008020813084E4134EF430D67A760C84436F
:100AB00082008310650A83554F001365813084E4FA
:100AC000135EF430D67A760CF130D67A00EEA3922B
:100AD000F16581E43F007001A392F15500EEA3920D
:100AE000F3658E008E254F0000EE3E00137F8E10C2
:100AF0008E354F0000EEA393F15500EE8EE3622099
:100B0000F015E2A1138BF0073000138500EE6E01A3
:100B100000EEF015F0073000138E00EE000000002C
:100B2000050000226363777F3E1C001C1E5D5D6F25
:100B30003E1C003C7E0F070F7E3C001C267F7F7B07
:100B4000061C001E3F7870783F1E001C327F7F6FAE
:100B5000301C001C3E7F77636322001C3E6F5D5D8E
:100B60001E1C001C3E49777F637F000000000800C8
:100B70000000000000000808000000000000000065
:100B800000000000000000000000000000008000E5
:100B900000008080000000000000F0000000000065
:100BA00000008080808000000000F08080808080D5
:100BB0008080F0000000800000000C080808080891
:100BC0000808080808080808080D0C08080808089C
:100BD0000808080808080808080D0A65050505053D
:100BE000E50505E505050505C50A0A6505050505CB
:100BF000E50505E505050505C50A0A050C08080F04
:100C0000050C0D050808080D050E0F050C08080F4A
:100C1000050C0D050808080D050A0A050A650605F4
:100C2000950A0A350505C50A350505950A650505C0
:100C3000950A0A350506C50A050A0A050F050808BA
:100C40000808080C080F0508080808080F05080818
:100C50000C080808080F050F050A0A7505B50505F3
:100C60000505C50A6505B505E50505E505B505C52F
:100C70000A6505050505B505D50A0A050C08080825
:100C8000080D050F050C080F05080F0508080D05D0
:100C90000F050C080808080D050A0F050F65050566
:100CA000C50A35E5950A6505B00505B505C50A35DA
:100CB000E5950A650505C50F050F077405D5080FED
:100CC000050E0F05080F050C080808080D05080F8C
:100CD00005080F05080F7505D4070A050A3505052F
:100CE000F50505B50505D508080D0C080F750505B2
:100CF000B50505F50505950A050A0A050808080D54
:100D0000050C0808080D3505C50A0A6505950C0887
:100D100008080D050C08080F050A0A750506C50A1E
:100D2000050808080808080F05080F05080808083E
:100D300008080F050A650605D50A0A050C0D050AFF
:100D40003505050505E50505F50505F50505E50583
:100D5000050505950A050C0D050A0A05080F050885
:100D6000080808080F050C0D05080F050C0D0508EF
:100D7000080808080F05080F050A0A350505B50516
:100D80000505050505950A0A350505950A0A35057F
:100D90000505050505B50505950A080808080808AC
:100DA0000808080808080F08080808080F080808B5
:100DB0000808080808080808080F01E0021004C81D
:100DC00009E40BF40BB409E504C9021301E70007B9
:100DD000018303F001FF00FF003F0F001080264059
:100DE0004F205FA05DA04F2026409080CF00C00024
:100DF00083001F80FF00FE00F8000F001F803FC02F
:100E00007FE07FE05FE047E020C09080CF00C080BF
:100E100083C01F80FF00FE00F8000000100F312E7D
:100E20003030204B2E762E53656E67627573636883
:100E30002032342F342D2739340000FF6C0420A4D5
:100E400065326632672883508460626469006A0193
:100E50006B0000C120666001820560285200101BF3
:100E6000A0C8D348A0C8D34800C1D5683F001040EF
:100E7000206660013200820520848350846060080F
:100E8000E0A120586010E0A12054C0034000205D84
:100E9000C0034000206180C020BD102480B07003DA
:100EA00080068006F03080707011611BD01A60647B
:100EB00020BD00C860006100A0CC9012F00A40FF85
:100EC000105010117501456E656D00EE60018505CD
:100ED0004F00650000EE77014746674500EE600170
:100EE00087054714671500EE8090612D81058810F5
:100EF00061008070A0C2D01180846100D0117A019D
:100F00004A046A014A01A0C34A02A0C44A03A0C518
:100F100061006000D0116008D0116070D01160785D
:100F2000D01100EE320000EEC00F80747008610036
:100F3000A0C8622D4B1E20963B21D0187B018090CB
:100F40008205390B790100EE7B03A0C68070700525
:100F5000D0117008D0117008D0117008A0C7D0113E
:100F6000626400EE00E060006100A0D290126208AE
:100F700082C5F229602AD015F00A400220BA400446
:100F800020B7302010A400E000EE3C077C0110BC2C
:100F90003C017CFF600FF015F007300010BE00EE42
:100FA0008800880055002200FF00F800DBFFDB18F6
:100FB00024E7E7DB616E79206B65792E2E2E000029
:100FC00073706565643A20006361727465205344F0
:100FD00020616273656E746521004352415348215C
:100FE00020626164206F70636F64650A0043524140
:100FF00053482120626164206F70636F64650A004A
:10100000464154206472697665720A436F70797242
:101010006967687420323030362D323031320A52EE
:101020006F6C616E642052696567656C0A004C459F
:101030004D0A4341520A574F524D0A414C49454EC1
:101040000A424C494E4B590A7370656564207465B9
:1010500073740A007661725B5D3A002053503A0067
:10106000493A0050433A004563686563206F7576DE
:101070006572742E20666963682E0A004563686590
:1010800063206163636573207265706572742E0AF4
:101090000045636865632061636365732066696307
:1010A00068696572730A00456368656320616363FC
:1010B000657320706172746974696F6E0A00626F83
:1010C00075746F6E2E2E2E0000E020C2690068003D
:1010D00078019E0860108E058E066D006C006B0016
:1010E0006A642087206D20B34A00102B6008E0A1BD
:1010F000101C6010E0A110206020E0A11024102B33
:1011000020B37CFF7AFF102920B37C017AFF1029DD
:1011100020B37BFE3A017AFF7AFF904420B320B3DC
:10112000206D8EC4607F8E028DB47B01206D4F01D7
:10113000104B20B34A00103B60142046101020B31F
:10114000600A610490116004204620B3600490118D
:1011500020461010F015F0073000104700EE20B3C5
:10116000600280B53F01105C600280C53F01105CE9
:101170005E70105C7901A0E861006210912210603D
:10118000A0E26100621091222070603C2046602045
:10119000E09E10646101620A9121E0A1106900E003
:1011A0001004A0CFDED000EE6100620AA10CF9337A
:1011B000207CA0DFD1257104A10CF833207C00EE47
:1011C0006300A10CF31EF065F029D12571047301B1
:1011D0003303107D00EE6500C7FF90086310803573
:1011E0009006807590073F01870084707410C10FCE
:1011F00090098107835083753F01109E835083457A
:101200003F0110AD9009800680153F0071019009E3
:1012100070FF80173F0071FFC3038306330071FE28
:1012200071019513750190085500109600EE61004C
:1012300062006300A10CFA33A10CF31EF065F030DC
:10124000D12A71087301330310B800EEA0F06100D9
:10125000920982069122910900D16003204671FF14
:10126000310010C800EE03C006601FF83FFC2004E8
:10127000AFF56C362C346FF6A0053FFC3FFC1290A6
:101280002448600CC006204040808000796F7520A3
:101290006372617368656400636F6E677261747511
:1012A0006C6174696F6E21004C454D0A4A6163712F
:1012B000756573204465736368656E65730A436F73
:1012C0007079726967687420323031342C32303171
:1012D000350A6C6963656E63652047504C76330050
:1012E0000000000000E0A029600061009012623C54
:1012F000F2156000610071013F007001F2073200D9
:10130000100964006508201C801064006510201C12
:10131000623CF215F207320010181000A02FF033D3
:101320006300A02FF31EF065F029D45574047301F7
:101330003303101F00EE7370656564207465737469
:10134000000000000000FFFFFFFFFFFFFFFFFFFFA7
:10135000FFFFFFFFFFFFFFFFFFFFFFFFFFFFFFFF9D
:10136000FFFFFFFFFFFFFFFFFFFFFFFFFFFFFFFF8D
:10137000FFFFFFFFFFFFFFFFFFFFFFFFFFFFFFFF7D
:10138000FFFFFFFFFFFFFFFFFFFFFFFFFFFFFFFF6D
:10139000FFFFFFFFFFFFFFFFFFFFFFFFFFFFFFFF5D
:1013A000FFFFFFFFFFFFFFFFFFFFFFFFFFFFFFFF4D
:1013B000FFFFFFFFFFFFFFFFFFFFFFFFFFFFFFFF3D
:1013C000FFFFFFFFFFFFFFFFFFFFFFFFFFFFFFFF2D
:1013D000FFFFFFFFFFFFFFFFFFFFFFFFFFFFFFFF1D
:1013E000FFFFFFFFFFFFFFFFFFFFFFFFFFFFFFFF0D
:1013F000FFFFFFFFFFFFFFFFFFFFFFFFFFFFFFFFFD
:10140000FFFFFFFFFFFFFFFFFFFFFFFFFFFFFFFFEC
:10141000FFFFFFFFFFFFFFFFC1CF9981FFFFFFFF2E
:10142000FFFFFFFFFFFFFFFF80CF9980FFFFFFFF60
:10143000FFFFFFFFFFFFFFFF1C4F999C7FFFFFFF98
:10144000FFFFFFFFFFFFFFFF3ECF999E7FFFFFFFE4
:10145000FFFBFE7FFFFFFFFE7FCF999E787C3C87DE
:10146000FFFBFDBFFFFFFFFE7FCF999E70381C037F
:10147000FFF3FBDFFFFFFFFE7FC0199C63118C733E
:10148000EFABFBDFFFFFFFFE7FC01980E793CCF3DC
:10149000F77BFBDFFFFFFFFE7FCF9981E7F3CCF304
:1014A000F77BFBDFFFFFFFFE7ECF999FE7F3CCF3D7
:1014B000F77BFBDFFFFFFFFF3C4F999FE793CCF3E8
:1014C000FAFBFBDFFFFFFFFF1CCF999FE3118CF3BB
:1014D000FAFBFBDFFFFFFFFF80CF999FF0381CF383
:1014E000FAFBFDBFFFFFFFFFC1CF999FF87C3CF3E4
:1014F000FDFBDE7FFFFFFFFFFFFFFFFFFFFFFFFFA3
:10150000FFFFFFFFFFFFFFFFFFFFFFFFFFFFFFFFEB
:10151000FFFFFFFFFFFFFFFFFFFFFFFFFFFFFFFFDB
:10152000FFFFFFFFFFFFFFFFFFFFFFFFFFFFFFFFCB
:10153000FFFFFFFFFFFFFFFFFFFFFFFFFFFFFFFFBB
:10154000FFFFFFFFFFFFFFFFFFFFFFFFFFFFFFFFAB
:10155000FFFFFFFFFFFFFFFFFFFFFFFFFFFFFFFF9B
:10156000FFFFFFFFFFFFFFFFFFFFFFFFFFFFFFFF8B
:10157000FFFFFFFFFFFFFFFF8FFFFFF7F7DF3EFBE0
:10158000F7FBFC3FFFFFFFFF77FFFFFFF7DEDD7399
:10159000E7FBFDDFFFFFFFFEF634DD56548EEBABBD
:1015A000E7FB1DEC7FFFFFFEFDD35D35935FEBBBDB
:1015B000D7FAEDEBBFFFFFFEFDD76B75D75FDBBB47
:1015C000D7FBEDEBBFFFFFFEFDD76B75D75FBBBB56
:1015D000B7FB0DE83FFFFFFEF5D76B75D75F7BBB11
:1015E00083DAEDEBFFFFFFFF75D37775975EFD7B29
:1015F000F7DAEDDBBFFFFFFF8E34F776574E0EFBB9
:10160000F7E70C3C7FFFFFFFFFF7F7FFDFFFFFFF70
:10161000FFFFFFFFFFFFFFFFFFF7F7FDDFFFFFFF0C
:10162000FFFFFFFFFFFFFFFFFFF7CFFE3FFFFFFFC3
:10163000FFFFFFFFFFFFFFFFFFFFFFFFFFFFFFFFBA
:10164000FFFFFFFFFFFFFFFFFFFFFFFFFFFFFFFFAA
:10165000FFFFFFFFFFFFFFFFFFFFFFFFFFFFFFFF9A
:10166000FFFFFFFFFFFFFFFFFFFFFFFFFFFFFFFF8A
:10167000FFFFFFFFFFFFFFFFFFFFFFFFFFFFFFFF7A
:10168000FFFFFFFFFFFFFFFFFFFFFFFFFFFFFFFF6A
:10169000FFFFFFFFFFFFFFFFFFFFFFFFFFFFFFFF5A
:1016A000FFFFFFFFFFFFFFFFFFFFFFFFFFFFFFFF4A
:1016B000FFFFFFFFFFFFFFFFFFFFFFFFFFFFFFFF3A
:1016C000FFFFFFFFFFFFFFFFFFFFFFFFFFFFFFFF2A
:1016D000FFFFFFFFFFFFFFFFFFFFFFFFFFFFFFFF1A
:1016E000FFFFFFFFFFFFFFFFFFFFFFFFFFFFFFFF0A
:1016F000FFFFFFFFFFFFFFFFFFFFFFFFFFFFFFFFFA
:10170000FFFFFFFFFFFFFFFFFFFFFFFFFFFFFFFFE9
:10171000FFFFFFFFFFFFFFFFFFFFFFFFFFFFFFFFD9
:10172000FFFFFFFFFFFFFFFFFFFFFFFFFFFFFFFFC9
:10173000FFFFFFFFFFFFFFFFFFFFFFFFFFFFFFFFB9
:10174000FFFFFFFFFFFF000000000000000020205F
:101750002020200020005050500000000000505079
:10176000F850F85050002078A07028F02000C0C831
:101770001020409818006090A040A8906800602059
:101780004000000000001020404040201000402099
:101790001010102040000020A870A8200000002099
:1017A00020F8202000000000000060204000000021
:1017B00000F0000000000000000000606000000871
:1017C000102040800000708898A8C88870002060B1
:1017D00020202020F800708810204080F800F008B9
:1017E00008F00808F00010305090F8101000F88051
:1017F00080F00808F000304080F088887000F80819
:101800001020404040007088887088887000708880
:101810008870080870000060600060600000006070
:101820006000602040001020408040201000000038
:10183000F800F800000040201008102040007088D8
:1018400008102000200070880868A8A87000708820
:1018500088F888888800F08888F08888F000788088
:10186000808080807800F08888888888F000F88000
:1018700080F88080F800F88080F880808000788090
:1018800080B088887000888888F8888888007020F0
:1018900020202020700078080808089060008890B8
:1018A000A0C0A0908800808080808080F80088D8C8
:1018B000A888888888008888C8A898888800708840
:1018C000888888887000F08888F080808000708820
:1018D0008888A8987800F08888F0A09088007880A0
:1018E00080700808F000F820202020202000888840
:1018F0008888888870008888888888502000888830
:1019000088A8A8D8880088885020508888008888AF
:10191000885020202000F81020408080F80060408F
:10192000404040406000008040201008000018083F
:101930000808080818002050880000000000000077
:1019400000000000F800402010000000000000002F
:10195000700878887800808080B0C888F000000027
:1019600070808088700008080868988878000000F7
:101970007088F8807000304840E04040400000002F
:101980007888887808708080B0C8888888000020AF
:101990000020202020001000301010906000808077
:1019A00090A0C0A0900060202020202070000000A7
:1019B000D0A8A88888000000B0C8888888000000E7
:1019C0007088888870000000F08888F080800000AF
:1019D000689090B050180000B0C88080800000006F
:1019E00070807008F0004040E04040483000000047
:1019F0008888889868000000888888502000000047
:101A00008888A8A850000000885020508800000056
:101A10008888887808700000F8102040F80020407E
:101A20004080404020002020202020202000402016
:101A3000201020204000000040A810000000FCFC06
:101A4000FCFCFCFCFCFC402010F8102040001020A6
:101A500040F8402010002070A82020200000002026
:101A60002020A87020000070F8F8F87000007C8238
:101A7000868A92A2C2827C000818280808080808F2
:101A80003E003844820408102040FE0038448202A0
:101A90003C0282443800848484847E04040404006C
:101AA0007E8080807C020202FE0078848080FC823E
:101AB00082827C007E8204080808080808003844F6
:101AC00082827C828244380038448282463A020410
:101AD000380038448282FE8282828200FC828282C6
:101AE000FC828282FC003E408080808080403E00FC
:101AF000F884828282828284F800FE808080FE8068
:101B00008080FE00FE808080FE8080808000E0A0DB
:101B1000A0A0E000C0404040E000E020E080E00005
:101B2000E020E020E000A0A0E0202000E080E02015
:101B3000E0008080E0A0E000E02020202000E0A085
:101B4000E0A0E000E0A0E0202000E0A0E0A0A000F5
:101B5000C0A0C0A0C000E0808080E000C0A0A0A025
:101B6000C000E080E080E000E080E08080000B02C8
:101B70002A024B026E029302BA02E40210033F03F0
:101B80007003A403DC03170455049704DD04100E4E
:101B9000576F726D0052423932000000003E05005E
:101BA0002B7C0000061E0100040000FF00E0A006E0
:101BB000FE65A0CCF055FC1E710131001013A0B5DC
:101BC000DAB3D421D4317403347A101AA0BE63047A
:101BD000D329D4297209323F1021A003F065A00156
:101BE000F033632E2073A001F533207220A6A0BD30
:101BF000D76176FE36111030630AF315A0CCF81EBB
:101C0000F065840080A0F055A14CF81EF0658100BD
:101C100080B0F055A0B63400D413A0B1F91EF16520
:101C2000A0B8DAB28A048B14A0B5DAB33F00107FF3
:101C3000C00F400020A4780198E068006108E19E90
:101C40006600E19E106136001061790266068962C5
:101C50006110E19E6700E19E106B3700106B79FE0A
:101C600067068972F3073300105710352072A00100
:101C7000F5336300647CA001F265F029D435730666
:101C8000F129D4357306F229D43500EE20AEA0B583
:101C9000DAB3DAB33F00108A6402F4187501206FDA
:101CA0001054640AF418DAB38A058B15A0B8DAB2B6
:101CB000A003F065805580504F00F0556064F0152A
:101CC000F0073000109900C88100A0C39012F00AFC
:101CD000302010A0100E7E0100EEA0B9CC7C7C025A
:101CE000CD3C7D02DCD74F0000EEA0B9DCD710A7B9
:101CF000040000FCFC000004E0E0E0A0E000004084
:101D0000387CDEFEFE7C3800F000808080808080A1
:101D10008080800073656C65637420726573746184
:101D200072742E2E2E000000000000000000000043
:101D300000000000000000000000000000000000A3
:101D40000000000000000000000000000000000093
:101D50000000000000000000000000000000000083
:101D60000000000000000000000000000000000073
:101D70000000000000000000000000000000000063
:101D80000000000000000000000000000000000053
:101D90000000000000000000000000000000000043
:101DA0000000000000000000000000000000000033
:101DB0000000000000000000000000000000000023
:101DC0000000000000000000000000000000000013
:101DD0000000000000000000000000000000000003
:101DE00000000000000000000000000000000000F3
:101DF00000000000000000000000000000000000E3
:101E000000000000000000000000000000000000D2
:101E100000000000000000000000000000000000C2
:101E200000000000000011241FBECFEFD8E0DEBF8D
:101E3000CDBF11E0A0E0B1E0EAEFFBE402C0059005
:101E40000D92A830B107D9F728E0A8E0B1E001C0B1
:101E50001D92A035B207E1F70E949D110C94FB255D
:101E60000C940000FC01818190E0982F882720814C
:101E7000822B0895FC0123816281862F90E0A0E0EF
:101E8000B0E077276627922B2081622B2181722B6D
:101E90000895EF92FF920F931F93CF93DF938C01DE
:101EA0007B01C0E0D0E0CE15DF0549F0F801EC0F72
:101EB000FD1F6491CE010E94371F2196F4CFDF9160
:101EC000CF911F910F91FF90EF900895DF92EF92C5
:101ED000FF920F931F93CF93DF93CDB7DEB7A097F9
:101EE0000FB6F894DEBF0FBECDBF2AE0289F700169
:101EF000299FF00C112485E0EE0CFF1C8A95E1F778
:101F000000E010E0D12CAE014F5F5F4F60E270E067
:101F1000C8018E0D9F1D0E94781F8981882391F032
:101F200080E20E94FA1FCE0101960E94582086E0AE
:101F30008D1510F00E94CC1FD394005E1F4F8AE0D5
:101F4000D812E1CF8D2DA0960FB6F894DEBF0FBE4C
:101F5000CDBFDF91CF911F910F91FF90EF90DF9058
:101F600008959F92AF92BF92CF92DF92EF92FF922D
:101F70000F931F93CF93DF936C010E94692382E03C
:101F80008093CF028091CF028111FCCF80E090E05E
:101F90000E94660F982EC0E0D0E0E12CF12C9AE070
:101FA000A92E00E026E43AE148E01C2F110F110FA2
:101FB000110F612F80E00E94D0210E942F1CB82EAB
:101FC00026E43AE148E0612F80E00E94D02188E0D9
:101FD000B81631F18B1540F082E0B816D9F184E0E3
:101FE000B81609F44AC066C080E1B816F1F080E284
:101FF000B81260C00E94371C2AE02E9DC0012F9DA0
:10200000900D11248C0F9D1FDF91CF911F910F9187
:10201000FF90EF90DF90CF90BF90AF909F9008958A
:10202000E114F10409F444C01CC0E7012196AC9E00
:102030009001AD9E300D11242C153D0544F40E94F5
:102040006923CE010E94660F982E7E0131C0C92DF2
:10205000D0E002C0209711F021972CC0E114F104C8
:1020600049F181E0E81AF1080E946923C7010E9442
:10207000660F982EC7E0D0E01DC0292D30E021501A
:102080003109C217D30714F4219614C087010F5FDA
:102090001F4FA09E9001A19E300D11242C153D05CF
:1020A0004CF40E946923C8010E94660F982E7801A3
:1020B000C0E0D0E086B18E738E3309F472CF41E078
:1020C00062E08B2D0E943721F5CFEF92FF920F93A4
:1020D0001F93CF93DF93CDB7DEB7CB54D1090FB6A3
:1020E000F894DEBF0FBECDBF2C961FAE2C97E12C0F
:1020F000F12C00E010E0CE0101960E94221C882302
:10210000C1F089A184FDF7CFBE016F5F7F4FCE0183
:102110008C960E94D525AE01445D5F4F60E270E071
:10212000C7010E94A11F0F5F1F4F80E2E80EF11C44
:10213000E2CF1CA6AE01445D5F4F60E270E0C801D3
:1021400025E0880F991F2A95E1F70E94A11FC80179
:10215000C55BDF4F0FB6F894DEBF0FBECDBFDF917A
:10216000CF911F910F91FF90EF9008950E946510FD
:10217000009791F00E94B10F97FD0EC00E94D71BEF
:10218000882351F00E9469230E943712823021F483
:102190008DEE9FE00C94E61108958F929F92AF927E
:1021A000BF92CF92DF92EF92FF920F931F93CF9344
:1021B000DF93CDB7DEB7A0970FB6F894DEBF0FBEA2
:1021C000CDBFCE0101967C0180E2F70111928A9584
:1021D000E9F7A12CB12CC12CD12C00E010E040E299
:1021E000842EC8010196F801E25DFF4E949099207B
:1021F00009F1D7018C01FAE09F1649F09D920F5F1B
:102200001F4FF801E35DFF4E94909110F4CFA701AA
:1022100060E270E0C5010E94A11F8FEFC81AD80AC2
:10222000F701882D11928A95E9F790E2A90EB11C69
:102230009110D7CFA70160E270E0C60135E0880FAA
:10224000991F3A95E1F70E94A11F0E946923C601D8
:102250000E94B10F82309105D1F048F4009791F0BF
:10226000019779F56CEA71E08CE19EE01EC0843044
:102270009105B9F088F0059721F562E670E084EEEB
:1022800092E113C06CE172E088EC90E10EC068E965
:1022900072E08EE89BE109C06EE373E08AEB90E0A8
:1022A00004C064E27AE088EF93E00E94490F0E9444
:1022B00069230E943712823021F48AED9FE00E9448
:1022C000E611A0960FB6F894DEBF0FBECDBFDF912A
:1022D000CF911F910F91FF90EF90DF90CF90BF9023
:1022E000AF909F908F900895CF93DF93C0E0D0E898
:1022F000FE01EA5BFC466491CE010E94371F2196E5
:10230000C11584E8D807A1F70E94172488E78093B5
:10231000CF028091CF02882361F086B18E738E3315
:10232000C1F362E088EE93E00E9425211092CF0273
:10233000F0CFDF91CF910C94371C80E8809361003F
:10234000109261000E94672184B1886284B980E59F
:102350008CBD8DB581608DBD87B1817C87B988B119
:102360008E6388B90E941F210E94301F789480914B
:102370008400909185000E949D250E943C1D0E9432
:10238000F91A882331F085E091E00E94561BC82F8E
:1023900001C0C0E00E94741164E080E090E10E94FE
:1023A000C8200E94692382E00E94C91FC1110BC08E
:1023B00088EC9FE00E9464200E94CC1F0E94421C77
:1023C0000E94CD10EECF0E94B610EBCFCF93DF93DB
:1023D000EC010E94692382E00E94C91FCE010E9485
:1023E000642083E690E10E94642080913201909104
:1023F000330164E002970E9473208091570162E0EC
:1024000090E00E9473208091580162E090E00E9469
:1024100073200E94CC1F80E690E10E94642064E05B
:1024200080913401909135010E9473208BE590E1F9
:102430000E9464208091360162E090E00E94732047
:102440000E94CC1F84E590E10E946420C7E3D1E0A4
:10245000899162E090E00E94732081E0C734D80740
:10246000B9F70E94CC1FDF91CF910C94421CAF9220
:10247000BF92DF92EF92FF920F931F93CF93DF9360
:1024800010923301109232011092360110923501F0
:102490001092340110920901109208014AE051E0B3
:1024A00068E070E080E090E00E94781FCAE0D8E524
:1024B00010E8D12E0E944A1C81112CC38091320158
:1024C00090913301209108013091090182179307FF
:1024D00028F0285F3F4F8217930750F0909309012F
:1024E000809308014AE051E068E070E00E94781FA4
:1024F00020913201309133018091080190910901BE
:10250000F901E81BF90BE65FFE4FA081A09357018C
:10251000F901E81BF90BE55FFE4F808180935801BC
:10252000590192E0A90EB11CB0923301A092320180
:102530000A2F0F70F82EF294BFE0FB224A2F42952B
:102540004F7050E04C5C5F4FFA010C942A25982F95
:10255000907F903C21F48F700E947723ABCF903D09
:1025600021F48F700E949F23A5CF8C3F01F150F47E
:102570008E3E61F08B3FC1F0803E09F0CDC20E94DB
:10258000692398CF8D3F09F095CFC4C2E091360101
:102590008FEF8E0F80933601F0E0EE0FFF1FEE5CA1
:1025A000FE4F87A190A518C00E94D42383CF0E941C
:1025B000FB2380CF409136014F5F4093360150E0BE
:1025C000440F551F4E5C5E4FFA01B0A6A7A290E0E3
:1025D0009A2B880F991F9F7090933301809332013B
:1025E00069CFE02FF0E0EE5CFE4F958111C0E02F47
:1025F000F0E0EE5CFE4F9581B9C0E02FF0E0EE5CBC
:10260000FE4FAF2DB0E0AE5CBE4F958115968C911C
:10261000981350CFAEC0E02FF0E0EE5CFE4F9581F6
:10262000980F56C1482F4F7050E04F30510508F0B9
:1026300073C2FA01EC5BFF4F0C942A25EF2DF0E0FA
:10264000EE5CFE4F8581E02FF0E0EE5CFE4F85836F
:1026500031CFE02FF0E0EE5CFE4FAF2DB0E0AE5C8E
:10266000BE4F15968C919581892BF1CFE02FF0E02C
:10267000EE5CFE4FAF2DB0E0AE5CBE4F15968C9178
:1026800095818923E4CFE02FF0E0EE5CFE4FAF2D83
:10269000B0E0AE5CBE4F15968C9195818927D7CF5F
:1026A000E02FF0E0EE5CFE4F2581AF2DB0E0AE5C98
:1026B000BE4F15968C91982F920F958390E0820FC4
:1026C000911D21E08F3F910509F00CF420E020934B
:1026D0004601F0CEE02FF0E0EE5CFE4F2581AF2DFD
:1026E000B0E0AE5CBE4F15969C9114C0E02FF0E0B8
:1026F000EE5CFE4F8581982F9695958381702BC156
:10270000EF2DF0E0EE5CFE4F2581E02FF0E0EE5C77
:10271000FE4F9581822F891B858381E0291708F060
:102720001AC180E018C1E02FF0E0EE5CFE4F858119
:10273000982F990F9583881F8827881F0CC1482FD1
:102740004F7050E04A30510508F0E6C1FA01ED5AE9
:10275000FF4F0C942A25E02FF0E0EE5CFE4FAF2DEA
:10276000B0E0AE5CBE4F958115968C91981709F438
:10277000A1CE2C5F3F4F30933301209332019ACE8C
:10278000AF2DB0E0AE5CBE4FE02FF0E0EE5CFE4F50
:1027900040E043C082E00E94C91FAF2DB0E0AE5CB4
:1027A000BE4FE02FF0E0EE5CFE4F15966C918581F8
:1027B0000E94532080913401909135019C012F5F3C
:1027C0003F4F30933501209334010E94571F8823D7
:1027D00009F470CE0E94FA1FEDCFAF2DB0E0AE5CD1
:1027E000BE4FE02FF0E0EE5CFE4F42E015966C919C
:1027F00085810E9483215ECE8F2DF0E10F9F800D99
:1028000011240E94532156CEAF2DB0E0AE5CBE4FD6
:10281000E02FF0E0EE5CFE4F41E015966C91858173
:102820000E94372147CEE0913601EF5FE0933601F9
:10283000F0E0EE0FFF1FEE5CFE4FA02FB0E0AE5CAD
:10284000BE4F15968C9190E090A787A333CEE09170
:1028500036018FEF8E0F80933601A02FB0E0AE5C73
:10286000BE4FF0E0EE0FFF1FEE5CFE4F87A1159606
:102870008C9320CEE02FF0E0EE5CFE4FD5821ACE96
:10288000E02FF0E0EE5CFE4FD58314CE90E09A2B63
:10289000880F991F9F709093350180933401809128
:1028A0009901816011C12091370190E09A2B880F26
:1028B000991F9F70820F911D820F911D8DCE0E94D6
:1028C0009825E02FF0E0EE5CFE4F909158019823A0
:1028D0009583F0CD8F70B82E10E0EF2CF12C809105
:1028E000340190913501B11014C042E151E060E231
:1028F00070E00E94781FD701AE5CBE4FF801EE5C1D
:10290000FE4F42E151E015966C9185810E946D2247
:1029100022C02091990120FD09C0D701AE5CBE4FB5
:10292000F801EE5CFE4F00E09C010FC06B2D70E0E3
:1029300042E151E00E94781FD701AE5CBE4FF80122
:10294000EE5CFE4F01E022E131E04B2D15966C91DB
:1029500085810E94D02180934601ACCD8E3919F03B
:10296000813A61F0D9C0E02FF0E0EE5CFE4F858146
:102970000E94291C882309F49DCD09C0E02FF0E0B6
:10298000EE5CFE4F85810E94291C811193CD8091C0
:1029900032019091330102961FCE893209F46EC044
:1029A00018F5853109F458C048F4873009F451C04E
:1029B0008A3009F0B1C00E942F1C45CE883109F43D
:1029C00053C08E3109F0A8C0E02FF0E0EE5CFE4F5E
:1029D00025818091340190913501820F911D909352
:1029E00035018093340166CD853509F470C0D8F483
:1029F000803309F454C0833309F08EC0E02FF0E037
:102A0000EE5CFE4F85816C2F0E94C92490931401C7
:102A10000E94C924909313018093120142E151E076
:102A200063E070E05AC0853709F45EC0853809F468
:102A300066C0853609F070C0602F70E06F5F7F4F11
:102A400047E351E080913401909135010E94781F55
:102A500031CD8091CF02F7CDE02FF0E0EE5CFE4F5C
:102A600085818093CF0226CDE02FF0E0EE5CFE4F13
:102A700065818BE092E00E9425211CCDE02FF0E0E3
:102A8000EE5CFE4F858126E0829FC0011124825FAB
:102A9000944E909335018093340180E010C0E02F74
:102AA000F0E0EE5CFE4F8581EAE08E9FC0011124CC
:102AB0008259954E909335018093340181E00E94B4
:102AC000C91F809199018E7F80939901F3CC602F6B
:102AD00070E06F5F7F4F47E351E080913401909148
:102AE00035010E94A11FE6CC80E0E82FF0E0EE5C0B
:102AF000FE4F9581958B8F5F0817B8F7DBCC80E090
:102B0000E82FF0E0EE5CFE4F958995838F5F081704
:102B1000B8F7D0CC81E001C082E0DF91CF911F9166
:102B20000F91FF90EF90DF90BF90AF900895EF92DC
:102B3000FF920F931F93CF93DF937C01E9010881EC
:102B400019818A819B8180969B838A83D7018C918E
:102B5000853E09F478C0882309F475C01B968C91D2
:102B60008F3009F470C08BE2F80111928A95E9F771
:102B7000D80197964D935D936D937C939A97D70167
:102B8000A80180E09C91903299F0FA019083F701BE
:102B9000248523FF07C02C9121542A3118F4905E1C
:102BA000FA0190838F5F11964F5F5F4F883051F726
:102BB000D8019C91953011F495EE9C93F701908586
:102BC000903211F1F801E80FF11D9EE29083F701B8
:102BD000389634E0380F8F5F90819032A9F0A801C9
:102BE000480F511DDA019C93D7011C962C9124FFAC
:102BF00007C0208121542A3118F4905EDA019C9399
:102C00008F5F31968313E8CFF801E80FF11D108232
:102C1000F7018385D80190968C93C7014A960E944C
:102C2000320FF80192A381A3C7014C960E943A0F7C
:102C3000D80193966D937D938D939C93969781E0A5
:102C40008C8380E001C081E0DF91CF911F910F91D3
:102C5000FF90EF9008950F931F93CF93DF9300D0D1
:102C6000CDB7DEB7FC01009731F16230710518F184
:102C7000A081B18180E090E0660F771F881F991FC7
:102C80000681178120853185600F711F821F931F78
:102C9000ED91FC9122E030E0AE014F5F5F4F09956E
:102CA000882349F029813A81C90101978F3E9F4FBE
:102CB00010F4C90102C080E090E00F900F90DF9106
:102CC000CF911F910F9108952F923F924F925F9253
:102CD0006F927F928F929F92AF92BF92CF92DF922C
:102CE000EF92FF920F931F93CF93DF93CDB7DEB791
:102CF000A8970FB6F894DEBF0FBECDBF9B8F8A8F0B
:102D0000892B09F443C18091930290919402892BFD
:102D100009F03CC1E3E9F2E08CE1DF011D928A9504
:102D2000E9F7EA8DFB8DF0939402E093930281859D
:102D30009285A385B48539E0880F991FAA1FBB1F10
:102D40003A95D1F78C8F9D8FAE8FBF8FBC01CD018F
:102D5000655F7F4F8F4F9F4F0190F081E02D29E1FC
:102D600030E0AE014F5F5F4F0995811105C01092B1
:102D70009402109293020AC1CE0101960E94320F72
:102D80001C01CE0104960E94320F99A388A32B81C7
:102D90002AA39E80CE0107960E94320F9CA38BA38C
:102DA000CE0109960E94320F5C01CE010C960E9462
:102DB000320F8C01CE0146960E943A0F6B017C01C6
:102DC000611571058105910531F4A114B10479F201
:102DD0006501E12CF12C0115110549F29801A92D8D
:102DE000B0E00E9430254B015C019701860148A1AB
:102DF00059A1041B150B21093109061B170B280BC0
:102E0000390BC10101974BA15CA165E0440F551F2F
:102E10006A95E1F7840F951FB1010E94D524061B26
:102E2000170B210931095AA1452E512C612C712C07
:102E3000C901B801A30192010E94E92429013A01C4
:102E4000253F8FE038074105510508F490CF253F15
:102E50009FEF39074105510530F486E0AA8DBB8DFF
:102E600018968C9304C08BE0EA8DFB8D808788E1F7
:102E7000E5E9F2E0DF011D928A95E9F7C101A0E0E2
:102E8000B0E08DA39EA3AFA3B8A7A7019601BC0194
:102E9000CD010E94B92460939502709396028093AD
:102EA0009702909398029101A8A1B9A10E943025A0
:102EB0006B017C018C8D9D8DAE8DBF8DC80ED91E92
:102EC000EA1EFB1EC0929902D0929A02E0929B02E7
:102ED000F0929C02C301B2016E5F7F4F8F4F9F4FF4
:102EE000AA8DBB8D18962C91263029F422E030E073
:102EF00040E050E004C024E030E040E050E00E94B8
:102F0000B92460939D0270939E0280939F029093D8
:102F1000A0023092A2022092A102BAA1B29DC001E9
:102F2000B39D900D11249093A4028093A302A50158
:102F300094016DA17EA18FA198A50E94B9246C0D6A
:102F40007D1D8E1D9F1D6093A9027093AA02809320
:102F5000AB029093AC02EBA1FCA18F0120E030E02A
:102F600045E0000F111F221F331F4A95D1F7060FAE
:102F7000171F281F391F0093A5021093A602209344
:102F8000A7023093A80283E992E002C080E090E0BB
:102F9000A8960FB6F894DEBF0FBECDBFDF91CF91DC
:102FA0001F910F91FF90EF90DF90CF90BF90AF9067
:102FB0009F908F907F906F905F904F903F902F9059
:102FC0000895009719F0FC01118210820895CF93A3
:102FD000DF93009799F06115710581F0FB0120A145
:102FE00024FD0CC020912D0230912E02232B49F09C
:102FF0002091600230916102232B31F080E090E05B
:1030000019C0CDE2D2E002C0C0E6D2E0DE011296E5
:103010002BE2FB0101900D922A95E1F799838883B9
:103020001DA61EA61FA618AAFB0181A192A19AABFC
:1030300089ABCE01DF91CF910895009719F0FC0183
:103040001182108208952F923F924F925F926F9259
:103050007F928F929F92AF92BF92CF92DF92EF9228
:10306000FF920F931F93CF93DF93CDB7DEB72897CF
:103070000FB6F894DEBF0FBECDBF98878F831B01BC
:103080007A01892B19F48FEF9FEFE3C06115710569
:10309000D1F341155105B9F3AF81B8859D968D9057
:1030A0009D90AD90BC90D09795968D919D910D90EF
:1030B000BC91A02DB501A4014E0D5F1D611D711DB8
:1030C00084179507A607B70728F47C01E818F908C4
:1030D00009F4BDC0AF81B885ED91FC91119780894D
:1030E00091899A838983D1960D911C91D29701156C
:1030F0001105D9F593960D911C9194970115110521
:1031000061F481E090E089288A288B2811F480E01E
:1031100090E09195819591099CC081149104A1043E
:10312000B10419F124013501A981BA819D0140E062
:1031300050E04216530664067506B8F0421A530A68
:10314000640A750AB801EF81F885808191812B832B
:103150003C834D835E830E942B168C012B813C8126
:103160004D815E81009729F78ECFC980DA80F1E02A
:10317000CF1AD108C820D9205701AF81B885ED9169
:10318000FC91309799F00230110580F0A089B18947
:103190009801225031090E94302542885388648862
:1031A0007588640D751D861D971D03C060E070E075
:1031B000CB0189809A808C189D08A814B90408F462
:1031C00045010190F081E02D6C0D7D1D811D911D4B
:1031D0000190F081E02D9401A1010995882339F136
:1031E000280C391CA818B908EF81F88585A596A583
:1031F000A7A5B0A9880D991DA11DB11D85A796A7EA
:10320000A7A7B0AB8C0C9D1C89819A818816990662
:10321000A0F0B801808191810E942B168C0100974B
:1032200051F4AF81B885D2961C921E92D197C701F6
:103230008A199B090EC0C12CD12CEF81F88512ABE5
:1032400001ABA114B10409F098CFC70102C080E01E
:1032500090E028960FB6F894DEBF0FBECDBFDF9189
:10326000CF911F910F91FF90EF90DF90CF90BF9083
:10327000AF909F908F907F906F905F904F903F9016
:103280002F900895CF93DF93009791F0611571050A
:1032900079F0FB0120A124FF0BC0CAE9D1E028810D
:1032A0003981232B41F0E196F2E0CD32DF07B9F707
:1032B00080E090E012C0DE0112962BE2FB0101904B
:1032C0000D922A95E1F799838883FB0181A192A150
:1032D0009EA78DA718AA1FA6CE01DF91CF910895B2
:1032E000009719F0FC01118210820895FC010097EB
:1032F00041F083A194A196A785A710AA17A681E003
:10330000089580E008952F923F924F925F926F92BE
:103310007F928F929F92AF92BF92CF92DF92EF9265
:10332000FF920F931F93CF93DF93CDB7DEB7A9978B
:103330000FB6F894DEBF0FBECDBF3C010097C1F0C1
:1033400061157105A9F0DC012D903C901197F101F8
:10335000408851889D968D909C909E979F96AD90A9
:10336000BC90D097A414B50428F0C3010E9476192C
:1033700080E08DC09E012F5D3F4F3FA32EA385E0CF
:10338000D9011D928A95E9F78BE2FB0111928A958A
:10339000E9F77AA369A38114910409F04AC0D10125
:1033A00052964D905C90539756968D919C9157975D
:1033B000481A590A3EC08DA181115FC082010A19C5
:1033C0001B096501E12CF12C81149104B9F5F1017F
:1033D00066897789808D918D6C0D7D1D8E1D9F1D59
:1033E0001CA21BA2D101ED91FC910280F381E02D82
:1033F0009E012F5D3F4F6901A7E9EA2EA5E1FA2E54
:1034000020E230E0AE014F5F5F4F0995882309F459
:10341000AFCF8BA19CA1A80EB91EA414B50458F27D
:10342000B401C1010E942B164C01009711F1A12C8F
:10343000B12CC401029799A788A7BDCF21143104EC
:10344000A1F0F2E08F16910480F0F101A089B1891A
:1034500028A539A50E9430252289338944895589B8
:10346000620F731F841F951FB7CF60E070E0CB0120
:10347000B3CF8DA1882309F478CFD3019E969C9277
:103480008E929D97D096BC92AE929F978DA1A99651
:103490000FB6F894DEBF0FBECDBFDF91CF911F9165
:1034A0000F91FF90EF90DF90CF90BF90AF909F90E3
:1034B0008F907F906F905F904F903F902F900895E6
:1034C0008F929F92AF92BF92CF92DF92EF92FF9234
:1034D0000F931F93CF93DF935C01EB018A01009759
:1034E00009F46AC0209709F467C08881882309F429
:1034F00063C04115510509F45FC08F3209F421966C
:103500008BE2F80111928A95E9F780E1F80180A336
:103510008881811102C081E050C0B801C5010E94BC
:1035200042197C01009709F447C06FE270E0CE01B8
:103530000E94C125009741F0C82ECC1A4C012FEFF4
:10354000821A920AD12C16C0FE0101900020E9F7E0
:103550003197EC1BFD0BCE2E4E018E0E911CF2CF3F
:10356000F80101900020E9F73197E01BF10BEC1511
:10357000FD0539F0B801C7010E9483198111F0CF10
:1035800017C0A601B801CE010E94DC25892B91F756
:10359000C7010E947019CC0DDD1D8881882309F4B4
:1035A000BACFF80180A184FF07C0E401E12CF12C1F
:1035B000C7010E947019ACCF80E0DF91CF911F91BD
:1035C0000F91FF90EF90DF90CF90BF90AF909F90C2
:1035D0008F900895CF93DF93EC010E94692382E0DE
:1035E0000E94C91FCE010E946420DF91CF910C94EC
:1035F000421C0F9318993DC000E020E030E040E00D
:1036000050E060E27EE18CEA9DE10E94561C9093BE
:10361000B0028093AF02892BB1F40FEF20E030E0CD
:1036200040E050E060E27EE18CEA9DE10E94561CA1
:103630009093B0028093AF02892B29F487EA90E13E
:103640000E94EA1A16C08091AF029091B0020E94C7
:1036500064169093B6028093B502892B61F481E9D8
:1036600090E10E94EA1A8091AF029091B0020E940C
:10367000E11C80E001C081E00F9108958091B102CA
:103680009091B2020E941D188091B3029091B402F1
:103690000E9470198091B5029091B6020E94E117C4
:1036A0008091AF029091B0020C94E11CCF93DF9314
:1036B000CDB7DEB7AB970FB6F894DEBF0FBECDBF68
:1036C000AE014F5F5F4FBC018091B5029091B60291
:1036D0000E94601ABE016F5F7F4F8091B50290918A
:1036E000B6020E9442199093B4028093B302892BD0
:1036F00041F48CE790E10E94EA1A0E943E1B80E0B0
:1037000001C081E0AB960FB6F894DEBF0FBECDBF0F
:10371000DF91CF9108950F931F93CF93DF93CDB790
:10372000DEB7AB970FB6F894DEBF0FBECDBF8C01EE
:10373000BE016F5F7F4F8091B3029091B4020E94EF
:103740008319882319F1B801CE0101960E94CC2576
:10375000892B71F78091B3029091B4020E9476197F
:10376000BE016F5F7F4F8091B5029091B6020E94BB
:10377000E7179093B2028093B102892B11F081E098
:1037800005C087E690E10E94EA1A80E0AB960FB68A
:10379000F894DEBF0FBECDBFDF91CF911F910F9187
:1037A00008958091B1029091B2020C941D18EF928D
:1037B000FF920F931F93CF93DF93CDB7DEB7DA95C8
:1037C0000FB6F894DEBF0FBECDBFAE014F5F5F4FA7
:1037D00060E270E025E0880F991F2A95E1F70E94CA
:1037E000781FCE0101960E948B1B00E010E0882319
:1037F000D9F040E051E0BE016F5F7F4F8091B10290
:103800009091B2020E9423187C011816190654F4F4
:10381000AE014F5F5F4FB701C8010E94A11F0E0D9F
:103820001F1DE7CF0E94D11B802FD3950FB6F894B0
:10383000DEBF0FBECDBFDF91CF911F910F91FF90E3
:10384000EF900895BC018091B3029091B4020C9462
:10385000831996B1982381E009F080E0089586B13C
:103860008E738E33E1F386B180958E73089586B1A1
:103870008E738E3331F062E084EF91E00E94252157
:10388000F6CF08958EEB90E10E9464203599FECF2B
:103890000C94371C86B1867019F086B1887121F4BA
:1038A0000E94371C81E0089580E008958F929F92D6
:1038B000AF92BF92CF92DF92EF92FF920F93CF938E
:1038C000DF93CDB7DEB760970FB6F894DEBF0FBEBB
:1038D000CDBF7C016B014A015901009719F480E0CA
:1038E00090E05DC061157105D1F30430C4F707FFA6
:1038F00005C08091BF028111F2CF17C080E108029C
:10390000B001112462547E4F882777FD8095982F4F
:1039100020E130E0AE014F5F5F4FF701099588234A
:10392000F1F28D818111E5CFDACF81E1E7EBF2E0B1
:10393000DF011D928A95E9F7F092B802E092B70292
:10394000D092BA02C092B9029092BC028092BB029D
:10395000B092BE02A092BD0207FD1CC08D81809373
:10396000BF02CE0109960E943A0F6093C002709385
:10397000C1028093C2029093C302CE010D960E94B1
:103980003A0F6093C4027093C5028093C60290936D
:10399000C70203C08FEF8093BF0287EB92E060966F
:1039A0000FB6F894DEBF0FBECDBFDF91CF910F9160
:1039B000FF90EF90DF90CF90BF90AF909F908F904F
:1039C0000895009721F0FC01108681E0089580E0C1
:1039D00008958EBD0DB407FEFDCF8DB58F778DBDDB
:1039E00008958FEF8EBD0DB407FEFDCF8DB58F7797
:1039F0008DBD8EB508951F93CF93DF9300D000D077
:103A0000CDB7DEB7182F4C835B836A8379830E941E
:103A1000F11C812F80640E94E91C7981872F0E940C
:103A2000E91C6A81862F0E94E91C5B81852F0E9418
:103A3000E91C4C81842F0E94E91C112321F01830CD
:103A400039F487E801C085E90E94E91C1AE004C046
:103A50008FEFFACF115021F00E94F11C8F3FD1F36C
:103A60000F900F900F900F90DF91CF911F910895BD
:103A700083B18095817008951F93CF93DF93209831
:103A8000289A239A259A219A2498299A83E58CBD0D
:103A90008DB58E7F8DBD1092C8020E94381D88237F
:103AA00009F454C01AE00E94F11C1150E1F7299862
:103AB000C0E0D2E040E050E0BA0180E00E94FB1C90
:103AC000813021F021972097A9F72CC040E050E0E9
:103AD000BA0187E30E94FB1C40E050E0BA0189E292
:103AE0000E94FB1C82FD05C08091C802816080930A
:103AF000C802C0E0D0E88091C802837040E050E086
:103B0000BA0141F087E30E94FB1C40E050E0BA019B
:103B100089E201C081E00E94FB1C80FF05C0219763
:103B2000209749F7299A13C040E052E060E070E026
:103B300080E10E94FB1C299A811108C08CB58C7F02
:103B40008CBD8DB581608DBD11E001C010E0812F6D
:103B5000DF91CF911F9108952F923F924F925F92E4
:103B60006F927F928F929F92AF92BF92CF92DF928D
:103B7000EF92FF920F931F93CF93DF932B013C01A2
:103B80006A01E901212C82E0382E209709F444C013
:103B9000720181E0F82281010E191F09C017D107B7
:103BA00008F48E012998B301A2014E195F09610939
:103BB000710981E10E94FB1C882319F0299A80E099
:103BC0002CC00E94F11C8E3FE1F75801AE0CBF1CC7
:103BD000812C912C0E94F11C8E149F0440F08A14B9
:103BE0009B0428F4F6018083C60101966C019FEFC7
:103BF000891A990A8114E2E09E0661F70E94F11C7D
:103C00000E94F11C299A0E94F11CC01BD10B400E8E
:103C1000511E611C711CB9CF81E0DF91CF911F91C2
:103C20000F91FF90EF90DF90CF90BF90AF909F905B
:103C30008F907F906F905F904F903F902F9008955E
:103C40002F923F924F925F926F927F928F929F92AC
:103C5000AF92BF92CF92DF92EF92FF920F931F939A
:103C6000CF93DF93CDB7DEB72A970FB6F894DEBFB8
:103C70000FBECDBF4B015C013A013A87298717017E
:103C8000DE82CD824115510509F493C0211531051D
:103C900009F48FC00217130708F48BC0E114F10474
:103CA00009F487C0299889859A85840F951F98877C
:103CB0008F83740191E0F922C12C92E0D92ECE18A5
:103CC000DF08D501C4018E199F09A109B1098983B3
:103CD0009A83AB83BC83AC01BD0181E10E94FB1CD4
:103CE000882311F0299A65C00E94F11C8E3FE1F7EC
:103CF000412C512C4E145F04A1F00E94F11C9FEF47
:103D0000491A590AF7CF89859A85C81AD90A081B12
:103D1000190BC114D10479F0480E591E0115110573
:103D200051F0A985BA85CA16DB0628F00A171B07C9
:103D300010F0730102C0F12C1AC08F819885E8162B
:103D4000F90631F00E94F11CF70181937F01F5CF54
:103D50002D813E81B501A401440D551D611D711DCC
:103D6000C301F10109958111CECFFF24F394C11451
:103D7000D10431F00E94F11C91E0C91AD108F7CFAB
:103D80000E94F11C0E94F11CA985BA850A171B0725
:103D900058F089809A80AB80BC80B2E09B0EA11C59
:103DA000B11CFF2009F485CF299A0E94F11C81E003
:103DB00001C080E02A960FB6F894DEBF0FBECDBFDB
:103DC000DF91CF911F910F91FF90EF90DF90CF90F7
:103DD000BF90AF909F908F907F906F905F904F902B
:103DE0003F902F90089540989DB591609DBD91E0C2
:103DF0009EBD0DB407FEFDCF9DB591609DBD8EBDEE
:103E00000DB407FEFDCF409A089540988DB58160AE
:103E10008DBD82E08EBD0DB407FEFDCF8DB58160F6
:103E20008DBD1EBC0DB407FEFDCF8DB581608DBD6F
:103E30001EBC0DB407FEFDCF80E090E0A1E0B0E035
:103E40002DB521602DBD1EBC0DB407FEFDCF019721
:103E5000A109B1090097A105B10591F7409A08950C
:103E6000389A409A80E40E94F31E0C94051F4098F3
:103E70002DB521602DBD22E02EBD0DB407FEFDCF76
:103E80002DB521602DBD9EBD0DB407FEFDCF9DB5A6
:103E900091609DBD8EBD0DB407FEFDCF8DB58160D7
:103EA0008DBD6EBD0DB407FEFDCF409A08954098BC
:103EB0002DB521602DBD23E02EBD0DB407FEFDCF35
:103EC0002DB521602DBD9EBD0DB407FEFDCF9DB566
:103ED00091609DBD8EBD0DB407FEFDCF8DB5816097
:103EE0008DBD1EBC0DB407FEFDCF409A8EB5089562
:103EF00040982DB521602DBD23E02EBD0DB407FEE9
:103F0000FDCF2DB521602DBD9EBD0DB407FEFDCFAB
:103F10009DB591609DBD8EBD0DB407FEFDCFFA012C
:103F2000640F751FE617F70751F08DB581608DBDE1
:103F30001EBC0DB407FEFDCF8EB58193F3CF409A22
:103F4000089540982DB521602DBD22E02EBD0DB401
:103F500007FEFDCF2DB521602DBD9EBD0DB407FE22
:103F6000FDCF9DB591609DBD8EBD0DB407FEFDCF0B
:103F7000FA01640F751FE617F70749F091918DB5A7
:103F800081608DBD9EBD0DB407FEFDCFF4CF409A7C
:103F900008958093040108951092CA02809104014B
:103FA000813079F018F08230B9F008952091C9027B
:103FB000822F90E08E34910514F42A5F15C086E0BC
:103FC00017C02091C902822F90E08634910514F425
:103FD000265F0AC08AE00CC02091C902822F90E0BF
:103FE0008A34910524F4285F2093C902089588E05B
:103FF0000C949F230F93909104019130F9F018F0E5
:104000009230A1F14EC0803108F04BC096E0899FFC
:1040100090011124225F344E00E046E06091C90215
:104020008091CA020E94D0218091CA028C5F809345
:10403000CA028E37B0F10F910C94CC1F803188F5F5
:104040009AE0899F900111242259354E00E04AE000
:104050006091C9028091CA020E94D0218091CA0257
:10406000885F8093CA028A37E0F0E5CF8A3019F37F
:1040700090EE980F9536A8F498E0899F900111244E
:104080002A5B394E00E048E06091C9028091CA0283
:104090000E94D0218091CA028A5F8093CA028C3725
:1040A00050F60F9108958093CA026093C902089553
:1040B000CF93DF93EC018991882319F00E94FA1FB6
:1040C000FACFDF91CF910895CF93DF93FC018491D4
:1040D000EF012196882321F00E94FA1FFE01F7CFFD
:1040E000DF91CF9108950F931F93CF93DF9300D06B
:1040F00000D01F92CDB7DEB713E0482F4F70212FAD
:1041000030E0E1E0F0E0EC0FFD1FE20FF31F4A307A
:1041100010F4405D01C0495C408334E0969587957A
:104120003A95E1F711506150009739F7062F80E278
:104130006D830E94FA1F6D81912F961B20E3892FBA
:10414000860F662349F0E1E0F0E0EC0FFD1FE80F79
:10415000F11D20836150F3CF81E0810F801B8430FB
:1041600068F411E0180FE1E0F0E0EC0FFD1FE80F3C
:10417000F11D80810E94FA1F812FF1CF0F900F90C7
:104180000F900F900F90DF91CF911F910F91089595
:10419000FF920F931F93CF93DF93EC01062F0E94A2
:1041A000692382E0809304019E012F5F3F4FFE014F
:1041B000149140E2F42E112389F11092CA02F09278
:1041C000C902E9011A30A1F0812F0E94FA1F21963D
:1041D000FE01319714910E944A1C882339F0DF9127
:1041E000CF911F910F91FF900C9469231111EACF89
:1041F00018E00093CF028091CF028111FCCF81E0C3
:104200000E949F230E944A1C8111E9CF115089F717
:104210009E012F5F3F4FFE011491CDCFC0E200936E
:10422000CF028091CF028111FCCF81E00E949F23B9
:104230000E944A1C8111D3CFC15089F7D0CF569A22
:1042400083E085BD82E484BD0895CF93C62F9C0191
:1042500040E050E068E478EE81E090E00E940B25B9
:10426000215027BD569AC093CE02CF910895CF9387
:10427000DF931F92CDB7DEB78F70E82FF0E0EE0F1F
:10428000FF1FE259F44E8591949149830E942521A4
:104290004981442321F08091CE028111FCCF0F90FF
:1042A000DF91CF91089514BC569A8093CE028091ED
:1042B000CE02882341F00E94982580FF02C05E9ABA
:1042C000F6CF5E98F4CF569882E484BD0895229A82
:1042D00082EC8093C20087EF93E0909389008093F3
:1042E000880083E693E090938B0080938A0083E3B9
:1042F0008093800089E180938100EFE6F0E0808187
:1043000084608083089587FD4AC0683508F047C0FF
:10431000E82FE595E595E595809587704130B9F0F2
:1043200018F0423049F10895FF27E7FDF09590E13C
:104330006902E00DF11D1124E053FD4F21E030E052
:1043400001C0220F8A95EAF78081822B27C0FF27C0
:10435000E7FDF09590E16902E00DF11D1124E053B5
:10436000FD4F21E030E001C0220F8A95EAF7209549
:104370008081282320830895FF27E7FDF09590E1B1
:104380006902E00DF11D1124E053FD4F21E030E002
:1043900001C0220F8A95EAF78081822780830895E1
:1043A000AF92BF92CF92DF92EF92FF920F931F9343
:1043B000CF93DF93893F0CF484C09EE0960F96362E
:1043C00008F07FC050E087FF2AC0819590E070E040
:1043D000E72FFF27E7FDF095E417F5070CF06EC017
:1043E000C1E0C60F6835C0F4E20FF31F013011F4CD
:1043F000E08101C0E491F0E16F02D0011124A053EB
:10440000BD4F6C91082E01C0EE0F0A94EAF7F62F0B
:10441000FE239F2BE627EC936C2F7F5FD9CF782F5D
:104420007770C72E172F11951770859585958595EF
:1044300090E0D12CE82EFF24E7FCF094ED2DFF272F
:10444000E7FDF095E417F507CCF5BB24B394B60E61
:10445000683588F5E20FF31F013011F4E08101C0E7
:10446000E491D701F0E16F02A00DB11D1124ED011F
:10447000C053DD4FA8806E2F70E0FB010C2C02C0F2
:10448000F595E7950A94E2F7FA2DFE239F2BEA258E
:10449000E883112381F08F3071F0AF52BD4FCC9182
:1044A000FB01012E01C0EE0F0A94EAF76C2F6E2378
:1044B000962BEC27EC936B2DD394C0CF81E0911118
:1044C00001C080E0DF91CF911F910F91FF90EF909D
:1044D000DF90CF90BF90AF9008958F929F92BF9240
:1044E000CF92DF92EF92FF920F931F93CF93DF93C0
:1044F000813F0CF4E1C09FE0960F973608F0DCC0D6
:10450000FA013196893F04F538EF381B20E110E0BD
:1045100041E0460F683590F480E16802D001112433
:10452000A053BD4F5C918081032E01C0880F0A9477
:10453000EAF7952F9823192B85278C93642F215008
:1045400032962111E5CFB5C087FF43C0782F719512
:10455000885F90E110E001E0060F6835A0F5A0E16A
:104560006A0240011124E401C053DD4FB880AF015D
:1045700041505109DA012C91072E01C0220F0A94F3
:10458000EAF73B2D32273883C080D12C7601082EE4
:1045900002C0F594E7940A94E2F7432F4E2548832E
:1045A000D401AF52BD4F6C91A601072E01C0440F3C
:1045B0000A94EAF7562F5423152B2B21122BE322B2
:1045C0001E2946274C93602F915032969111C3CFEC
:1045D00070C0082F0770902F9195977085958595DD
:1045E000859520E1D22E10E0882E992487FC9094A6
:1045F000CC24C394C60E683508F056C09401B0E1CF
:104600006B02200D311D1124D901A053BD4FBC9068
:10461000BF0161507109EB01E880F12CA701002E68
:1046200002C0559547950A94E2F75B2D5423152B4C
:104630004B254C938F30C1F1D9011196992381F00C
:10464000AD0140535D4FEA01B880B701092E01C0AA
:10465000660F0A94EAF77B2D7623172B6B25688368
:10466000A053BD4FFC90408150E0BA01002E02C023
:10467000759567950A94E2F77F2D7623172B6F25A2
:104680006C93992389F08E3079F0D901AE52BD4FE9
:104690006C919A01092E01C0220F0A94EAF7362F75
:1046A0003223132B26272C936C2DDA943296D110BB
:1046B0009FCF81E0111101C080E0DF91CF911F9168
:1046C0000F91FF90EF90DF90CF90BF909F908F90D1
:1046D000089580E895E0E0EDF2E0DF019C011D9295
:1046E00021503040E1F760E080E00C945320CF93FC
:1046F000DF93882309F18F7190E0EC0134E0CC0F57
:10470000DD1F3A95E1F748E550E0481B590B64E09E
:10471000440F551F6A95E1F760ED72E0CE018053BA
:104720009D4F0E94A825AE0160E070E080ED92E010
:10473000DF91CF910C94BA25DF91CF9108950F931B
:104740001F93CF93DF93882351F18F71082F10E0CF
:10475000E80174E0CC0FDD1F7A95E1F748E550E001
:10476000401B510BE4E0440F551FEA95E1F7BE01F1
:1047700060537D4F80ED92E00E94A82520EF20033A
:10478000C001219F900D1124AE0160E070E0805BBC
:10479000974FDF91CF911F910F910C94BA25DF9124
:1047A000CF911F910F910895CF93DF93A0EDB2E0C9
:1047B000CD0140969D012F5F3F4FFC013197EF01E6
:1047C0002197488160E1469FA001112450815295B4
:1047D0005F70542B5083E217F30781F72C912295D9
:1047E0002F702C9328E08035920711F0DC01E0CF88
:1047F000DF91CF9108958FED92E0FC013F972081EA
:1048000040E1249F90011124318132953F70322B79
:104810003193E817F90799F780818295807F80832B
:10482000CF01409628E08F35920739F7089540ED83
:1048300052E060E875E080E090E80C94781F1F92E9
:104840000F920FB60F9211242F938F939F93EF9394
:10485000FF938091CC029091CD0201969093CD026E
:104860008093CC028091CC029091CD02833091054F
:1048700079F130F48130910581F00297C9F039C0A7
:10488000893D910541F1863021E0920739F18A97FF
:1048900081F581E08093CB0262C08091CF028823B2
:1048A00009F45DC08091CF0281508093CF0257C040
:1048B0008091CE02882309F452C08091CE028150AB
:1048C0008093CE028091CE02811149C0569847C094
:1048D0008AE490E009C01092CB0241C01092CD0250
:1048E0001092CC0283E693E090938B0080938A0031
:1048F00036C08091CB02882391F1E091CC02F091F7
:10490000CD021092C5001092C40088E08093C100CF
:1049100082E090E09093C5008093C4001092C6009E
:10492000BA97F695E79594E0EE0FFF1F9A95E1F799
:10493000E053FD4FCF0140962091C00025FFFCCFF2
:1049400021912093C600E817F907B1F78091C000C4
:1049500086FFFCCF8091C100877F8093C100FF91CB
:10496000EF919F918F912F910F900FBE0F901F90FD
:104970001895DB018F939F930E943F25BF91AF91C4
:10498000A29F800D911DA39F900DB29F900D1124A9
:104990000895991B79E004C0991F961708F0961B9B
:1049A000881F7A95C9F780950895AA1BBB1B51E112
:1049B00007C0AA1FBB1FA617B70710F0A61BB70B8F
:1049C000881F991F5A95A9F780959095BC01CD0134
:1049D0000895A1E21A2EAA1BBB1BFD010DC0AA1F40
:1049E000BB1FEE1FFF1FA217B307E407F50720F058
:1049F000A21BB30BE40BF50B661F771F881F991FD3
:104A00001A9469F760957095809590959B01AC011B
:104A1000BD01CF010895052E97FB1EF400940E945E
:104A2000222557FD07D00E94E92407FC03D04EF44D
:104A30000C94222550954095309521953F4F4F4F2E
:104A40005F4F089590958095709561957F4F8F4F3A
:104A50009F4F0895EE0FFF1F0590F491E02D0994EC
:104A6000A29FB001B39FC001A39F700D811D1124AF
:104A7000911DB29F700D811D1124911D08950E94FA
:104A80003025A59F900DB49F900DA49F800D911D82
:104A9000112408958F929F92AF92BF92CF92DF928E
:104AA000EF92FF92CF93DF93EC01688179818A8145
:104AB0009B81611571058105910521F464E279ED11
:104AC0008BE597E02DE133EF41E050E00E940B25AC
:104AD00049015A019B01AC01A7EAB1E40E943F25BC
:104AE0006B017C01ACEEB4EFA50194010E94F625A8
:104AF000C60ED71EE81EF91EF7FE06C081E0C81AD2
:104B0000D108E10880E8F80AC882D982EA82FB82EB
:104B1000C6019F77DF91CF91FF90EF90DF90CF900C
:104B2000BF90AF909F908F9008950E944A2508955E
:104B300080E091E00E944A250895A0E0B0E08093D3
:104B4000000190930101A0930201B0930301089525
:104B50006817790768F4FB01DC01E40FF51FA40F67
:104B6000B51F02C002900E9241505040D8F70895F0
:104B70000C94EA25DC0101C06D9341505040E0F7F0
:104B80000895FC018191861721F08823D9F7992790
:104B900008953197CF010895FB01DC018D910190BB
:104BA00080190110D9F3990B0895FB01DC010190E4
:104BB0000D920020E1F70895FB01DC0141505040C7
:104BC00030F08D910190801919F40020B9F7881BFD
:104BD000990B0895FB01DC0102C001900D92415038
:104BE0005040D8F70895B7FF0C943F250E943F2509
:0A4BF000821B930B0895F894FFCF89
:084BFA0001000000022F000081
:00000001FF
