S012000063686970636F6E5F76322E7372656327
S11300000C94D30E0C94F00E0C94F00E0C94F00E91
S11300100C94F00E0C94F00E0C94F00E0C94F00E64
S11300200C94F00E0C94F00E0C94F00E0C94F00E54
S11300300C94D9230C94F00E0C94F00E0C94F00E46
S11300400C94F00E0C94F00E0C94F00E0C94F00E34
S11300500C94F00E0C94F00E0C94F00E0C94F00E24
S11300600C94F00E0C94F00E6112A1129412AB12C7
S1130070B112B712DD12C512CC12591300140D14AB
S11300801914241468148714D812E312F012FD1200
S11300900A13241330133A1346154615461546150C
S11300A0461546154D1365137A138413A713B61317
S11300B0BE13CD13E113F413FA1310094A6F6E61E2
S11300C073204C696E6473746564740000FF10459A
S11300D06401A1926B006C3BDBC47B083B80100F76
S11300E0683CA18E6935D89663004300101DA19128
S11300F0D23263008C407CFF6B038CB26B004C00EB
S113010010277B057CFF10226100A181FB1EF06596
S1130110A196F11EF05571017B01310610286D087E
S11301206E0566006A01A19680D0D0E57014306C2B
S1130130103820A42109207D20C44F421018212802
S11301403463103D00E0A1546D286E0A6C0ADDEAA8
S11301507D08FC1E3D58104AA1726D346E196C0561
S1130160DDE57D08FC1E3D4C10536D2D6E286C059D
S1130170DDE57D08FC1E3D45105BA195F065A19C65
S1130180F0336C00A19CFC1EF065F029DDE57D05D3
S11301907C013C0310656C20EC9E106FA194600000
S11301A06100F1556C366F0A214F00C17CFF3C00A1
S11301B01076100B33001097CC0F3C001096CC0730
S11301C07C018C06A199FC1EF0654000109682D03B
S11301D083E073054C00109272147CFF108DA19182
S11301E0D2323F00109E00EEA191D2327301333A15
S11301F01092630000EE6C358B308BC53F00646356
S113020000EE8040700180066C00A199FC1EF05540
S11302107C013C0510A8A19CF43320B86C78FC1533
S1130220FC073C0010B320B800EEA19DF065F0304F
S11302306C376B1BDCBAA19EF065F0306C41DCBA04
S113024000EE46001102A191D56276FF460011022C
S1130250D5624F0011028CE07C058C654F001103C0
S1130260D56275FB66008CD060008BC08B553F0057
S113027010DF7C14700110D8A199F01EF06570FF96
S1130280F055A1964000DCE56C0AFC18A194F065D9
S11302906CFF80C3F055300010F4A195F065700137
S11302A0F0556C006B00A199FC1EF06530007B01D9
S11302B07C013C0510F63B00110274016F4200EE14
S11302C0A191D232D5626300660000EE6B006C0827
S11302D0ECA16BFF6C10ECA16B014B00111C4801ED
S11302E06B0148786BFFA18E6935D89688B4D8968F
S11302F011256C20EC9E112536001125858066356C
S1130300A191D5626F06214F00EEF007300011373E
S1130310601EF01567003D2111326AFF11353D075B
S113032011366A016701213800EE8BD06C0089B068
S113033081E0A199FC1EF06540001146A196D915F3
S113034089A48174D9157C017B143C05113A8DA4D0
S11303508E744E30646300EEFF15FF073F001150AA
S113036000EE3C0C1E1E33333F6161F31F0C0C0C7A
S11303700C0C0C8C8CDF070101010101010161E708
S1130380E78383838383838383E7FB190161E161CB
S1130390010119FB9F86C6E6E6B69E9E8EE6E494AE
S11303A0E790F7878080808788888888AF66884848
S11303B028C64CAAACAA4AE088C088E0000018FF0E
S11303C03C00183CFF81423C3C3C423C5A5A7E7EF5
S11303D00000243C24000018183C7EFF1818FF225B
S11303E0558800000000000000000000000000002C
S11303F00000000000000000101D626C696E6B7943
S113040020322E303020432E2045676562657267A6
S11304102031382F382D273931004A6163717565D1
S113042073204465736368656E65732C20323031C4
S1130430350080038113A388F1556005A38AF05524
S11304408773866322DF00E022F06E4087E26E2726
S113045087E1683469186A706B006C046D3422CDCE
S1130460A3ABDAB8DCD860FF6E1470FF300010392B
S11304707EFF3E001039210D3E001056A38AF06520
S11304808500C4FF845221A0C4FF8452223460201A
S1130490E0A1231436F710378E6023666E6423665A
S11304A023141025F007400010A8808080068006E1
S11304B081A0810681068015400010674001106705
S11304C040FF1067108080908006800681B081060E
S11304D081068015400010754001107540FF1075AD
S11304E01080A3ABDAB86A706B00DAB86EF387E2F7
S11304F06E0487E16E32236680808006800681C0A8
S11305008106810680154000108E4001108E40FF48
S1130510108E104280908006800681D0810681066C
S113052080154000109C4001109C40FF109C10421C
S1130530A3ABDCD86C046D34DCD86ECF87E26E20BC
S113054087E16E1923661042603C237D22CDA3AB64
S1130550DAB8DCD86E4087E3807080E2300010297E
S11305608E602366236E00E066246714A389231C2F
S113057066246720A388231C640065106601670F46
S1130580A4D7D460A4E7D560600A237D3E0011039C
S1130590A4D7D460A4E7D56074047504346010C48F
S11305A0A4D7D460A4E7D560600A237D3E0011037C
S11305B0A4D7D460A4E7D5607604362D10D4A4D78C
S11305C0D460A4E7D560600A237D3E001103A4D75C
S11305D0D460A4E7D56074FC75FC340010E3A4D7A0
S11305E0D460A4E7D560600A237D3E001103A4D73C
S11305F0D460A4E7D56076FC360110F310C4A4E7F8
S1130600D560A4F7D5606006F015F0073000110935
S1130610101D83706E0383E2848085906E04EEA1C6
S1130620113E6E02EEA1114A6E10EEA111566E0833
S1130630EEA1116243037504430075FC4302740484
S1130640430174FC80408150230482006E0880E2E0
S11306503000116E6E07802082E24205117242065C
S1130660117E4207119B22CD6EFC87E287318840C0
S1130670895012CD804081507104230482006E0899
S113068080E23000111E63037504112C80408150F8
S113069071FC230482006E0880E23000111E6300A6
S11306A075FC112C804081507004230482006E0874
S11306B080E23000111E63027404112C80408150CA
S11306C070FC230482006E0880E23000111E630176
S11306D074FC112C22CDD8988EF000EE6EF080E2DE
S11306E08031F055A3AFD45876016105F00740007E
S11306F0F11811376EF080E28031F055A3B3D4586D
S1130700760480A081B023046EF080E23000118E64
S11307106E0C87E380C081D023046EF080E2300049
S113072011976E3087E360FFF018F015113743011D
S11307306474430264001137827083706E0C82E229
S113074080A081B02304A3AB6EF080E2300011B727
S1130750DAB8420C7B0442007BFC42087A0442046F
S11307607AFCDAB800EE6E80F1073100120F340023
S1130770120F8100830E3F0011D0839083B54F0088
S113078011EB330011DF87E3838083A54F0012034D
S1130790330011F787E3120F838083A54F00120300
S11307A0330011F787E3839083B54F0011EB3300D7
S11307B011DF87E3120F634081324100120FDAB870
S11307C07B04DAB86EF387E2620C872100EE6310D3
S11307D081324100120FDAB87BFCDAB86EF387E29B
S11307E06200872100EE632081324100120FDAB8E3
S11307F07A04DAB86EF387E26208872100EE638038
S113080081324100120FDAB87AFCDAB86EF387E26B
S11308106204872100EEC1F08012300012176E0CC2
S113082087E382E311ACDAB8800E4F00121E620433
S11308307AFC122F800E4F001224620C7B04122FBC
S1130840800E4F00122A62087A04122F800E4F0085
S1130850121362007BFCDAB86EF387E2872100EEA4
S1130860827083706E3082E280C081D02304A3AB97
S11308706EF080E23000124BDCD842307D0442003E
S11308807DFC42207C0442107CFCDCD800EE6E80AF
S1130890F107310012A7340012A78100830E4F0024
S11308A01264839083D54F0012803300127387E360
S11308B0838083C54F00129A3300128D87E312A7F9
S11308C0838083C54F00129A3300128D87E383908F
S11308D083D54F0012803300127387E312A763405D
S11308E08132410012A7DCD87D04DCD887E36ECFC7
S11308F087E26230872100EE63108132410012A743
S1130900DCD87DFCDCD887E36ECF87E262008721E8
S113091000EE63208132410012A7DCD87C04DCD8CD
S113092087E36ECF87E26220872100EE6380813205
S1130930410012A7DCD87CFCDCD887E36ECF87E2C9
S11309406210872100EEC1F08012300012B087E3FC
S11309506E3087E382E31240DCD8800E4F0012B77A
S113096062907CFC12C8800E4F0012BD62307D0480
S113097012C8800E4F0012C362A07C0412C8800EFD
S11309804F0012AB62007DFCDCD86E4F87E28721FA
S113099000EE80706E0380E2800E818081946E048C
S11309A081E241007001800E800E800EA38BF01E48
S11309B0D8988EF000EE6E00A3D7FE1EFE1EFE1E1B
S11309C0FE1EF365A507FE1EFE1EFE1EFE1EF3554B
S11309D07E013E8012E000EE822383336E0F80207E
S11309E08130230680E2800E800EA3B7F01ED2343D
S11309F07204328012F382237304434000EE12F334
S1130A00700471048006800681068106810E810EC1
S1130A10810E810EA507F11EF11EF01EF06500EE99
S1130A20A38AF0658006F0556020E0A1131900EE5A
S1130A30F1656E01844382008310651083554F0075
S1130A4082E54F00132F652782554F00132F802016
S1130A50813084E41321F430D67A760C8443820006
S1130A60831065E883554F0082E54F001343650307
S1130A7082554F0013438020813084E41335F430D1
S1130A80D67A760C844382008310656483554F00C4
S1130A9082E54F0013538020813084E41349F430FD
S1130AA0D67A760C844382008310650A83554F00FE
S1130AB01360813084E41359F430D67A760CF13023
S1130AC0D67A00EEA388F16581E43F007001A38823
S1130AD0F15500EEA388F3658E008E254F0000EEDD
S1130AE03E00137A8E108E354F0000EEA389F15527
S1130AF000EE8EE36220F015E2A11386F0073000C9
S1130B00138000EE6E0100EE0000000005000022DC
S1130B106363777F3E1C001C1E5D5D6F3E1C003CC2
S1130B207E0F070F7E3C001C267F7F7B061C001E69
S1130B303F7870783F1E001C327F7F6F301C001C92
S1130B403E7F77636322001C3E6F5D5D1E1C001CAC
S1130B503E49777F637F000000000800000000002A
S1130B600000080800000000000000000000000071
S1130B7000000000000000000000800000008080F1
S1130B80000000000000F000000000000000808071
S1130B90808000000000F080808080808080F000F1
S1130BA00000800000000C0808080808080808086D
S1130BB008080808080D0C080808080808080808A8
S1130BC008080808080D0A6505050505E50505E595
S1130BD005050505C50A0A6505050505E50505E5D7
S1130BE005050505C50A0A050C08080F050C0D05C1
S1130BF00808080D050E0F050C08080F050C0D0557
S1130C000808080D050A0A050A650605950A0A3545
S1130C100505C50A350505950A650505950A0A35CC
S1130C200506C50A050A0A050F0508080808080C80
S1130C30080F0508080808080F0508080C08080824
S1130C40080F050F050A0A7505B505050505C50A4A
S1130C506505B505E50505E505B505C50A6505059B
S1130C600505B505D50A0A050C080808080D050F81
S1130C70050C080F05080F0508080D050F050C08DD
S1130C800808080D050A0F050F650505C50A35E5B1
S1130C90950A6505B00505B505C50A35E5950A65E6
S1130CA00505C50F050F077405D5080F050E0F05BB
S1130CB0080F050C080808080D05080F05080F059E
S1130CC0080F7505D4070A050A350505F50505B5A8
S1130CD00505D508080D0C080F750505B50505F5BE
S1130CE00505950A050A0A050808080D050C0808F3
S1130CF0080D3505C50A0A6505950C0808080D0593
S1130D000C08080F050A0A750506C50A050808082F
S1130D100808080F05080F050808080808080F0543
S1130D200A650605D50A0A050C0D050A35050505EB
S1130D3005E50505F50505F50505E505050505952F
S1130D400A050C0D050A0A05080F05080808080815
S1130D500F050C0D05080F050C0D050808080808FB
S1130D600F05080F050A0A350505B505050505052E
S1130D7005950A0A350505950A0A3505050505058B
S1130D8005B50505950A08080808080808080808AC
S1130D9008080F08080808080F08080808080808C1
S1130DA008080808080F01E0021004C809E40BF45D
S1130DB00BB409E504C9021301E70007018303F03A
S1130DC001FF00FF003F0F00108026404F205FA06E
S1130DD05DA04F2026409080CF00C00083001F807C
S1130DE0FF00FE00F8000F001F803FC07FE07FE09F
S1130DF05FE047E020C09080CF00C08083C01F80A8
S1130E00FF00FE00F8000000100F312E3030204BA0
S1130E102E762E53656E6762757363682032342FA5
S1130E20342D2739340000FF6C0420A46532663267
S1130E30672883508460626469006A016B0000C1A2
S1130E4020666001820560285200101BA0C8D348A8
S1130E50A0C8D34800C1D5683F0010402066600197
S1130E60320082052084835084606008E0A1205809
S1130E706010E0A12054C0034000205DC003400086
S1130E80206180C020BD102480B0700380068006DD
S1130E90F03080707011611BD01A606420BD00C8EE
S1130EA060006100A0CC9012F00A40FF10501011B5
S1130EB07501456E656D00EE600185054F006500A6
S1130EC000EE77014746674500EE60018705471449
S1130ED0671500EE8090612D810588106100807097
S1130EE0A0C2D01180846100D0117A014A046A0141
S1130EF04A01A0C34A02A0C44A03A0C5610060001D
S1130F00D0116008D0116070D0116078D01100EE5B
S1130F10320000EEC00F807470086100A0C8622D1A
S1130F204B1E20963B21D0187B0180908205390B03
S1130F30790100EE7B03A0C680707005D0117008A3
S1130F40D0117008D0117008A0C7D011626400EEEF
S1130F5000E060006100A0D29012620882C5F2290C
S1130F60602AD015F00A400220BA400420B730208D
S1130F7010A400E000EE3C077C0110BC3C017CFFA7
S1130F80600FF015F007300010BE00EE88008800F6
S1130F9055002200FF00F800DBFFDB1824E7E7DB45
S1130FA0616E79206B65792E2E2E00007370656555
S1130FB0643A200063617274652053442061627353
S1130FC0656E746521004352415348212062616477
S1130FD0206F70636F64650A0043524153482120B7
S1130FE0626164206F70636F64650A004641542037
S1130FF06472697665720A436F707972696768749E
S113100020323030362D323031320A526F6C616EFC
S1131010642052696567656C0A004C454D0A43417A
S1131020520A574F524D0A414C49454E0A424C49C7
S11310304E4B590A007661725B5D3A002053503A78
S113104000493A0050433A004563686563206F7570
S1131050766572742E20666963682E0A004563689B
S11310606563206163636573207265706572742EB5
S11310700A0045636865632061636365732066697C
S11310806368696572730A00456368656320616318
S113109063657320706172746974696F6E0A0062AB
S11310A06F75746F6E2E2E2E0000E020C2690068EA
S11310B00078019E0860108E058E066D006C006B32
S11310C0006A642087206D20B34A00102B6008E07A
S11310D0A1101C6010E0A110206020E0A1102410D9
S11310E02B20B37CFF7AFF102920B37C017AFF10F8
S11310F02920B37BFE3A017AFF7AFF904420B32083
S1131100B3206D8EC4607F8E028DB47B01206D4F41
S113111001104B20B34A00103B60142046101020ED
S1131120B3600A610490116004204620B360049007
S11311301120461010F015F0073000104700EE2083
S1131140B3600280B53F01105C600280C53F0110AE
S11311505C5E70105C7901A0E8610062109122105D
S113116060A0E26100621091222070603C20466021
S113117020E09E10646101620A9121E0A1106900DF
S1131180E01004A0CFDED000EE6100620AA10CF9E9
S113119033207CA0DFD1257104A10CF833207C001E
S11311A0EE6300A10CF31EF065F029D125710473E0
S11311B0013303107D00EE6500C7FF9008631080C3
S11311C0359006807590073F01870084707410C1C4
S11311D00F90098107835083753F01109E835083CC
S11311E0453F0110AD9009800680153F00710190C4
S11311F00970FF80173F0071FFC30383063300713A
S1131200FE71019513750190085500109600EE616A
S11312100062006300A10CFA33A10CF31EF065F028
S113122030D12A71087301330310B800EEA0F061C5
S113123000920982069122910900D160032046712F
S1131240FF310010C800EE03C006601FF83FFC2009
S113125004AFF56C362C346FF6A0053FFC3FFC124E
S1131260902448600CC006204040808000796F754F
S1131270206372617368656400636F6E6772617482
S1131280756C6174696F6E21004C454D0A4A616347
S113129071756573204465736368656E65730A438D
S11312A06F7079726967687420323031342C32304F
S11312B031350A6C6963656E63652047504C76333B
S11312C00000000000FFFFFFFFFFFFFFFFFFFFFF25
S11312D0FFFFFFFFFFFFFFFFFFFFFFFFFFFFFFFF1A
S11312E0FFFFFFFFFFFFFFFFFFFFFFFFFFFFFFFF0A
S11312F0FFFFFFFFFFFFFFFFFFFFFFFFFFFFFFFFFA
S1131300FFFFFFFFFFFFFFFFFFFFFFFFFFFFFFFFE9
S1131310FFFFFFFFFFFFFFFFFFFFFFFFFFFFFFFFD9
S1131320FFFFFFFFFFFFFFFFFFFFFFFFFFFFFFFFC9
S1131330FFFFFFFFFFFFFFFFFFFFFFFFFFFFFFFFB9
S1131340FFFFFFFFFFFFFFFFFFFFFFFFFFFFFFFFA9
S1131350FFFFFFFFFFFFFFFFFFFFFFFFFFFFFFFF99
S1131360FFFFFFFFFFFFFFFFFFFFFFFFFFFFFFFF89
S1131370FFFFFFFFFFFFFFFFFFFFFFFFFFFFFFFF79
S1131380FFFFFFFFFFFFFFFFFFFFFFFFFFFFFFFF69
S1131390FFFFFFFFFFFFFFC1CF9981FFFFFFFFFFAB
S11313A0FFFFFFFFFFFFFF80CF9980FFFFFFFFFFDD
S11313B0FFFFFFFFFFFFFF1C4F999C7FFFFFFFFF15
S11313C0FFFFFFFFFFFFFF3ECF999E7FFFFFFFFF61
S11313D0FBFE7FFFFFFFFE7FCF999E787C3C87FF5B
S11313E0FBFDBFFFFFFFFE7FCF999E70381C03FFFC
S11313F0F3FBDFFFFFFFFE7FC0199C63118C73EFCB
S1131400ABFBDFFFFFFFFE7FC01980E793CCF3F750
S11314107BFBDFFFFFFFFE7FCF9981E7F3CCF3F780
S11314207BFBDFFFFFFFFE7ECF999FE7F3CCF3F753
S11314307BFBDFFFFFFFFF3C4F999FE793CCF3FA61
S1131440FBFBDFFFFFFFFF1CCF999FE3118CF3FA37
S1131450FBFBDFFFFFFFFF80CF999FF0381CF3FAFF
S1131460FBFDBFFFFFFFFFC1CF999FF87C3CF3FD5D
S1131470FBDE7FFFFFFFFFFFFFFFFFFFFFFFFFFF1D
S1131480FFFFFFFFFFFFFFFFFFFFFFFFFFFFFFFF68
S1131490FFFFFFFFFFFFFFFFFFFFFFFFFFFFFFFF58
S11314A0FFFFFFFFFFFFFFFFFFFFFFFFFFFFFFFF48
S11314B0FFFFFFFFFFFFFFFFFFFFFFFFFFFFFFFF38
S11314C0FFFFFFFFFFFFFFFFFFFFFFFFFFFFFFFF28
S11314D0FFFFFFFFFFFFFFFFFFFFFFFFFFFFFFFF18
S11314E0FFFFFFFFFFFFFFFFFFFFFFFFFFFFFFFF08
S11314F0FFFFFFFFFFFFFF8FFFFFF7F7DF3EFBF765
S1131500FBFC3FFFFFFFFF77FFFFFFF7DEDD73E725
S1131510FBFDDFFFFFFFFEF634DD56548EEBABE739
S1131520FB1DEC7FFFFFFEFDD35D35935FEBBBD767
S1131530FAEDEBBFFFFFFEFDD76B75D75FDBBBD7C3
S1131540FBEDEBBFFFFFFEFDD76B75D75FBBBBB7F2
S1131550FB0DE83FFFFFFEF5D76B75D75F7BBB83C1
S1131560DAEDEBFFFFFFFF75D37775975EFD7BF731
S1131570DAEDDBBFFFFFFF8E34F776574E0EFBF735
S1131580E70C3C7FFFFFFFFFF7F7FFDFFFFFFFFFE5
S1131590FFFFFFFFFFFFFFFFF7F7FDDFFFFFFFFF89
S11315A0FFFFFFFFFFFFFFFFF7CFFE3FFFFFFFFF40
S11315B0FFFFFFFFFFFFFFFFFFFFFFFFFFFFFFFF37
S11315C0FFFFFFFFFFFFFFFFFFFFFFFFFFFFFFFF27
S11315D0FFFFFFFFFFFFFFFFFFFFFFFFFFFFFFFF17
S11315E0FFFFFFFFFFFFFFFFFFFFFFFFFFFFFFFF07
S11315F0FFFFFFFFFFFFFFFFFFFFFFFFFFFFFFFFF7
S1131600FFFFFFFFFFFFFFFFFFFFFFFFFFFFFFFFE6
S1131610FFFFFFFFFFFFFFFFFFFFFFFFFFFFFFFFD6
S1131620FFFFFFFFFFFFFFFFFFFFFFFFFFFFFFFFC6
S1131630FFFFFFFFFFFFFFFFFFFFFFFFFFFFFFFFB6
S1131640FFFFFFFFFFFFFFFFFFFFFFFFFFFFFFFFA6
S1131650FFFFFFFFFFFFFFFFFFFFFFFFFFFFFFFF96
S1131660FFFFFFFFFFFFFFFFFFFFFFFFFFFFFFFF86
S1131670FFFFFFFFFFFFFFFFFFFFFFFFFFFFFFFF76
S1131680FFFFFFFFFFFFFFFFFFFFFFFFFFFFFFFF66
S1131690FFFFFFFFFFFFFFFFFFFFFFFFFFFFFFFF56
S11316A0FFFFFFFFFFFFFFFFFFFFFFFFFFFFFFFF46
S11316B0FFFFFFFFFFFFFFFFFFFFFFFFFFFFFFFF36
S11316C0FFFFFFFFFF0000000000000000202020BB
S11316D0202000200050505000000000005050F81E
S11316E050F85050002078A07028F02000C0C81096
S11316F020409818006090A040A8906800602040A6
S11317000000000000102040404020100040201045
S113171010102040000020A870A820000000202005
S1131720F8202000000000000060204000000000BD
S1131730F0000000000000000000606000000810DD
S11317402040800000708898A8C88870002060201D
S1131750202020F800708810204080F800F008084D
S1131760F00808F00010305090F8101000F8808055
S1131770F00808F000304080F088887000F8081005
S11317802040404000708888708888700070888885
S11317907008087000006060006060000000606015
S11317A0006020400010204080402010000000F81D
S11317B000F8000000402010081020400070880845
S11317C0102000200070880868A8A870007088881D
S11317D0F888888800F08888F08888F0007880800D
S11317E08080807800F08888888888F000F880807D
S11317F0F88080F800F88080F8808080007880800D
S1131800B088887000888888F888888800702020CC
S1131810202020700078080808089060008890A0B4
S1131820C0A0908800808080808080F80088D8A83C
S113183088888888008888C8A898888800708888DC
S11318408888887000F08888F0808080007088889C
S113185088A8987800F08888F0A090880078808024
S1131860700808F000F820202020202000888888B4
S113187088888870008888888888502000888888AC
S1131880A8A8D8880088885020508888008888882C
S11318905020202000F81020408080F80060404054
S11318A040404060000080402010080000180808F4
S11318B008080818002050880000000000000000FC
S11318C0000000F80040201000000000000000703C
S11318D00878887800808080B0C888F000000070A4
S11318E08080887000080808689888780000007074
S11318F088F8807000304840E040404000000078A4
S113190088887808708080B0C888888800002000A3
S11319102020202000100030101090600080809063
S1131920A0C0A0900060202020202070000000D0E3
S1131930A8A88888000000B0C888888800000070C3
S113194088888870000000F08888F0808000006833
S11319509090B050180000B0C880808000000070E3
S1131960807008F0004040E04040483000000088AB
S113197088889868000000888888502000000088C3
S113198088A8A850000000885020508800000088D3
S113199088887808700000F8102040F80020404043
S11319A080404020002020202020202000402020B3
S11319B01020204000000040A810000000FCFCFCA7
S11319C0FCFCFCFCFC402010F810204000102040DF
S11319D0F8402010002070A82020200000002020C3
S11319E020A87020000070F8F8F87000007C82864F
S11319F08A92A2C2827C0008182808080808083EB7
S1131A00003844820408102040FE00384482023C1E
S1131A100282443800848484847E04040404007EA6
S1131A208080807C020202FE0078848080FC8282B6
S1131A30827C007E82040808080808080038448272
S1131A40827C828244380038448282463A020438D6
S1131A500038448282FE8282828200FC828282FC7E
S1131A60828282FC003E408080808080403E00F87C
S1131A7084828282828284F800FE808080FE80805C
S1131A8080FE00FE808080FE8080808000E0A0A038
S1131A90A0E000C0404040E000E020E080E000E042
S1131AA020E020E000A0A0E0202000E080E020E092
S1131AB0008080E0A0E000E02020202000E0A0E002
S1131AC0A0E000E0A0E0202000E0A0E0A0A000C092
S1131AD0A0C0A0C000E0808080E000C0A0A0A0C0A2
S1131AE000E080E080E000E080E08080000B022ADB
S1131AF0024B026E029302BA02E40210033F037027
S1131B0003A403DC03170455049704DD04100E57E3
S1131B106F726D0052423932000000003E05002B06
S1131B207C0000061E0100040000FF00E0A006FE89
S1131B3065A0CCF055FC1E710131001013A0B5DA7C
S1131B40B3D421D4317403347A101AA0BE6304D3FD
S1131B5029D4297209323F1021A003F065A001F0B5
S1131B6033632E2073A001F533207220A6A0BDD7C5
S1131B706176FE36111030630AF315A0CCF81EF01E
S1131B8065840080A0F055A14CF81EF065810080AA
S1131B90B0F055A0B63400D413A0B1F91EF165A07D
S1131BA0B8DAB28A048B14A0B5DAB33F00107FC050
S1131BB00F400020A4780198E068006108E19E6667
S1131BC000E19E1061360010617902660689626147
S1131BD010E19E6700E19E106B3700106B79FE6781
S1131BE0068972F3073300105710352072A001F5EF
S1131BF0336300647CA001F265F029D4357306F1E7
S1131C0029D4357306F229D43500EE20AEA0B5DA16
S1131C10B3DAB33F00108A6402F4187501206F1020
S1131C2054640AF418DAB38A058B15A0B8DAB2A0A2
S1131C3003F065805580504F00F0556064F015F056
S1131C40073000109900C88100A0C39012F00A3038
S1131C502010A0100E7E0100EEA0B9CC7C7C02CD39
S1131C603C7D02DCD74F0000EEA0B9DCD710A704FE
S1131C700000FCFC000004E0E0E0A0E000004038CC
S1131C807CDEFEFE7C3800F00080808080808080D6
S1131C9080800073656C656374207265737461720F
S1131CA0742E2E2E00000000000000000000000032
S1131CB00000000000000000000000000000000020
S1131CC00000000000000000000000000000000010
S1131CD00000000000000000000000000000000000
S1131CE000000000000000000000000000000000F0
S1131CF000000000000000000000000000000000E0
S1131D0000000000000000000000000000000000CF
S1131D1000000000000000000000000000000000BF
S1131D2000000000000000000000000000000000AF
S1131D30000000000000000000000000000000009F
S1131D40000000000000000000000000000000008F
S1131D50000000000000000000000000000000007F
S1131D60000000000000000000000000000000006F
S1131D70000000000000000000000000000000005F
S1131D80000000000000000000000000000000004F
S1131D90000000000000000000000000000000003F
S1131DA000000000000011241FBECFEFD8E0DEBF0A
S1131DB0CDBF11E0A0E0B1E0EEE6FBE402C0059087
S1131DC00D92A830B107D9F728E0A8E0B1E001C02E
S1131DD01D92A035B207E1F70E9457110C94B52566
S1131DE00C940000FC01818190E0982F88272081C9
S1131DF0822B0895FC0123816281862F90E0A0E06C
S1131E00B0E077276627922B2081622B2181722BE9
S1131E100895EF92FF920F931F93CF93DF938C015A
S1131E207B01C0E0D0E0CE15DF0549F0F801EC0FEE
S1131E30FD1F6491CE010E94F11E2196F4CFDF9123
S1131E40CF911F910F91FF90EF900895DF92EF9241
S1131E50FF920F931F93CF93DF93CDB7DEB7A09775
S1131E600FB6F894DEBF0FBECDBF2AE0289F7001E5
S1131E70299FF00C112485E0EE0CFF1C8A95E1F7F4
S1131E8000E010E0D12CAE014F5F5F4F60E270E0E4
S1131E90C8018E0D9F1D0E94321F8981882391F0F5
S1131EA080E20E94B41FCE0101960E94122086E0B7
S1131EB08D1510F00E94861FD394005E1F4F8AE098
S1131EC0D812E1CF8D2DA0960FB6F894DEBF0FBEC9
S1131ED0CDBFDF91CF911F910F91FF90EF90DF90D5
S1131EE008959F92AF92BF92CF92DF92EF92FF92AA
S1131EF00F931F93CF93DF936C010E94232382E0FF
S1131F008093CF028091CF028111FCCF80E090E0DA
S1131F100E94260F982EC0E0D0E0E12CF12C9AE02C
S1131F20A92E00E025EC39E148E01C2F110F110F18
S1131F30110F612F80E00E948A210E94E91BB82EB4
S1131F4025EC39E148E0612F80E00E948A2188E095
S1131F50B81631F18B1540F082E0B816D9F184E05F
S1131F60B81609F44AC066C080E1B816F1F080E200
S1131F70B81260C00E94F11B2AE02E9DC0012F9D63
S1131F80900D11248C0F9D1FDF91CF911F910F9104
S1131F90FF90EF90DF90CF90BF90AF909F90089507
S1131FA0E114F10409F444C01CC0E7012196AC9E7D
S1131FB09001AD9E300D11242C153D0544F40E9472
S1131FC02323CE010E94260F982E7E0131C0C92DF5
S1131FD0D0E002C0209711F021972CC0E114F10445
S1131FE049F181E0E81AF1080E942323C7010E9405
S1131FF0260F982EC7E0D0E01DC0292D30E02150D7
S11320003109C217D30714F4219614C087010F5F56
S11320101F4FA09E9001A19E300D11242C153D054B
S11320204CF40E942323C8010E94260F982E7801A5
S1132030C0E0D0E086B18E738E3309F472CF41E0F4
S113204062E08B2D0E94F120F5CFEF92FF920F9367
S11320501F93CF93DF93CDB7DEB7CB54D1090FB61F
S1132060F894DEBF0FBECDBF2C961FAE2C97E12C8B
S1132070F12C00E010E0CE0101960E94DC1B8823C5
S1132080C1F089A184FDF7CFBE016F5F7F4FCE0100
S11320908C960E948F25AE01445D5F4F60E270E034
S11320A0C7010E945B1F0F5F1F4F80E2E80EF11C07
S11320B0E2CF1CA6AE01445D5F4F60E270E0C80150
S11320C025E0880F991F2A95E1F70E945B1FC8013C
S11320D0C55BDF4F0FB6F894DEBF0FBECDBFDF91F7
S11320E0CF911F910F91FF90EF9008950E942510BA
S11320F0009791F00E94710F97FD0EC00E94911BF2
S1132100882351F00E9423230E94F111823021F48C
S113211089ED9FE00C94A01108958F929F92AF9245
S1132120BF92CF92DF92EF92FF920F931F93CF93C0
S1132130DF93CDB7DEB7A0970FB6F894DEBF0FBE1E
S1132140CDBFCE0101967C0180E2F70111928A9500
S1132150E9F7A12CB12CC12CD12C00E010E040E215
S1132160842EC8010196F801E65EFF4E94909920F2
S113217009F1D7018C01FAE09F1649F09D920F5F97
S11321801F4FF801E75EFF4E94909110F4CFA70122
S113219060E270E0C5010E945B1F8FEFC81AD80A85
S11321A0F701882D11928A95E9F790E2A90EB11CE6
S11321B09110D7CFA70160E270E0C60135E0880F27
S11321C0991F3A95E1F70E945B1F0E942323C601E1
S11321D00E94710F82309105C9F048F4009789F08C
S11321E0019749F56CEA71E088E09EE018C08330FD
S11321F0910589F00497F9F460E17AE088EF93E0BF
S11322000EC06CE172E089EA90E109C068E972E00D
S11322108DE09BE104C06EE373E08AEB90E00E94E2
S1132220090F0E9423230E94F111823021F486ECCD
S11322309FE00E94A011A0960FB6F894DEBF0FBED7
S1132240CDBFDF91CF911F910F91FF90EF90DF9061
S1132250CF90BF90AF909F908F900895CF93DF93CE
S1132260C0E0D0E8FE01EB53FD466491CE010E942C
S1132270F11E2196C11584E8D807A1F70E94D12345
S113228088E78093CF028091CF02882361F086B1E2
S11322908E738E33C1F362E088EE93E00E94DF20F8
S11322A01092CF02F0CFDF91CF910C94F11B80E814
S11322B080936100109261000E94212184B18862A0
S11322C084B980E58CBD8DB581608DBD87B1817C7D
S11322D087B988B18E6388B90E94D9200E94EA1E0A
S11322E0789480918400909185000E9457250E94E3
S11322F0F61C0E94B31A882331F085E091E00E9415
S1132300101BC82F01C0C0E00E942E1164E08CEEA7
S11323109FE00E9482200E94232382E00E94831F68
S1132320C1110BC084EB9FE00E941E200E94861FF7
S11323300E94FC1B0E948D10EECF0E947610EBCF02
S1132340CF93DF93EC010E94232382E00E94831F3A
S1132350CE010E941E2084E490E10E941E20809100
S113236032019091330164E002970E942D20809104
S1132370570162E090E00E942D208091580162E0B4
S113238090E00E942D200E94861F81E490E10E942B
S11323901E2064E080913401909135010E942D202B
S11323A08CE390E10E941E208091360162E090E06F
S11323B00E942D200E94861F85E390E10E941E202A
S11323C0C7E3D1E0899162E090E00E942D2081E092
S11323D0C734D807B9F70E94861FDF91CF910C94B8
S11323E0FC1BAF92BF92DF92EF92FF920F931F9369
S11323F0CF93DF9310923301109232011092360181
S113240010923501109234011092090110920801C2
S11324104AE051E068E070E080E090E00E94321F02
S1132420CAE0D8E510E8D12E0E94041C81112CC307
S1132430809132019091330120910801309109017A
S11324408217930728F0285F3F4F8217930750F0B5
S113245090930901809308014AE051E068E070E03C
S11324600E94321F20913201309133018091080182
S113247090910901F901E81BF90BE65FFE4FA08179
S1132480A0935701F901E81BF90BE55FFE4F80812A
S113249080935801590192E0A90EB11CB092330106
S11324A0A09232010A2F0F70F82EF294BFE0FB22A3
S11324B04A2F42954F7050E04C5C5F4FFA010C94E8
S11324C0E424982F907F903C21F48F700E94312354
S11324D0ABCF903D21F48F700E945923A5CF8C3F40
S11324E001F150F48E3E61F08B3FC1F0803E09F063
S11324F0CDC20E94232398CF8D3F09F095CFC4C24B
S1132500E09136018FEF8E0F80933601F0E0EE0FED
S1132510FF1FEE5CFE4F87A190A518C00E948E237A
S113252083CF0E94B52380CF409136014F5F409303
S1132530360150E0440F551F4E5C5E4FFA01B0A6C1
S1132540A7A290E09A2B880F991F9F709093330154
S11325508093320169CFE02FF0E0EE5CFE4F95816D
S113256011C0E02FF0E0EE5CFE4F9581B9C0E02F82
S1132570F0E0EE5CFE4FAF2DB0E0AE5CBE4F958157
S113258015968C91981350CFAEC0E02FF0E0EE5C1E
S1132590FE4F9581980F56C1482F4F7050E04F3031
S11325A0510508F073C2FA01EC5BFF4F0C94E4246C
S11325B0EF2DF0E0EE5CFE4F8581E02FF0E0EE5C65
S11325C0FE4F858331CFE02FF0E0EE5CFE4FAF2D60
S11325D0B0E0AE5CBE4F15968C919581892BF1CFFE
S11325E0E02FF0E0EE5CFE4FAF2DB0E0AE5CBE4FEE
S11325F015968C9195818923E4CFE02FF0E0EE5C71
S1132600FE4FAF2DB0E0AE5CBE4F15968C91958118
S11326108927D7CFE02FF0E0EE5CFE4F2581AF2D68
S1132620B0E0AE5CBE4F15968C91982F920F9583B7
S113263090E0820F911D21E08F3F910509F00CF489
S113264020E020934601F0CEE02FF0E0EE5CFE4F58
S11326502581AF2DB0E0AE5CBE4F15969C9114C0A1
S1132660E02FF0E0EE5CFE4F8581982F96959583E0
S113267081702BC1EF2DF0E0EE5CFE4F2581E02F41
S1132680F0E0EE5CFE4F9581822F891B858381E00B
S1132690291708F01AC180E018C1E02FF0E0EE5CC1
S11326A0FE4F8581982F990F9583881F8827881F4F
S11326B00CC1482F4F7050E04A30510508F0E6C174
S11326C0FA01ED5AFF4F0C94E424E02FF0E0EE5CA5
S11326D0FE4FAF2DB0E0AE5CBE4F958115968C9148
S11326E0981709F4A1CE2C5F3F4F30933301209308
S11326F032019ACEAF2DB0E0AE5CBE4FE02FF0E0D9
S1132700EE5CFE4F40E043C082E00E94831FAF2D89
S1132710B0E0AE5CBE4FE02FF0E0EE5CFE4F1596ED
S11327206C9185810E940D20809134019091350136
S11327309C012F5F3F4F30933501209334010E9459
S1132740111F882309F470CE0E94B41FEDCFAF2D62
S1132750B0E0AE5CBE4FE02FF0E0EE5CFE4F42E036
S113276015966C9185810E943D215ECE8F2DF0E1FE
S11327700F9F800D11240E940D2156CEAF2DB0E085
S1132780AE5CBE4FE02FF0E0EE5CFE4F41E01596EC
S11327906C9185810E94F12047CEE0913601EF5F74
S11327A0E0933601F0E0EE0FFF1FEE5CFE4FA02F2A
S11327B0B0E0AE5CBE4F15968C9190E090A787A3D5
S11327C033CEE09136018FEF8E0F80933601A02F28
S11327D0B0E0AE5CBE4FF0E0EE0FFF1FEE5CFE4FCC
S11327E087A115968C9320CEE02FF0E0EE5CFE4F8F
S11327F0D5821ACEE02FF0E0EE5CFE4FD58314CEE6
S113280090E09A2B880F991F9F70909335018093C5
S1132810340180919901816011C12091370190E0C8
S11328209A2B880F991F9F70820F911D820F911D03
S11328308DCE0E945225E02FF0E0EE5CFE4F909189
S1132840580198239583F0CD8F70B82E10E0EF2CAB
S1132850F12C8091340190913501B11014C042E102
S113286051E060E270E00E94321FD701AE5CBE4FBF
S1132870F801EE5CFE4F42E151E015966C918581C2
S11328800E94272222C02091990120FD09C0D7016E
S1132890AE5CBE4FF801EE5CFE4F00E09C010FC041
S11328A06B2D70E042E151E00E94321FD701AE5C13
S11328B0BE4FF801EE5CFE4F01E022E131E04B2D0A
S11328C015966C9185810E948A2180934601ACCD36
S11328D08E3919F0813A61F0D9C0E02FF0E0EE5C56
S11328E0FE4F85810E94E31B882309F49DCD09C016
S11328F0E02FF0E0EE5CFE4F85810E94E31B811126
S113290093CD809132019091330102961FCE89328A
S113291009F46EC018F5853109F458C048F48730BD
S113292009F451C08A3009F0B1C00E94E91B45CEB8
S1132930883109F453C08E3109F0A8C0E02FF0E0CB
S1132940EE5CFE4F25818091340190913501820F18
S1132950911D909335018093340166CD853509F43A
S113296070C0D8F4803309F454C0833309F08EC0A6
S1132970E02FF0E0EE5CFE4F85816C2F0E948324F3
S1132980909314010E948324909313018093120165
S113299042E151E063E070E05AC0853709F45EC05B
S11329A0853809F466C0853609F070C0602F70E080
S11329B06F5F7F4F47E351E080913401909135017F
S11329C00E94321F31CD8091CF02F7CDE02FF0E08D
S11329D0EE5CFE4F85818093CF0226CDE02FF0E0A0
S11329E0EE5CFE4F65818BE092E00E94DF201CCDFF
S11329F0E02FF0E0EE5CFE4F858126E0829FC0016F
S1132A0011248357954E909335018093340180E0CF
S1132A1010C0E02FF0E0EE5CFE4F8581EAE08E9F6F
S1132A20C00111248351964E909335018093340153
S1132A3081E00E94831F809199018E7F8093990188
S1132A40F3CC602F70E06F5F7F4F47E351E08091DC
S1132A503401909135010E945B1FE6CC80E0E82FA1
S1132A60F0E0EE5CFE4F9581958B8F5F0817B8F709
S1132A70DBCC80E0E82FF0E0EE5CFE4F9589958397
S1132A808F5F0817B8F7D0CC81E001C082E0DF91F6
S1132A90CF911F910F91FF90EF90DF90BF90AF9077
S1132AA00895EF92FF920F931F93CF93DF937C01CE
S1132AB0E901088119818A819B8180969B838A839D
S1132AC0D7018C91853E09F478C0882309F475C038
S1132AD01B968C918F3009F470C08BE2F80111922F
S1132AE08A95E9F7D80197964D935D936D937C93FE
S1132AF09A97D701A80180E09C91903299F0FA014D
S1132B009083F701248523FF07C02C9121542A3197
S1132B1018F4905EFA0190838F5F11964F5F5F4FB8
S1132B20883051F7D8019C91953011F495EE9C931F
S1132B30F7019085903211F1F801E80FF11D9EE242
S1132B409083F701389634E0380F8F5F908190328C
S1132B50A9F0A801480F511DDA019C93D7011C96D6
S1132B602C9124FF07C0208121542A3118F4905E4F
S1132B70DA019C938F5F31968313E8CFF801E80F55
S1132B80F11D1082F7018385D80190968C93C701BB
S1132B904A960E94F20EF80192A381A3C7014C96B3
S1132BA00E94FA0ED80193966D937D938D939C9316
S1132BB0969781E08C8380E001C081E0DF91CF9122
S1132BC01F910F91FF90EF9008950F931F93CF9350
S1132BD0DF9300D0CDB7DEB7FC01009731F162304E
S1132BE0710518F1A081B18180E090E0660F771F34
S1132BF0881F991F0681178120853185600F711FF9
S1132C00821F931FED91FC9122E030E0AE014F5FF3
S1132C105F4F0995882349F029813A81C9010197B9
S1132C208F3E9F4F10F4C90102C080E090E00F90E6
S1132C300F90DF91CF911F910F9108952F923F92A2
S1132C404F925F926F927F928F929F92AF92BF92B8
S1132C50CF92DF92EF92FF920F931F93CF93DF9364
S1132C60CDB7DEB7A8970FB6F894DEBF0FBECDBFC1
S1132C709B8F8A8F892B09F443C180919302909191
S1132C809402892B09F03CC1E3E9F2E08CE1DF0115
S1132C901D928A95E9F7EA8DFB8DF0939402E093F7
S1132CA0930281859285A385B48539E0880F991FA5
S1132CB0AA1FBB1F3A95D1F78C8F9D8FAE8FBF8F04
S1132CC0BC01CD01655F7F4F8F4F9F4F0190F08115
S1132CD0E02D29E130E0AE014F5F5F4F099581118E
S1132CE005C010929402109293020AC1CE0101967B
S1132CF00E94F20E1C01CE0104960E94F20E99A3CA
S1132D0088A32B812AA39E80CE0107960E94F20EEF
S1132D109CA38BA3CE0109960E94F20E5C01CE0106
S1132D200C960E94F20E8C01CE0146960E94FA0E79
S1132D306B017C01611571058105910531F4A114C4
S1132D40B10479F26501E12CF12C0115110549F268
S1132D509801A92DB0E00E94EA244B015C0197017F
S1132D60860148A159A1041B150B21093109061B31
S1132D70170B280B390BC10101974BA15CA165E02E
S1132D80440F551F6A95E1F7840F951FB1010E9406
S1132D908F24061B170B210931095AA1452E512CEA
S1132DA0612C712CC901B801A30192010E94A324D2
S1132DB029013A01253F8FE038074105510508F400
S1132DC090CF253F9FEF39074105510530F486E048
S1132DD0AA8DBB8D18968C9304C08BE0EA8DFB8D75
S1132DE0808788E1E5E9F2E0DF011D928A95E9F741
S1132DF0C101A0E0B0E08DA39EA3AFA3B8A7A70133
S1132E009601BC01CD010E947324609395027093D6
S1132E10960280939702909398029101A8A1B9A178
S1132E200E94EA246B017C018C8D9D8DAE8DBF8D3B
S1132E30C80ED91EEA1EFB1EC0929902D0929A02B5
S1132E40E0929B02F0929C02C301B2016E5F7F4F3D
S1132E508F4F9F4FAA8DBB8D18962C91263029F445
S1132E6022E030E040E050E004C024E030E040E004
S1132E7050E00E94732460939D0270939E0280939D
S1132E809F029093A0023092A2022092A102BAA1C2
S1132E90B29DC001B39D900D11249093A402809320
S1132EA0A302A50194016DA17EA18FA198A50E9402
S1132EB073246C0D7D1D8E1D9F1D6093A90270935C
S1132EC0AA028093AB029093AC02EBA1FCA18F0108
S1132ED020E030E045E0000F111F221F331F4A9508
S1132EE0D1F7060F171F281F391F0093A50210934F
S1132EF0A6022093A7023093A80283E992E002C0BD
S1132F0080E090E0A8960FB6F894DEBF0FBECDBF68
S1132F10DF91CF911F910F91FF90EF90DF90CF90B1
S1132F20BF90AF909F908F907F906F905F904F90E5
S1132F303F902F900895009719F0FC0111821082A0
S1132F400895CF93DF93009799F06115710581F08F
S1132F50FB0120A124FD0CC020912D0230912E02F2
S1132F60232B49F02091600230916102232B31F030
S1132F7080E090E019C0CDE2D2E002C0C0E6D2E029
S1132F80DE0112962BE2FB0101900D922A95E1F7E6
S1132F90998388831DA61EA61FA618AAFB0181A1DA
S1132FA092A19AAB89ABCE01DF91CF91089500979E
S1132FB019F0FC011182108208952F923F924F92D2
S1132FC05F926F927F928F929F92AF92BF92CF92B5
S1132FD0DF92EF92FF920F931F93CF93DF93CDB7BE
S1132FE0DEB728970FB6F894DEBF0FBECDBF988723
S1132FF08F831B017A01892B19F48FEF9FEFE3C0B4
S113300061157105D1F341155105B9F3AF81B88547
S11330109D968D909D90AD90BC90D09795968D91F6
S11330209D910D90BC91A02DB501A4014E0D5F1D85
S1133030611D711D84179507A607B70728F47C0145
S1133040E818F90809F4BDC0AF81B885ED91FC9189
S11330501197808991899A838983D1960D911C91C6
S1133060D29701151105D9F593960D911C9194975A
S11330700115110561F481E090E089288A288B28E4
S113308011F480E090E09195819591099CC08114A0
S11330909104A104B10419F124013501A981BA8173
S11330A09D0140E050E04216530664067506B8F0F0
S11330B0421A530A640A750AB801EF81F8858081BF
S11330C091812B833C834D835E830E94E5158C01A3
S11330D02B813C814D815E81009729F78ECFC98079
S11330E0DA80F1E0CF1AD108C820D9205701AF8186
S11330F0B885ED91FC91309799F00230110580F07C
S1133100A089B1899801225031090E94EA24428899
S1133110538864887588640D751D861D971D03C0CA
S113312060E070E0CB0189809A808C189D08A81417
S1133130B90408F445010190F081E02D6C0D7D1D6A
S1133140811D911D0190F081E02D9401A10109954B
S1133150882339F1280C391CA818B908EF81F8859F
S113316085A596A5A7A5B0A9880D991DA11DB11D7A
S113317085A796A7A7A7B0AB8C0C9D1C89819A81C3
S113318088169906A0F0B801808191810E94E51506
S11331908C01009751F4AF81B885D2961C921E928F
S11331A0D197C7018A199B090EC0C12CD12CEF817C
S11331B0F88512AB01ABA114B10409F098CFC70193
S11331C002C080E090E028960FB6F894DEBF0FBEF0
S11331D0CDBFDF91CF911F910F91FF90EF90DF90C2
S11331E0CF90BF90AF909F908F907F906F905F90A3
S11331F04F903F902F900895CF93DF93009791F0D5
S11332006115710579F0FB0120A124FF0BC0CAE907
S1133210D1E028813981232B41F0E196F2E0CD32CF
S1133220DF07B9F780E090E012C0DE0112962BE2CE
S1133230FB0101900D922A95E1F799838883FB01A4
S113324081A192A19EA78DA718AA1FA6CE01DF91E6
S1133250CF910895009719F0FC011182108208950E
S1133260FC01009741F083A194A196A785A710AA19
S113327017A681E0089580E008952F923F924F921F
S11332805F926F927F928F929F92AF92BF92CF92F2
S1133290DF92EF92FF920F931F93CF93DF93CDB7FB
S11332A0DEB7A9970FB6F894DEBF0FBECDBF3C01C1
S11332B00097C1F061157105A9F0DC012D903C90D7
S11332C01197F101408851889D968D909C909E970E
S11332D09F96AD90BC90D097A414B50428F0C30178
S11332E00E94301980E08DC09E012F5D3F4F3FA3A7
S11332F02EA385E0D9011D928A95E9F78BE2FB01A3
S113330011928A95E9F77AA369A38114910409F0CB
S11333104AC0D10152964D905C90539756968D9128
S11333209C915797481A590A3EC08DA181115FC0DC
S113333082010A191B096501E12CF12C8114910405
S1133340B9F5F10166897789808D918D6C0D7D1DAC
S11333508E1D9F1D1CA21BA2D101ED91FC91028028
S1133360F381E02D9E012F5D3F4F6901A1E5EA2E17
S1133370A5E1FA2E20E230E0AE014F5F5F4F0995E0
S1133380882309F4AFCF8BA19CA1A80EB91EA41465
S1133390B50458F2B401C1010E94E5154C0100972F
S11333A011F1A12CB12CC401029799A788A7BDCF14
S11333B021143104A1F0F2E08F16910480F0F101A0
S11333C0A089B18928A539A50E94EA2422893389D4
S11333D044895589620F731F841F951FB7CF60E01E
S11333E070E0CB01B3CF8DA1882309F478CFD3014A
S11333F09E969C928E929D97D096BC92AE929F97E9
S11334008DA1A9960FB6F894DEBF0FBECDBFDF9194
S1133410CF911F910F91FF90EF90DF90CF90BF90CD
S1133420AF909F908F907F906F905F904F903F9060
S11334302F9008958F929F92AF92BF92CF92DF9276
S1133440EF92FF920F931F93CF93DF935C01EB01F5
S11334508A01009709F46AC0209709F467C088813B
S1133460882309F463C04115510509F45FC08F3204
S113347009F421968BE2F80111928A95E9F780E12B
S1133480F80180A38881811102C081E050C0B80195
S1133490C5010E94FC187C01009709F447C06FE243
S11334A070E0CE010E947B25009741F0C82ECC1A13
S11334B04C012FEF821A920AD12C16C0FE01019002
S11334C00020E9F73197EC1BFD0BCE2E4E018E0E3A
S11334D0911CF2CFF80101900020E9F73197E01B2D
S11334E0F10BEC15FD0539F0B801C7010E943D1937
S11334F08111F0CF17C0A601B801CE010E94962514
S1133500892B91F7C7010E942A19CC0DDD1D8881F2
S1133510882309F4BACFF80180A184FF07C0E4012D
S1133520E12CF12CC7010E942A19ACCF80E0DF9175
S1133530CF911F910F91FF90EF90DF90CF90BF90AC
S1133540AF909F908F900895CF93DF93EC010E94EA
S1133550232382E00E94831FCE010E941E20DF915C
S1133560CF910C94FC1B0F9318993DC000E020E010
S113357030E040E050E06AED7DE186E69DE10E94A6
S1133580101C9093B0028093AF02892BB1F40FEF1B
S113359020E030E040E050E06AED7DE186E69DE128
S11335A00E94101C9093B0028093AF02892B29F4DF
S11335B088E890E10E94A41A16C08091AF0290910D
S11335C0B0020E941E169093B6028093B502892B16
S11335D061F482E790E10E94A41A8091AF02909175
S11335E0B0020E949B1C80E001C081E00F9108950D
S11335F08091B1029091B2020E94D7178091B302D8
S11336009091B4020E942A198091B5029091B60259
S11336100E949B178091AF029091B0020C949B1C66
S1133620CF93DF93CDB7DEB7AB970FB6F894DEBF79
S11336300FBECDBFAE014F5F5F4FBC018091B5029D
S11336409091B6020E941A1ABE016F5F7F4F80915B
S1133650B5029091B6020E94FC189093B402809334
S1133660B302892B41F48DE590E10E94A41A0E94D3
S1133670F81A80E001C081E0AB960FB6F894DEBF83
S11336800FBECDBFDF91CF9108950F931F93CF93BA
S1133690DF93CDB7DEB7AB970FB6F894DEBF0FBE9E
S11336A0CDBF8C01BE016F5F7F4F8091B3029091BB
S11336B0B4020E943D19882319F1B801CE01019684
S11336C00E948625892B71F78091B3029091B402F0
S11336D00E943019BE016F5F7F4F8091B5029091B7
S11336E0B6020E94A1179093B2028093B102892B73
S11336F011F081E005C088E490E10E94A41A80E002
S1133700AB960FB6F894DEBF0FBECDBFDF91CF915D
S11337101F910F9108958091B1029091B2020C947F
S1133720D717EF92FF920F931F93CF93DF93CDB7E9
S1133730DEB7DA950FB6F894DEBF0FBECDBFAE018B
S11337404F5F5F4F60E270E025E0880F991F2A9574
S1133750E1F70E94321FCE0101960E94451B00E052
S113376010E08823D9F040E051E0BE016F5F7F4F45
S11337708091B1029091B2020E94DD177C0118166B
S1133780190654F4AE014F5F5F4FB701C8010E94A0
S11337905B1F0E0D1F1DE7CF0E948B1B802FD3953F
S11337A00FB6F894DEBF0FBECDBFDF91CF911F914E
S11337B00F91FF90EF900895BC018091B302909116
S11337C0B4020C943D1996B1982381E009F080E08D
S11337D0089586B18E738E33E1F386B180958E732E
S11337E0089586B18E738E3331F062E084EF91E0F8
S11337F00E94DF20F6CF08958FE990E10E941E20F9
S11338003599FECF0C94F11B86B1867019F086B100
S1133810887121F40E94F11B81E0089580E00895ED
S11338208F929F92AF92BF92CF92DF92EF92FF92CC
S11338300F93CF93DF93CDB7DEB760970FB6F894AD
S1133840DEBF0FBECDBF7C016B014A015901009759
S113385019F480E090E05DC061157105D1F3043086
S1133860C4F707FF05C08091BF028111F2CF17C0D2
S113387080E10802B001112462547E4F882777FD4D
S11338808095982F20E130E0AE014F5F5F4FF70144
S113389009958823F1F28D818111E5CFDACF81E199
S11338A0E7EBF2E0DF011D928A95E9F7F092B802A6
S11338B0E092B702D092BA02C092B9029092BC02CE
S11338C08092BB02B092BE02A092BD0207FD1CC052
S11338D08D818093BF02CE0109960E94FA0E6093F7
S11338E0C0027093C1028093C2029093C302CE01BE
S11338F00D960E94FA0E6093C4027093C5028093E1
S1133900C6029093C70203C08FEF8093BF0287EB78
S113391092E060960FB6F894DEBF0FBECDBFDF9184
S1133920CF910F91FF90EF90DF90CF90BF90AF9029
S11339309F908F900895009721F0FC01108681E0FC
S1133940089580E008958EBD0DB407FEFDCF8DB5BA
S11339508F778DBD08958FEF8EBD0DB407FEFDCF1B
S11339608DB58F778DBD8EB508951F93CF93DF935B
S113397000D000D0CDB7DEB7182F4C835B836A83A9
S113398079830E94AB1C812F80640E94A31C7981DF
S1133990872F0E94A31C6A81862F0E94A31C5B812F
S11339A0852F0E94A31C4C81842F0E94A31C1123E9
S11339B021F0183039F487E801C085E90E94A31C7E
S11339C01AE004C08FEFFACF115021F00E94AB1C13
S11339D08F3FD1F30F900F900F900F90DF91CF9105
S11339E01F91089583B18095817008951F93CF939B
S11339F0DF932098289A239A259A219A2498299A21
S1133A0083E58CBD8DB58E7F8DBD1092C8020E945A
S1133A10F21C882309F454C01AE00E94AB1C115014
S1133A20E1F72998C0E0D2E040E050E0BA0180E03C
S1133A300E94B51C813021F021972097A9F72CC052
S1133A4040E050E0BA0187E30E94B51C40E050E03A
S1133A50BA0189E20E94B51C82FD05C08091C802AA
S1133A6081608093C802C0E0D0E88091C80283706E
S1133A7040E050E0BA0141F087E30E94B51C40E009
S1133A8050E0BA0189E201C081E00E94B51C80FFC8
S1133A9005C02197209749F7299A13C040E052E0C6
S1133AA060E070E080E10E94B51C299A811108C091
S1133AB08CB58C7F8CBD8DB581608DBD11E001C04E
S1133AC010E0812FDF91CF911F9108952F923F92A3
S1133AD04F925F926F927F928F929F92AF92BF921A
S1133AE0CF92DF92EF92FF920F931F93CF93DF93C6
S1133AF02B013C016A01E901212C82E0382E209738
S1133B0009F444C0720181E0F82281010E191F09F1
S1133B10C017D10708F48E012998B301A2014E19E8
S1133B205F096109710981E10E94B51C882319F0BC
S1133B30299A80E02CC00E94AB1C8E3FE1F758010B
S1133B40AE0CBF1C812C912C0E94AB1C8E149F04C4
S1133B5040F08A149B0428F4F6018083C601019680
S1133B606C019FEF891A990A8114E2E09E0661F7BD
S1133B700E94AB1C0E94AB1C299A0E94AB1CC01B68
S1133B80D10B400E511E611C711CB9CF81E0DF9135
S1133B90CF911F910F91FF90EF90DF90CF90BF9046
S1133BA0AF909F908F907F906F905F904F903F90D9
S1133BB02F9008952F923F924F925F926F927F922F
S1133BC08F929F92AF92BF92CF92DF92EF92FF9229
S1133BD00F931F93CF93DF93CDB7DEB72A970FB61A
S1133BE0F894DEBF0FBECDBF4B015C013A013A87AA
S1133BF029871701DE82CD824115510509F493C04E
S1133C002115310509F48FC00217130708F48BC07E
S1133C10E114F10409F487C0299889859A85840FF1
S1133C20951F98878F83740191E0F922C12C92E04B
S1133C30D92ECE18DF08D501C4018E199F09A10918
S1133C40B10989839A83AB83BC83AC01BD0181E153
S1133C500E94B51C882311F0299A65C00E94AB1CF0
S1133C608E3FE1F7412C512C4E145F04A1F00E94C9
S1133C70AB1C9FEF491A590AF7CF89859A85C81A50
S1133C80D90A081B190BC114D10479F0480E591E26
S1133C900115110551F0A985BA85CA16DB0628F06D
S1133CA00A171B0710F0730102C0F12C1AC08F8190
S1133CB09885E816F90631F00E94AB1CF701819350
S1133CC07F01F5CF2D813E81B501A401440D551D21
S1133CD0611D711DC301F10109958111CECFFF242E
S1133CE0F394C114D10431F00E94AB1C91E0C91AC1
S1133CF0D108F7CF0E94AB1C0E94AB1CA985BA85E2
S1133D000A171B0758F089809A80AB80BC80B2E008
S1133D109B0EA11CB11CFF2009F485CF299A0E9497
S1133D20AB1C81E001C080E02A960FB6F894DEBF98
S1133D300FBECDBFDF91CF911F910F91FF90EF90F8
S1133D40DF90CF90BF90AF909F908F907F906F90B7
S1133D505F904F903F902F90089540989DB591604B
S1133D609DBD91E09EBD0DB407FEFDCF9DB5916054
S1133D709DBD8EBD0DB407FEFDCF409A08954098B9
S1133D808DB581608DBD82E08EBD0DB407FEFDCF83
S1133D908DB581608DBD1EBC0DB407FEFDCF8DB504
S1133DA081608DBD1EBC0DB407FEFDCF80E090E0A8
S1133DB0A1E0B0E02DB521602DBD1EBC0DB407FE01
S1133DC0FDCF0197A109B1090097A105B10591F7AC
S1133DD0409A0895389A409A80E40E94AD1E0C944B
S1133DE0BF1E40982DB521602DBD22E02EBD0DB41F
S1133DF007FEFDCF2DB521602DBD9EBD0DB407FE80
S1133E00FDCF9DB591609DBD8EBD0DB407FEFDCF68
S1133E108DB581608DBD6EBD0DB407FEFDCF409A9A
S1133E20089540982DB521602DBD23E02EBD0DB41D
S1133E3007FEFDCF2DB521602DBD9EBD0DB407FE3F
S1133E40FDCF9DB591609DBD8EBD0DB407FEFDCF28
S1133E508DB581608DBD1EBC0DB407FEFDCF409AAB
S1133E608EB5089540982DB521602DBD23E02EBD5B
S1133E700DB407FEFDCF2DB521602DBD9EBD0DB443
S1133E8007FEFDCF9DB591609DBD8EBD0DB407FEAF
S1133E90FDCFFA01640F751FE617F70751F08DB5D2
S1133EA081608DBD1EBC0DB407FEFDCF8EB5819320
S1133EB0F3CF409A089540982DB521602DBD22E09E
S1133EC02EBD0DB407FEFDCF2DB521602DBD9EBDC9
S1133ED00DB407FEFDCF9DB591609DBD8EBD0DB4A3
S1133EE007FEFDCFFA01640F751FE617F70749F0C7
S1133EF091918DB581608DBD9EBD0DB407FEFDCF42
S1133F00F4CF409A08958093040108951092CA0250
S1133F1080910401813079F018F08230B9F008956D
S1133F202091C902822F90E08E34910514F42A5F07
S1133F3015C086E017C02091C902822F90E0863414
S1133F40910514F4265F0AC08AE00CC02091C902CE
S1133F50822F90E08A34910524F4285F2093C902CB
S1133F60089588E00C9459230F93909104019130A3
S1133F70F9F018F09230A1F14EC0803108F04BC036
S1133F8096E0899F900111242357354E00E046E0C6
S1133F906091C9028091CA020E948A218091CA025A
S1133FA08C5F8093CA028E37B0F10F910C94861FF8
S1133FB0803188F59AE0899F900111242351364E6F
S1133FC000E04AE06091C9028091CA020E948A21FD
S1133FD08091CA02885F8093CA028A37E0F0E5CFF5
S1133FE08A3019F390EE980F9536A8F498E0899FDB
S1133FF0900111242B533A4E00E048E06091C9022D
S11340008091CA020E948A218091CA028A5F8093A9
S1134010CA028C3750F60F9108958093CA026093B8
S1134020C9020895CF93DF93EC018991882319F095
S11340300E94B41FFACFDF91CF910895CF93DF93FD
S1134040FC018491EF012196882321F00E94B41F82
S1134050FE01F7CFDF91CF9108950F931F93CF9374
S1134060DF9300D000D01F92CDB7DEB713E0482F06
S11340704F70212F30E0E1E0F0E0EC0FFD1FE20F84
S1134080F31F4A3010F4405D01C0495C408334E0C2
S1134090969587953A95E1F711506150009739F755
S11340A0062F80E26D830E94B41F6D81912F961BB1
S11340B020E3892F860F662349F0E1E0F0E0EC0F5E
S11340C0FD1FE80FF11D20836150F3CF81E0810FC4
S11340D0801B843068F411E0180FE1E0F0E0EC0F8D
S11340E0FD1FE80FF11D80810E94B41F812FF1CFC5
S11340F00F900F900F900F900F90DF91CF911F9121
S11341000F910895FF920F931F93CF93DF93EC01C8
S1134110062F0E94232382E0809304019E012F5FD7
S11341203F4FFE01149140E2F42E112389F11092C5
S1134130CA02F092C902E9011A30A1F0812F0E944B
S1134140B41F2196FE01319714910E94041C882308
S113415039F0DF91CF911F910F91FF900C9423239D
S11341601111EACF18E00093CF028091CF028111A0
S1134170FCCF81E00E9459230E94041C8111E9CFE5
S1134180115089F79E012F5F3F4FFE011491CDCF4F
S1134190C0E20093CF028091CF028111FCCF81E075
S11341A00E9459230E94041C8111D3CFC15089F766
S11341B0D0CF569A83E085BD82E484BD0895CF9321
S11341C0C62F9C0140E050E068E478EE81E090E086
S11341D00E94C524215027BD569AC093CE02CF9188
S11341E00895CF93DF931F92CDB7DEB78F70E82F7A
S11341F0F0E0EE0FFF1FE351F54E85919491498352
S11342000E94DF204981442321F08091CE02811154
S1134210FCCF0F90DF91CF91089514BC569A8093F0
S1134220CE028091CE02882341F00E94522580FF65
S113423002C05E9AF6CF5E98F4CF569882E484BDAD
S11342400895229A82EC8093C20087EF93E09093C2
S113425089008093880083E693E090938B00809399
S11342608A0083E38093800089E180938100EFE6F4
S1134270F0E0808184608083089587FD4AC06835BA
S113428008F047C0E82FE595E595E595809587709A
S11342904130B9F018F0423049F10895FF27E7FDA5
S11342A0F09590E16902E00DF11D1124E053FD4FFA
S11342B021E030E001C0220F8A95EAF78081822B49
S11342C027C0FF27E7FDF09590E16902E00DF11D9D
S11342D01124E053FD4F21E030E001C0220F8A9504
S11342E0EAF720958081282320830895FF27E7FD9E
S11342F0F09590E16902E00DF11D1124E053FD4FAA
S113430021E030E001C0220F8A95EAF780818227FC
S113431080830895AF92BF92CF92DF92EF92FF9283
S11343200F931F93CF93DF93893F0CF484C09EE0D7
S1134330960F963608F07FC050E087FF2AC081951B
S113434090E070E0E72FFF27E7FDF095E417F5070D
S11343500CF06EC0C1E0C60F6835C0F4E20FF31F65
S1134360013011F4E08101C0E491F0E16F02D00169
S11343701124A053BD4F6C91082E01C0EE0F0A9476
S1134380EAF7F62FFE239F2BE627EC936C2F7F5F33
S1134390D9CF782F7770C72E172F11951770859561
S11343A08595859590E0D12CE82EFF24E7FCF094C8
S11343B0ED2DFF27E7FDF095E417F507CCF5BB24B9
S11343C0B394B60E683588F5E20FF31F013011F48B
S11343D0E08101C0E491D701F0E16F02A00DB11DAD
S11343E01124ED01C053DD4FA8806E2F70E0FB0156
S11343F00C2C02C0F595E7950A94E2F7FA2DFE23FA
S11344009F2BEA25E883112381F08F3071F0AF529E
S1134410BD4FCC91FB01012E01C0EE0F0A94EAF7C7
S11344206C2F6E23962BEC27EC936B2DD394C0CF7B
S113443081E0911101C080E0DF91CF911F910F9134
S1134440FF90EF90DF90CF90BF90AF9008958F9240
S11344509F92BF92CF92DF92EF92FF920F931F939E
S1134460CF93DF93813F0CF4E1C09FE0960F973622
S113447008F0DCC0FA013196893F04F538EF381BA7
S113448020E110E041E0460F683590F480E16802D5
S1134490D0011124A053BD4F5C918081032E01C033
S11344A0880F0A94EAF7952F9823192B85278C9364
S11344B0642F215032962111E5CFB5C087FF43C048
S11344C0782F7195885F90E110E001E0060F683560
S11344D0A0F5A0E16A0240011124E401C053DD4FBC
S11344E0B880AF0141505109DA012C91072E01C067
S11344F0220F0A94EAF73B2D32273883C080D12C4F
S11345007601082E02C0F594E7940A94E2F7432F4B
S11345104E254883D401AF52BD4F6C91A601072E9E
S113452001C0440F0A94EAF7562F5423152B2B216C
S1134530122BE3221E2946274C93602F915032966A
S11345409111C3CF70C0082F0770902F9195977069
S113455085958595859520E1D22E10E0882E9924A5
S113456087FC9094CC24C394C60E683508F056C0DA
S11345709401B0E16B02200D311D1124D901A05327
S1134580BD4FBC90BF0161507109EB01E880F12C73
S1134590A701002E02C0559547950A94E2F75B2DBA
S11345A05423152B4B254C938F30C1F1D90111960F
S11345B0992381F0AD0140535D4FEA01B880B70102
S11345C0092E01C0660F0A94EAF77B2D7623172B78
S11345D06B256883A053BD4FFC90408150E0BA0125
S11345E0002E02C0759567950A94E2F77F2D762315
S11345F0172B6F256C93992389F08E3079F0D901AC
S1134600AE52BD4F6C919A01092E01C0220F0A943B
S1134610EAF7362F3223132B26272C936C2DDA94AA
S11346203296D1109FCF81E0111101C080E0DF915B
S1134630CF911F910F91FF90EF90DF90CF90BF909B
S11346409F908F90089580E895E0E0EDF2E0DF011F
S11346509C011D9221503040E1F760E080E00C9411
S11346600D20CF93DF93882309F18F7190E0EC0143
S113467034E0CC0FDD1F3A95E1F748E550E0481BE4
S1134680590B64E0440F551F6A95E1F760ED72E041
S1134690CE0180539D4F0E946225AE0160E070E020
S11346A080ED92E0DF91CF910C947425DF91CF914E
S11346B008950F931F93CF93DF93882351F18F7144
S11346C0082F10E0E80174E0CC0FDD1F7A95E1F7C4
S11346D048E550E0401B510BE4E0440F551FEA95B8
S11346E0E1F7BE0160537D4F80ED92E00E946225A8
S11346F020EF2003C001219F900D1124AE0160E042
S113470070E0805B974FDF91CF911F910F910C94D4
S11347107425DF91CF911F910F910895CF93DF936B
S1134720A0EDB2E0CD0140969D012F5F3F4FFC010B
S11347303197EF012197488160E1469FA001112440
S1134740508152955F70542B5083E217F30781F721
S11347502C9122952F702C9328E08035920711F02C
S1134760DC01E0CFDF91CF9108958FED92E0FC0161
S11347703F97208140E1249F90011124318132959B
S11347803F70322B3193E817F90799F780818295AE
S1134790807F8083CF01409628E08F35920739F7D8
S11347A0089540ED52E060E875E080E090E80C94F4
S11347B0321F1F920F920FB60F9211242F938F93D3
S11347C09F93EF93FF938091CC029091CD02019639
S11347D09093CD028093CC028091CC029091CD0233
S11347E08330910579F130F48130910581F002979D
S11347F0C9F039C0893D910541F1863021E0920725
S113480039F18A9781F581E08093CB0262C080916F
S1134810CF02882309F45DC08091CF028150809338
S1134820CF0257C08091CE02882309F452C08091F0
S1134830CE0281508093CE028091CE02811149C074
S1134840569847C08AE490E009C01092CB0241C058
S11348501092CD021092CC0283E693E090938B00E9
S113486080938A0036C08091CB02882391F1E09135
S1134870CC02F091CD021092C5001092C40088E0E1
S11348808093C10082E090E09093C5008093C400BF
S11348901092C600BA97F695E79594E0EE0FFF1FC5
S11348A09A95E1F7E053FD4FCF0140962091C00067
S11348B025FFFCCF21912093C600E817F907B1F733
S11348C08091C00086FFFCCF8091C100877F8093D8
S11348D0C100FF91EF919F918F912F910F900FBE87
S11348E00F901F901895DB018F939F930E94F924DA
S11348F0BF91AF91A29F800D911DA39F900DB29F78
S1134900900D11240895991B79E004C0991F9617FE
S113491008F0961B881F7A95C9F780950895AA1BFD
S1134920BB1B51E107C0AA1FBB1FA617B70710F096
S1134930A61BB70B881F991F5A95A9F780959095C8
S1134940BC01CD010895A1E21A2EAA1BBB1BFD01D7
S11349500DC0AA1FBB1FEE1FFF1FA217B307E4075A
S1134960F50720F0A21BB30BE40BF50B661F771FB2
S1134970881F991F1A9469F7609570958095909592
S11349809B01AC01BD01CF010895052E97FB1EF4D8
S113499000940E94DC2457FD07D00E94A32407FC46
S11349A003D04EF40C94DC24509540953095219519
S11349B03F4F4F4F5F4F0895909580957095619547
S11349C07F4F8F4F9F4F0895EE0FFF1F0590F49177
S11349D0E02D0994A29FB001B39FC001A39F700D65
S11349E0811D1124911DB29F700D811D1124911DF3
S11349F008950E94EA24A59F900DB49F900DA49F52
S1134A00800D911D112408958F929F92AF92BF92B1
S1134A10CF92DF92EF92FF92CF93DF93EC01688104
S1134A2079818A819B81611571058105910521F444
S1134A3064E279ED8BE597E02DE133EF41E050E05E
S1134A400E94C52449015A019B01AC01A7EAB1E4C3
S1134A500E94F9246B017C01ACEEB4EFA501940132
S1134A600E94B025C60ED71EE81EF91EF7FE06C02A
S1134A7081E0C81AD108E10880E8F80AC882D9821E
S1134A80EA82FB82C6019F77DF91CF91FF90EF907E
S1134A90DF90CF90BF90AF909F908F9008950E9429
S1134AA00425089580E091E00E9404250895A0E083
S1134AB0B0E08093000190930101A0930201B093B0
S1134AC0030108956817790768F4FB01DC01E40F1A
S1134AD0F51FA40FB51F02C002900E924150504022
S1134AE0D8F708950C94A425DC0101C06D934150BE
S1134AF05040E0F70895FC018191861721F0882346
S1134B00D9F7992708953197CF010895FB01DC0166
S1134B108D91019080190110D9F3990B0895FB012F
S1134B20DC0101900D920020E1F70895FB01DC0106
S1134B304150504030F08D910190801919F40020BB
S1134B40B9F7881B990B0895FB01DC0102C00190A1
S1134B500D9241505040D8F70895B7FF0C94F924B2
S1114B600E94F924821B930B0895F894FFCF52
S10B4B6E01000000022F000009
S9030000FC
