S012000063686970636F6E5F76322E7372656327
S11300000C948A090C94A7090C94A7090C94A709C9
S11300100C94A7090C94A7090C94A7090C94A7099C
S11300200C94A7090C94A7090C94A7090C94A7098C
S11300300C94F1220C94A7090C94A7090C94A70919
S11300400C94A7090C94A7090C94A7090C94A7096C
S11300500C94A7090C94A7090C94A7090C94A7095C
S11300600C94A7090C94A70910124A6F6E617320AF
S11300704C696E6473746564740000FF108A6401D3
S1130080A3246B006C3BDBC47B083B80101E683CE4
S1130090A31C6935D89663004300103AA322D232D8
S11300A063008C407CFF6B038CB26B004C00104EE1
S11300B07B057CFF10446100A302FB1EF065A32AAC
S11300C0F11EF05571017B01310610506D086E056B
S11300D066006A01A32A80D0D0E57014306C1070D9
S11300E02148221220FA21884F42103022503463D2
S11300F0107A00E0A2A86D286E0A6C0ADDEA7D0879
S1130100FC1E3D581094A2E46D346E196C05DDE5B7
S11301107D08FC1E3D4C10A66D2D6E286C05DDE59A
S11301207D08FC1E3D4510B6A329F065A336F033C7
S11301306C00A336FC1EF065F029DDE57D057C012D
S11301403C0310CA6C20EC9E10DEA3286000610002
S1130150F1556C366F0A229E00C17CFF3C0010EC06
S113016010163300112ECC0F3C00112CCC077C014F
S11301708C06A330FC1EF0654000112C82D083E075
S113018073054C00112472147CFF111AA322D2327D
S11301903F00113C00EEA322D2327301333A112402
S11301A0630000EE6C358B308BC53F00646300EE5A
S11301B08040700180066C00A330FC1EF0557C0169
S11301C03C051150A336F43321706C78FC15FC0700
S11301D03C001166217000EEA337F065F0306C37F7
S11301E06B1BDCBAA338F065F0306C41DCBA00EE6E
S11301F046001204A322D56276FF46001204D5629B
S11302004F0012048CE07C058C654F001206D56209
S113021075FB66008CD060008BC08B553F0011BE0F
S11302207C14700111B0A330F01EF06570FFF0551E
S1130230A32A4000DCE56C0AFC18A328F0656CFFD7
S113024080C3F055300011E8A329F0657001F05522
S11302506C006B00A330FC1EF06530007B017C0158
S11302603C0511EC3B00120474016F4200EEA32222
S1130270D232D5626300660000EE6B006C08ECA11C
S11302806BFF6C10ECA16B014B00123848016B0141
S113029048786BFFA31C6935D89688B4D896124A5F
S11302A06C20EC9E124A3600124A85806635A322E1
S11302B0D5626F06229E00EEF0073000126E601EBB
S11302C0F01567003D2112646AFF126A3D07126C43
S11302D06A016701227000EE8BD06C0089B081E066
S11302E0A330FC1EF0654000128CA32AD91589A402
S11302F08174D9157C017B143C0512748DA48E7411
S11303004E30646300EEFF15FF073F0012A000EEBD
S11303103C0C1E1E33333F6161F31F0C0C0C0C0CA0
S11303200C8C8CDF070101010101010161E7E78306
S113033083838383838383E7FB190161E161010183
S113034019FB9F86C6E6E6B69E9E8EE6E494E79089
S1130350F7878080808788888888AF66884828C621
S11303604CAAACAA4AE088C088E0000018FF3C0010
S1130370183CFF81423C3C3C423C5A5A7E7E000081
S1130380243C24000018183C7EFF1818FF225588CE
S11303900000000000000000000000000000000059
S11303A0000000101E312E3030204B2E762E536567
S11303B06E6762757363682032342F342D273934A5
S11303C00000FF6C0421486532663267288350843C
S11303D060626469006A016B0000C120CC60018224
S11303E005602852001036A190D348A190D348004C
S11303F0C1D5683F00108020CC6001320082052105
S113040008835084606008E0A120B06010E0A1205F
S1130410A8C003400020BAC003400020C280C0210D
S11304207A104880B0700380068006F030807070C7
S113043011611BD01A6064217A00C860006100A1B8
S1130440989012F00A40FF10A010227501456E65C5
S11304506D00EE600185054F00650000EE770147F1
S113046046674500EE600187054714671500EE8076
S113047090612D8105881061008070A184D0118065
S1130480846100D0117A014A046A014A01A1864AB2
S113049002A1884A03A18A61006000D0116008D0DB
S11304A0116070D0116078D01100EE320000EEC0FF
S11304B00F807470086100A190622D4B1E212C3BAB
S11304C021D0187B0180908205390B790100EE7BE5
S11304D003A18C80707005D0117008D0117008D001
S11304E0117008A18ED011626400EE00E06000611A
S11304F000A1A39012620882C5F229602AD015F0E7
S11305000A400221744004216E3020114800E000AA
S1130510EE3C077C0111783C017CFF600FF015F084
S1130520073000117C00EE8800880055002200FF8F
S113053000F800DBFFDB1824E7E7DB616E79206B52
S113054065792E2E2E0073706565643A2000006371
S11305506172746520534420616273656E74652111
S11305600043524153482120626164206F70636FDD
S113057064650A0043524153482120626164206F3C
S113058070636F64650A004641542064726976653D
S1130590720A436F7079726967687420323030363A
S11305A02D323031320A526F6C616E6420526965AB
S11305B067656C0A004C454D0A4341520A574F5235
S11305C04D0A414C49454E0A002746276972652069
S11305D07472616365206F7220616E790076617256
S11305E05B5D3A002053503A00493A0050433A00C8
S11305F04563686563206F75766572742E2066693D
S113060063682E0A004563686563206163636573EC
S1130610207265706572742E0A00456368656320F4
S113062061636365732066696368696572730A0050
S113063045636865632061636365732070617274E8
S11306406974696F6E0A00626F75746F6E2E2E2E58
S11306500000FF00E06900680078019E0860108EC9
S1130660058E066D006C006B006A64211C20E82175
S1130670744A0010566008E0A110386010E0A11020
S1130680406020E0A11048105621747CFF7AFF10CE
S11306905221747C017AFF105221747BFE3A017A54
S11306A0FF7AFF90442174217420E88EC4607F8E09
S11306B0028DB47B0120E84F01109621744A00108A
S11306C0766014208C10202174600A6104901160FB
S11306D004208C217460049011208C1020F015F0FB
S11306E0073000108E00EE2174600280B53F0110C7
S11306F0C6600280C53F0110C680E080753F0110CE
S1130700C68070701080E73F0010C67901A1C361F4
S1130710006210912210CEA1B761006210912220D4
S1130720EE603C208C6020E09E10D66101620A914C
S113073021E0A110E000E01008A192DED000EE61FB
S113074000620AA1D3F9332106A1B2D1257104A113
S1130750D3F833210600EE6300A1D3F31EF065F055
S113076029D125710473013303110800EE6500C714
S1130770FF9008631080359006807590073F0187CD
S11307800084707410C10F90098107835083753FF2
S113079001114A835083453F011168900980068006
S11307A0153F007101900970FF80173F0071FFC36E
S11307B0038306330071FE7101951375019008558A
S11307C000113A00EE610062006300A1D3FA33A184
S11307D0D3F31EF065F030D12A710873013303118D
S11307E07E00EE03C006601FF83FFC2004AFF56CEA
S11307F0362C346FF6A0053FFC3FFC129024486071
S11308000CC0062040408080796F7520637261734C
S113081068656400636F6E67726174756C61746996
S11308206F6E2100000000000000000000000000C6
S11308300000000000000000FFFFFFFFFFFFFFFFBC
S1130840FFFFFFFFFFFFFFFFFFFFFFFFFFFFFFFFB4
S1130850FFFFFFFFFFFFFFFFFFFFFFFFFFFFFFFFA4
S1130860FFFFFFFFFFFFFFFFFFFFFFFFFFFFFFFF94
S1130870FFFFFFFFFFFFFFFFFFFFFFFFFFFFFFFF84
S1130880FFFFFFFFFFFFFFFFFFFFFFFFFFFFFFFF74
S1130890FFFFFFFFFFFFFFFFFFFFFFFFFFFFFFFF64
S11308A0FFFFFFFFFFFFFFFFFFFFFFFFFFFFFFFF54
S11308B0FFFFFFFFFFFFFFFFFFFFFFFFFFFFFFFF44
S11308C0FFFFFFFFFFFFFFFFFFFFFFFFFFFFFFFF34
S11308D0FFFFFFFFFFFFFFFFFFFFFFFFFFFFFFFF24
S11308E0FFFFFFFFFFFFFFFFFFFFFFFFFFFFFFFF14
S11308F0FFFFFFFFFFFFFFFFFFFFFFFFFFFFFFFF04
S1130900FFFFFFFFFFFFFFFFFFFFC1CF9981FFFF45
S1130910FFFFFFFFFFFFFFFFFFFF80CF9980FFFF77
S1130920FFFFFFFFFFFFFFFFFFFF1C4F999C7FFFAF
S1130930FFFFFFFFFFFFFFFFFFFF3ECF999E7FFFFB
S1130940FFFFFFFBFE7FFFFFFFFE7FCF999E787CBA
S11309503C87FFFBFDBFFFFFFFFE7FCF999E7038F2
S11309601C03FFF3FBDFFFFFFFFE7FC0199C631135
S11309708C73EFABFBDFFFFFFFFE7FC01980E793B3
S1130980CCF3F77BFBDFFFFFFFFE7FCF9981E7F31B
S1130990CCF3F77BFBDFFFFFFFFE7ECF999FE7F3EE
S11309A0CCF3F77BFBDFFFFFFFFF3C4F999FE793FF
S11309B0CCF3FAFBFBDFFFFFFFFF1CCF999FE31192
S11309C08CF3FAFBFBDFFFFFFFFF80CF999FF0382A
S11309D01CF3FAFBFDBFFFFFFFFFC1CF999FF87C1B
S11309E03CF3FDFBDE7FFFFFFFFFFFFFFFFFFFFF89
S11309F0FFFFFFFFFFFFFFFFFFFFFFFFFFFFFFFF03
S1130A00FFFFFFFFFFFFFFFFFFFFFFFFFFFFFFFFF2
S1130A10FFFFFFFFFFFFFFFFFFFFFFFFFFFFFFFFE2
S1130A20FFFFFFFFFFFFFFFFFFFFFFFFFFFFFFFFD2
S1130A30FFFFFFFFFFFFFFFFFFFFFFFFFFFFFFFFC2
S1130A40FFFFFFFFFFFFFFFFFFFFFFFFFFFFFFFFB2
S1130A50FFFFFFFFFFFFFFFFFFFFFFFFFFFFFFFFA2
S1130A60FFFFFFFFFFFFFFFFFFFF8FFFFFF7F7DF32
S1130A703EFBF7FBFC3FFFFFFFFF77FFFFFFF7DEC7
S1130A80DD73E7FBFDDFFFFFFFFEF634DD56548E1A
S1130A90EBABE7FB1DEC7FFFFFFEFDD35D35935F02
S1130AA0EBBBD7FAEDEBBFFFFFFEFDD76B75D75F4E
S1130AB0DBBBD7FBEDEBBFFFFFFEFDD76B75D75F4D
S1130AC0BBBBB7FB0DE83FFFFFFEF5D76B75D75FE8
S1130AD07BBB83DAEDEBFFFFFFFF75D37775975E82
S1130AE0FD7BF7DAEDDBBFFFFFFF8E34F776574E61
S1130AF00EFBF7E70C3C7FFFFFFFFFF7F7FFDFFF7D
S1130B00FFFFFFFFFFFFFFFFFFFFFFF7F7FDDFFF23
S1130B10FFFFFFFFFFFFFFFFFFFFFFF7CFFE3FFFDA
S1130B20FFFFFFFFFFFFFFFFFFFFFFFFFFFFFFFFD1
S1130B30FFFFFFFFFFFFFFFFFFFFFFFFFFFFFFFFC1
S1130B40FFFFFFFFFFFFFFFFFFFFFFFFFFFFFFFFB1
S1130B50FFFFFFFFFFFFFFFFFFFFFFFFFFFFFFFFA1
S1130B60FFFFFFFFFFFFFFFFFFFFFFFFFFFFFFFF91
S1130B70FFFFFFFFFFFFFFFFFFFFFFFFFFFFFFFF81
S1130B80FFFFFFFFFFFFFFFFFFFFFFFFFFFFFFFF71
S1130B90FFFFFFFFFFFFFFFFFFFFFFFFFFFFFFFF61
S1130BA0FFFFFFFFFFFFFFFFFFFFFFFFFFFFFFFF51
S1130BB0FFFFFFFFFFFFFFFFFFFFFFFFFFFFFFFF41
S1130BC0FFFFFFFFFFFFFFFFFFFFFFFFFFFFFFFF31
S1130BD0FFFFFFFFFFFFFFFFFFFFFFFFFFFFFFFF21
S1130BE0FFFFFFFFFFFFFFFFFFFFFFFFFFFFFFFF11
S1130BF0FFFFFFFFFFFFFFFFFFFFFFFFFFFFFFFF01
S1130C00FFFFFFFFFFFFFFFFFFFFFFFFFFFFFFFFF0
S1130C10FFFFFFFFFFFFFFFFFFFFFFFFFFFFFFFFE0
S1130C20FFFFFFFFFFFFFFFFFFFFFFFFFFFFFFFFD0
S1130C30FFFFFFFFFFFFFFFF0000000000000000B8
S1130C4020202020200020005050500000000000F0
S1130C505050F850F85050002078A07028F0200030
S1130C60C0C81020409818006090A040A890680068
S1130C706020400000000000102040404020100090
S1130C8040201010102040000020A870A820000070
S1130C90002020F820200000000000006020400018
S1130CA0000000F000000000000000000060600090
S1130CB00008102040800000708898A8C888700040
S1130CC0206020202020F800708810204080F80048
S1130CD0F00808F00808F00010305090F8101000E8
S1130CE0F88080F00808F000304080F088887000B8
S1130CF0F808102040404000708888708888700090
S1130D0070888870080870000060600060600000EF
S1130D1000606000602040001020408040201000EF
S1130D200000F800F80000004020100810204000E7
S1130D30708808102000200070880868A8A8700037
S1130D40708888F888888800F08888F08888F0009F
S1130D507880808080807800F08888888888F00097
S1130D60F88080F88080F800F88080F88080800027
S1130D70788080B088887000888888F8888888009F
S1130D807020202020207000780808080890600057
S1130D908890A0C0A0908800808080808080F80027
S1130DA088D8A888888888008888C8A898888800EF
S1130DB07088888888887000F08888F08080800037
S1130DC070888888A8987800F08888F0A0908800B7
S1130DD0788080700808F000F8202020202020006F
S1130DE08888888888887000888888888850200047
S1130DF0888888A8A8D888008888502050888800C7
S1130E008888885020202000F81020408080F80036
S1130E1060404040404060000080402010080000D6
S1130E20180808080808180020508800000000006E
S1130E30000000000000F800402010000000000046
S1130E400000700878887800808080B0C888F0003E
S1130E50000070808088700008080868988878000E
S1130E6000007088F8807000304840E04040400046
S1130E7000007888887808708080B0C888888800E6
S1130E80002000202020200010003010109060006E
S1130E90808090A0C0A090006020202020207000BE
S1130EA00000D0A8A88888000000B0C888888800FE
S1130EB000007088888870000000F08888F08080C6
S1130EC00000689090B050180000B0C88080800086
S1130ED0000070807008F0004040E040404830005E
S1130EE0000088888898680000008888885020005E
S1130EF000008888A8A8500000008850205088006E
S1130F0000008888887808700000F8102040F800F5
S1130F10204040804040200020202020202020002D
S1130F204020201020204000000040A810000000B5
S1130F30FCFCFCFCFCFCFCFC402010F810204000F5
S1130F40102040F8402010002070A820202000002D
S1130F5000202020A87020000070F8F8F87000002D
S1130F607C82868A92A2C2827C000818280808081B
S1130F7008083E003844820408102040FE0038442B
S1130F8082023C0282443800848484847E04040403
S1130F9004007E8080807C020202FE0078848080CF
S1130FA0FC8282827C007E8204080808080808000B
S1130FB0384482827C828244380038448282463AB1
S1130FC00204380038448282FE8282828200FC82DB
S1130FD08282FC828282FC003E408080808080404D
S1130FE03E00F884828282828284F800FE808080BF
S1130FF0FE808080FE00FE808080FE8080808000F5
S1131000E0A0A0A0E000C0404040E000E020E0807C
S1131010E000E020E020E000A0A0E0202000E0804C
S1131020E020E0008080E0A0E000E020202020001C
S1131030E0A0E0A0E000E0A0E0202000E0A0E0A02C
S1131040A000C0A0C0A0C000E0808080E000C0A0DC
S1131050A0A0C000E080E080E000E080E0808000AC
S11310600B022A024B026E029302BA02E40210033C
S11310703F037003A403DC03170455049704DD0441
S1131080101A576F726D00524239320000003E054B
S1131090002B7C0000061E01000400FF00E0A00BF2
S11310A0FE65A192F055FC1E710131001024A16867
S11310B0DAB3D421D4317403347A1032A1776304BF
S11310C0D329D4297209323F1040A006F065A0024A
S11310D0F033632E20E4A002F53320E2214AA17606
S11310E0D76176FE3611105E630AF315A192F81EDD
S11310F0F065840080A0F055A292F81EF06581008E
S113110080B0F055A16A3400D413A160F91EF165D2
S1131110A16DDAB28A048B14A168DAB33F0010FC23
S1131120C00F40002146780198E068006108E19E04
S11311306600E19E10C0360010C07902660689621E
S11311406110E19E6700E19E10D4370010D479FE4F
S113115067068972F307330010AC106820E2A0021E
S1131160F5336300647CA002F265F029D43573067C
S1131170F129D4357306F229D43500EE215AA16839
S1131180DAB3DAB33F0011126402F418750120DCFB
S113119010A6640AF418DAB38A058B15A16DDAB2C5
S11311A0A006F065805580504F00F0556064F0153E
S11311B0F0073000113000C88100A1809012F00ABD
S11311C03020113E101A7E0100EEA16FCC7C7C020F
S11311D0CD3C7D02DCD74F0000EEA16FDCD7114C73
S11311E0040000FCFC000004E0E0E0A0E000403863
S11311F07CDEFEFE7C38F080808080808080808071
S113120073656C65637420726573746172742E2ED9
S11312102E0000000000000000000000000000009C
S113122000000000000000000000000000000000BA
S113123000000000000000000000000000000000AA
S1131240000000000000000000000000000000009A
S1131250000000000000000000000000000000008A
S1131260000000000000000000000000000000007A
S1131270000000000000000000000000000000006A
S1131280000000000000000000000000000000005A
S1131290000000000000000000000000000000004A
S11312A0000000000000000000000000000000003A
S11312B0000000000000000000000000000000002A
S11312C0000000000000000000000000000000001A
S11312D0000000000000000000000000000000000A
S11312E000000000000000000000000000000000FA
S11312F000000000000000000000000000000000EA
S113130000000000000000000000000000000000D9
S11313100000000011241FBECFEFD8E0DEBFCDBF18
S113132011E0A0E0B1E0E8E9F9E402C005900D9213
S1131330A830B107D9F727E0A8E0B1E001C01D92B9
S1131340A63CB207E1F70E947E0C0C94CA240C94CC
S11313500000FC01818190E0982F88272081822B56
S11313600895FC0123816281862F90E0A0E0B0E023
S1131370DC0199278827B22B2081822B2181BC0193
S1131380CD01722B0895EF92FF920F931F93CF9389
S1131390DF937C018B016115710569F0C0E0D0E039
S11313A0F701EC0FFD1F6491CE010E94201D2196D0
S11313B0C017D107A9F7DF91CF911F910F91FF902B
S11313C0EF900895FF920F931F93CF93DF93CDB7C0
S11313D0DEB7A0970FB6F894DEBF0FBECDBF182FAF
S11313E00027F12CAE014F5F5F4F60E270E0C8014F
S11313F00E948C1D8981882391F080E20E941E1E28
S1131400CE0101960E94971E86E08F1510F00E946F
S1131410E41DF394005E1F4F88E0F812E3CF8F2D94
S1131420A0960FB6F894DEBF0FBECDBFDF91CF916B
S11314301F910F91FF9008956F927F928F929F92C8
S1131440AF92BF92CF92DF92EF92FF920F931F93CE
S1131450CF93DF936C010E94272282E08093C50220
S11314608091C5028111FCCF80E090E00E94E209E6
S1131470A82EC0E0D0E0E12CF12C812C912C0F2E71
S1131480F7E06F2EF02D712C00E028E33FE048E0F8
S11314901C2F110F110F110F612F80E00E943920B2
S11314A00E94A819B82E28E33FE048E0612F80E0AD
S11314B00E94392088E0B816E9F08B1548F082E0E4
S11314C0B81609F448C084E0B81609F457C023C01C
S11314D080E1B81631F180E2B8121DC00E94B01943
S11314E0C701880F991F880F991F880F991F8C0FA8
S11314F09D1F6EC0E114F10461F081E0E81AF10867
S11315000E942722C7010E94E209A82EC62DD72DCA
S113151002C0C82DD92D86B18E738E3309F04EC00A
S1131520B3CFE7012196CE01880F991F880F991F29
S1131530880F991F8C159D0554F40E942722CE0113
S11315400E94E209A82E7E01C82DD92DE4CFCA2D10
S1131550D0E02197E0CF209711F02197DCCFE11460
S1131560F104C9F281E0E81AF1080E942722C701B8
S11315700E94E209A82EC62DD72DCDCF8A2D90E04A
S11315800197C817D90714F42196C5CF87010F5FB7
S11315901F4FC801880F991F880F991F880F991F23
S11315A08C159D050CF0B7CF0E942722C8010E941C
S11315B0E209A82E7801C82DD92DADCF40E062E014
S11315C08B2D0E94981F86B18E738E33B9F75CCF32
S11315D0DF91CF911F910F91FF90EF90DF90CF900B
S11315E0BF90AF909F908F907F906F9008950F93CE
S11315F01F93CF93DF93CDB7DEB7CB54D1090FB68A
S1131600F894DEBF0FBECDBF18A200E010E027C0E3
S113161022968FAD229784FD1EC0BE016F5D7F4F61
S1131620CE0101960E94A424AE014F5F5F4F60E299
S113163070E0C801880F991F82959295907F982732
S1131640807F98270E94B71D0F5F1F4F011588E008
S113165018072CF00AC0011588E0180734F4CE01ED
S113166081960E949A198111D3CF1982AE014F5FDE
S11316705F4F60E270E0C801880F991F82959295D0
S1131680907F9827807F98270E94B71DC801C55B6B
S1131690DF4F0FB6F894DEBF0FBECDBFDF91CF9101
S11316A01F910F9108950E94F70A009799F00E94E4
S11316B01C0A99237CF00E944919882359F00E943E
S11316C0272282E00E94310D823021F484E795E0E4
S11316D00E94C70C08959F92AF92BF92CF92DF925F
S11316E0EF92FF920F931F93CF93DF93CDB7DEB7A3
S11316F0A0970FB6F894DEBF0FBECDBFFE013196A2
S113170080E2DF011D928A95E9F7A12CB12CE12C2E
S1131710F12CE0E0F0E0CE0101966C01689499248C
S113172095F80DC0ED930F5F1F4FF801EC54FA4F7D
S1131730E491EE2309F46AC0EA30A1F781C08F0175
S11317400F5F1F4FEB54FA4FE491EE2329F0EA3078
S113175009F476C0D601E6CFAE014F5F5F4F60E279
S113176070E0C701880F991F82959295907F982702
S1131770807F98270E94B71D0E942722C7010E94DC
S11317801C0A8130910599F030F082309105D9F02E
S1131790039729F168C066EE71E081E596E00E9446
S11317A0C30964E087E398E00E94121F23C06BEA38
S11317B071E083EA93E00E94C30964E08EE495E05B
S11317C00E94121F17C062E972E080E890E10E9453
S11317D0C30964E082E193E10E94121F0BC06AE333
S11317E073E088E690E00E94C30964E082EA93E033
S11317F00E94121F0E94272282E00E94310D823033
S113180091F581E695E00E94C70C2DC08E010F5F13
S11318101F4FA80160E270E0C701880F991F8295ED
S11318209295907F9827807F98270E94B71D9FEFFD
S1131830E91AF90A80E2D8011D928A95E9F78CCF5A
S1131840A60160E270E0C5010E94B71DBFEFEB1A6C
S1131850FB0AF601892D11928A95E9F790E2A90E07
S1131860B11CF8016CCFA0960FB6F894DEBF0FBE82
S1131870CDBFDF91CF911F910F91FF90EF90DF903B
S1131880CF90BF90AF909F900895EF92FF920F93E7
S11318901F93CF93DF9308E31CE0C8E3D8E080E014
S11318A090E89C01285338407901FE016491C701F6
S11318B08C0F9D1F0E94201D2196C017D107A9F7E8
S11318C00E94E82288E78093C5020BC086B18E731C
S11318D08E3339F062E088EE93E00E94861F109206
S11318E0C5028091C5028111F1CF0E94B019DF9128
S11318F0CF911F910F91FF90EF900895E1E6F0E0F2
S113190080E8808310820E94BC1F84B1886284B9FD
S113191080E58CBD8DB581608DBD87B1817C87B933
S113192088B18E6388B90E94801F0E94181D789424
S113193080918400909185000E946C240E94E41A96
S11319400E946418882331F085E091E00E94C51854
S1131950C82F01C0C0E00E94450C64E087E895E010
S11319600E94121F0E94272282E00E94E11DC111E1
S11319700BC08FE495E00E94A61E0E94E41D0E9405
S1131980BE190E946B0BEECF0E94530BEBCF0F934B
S11319901F93CF93DF93EC010E94DF220E94272242
S11319A082E00E94E11DCE010E94A61E8CEE95E00D
S11319B00E94A61E809128019091290164E002975B
S11319C00E94B81E80914D0162E090E00E94B81E12
S11319D080914E0162E090E00E94B81E0E94E41DD6
S11319E089EE95E00E94A61E64E080912A01909100
S11319F02B010E94B81E84EE95E00E94A61E8091E1
S1131A002C0162E090E00E94B81E0E94E41D8DED5E
S1131A1095E00E94A61ECDE2D1E00DE311E089918C
S1131A2062E090E00E94B81EC017D107C1F70E947F
S1131A30E41D89EC95E00E94A61E0E94A81980323C
S1131A4029F0EFE8F1E080818B7F808386B18E738B
S1131A508E33E1F70E94E822DF91CF911F910F911D
S1131A6008952F923F924F925F926F927F928F923E
S1131A709F92AF92BF92CF92DF92EF92FF920F9319
S1131A801F93CF93DF931F92CDB7DEB781FF0AC0B8
S1131A90109229011092280110922C0110922B010E
S1131AA010922A010F2EFDE4EF2EF1E0FF2EF02D0F
S1131AB00F2EFEE4CF2EF1E0DF2EF02D0F2EFAE2F2
S1131AC0AF2EF1E0BF2EF02D0F2EFFE86F2EF1E0C8
S1131AD07F2EF02D0F2EF8E02F2EF1E03F2EF02D6B
S1131AE00F2EFCE28F2EF1E09F2EF02D0F2EFCE343
S1131AF04F2EF1E05F2EF02D0E94D21981117DC48A
S1131B00A8E2B1E08D919C910E94611DF701808350
S1131B109183A8E2B1E0ED91FC911197BF016E5F52
S1131B207F4F6D937C93182F1F70D6014C91042F17
S1131B3002950F70807FB0E18B9F900111242115D5
S1131B4089E03807E1F040F42115310571F02115E1
S1131B50A8E03A07A1F016C02115BEE03B0769F0E2
S1131B6021158FE0380749F00DC0842F807F803C19
S1131B7009F412C1242F30E005C0242B03C0842FA4
S1131B808F70282B213099E0390709F434C208F00A
S1131B9077C02115B5E03B0709F45CC190F52D3FF2
S1131BA0310509F4F7C0B8F42E3E310509F4FCC040
S1131BB048F4203C310509F4EFC0203E310509F416
S1131BC0F0C01DC42B3F310509F4FFC02C3F310583
S1131BD009F4FEC014C4211591E0390709F4FBC0CF
S1131BE008F48ACF2115B3E03B0709F416C1211587
S1131BF084E0380709F41FC12115324009F0FFC3FE
S1131C00F5C02330A8E03A0709F471C1D0F42115D6
S1131C10E8E03E0709F443C150F4211586E0380793
S1131C2009F42FC12115374009F431C1E8C321302B
S1131C30A8E03A0709F43FC12230384009F449C109
S1131C40DEC3263088E0380709F48EC150F424300E
S1131C50A8E03A0709F459C12530384009F46FC1A6
S1131C60CEC32E3088E0380709F49FC1211599E0CE
S1131C70390709F4A8C12730384009F0C0C380C12E
S1131C802E39BEE03B0709F4CDC208F03FC027302F
S1131C90F9E03F0709F425C2D0F4243099E039076C
S1131CA009F4F4C150F42230B9E03B0709F4B2C19D
S1131CB02330394009F4DBC1A2C32530F9E03F07E2
S1131CC009F4ECC12630394009F4F7C198C3211551
S1131CD09AE0390709F425C250F42830B9E03B07EB
S1131CE009F411C22930394009F414C288C32115FA
S1131CF0FCE03F0709F433C221158DE0380709F4ED
S1131D0039C221153B4009F07AC319C22932AFE028
S1131D103A0709F4DBC2F8F42A30EFE03E0709F48D
S1131D20ADC250F4213A8EE0380709F48EC2273050
S1131D303F4009F49BC263C32831AFE03A0709F47A
S1131D40ADC22E31BFE03B0709F4B2C225313F409A
S1131D5009F055C39BC22535FFE03F0709F41FC3B3
S1131D6050F420339FE0390709F4CAC223333F40BB
S1131D7009F4E4C244C32537BFE03B0709F427C391
S1131D802538EFE03E0709F42DC325363F4009F01E
S1131D9036C311C381E034C3842F8F700E9436226E
S1131DA0ABCE0E942722A8CED401EC918FEF8E0FE8
S1131DB08C93F0E0EE0FFF1FE85DFE4F87A190A526
S1131DC0E8E2F1E09183808397CE0E94912294CE41
S1131DD00E94BB2291CEE12FF0E09E2F8827840F32
S1131DE0911DA8E2B1E08D939C9386CEF4012081ED
S1131DF02F5F208330E0220F331FF901E85DFE4F8F
S1131E0070A767A3E12FF0E09E2F8827840F911D10
S1131E10A8E2B1E08D939C936FCEA12FB0E0A85DB2
S1131E20BE4F15968C91481367CE3496A8E2B1E064
S1131E30ED93FC9361CEA12FB0E0A85DBE4F159643
S1131E408C91481709F458CE3496A8E2B1E0ED938A
S1131E50FC9352CE612F70E0685D7E4FA02FB0E0FE
S1131E609D01285D3E4FDB0115969C91D901159685
S1131E708C91981341CE3496A8E2B1E0ED93FC9393
S1131E803BCEE12FF0E0E85DFE4F458335CEE12FF8
S1131E90F0E0E85DFE4F8581480F45832DCEA02FED
S1131EA0B0E0A85DBE4F15968C91E12FF0E0E85D9F
S1131EB0FE4F858321CEE12FF0E0E85DFE4FA02F99
S1131EC0B0E0A85DBE4F15969C918581892B8583D2
S1131ED013CEE12FF0E0E85DFE4FA02FB0E0A85D47
S1131EE0BE4F15969C9185818923858305CEE12F6C
S1131EF0F0E0E85DFE4FA02FB0E0A85DBE4F159660
S1131F009C91858189278583F7CDE12FF0E0E85DF9
S1131F10FE4F2581A02FB0E0A85DBE4F15968C9191
S1131F20982F920F958390E0820F911D21E08F3FAF
S1131F30910509F00CF420E0F2012083DDCDE12FBE
S1131F40F0E0E85DFE4F9581A02FB0E0A85DBE4FA4
S1131F5015968C91292F281B258321E0981708F4C6
S1131F6020E0D2012C93C8CDE12FF0E0E85DFE4FD4
S1131F708581982F969595838170F2018083BCCDDD
S1131F80A02FB0E0A85DBE4F15969C91E12FF0E024
S1131F90E85DFE4F8581292F281B258321E09817B2
S1131FA008F420E0D2012C93A7CDE12FF0E0E85D06
S1131FB0FE4F8581982F990F9583881F8827881F46
S1131FC0F201808399CD612F70E0685D7E4FA02F70
S1131FD0B0E09D01285D3E4FDB0115969C91D9012F
S1131FE015968C91981709F487CD3496A8E2B1E040
S1131FF0ED93FC9381CDA02FB0E0A85DBE4FE12FFF
S1132000F0E0E85DFE4F40E015966C9185810E94FA
S1132010981F72CD82E00E94E11DA02FB0E0A85D60
S1132020BE4FE12FF0E0E85DFE4F15966C9185817F
S11320300E94921EF501808191819C012F5F3F4F88
S1132040318320830E94401D882309F455CD0E94CA
S11320501E1ED5018D919C9111979C012F5F3F4FBE
S11320602D933C930E94401D8111F1CF45CDA02FAB
S1132070B0E0A85DBE4FE12FF0E0E85DFE4F42E026
S113208015966C9185810E94D81F36CD802FB0E1C2
S11320901B9F800D11240E94AB1F2ECDA02FB0E0FA
S11320A0A85DBE4FE12FF0E0E85DFE4F41E01596DC
S11320B06C9185810E94981F1FCDF401A081AF5FB0
S11320C0A083B0E0AA0FBB1FA85DBE4FE12FF0E0D4
S11320D0E85DFE4F858190E098969C938E93979748
S11320E00BCDF401A0818FEF8A0F8083E12FF0E004
S11320F0E85DFE4FB0E0AA0FBB1FA85DBE4F9796E8
S11321008C918583F9CCE12FF0E0E85DFE4F20E867
S11321102583F2CCE12FF0E0E85DFE4F80E5858376
S1132120EBCCE12FF0E09E2F8827840F911DD50181
S11321308D939C93F301808181608083DDCC209119
S11321402D012E7FE12FF0E09E2F8827840F911D13
S1132150820F911DA8E2B1E08D939C93CDCC0E9497
S11321606724E12FF0E0E85DFE4FD6019C918923BE
S11321708583C2CC4F70498341111AC0A10160E22A
S113218070E0F501808191810E948C1D202F30E048
S1132190D901A85DBE4FE12FF0E0E85DFE4FA1013B
S11321A015966C9185810E940121D2018C93A4CC57
S11321B0F301808180FD17C0D5012D913C91A02FA2
S11321C0B0E0A85DBE4FE12FF0E0CF01885D9E4FE7
S11321D000E0498115966C91FC0185810E943920AB
S11321E0D2018C9389CCB9816B2F70E0A101F501E8
S11321F0808191810E948C1DA02FB0E0A85DBE4F0C
S1132200E12FF0E0CF01885D9E4F01E0910149810B
S113221015966C91DC0115968C910E943920F2017F
S113222080836ACCE12FF0E0E85DFE4F85810E9457
S1132230A219882309F460CCA8E2B1E08D919C91A5
S1132240119702968D939C9357CCE12FF0E0E85DB3
S1132250FE4F85810E94A21981114ECCE8E2F1E083
S11322608081918102969183808346CC8091C502BE
S1132270E12FF0E0E85DFE4F85833ECC0E94A81973
S1132280E12FF0E0E85DFE4F858336CCE12FF0E0EE
S1132290E85DFE4F85818093C5022ECCE12FF0E0EE
S11322A0E85DFE4F65818BE092E00E94861F24CC9E
S11322B0E12FF0E0E85DFE4F2581D5018D919C91E1
S11322C01197820F911D8D939C9316CCE12FF0E012
S11322D0E85DFE4F858190E09C01220F331F820F41
S11322E0931F880F991F8050904FF501918380832D
S11322F080E00E94E11DD3018C918E7F8C93FCCBF6
S1132300E12FF0E0E85DFE4F858190E09C01220F13
S1132310331F880F991F880F991F880F991F820FE9
S1132320931F805A904FF5019183808381E00E942E
S1132330E11DD3018C918E7F8C93DECBE12FF0E0F5
S1132340E85DFE4F9581BDEC9B9F812D1124869500
S113235086958695282F220F322F330F330F230FA4
S1132360921BEAE0F1E090838B9F912D11249695C6
S113237096959695292F220F322F330F330F230F63
S1132380821BA9E0B1E08C93F1019083A10163E089
S113239070E0D5018D919C910E94B71DADCB612F4A
S11323A070E06F5F7F4F4DE251E0F50180819181D4
S11323B00E94B71DA1CB612F70E06F5F7F4F4DE28C
S11323C051E0D5018D919C910E948C1D95CB80E0AC
S11323D0E82FF0E0E85DFE4F9581958B8F5F18172D
S11323E0B8F78ACB80E0E82FF0E0E85DFE4F9589EE
S11323F095838F5F1817B8F77FCB81E001C082E027
S11324000F90DF91CF911F910F91FF90EF90DF908C
S1132410CF90BF90AF909F908F907F906F905F9080
S11324204F903F902F900895CF92DF92EF92FF92BA
S11324300F931F93CF93DF9300D0CDB7DEB70097F0
S113244091F16230710590F1DC01ED91FC911197ED
S1132450AB0160E070E0440F551F661F771F1696AE
S1132460CD90DD90ED90FC901997CB01BA016C0DE5
S11324707D1D8E1D9F1D0190F081E02D22E030E036
S1132480AE014F5F5F4F0995882351F029813A814E
S1132490C90101978F3E9F4F18F4822F932F08C0D4
S11324A080E090E005C080E090E002C080E090E031
S11324B00F900F90DF91CF911F910F91FF90EF90AC
S11324C0DF90CF900895AF92BF92DF92EF92FF9288
S11324D00F931F93CF93DF937C01E9010881198146
S11324E08A819B8180969B838A83D7018C91853EC8
S11324F009F49AC0882309F499C01B968C918F30F3
S113250009F496C098018BE2F80111928A95E9F7D3
S1132510D80197964D935D936D937C939A97F701A9
S1132520D080F0E2DF1651F1F7013196B70181E076
S113253090E0A0E0B0E00AC0BF01D190AC014F5FD1
S11325405F4FB0E2DB16D9F0DC01CA015D01A20ED7
S1132550B31ED501DC92D7011C964C9143FF09C0F0
S1132560DB014C9141544A3120F440E24D0DD50138
S11325704C93A82F88309105F9F601C0A0E0F8012A
S11325808081853011F485EE8083F7018085803267
S113259059F141E04A0F8EE2F801EA0FF11D808300
S11325A0C7010896F70150855032F9F0399674E066
S11325B07A0F04C0CF0151915032B9F05901A40EE1
S11325C0B11CD5015C93D7011C966C9164FF08C0C3
S11325D0DC018C9181548A3118F4505ED5015C93EE
S11325E04F5F4713E7CF01C04A2FF801E40FF11DF5
S11325F01082F7018385D80190968C93C7014A967F
S11326000E94A909F80192A381A3C7014C960E94D4
S1132610B109D80193966D937D938D939C9396976E
S113262081E08C8380E005C081E003C081E001C0CB
S113263081E0DF91CF911F910F91FF90EF90DF9098
S1132640BF90AF9008952F923F924F925F926F92F6
S11326507F928F929F92AF92BF92CF92DF92EF922E
S1132660FF920F931F93CF93DF93CDB7DEB7A89755
S11326700FB6F894DEBF0FBECDBF8C01009709F4EE
S113268038C18091890290918A02892B09F434C15E
S113269080E090E061C1CE0101960E94A9091C016D
S11326A0CE0104960E94A9099B8F8A8F2B812EA3A9
S11326B03E813E8FCE0107960E94A90998A78FA359
S11326C0CE0109960E94A9092C01CE010C960E9404
S11326D0A9093C01CE0146960E94B1096B017C0117
S11326E0611571058105910539F44114510409F40A
S11326F02DC16201E12CF12C6114710409F426C18D
S1132700AA8DBB8DCD01A0E0B0E08A8F9B8FAC8FEA
S1132710BD8F9301EE8DAE2FB0E00E94FF236E8F2C
S11327207F8F88A399A3260137012A8D3B8D4C8D79
S11327305D8D421A530A640A750A461A570A680AD2
S1132740790A8FA198A5880F991F82959295907FF9
S11327509827807F9827910121503109820F931F78
S1132760B1010E94AA23A3019201261B370B410940
S11327705109CA01B9013EA1432E512C612C712C7F
S1132780A30192010E94BE2329013A0145EF441698
S11327904FE054066104710408F4D8C055EF45169F
S11327A05FEF55066104710428F486E0D801189699
S11327B08C9303C08BE0F8018087EBE8F2E088E1BA
S11327C0DF011D928A95E9F7910140E050E02AA3C8
S11327D03BA34CA35DA3A70196016AA17BA18CA195
S11327E09DA10E949A2360837183828393832AA18B
S11327F03BA14CA15DA16A8D7B8D8C8D9D8D0E942A
S11328009A236B017C01C80CD91CEA1CFB1CC092E6
S11328108F02D0929002E0929102F0929202C30150
S1132820B2016E5F7F4F8F4F9F4FD80118962C9146
S1132830263029F422E030E040E050E004C024E0F7
S113284030E040E050E00E949A236093930270933A
S1132850940280939502909396023092980220926B
S11328609702BEA1B29DC001B39D900D1124909317
S11328709A02809399022E8D3F8D48A159A16AA195
S11328807BA18CA19DA10E949A23C60ED71EE81E8F
S1132890F91EC0929F02D092A002E092A102F0928F
S11328A0A202EFA1F8A5CF01A0E0B0E0880F991F24
S11328B0AA1FBB1F880F991FAA1FBB1F880F991F30
S11328C0AA1FBB1F880F991FAA1FBB1F880F991F20
S11328D0AA1FBB1FC80ED91EEA1EFB1EC0929B0274
S11328E0D0929C02E0929D02F0929E0289E892E0CE
S11328F033C080E090E030C0E9E8F2E08CE1DF0131
S11329001D928A95E9F711830083F801C184D2846A
S1132910E384F48446015701072E79E0880C991C5E
S1132920AA1CBB1C7A95D1F7702DC501B401655F53
S11329307F4F8F4F9F4F0190F081E02D29E130E0D0
S1132940AE014F5F5F4F09958111A5CE10928A02A7
S11329501092890280E090E0A8960FB6F894DEBF4A
S11329600FBECDBFDF91CF911F910F91FF90EF90DC
S1132970DF90CF90BF90AF909F908F907F906F909B
S11329805F904F903F902F900895009719F0FC01AD
S1132990118210820895CF93DF930097B1F06115EF
S11329A07105B1F0FB0120A124FD15C02091230283
S11329B030912402232B91F020915602309157023A
S11329C0232B79F080E090E023C080E090E020C0E9
S11329D080E090E01DC080E090E01AC0C3E2D2E045
S11329E002C0C6E5D2E0DE0112962BE2FB010190A3
S11329F00D922A95E1F7998388831DA61EA61FA62A
S1132A0018AAFB0181A192A19AAB89AB8C2F9D2FAF
S1132A10DF91CF910895009719F0FC011182108283
S1132A2008952F923F924F925F926F927F928F926E
S1132A309F92AF92BF92CF92DF92EF92FF920F9349
S1132A401F93CF93DF93CDB7DEB728970FB6F894D3
S1132A50DEBF0FBECDBF98878F831B015E834D837E
S1132A60009709F4F6C06115710509F4F5C0452B0A
S1132A7009F4F5C0DC019D96CD90DD90ED90FC90BD
S1132A80D097FC0185A196A1A7A1B0A5B701A60185
S1132A902D813E81420F531F611D711D84179507BF
S1132AA0A607B70740F4FC01EC19FD09FE83ED838A
S1132AB0EF2B09F4D7C0AF81B885ED91FC91119744
S1132AC060887188D1960D911C91D29701151105DA
S1132AD0E9F593960D911C9194970115110561F4F4
S1132AE081E090E0CD28CE28CF2811F480E090E05A
S1132AF0919581959109BBC0C114D104E104F104FD
S1132B0029F146015701C301A0E0B0E089839A830B
S1132B10AB83BC83C801830149805A806B807C806D
S1132B200EC084189508A608B708BC01EF81F88583
S1132B30808191810E941412009709F496C0841434
S1132B409504A604B70468F738018C01C301019702
S1132B50C822D922AD80BE80912C812C512C412CCD
S1132B60AF81B885ED91FC913097A9F00230110541
S1132B70B8F0A089B1899801225031090E94FF233D
S1132B802289338944895589DC01CB01820F931F43
S1132B90A41FB51F09C0892D982DA0E0B0E004C082
S1132BA0892D982DA0E0B0E07301EC18FD08AE1457
S1132BB0BF0408F475010190F081E02DBC01CD0142
S1132BC06C0D7D1D811D911D0190F081E02D9701FB
S1132BD0A1010995811105C08D819E818A199B09E6
S1132BE046C02E0C3F1CAE18BF08EF81F88585A5A2
S1132BF096A5A7A5B0A98E0D9F1DA11DB11D85A7E2
S1132C0096A7A7A7B0ABEC0CFD1CE614F704B0F034
S1132C10B801808191810E9414128C01009761F4A3
S1132C202F813885D901D2961C921E92D1978D811D
S1132C309E818A199B091BC0C52CD42CEF81F88571
S1132C4012AB01ABA114B10409F08ACF8D819E812E
S1132C500EC08FEF9FEF0BC08FEF9FEF08C08FEF79
S1132C609FEF05C080E090E002C08FEF9FEF2896B1
S1132C700FB6F894DEBF0FBECDBFDF91CF911F9189
S1132C800F91FF90EF90DF90CF90BF90AF909F9007
S1132C908F907F906F905F904F903F902F9008950A
S1132CA0CF93DF930097E9F061157105E9F0FB011B
S1132CB020A124FF1CC02091900130919101232B6D
S1132CC0E1F02091C1013091C201232B39F0C2EF10
S1132CD0D1E028813981232B69F411C0C1ECD1E002
S1132CE00EC080E090E01EC080E090E01BC080E059
S1132CF090E018C080E090E015C0C0E9D1E0DE01AA
S1132D0012962BE2FB0101900D922A95E1F799832B
S1132D108883FB0181A192A19EA78DA718AA1FA653
S1132D208C2F9D2FDF91CF910895009719F0FC010E
S1132D30118210820895FC01009741F083A194A1AF
S1132D4096A785A710AA17A681E0089580E00895A4
S1132D502F923F924F925F926F927F928F929F92A7
S1132D60AF92BF92CF92DF92EF92FF920F931F9395
S1132D70CF93DF93CDB7DEB7AB970FB6F894DEBF32
S1132D800FBECDBF9FA38EA3009709F4C5C06115E4
S1132D90710509F4C3C0DC016D907C901197F301B7
S1132DA0808891889D962D903C909E979F96AD909B
S1132DB0BC90D097A814B90420F00E949B1680E020
S1132DC0B0C0FE01319685E0DF011D928A95E9F7D6
S1132DD08BE2FB0111928A95E9F77A8369832114C6
S1132DE0310409F07EC0D30152968D909C90539784
S1132DF056968D919C915797881A990A72C08401AE
S1132E000A191B096501E12CF12C2114310461F428
S1132E10F30186899789A08DB18DBC01CD016C0D1C
S1132E207D1D8E1D9F1D2AC061147104C1F0F2E046
S1132E302F163104C8F0F301A089B18928A539A55A
S1132E404AA55BA50E940E242289338944895589A9
S1132E50DC01CB01820F931FA41FB51F09C080E0C2
S1132E6090E0A0E0B0E004C080E090E0A0E0B0E03A
S1132E70BC01CD016C0D7D1D8E1D9F1D1C821B820E
S1132E80D301ED91FC910280F381E02D9E012F5F2F
S1132E903F4F69010F2EF3E6EF2EF2E1FF2EF02DE6
S1132EA020E230E0AE014A5F5F4F09958823C1F10B
S1132EB08B819C81A80EB91EA814B904E8F0B10155
S1132EC0C3010E9414121C01009749F48D818111E1
S1132ED017C08EA19FA10E949B1680E022C0A12C46
S1132EE0B12C210132E0431A5108C201A0E0B0E044
S1132EF088A799A7AAA7BBA78D81882309F47FCFA8
S1132F00AEA1BFA19E963C922E929D97D096BC9264
S1132F10AE929F978D8105C080E003C080E001C020
S1132F2080E0AB960FB6F894DEBF0FBECDBFDF9145
S1132F30CF911F910F91FF90EF90DF90CF90BF90B2
S1132F40AF909F908F907F906F905F904F903F9045
S1132F502F9008954F925F926F927F928F929F92DB
S1132F60AF92BF92CF92DF92EF92FF920F931F9393
S1132F70CF93DF935C016B01EA01009709F474C0FD
S1132F806115710509F472C0FB018081882309F47D
S1132F906FC0209709F46EC08F3219F4FFEFCF1A77
S1132FA0DF0A8BE2FE0111928A95E9F780E188A39A
S1132FB0F6018081882309F45FC0412C512CBE01A5
S1132FC0C5010E9450168C01009709F457C06FE2A6
S1132FD070E0C6010E949024009741F0E82EEC189E
S1132FE04C01FFEF8F1A9F0AF12C2CC0F6010190BF
S1132FF00020E9F73197EC19FD09EE2E46018E0EFB
S1133000911CF2CFFE0101900020E9F731973F01B6
S11330106C1A7D0A6E147F04A9F4A301BE01C601D3
S11330200E94AB24892B71F4C8010E949516F60105
S1133030E60DF71D8081882319F188A184FD09C05C
S113304080E021C0BE01C8010E94A8168111DACF18
S113305003C06401042D152DC8010E949516F601C4
S113306080818111ACCF0EC080E00DC080E00BC028
S113307080E009C080E007C081E005C080E003C0B3
S113308081E001C081E0DF91CF911F910F91FF900A
S1133090EF90DF90CF90BF90AF909F908F907F90F4
S11330A06F905F904F900895CF93DF93EC010E944F
S11330B0272282E00E94E11DCE010E94A61E0E94EA
S11330C0BE19DF91CF9108950F93189940C000E085
S11330D020E030E040E050E06CED7BE181E69BE1F4
S11330E00E94EC199093A6028093A502892BB9F44F
S11330F00FEF20E030E040E050E06CED7BE181E652
S11331009BE10E94EC199093A6028093A502892B5F
S113311031F480E396E00E94541880E01BC0809153
S1133120A5029091A6020E9423139093AC0280936F
S1133130AB02892B71F48AE196E00E9454188091C5
S1133140A5029091A6020E948A1A80E003C080E042
S113315001C081E00F9108958091A7029091A80287
S11331600E940B158091A9029091AA020E949516C3
S11331708091AB029091AC020E94C5148091A5028B
S11331809091A6020E948A1A0895CF93DF93CDB737
S1133190DEB7AB970FB6F894DEBF0FBECDBFAE015E
S11331A04F5F5F4FBC018091AB029091AC020E94D3
S11331B0AA17BE016F5F7F4F8091AB029091AC0262
S11331C00E9450169093AA028093A902892B41F47D
S11331D085E096E00E9454180E94AC1880E001C07B
S11331E081E0AB960FB6F894DEBF0FBECDBFDF9182
S11331F0CF9108950F931F93CF93DF93CDB7DEB78D
S1133200AB970FB6F894DEBF0FBECDBF8C011EC0C6
S1133210B801CE0101960E949B24892BB9F48091B8
S1133220A9029091AA020E949B16BE016F5F7F4F74
S11332308091AB029091AC020E94CB149093A802AF
S11332408093A702892B71F081E011C0BE016F5FEA
S11332507F4F8091A9029091AA020E94A816811121
S1133260D7CF05C080EF95E00E94541880E0AB965C
S11332700FB6F894DEBF0FBECDBFDF91CF911F9183
S11332800F9108958091A7029091A8020E940B15B6
S11332900895EF92FF920F931F93CF93DF93CDB7CF
S11332A0DEB7DA950FB6F894DEBF0FBECDBFAE0120
S11332B04F5F5F4F60E270E0880F991F829592958F
S11332C0907F9827807F98270E948C1DCE010196BD
S11332D00E94FA188823F1F0E12CF12C09C0AE0108
S11332E04F5F5F4FB801C7010E94B71DE00EF11E8A
S11332F040E051E0BE016F5F7F4F8091A702909143
S1133300A8020E9411158C011816190644F30E9494
S1133310421902C0E12CF12C8E2DD3950FB6F894EE
S1133320DEBF0FBECDBFDF91CF911F910F91FF90F4
S1133330EF900895BC018091A9029091AA020E9485
S1133340A816089596B1982381E009F080E00895C5
S113335086B18E738E33E1F386B180958E730895B2
S113336086B18E738E3349F064E684EF91E00E9457
S1133370861F86B18E738E33B9F7089587E496E07D
S11333800E94A61E3599FECF86B18E738E3349F006
S113339064E684EF91E00E94861F86B18E738E33BB
S11333A0B9F7089586B1867019F086B1887171F401
S11333B086B18E738E3361F064E684EF91E00E94EF
S11333C0861F86B18E738E33B9F704C080E00895EA
S11333D081E0089581E008958F929F92AF92BF9209
S11333E0CF92DF92EF92FF920F93CF93DF93CDB7FB
S11333F0DEB760970FB6F894DEBF0FBECDBF7C0179
S11334006B014A015901009709F44AC0611571051D
S113341009F449C004300CF049C00023B4F080E141
S11334200802B001112462547E4F882777FD8095ED
S1133430982F20E130E0AE014F5F5F4FF70109950F
S11334408823B9F18D818823B9F18091B50288234D
S1133450B1F180E090E04CC08D818093B502CE0143
S113346009960E94B1096093B6027093B7028093E3
S1133470B8029093B902CE010D960E94B1096093EF
S1133480BA027093BB028093BC029093BD028DEA92
S113349092E02EC08FEF8093B5028DEA92E028C0AF
S11334A080E090E025C080E090E022C080E090E0E1
S11334B01FC080E090E01CC080E090E019C0EDEAFD
S11334C0F2E081E1DF011D928A95E9F7F182E08261
S11334D0D092B002C092AF029092B2028092B10236
S11334E0B092B402A092B30200230CF0B5CFD2CFB5
S11334F060960FB6F894DEBF0FBECDBFDF91CF91BB
S11335000F91FF90EF90DF90CF90BF90AF909F907E
S11335108F900895009721F0FC01108681E00895B2
S113352080E008958EBD0DB407FEFDCF8DB58F7775
S11335308DBD08958FEF8EBD0DB407FEFDCF8DB503
S11335408F778DBD8EB50895FF920F931F93CF9300
S1133550DF93C82FD42F152F062FF72E0E949A1A07
S11335608C2F80640E94921A8F2D0E94921A802FB1
S11335700E94921A812F0E94921A8D2F0E94921AF1
S1133580CC2319F0C83029F008C085E90E94921AAA
S11335900FC087E80E94921A0BC08FEF0E94921A04
S11335A007C00E949A1A8F3F29F4C150D1F702C074
S11335B0CAE0F7CFDF91CF911F910F91FF9008954B
S11335C083B18095817008950F931F93CF93DF93F8
S11335D02098289A239A259A219A2498299A83E54F
S11335E08CBD8DB58E7F8DBD1092BE020E94E01AF7
S11335F0882309F45FC01AE00E949A1A1150E1F777
S11336002998C0E0D2E040E050E0BA0180E00E9496
S1133610A41A813029F021972097A9F7299A4BC041
S113362040E050E0BA0187E30E94A41A40E050E071
S1133630BA0189E20E94A41A82FD05C08091BE02EB
S113364081608093BE02C0E0D0E88091BE028370A6
S113365069F040E050E0BA0187E30E94A41A40E018
S113366050E0BA0189E20E94A41A06C040E050E08A
S1133670BA0181E00E94A41A082F017080FF05C0DE
S11336802197209711F7299A16C040E052E060E094
S113369070E080E10E94A41A882319F0299A102F5F
S11336A00AC0299A8CB58C7F8CBD8DB581608DBD87
S11336B011E001C010E0812FDF91CF911F910F9194
S11336C008952F923F924F925F926F927F928F92C2
S11336D09F92AF92BF92CF92DF92EF92FF920F939D
S11336E01F93CF93DF932B013C017A0159012115DC
S11336F0310509F44BC0212C6894332431F882013C
S113370011704101801A910AA814B90408F4450102
S11337102998B301A201401B510B6109710981E190
S11337200E94A41A882319F0299A80E032C00E94CA
S11337309A1A8E3FE1F76401C00ED11E80E0C82FB3
S113374090E0D92F0E949A1AC017D10740F0CC15E7
S1133750DD0528F4F7018083C70101967C012196D9
S1133760C11592E0D90771F70E949A1A0E949A1A19
S1133770299A0E949A1AA818B908480C591C611C65
S1133780711CA114B10409F0BACF02C081E001C0D8
S113379081E0DF91CF911F910F91FF90EF90DF9027
S11337A0CF90BF90AF909F908F907F906F905F90DD
S11337B04F903F902F9008952F923F924F925F9297
S11337C06F927F928F929F92AF92BF92CF92DF922D
S11337D0EF92FF920F931F93CF93DF93CDB7DEB792
S11337E02A970FB6F894DEBF0FBECDBF4B015C0124
S11337F019012801FC82EB82DE82CD82411551053C
S113380009F4ADC02115310509F4ABC00217130743
S113381008F4A9C0EF2809F4A8C029986901C40EC6
S1133820D51E642E752E8401117080E092E0801BF9
S1133830910B9A838983D501C401801B910BA10943
S1133840B1098F839887A987BA87AC01BD0181E14B
S11338500E94A41A882319F0299A80E093C00E9438
S11338609A1A8E3FE1F70115110551F0E12CF12C64
S11338700E949A1A9FEFE91AF90AE016F106C1F7B5
S1133880A981BA81A215B30590F04214530488F0BB
S11338907D010AC0E214F30408F469C0020D131D8B
S11338A04214530408F466C069827A8211C0F12C70
S11338B006C0F12C04C0FA82E982FF24F394098142
S11338C01A810150110989819A81892B41F530C0EF
S11338D00E949A1AA981BA818D93BA83A983AC15DF
S11338E0BD05B1F72D813E81B501A401400F511FE3
S11338F0611D711D862D972DEB81FC81099588230F
S1133900D1F2E218F30842185308E114F10479F0F3
S11339104114510409F0BECFFA82E9822DC00E94FD
S11339209A1AC8010197012B19F08C01F8CFF12CD8
S11339300E949A1A0E949A1A4214530458F08F80D3
S11339409884A984BA84F2E09F0EA11CB11CFF20C4
S113395009F469CF299A0E949A1A81E013C080E081
S113396011C080E00FC080E00DC080E00BC0FA827F
S1133970E98202C0FA82E98209811A81015011099F
S1133980F12CCDCF2A960FB6F894DEBF0FBECDBF73
S1133990DF91CF911F910F91FF90EF90DF90CF9027
S11339A0BF90AF909F908F907F906F905F904F905B
S11339B03F902F90089540989DB591609DBD91E0F2
S11339C09EBD0DB407FEFDCF9DB591609DBD8EBD1E
S11339D00DB407FEFDCF409A089540988DB58160DF
S11339E08DBD82E08EBD0DB407FEFDCF8DB5816027
S11339F08DBD1EBC0DB407FEFDCF8DB581608DBDA0
S1133A001EBC0DB407FEFDCF80E090E0A1E0B0E065
S1133A102DB521602DBD1EBC0DB407FEFDCF019751
S1133A20A109B1090097A105B10591F7409A08953C
S1133A30389A409A80E40E94DB1C0E94ED1C089591
S1133A4040982DB521602DBD22E02EBD0DB407FE9A
S1133A50FDCF2DB521602DBD9EBD0DB407FEFDCF5C
S1133A609DB591609DBD8EBD0DB407FEFDCF8DB596
S1133A7081608DBD6EBD0DB407FEFDCF409A0895E3
S1133A8040982DB521602DBD23E02EBD0DB407FE59
S1133A90FDCF2DB521602DBD9EBD0DB407FEFDCF1C
S1133AA09DB591609DBD8EBD0DB407FEFDCF8DB556
S1133AB081608DBD1EBC0DB407FEFDCF409A8EB54E
S1133AC0089540982DB521602DBD23E02EBD0DB481
S1133AD007FEFDCF2DB521602DBD9EBD0DB407FEA3
S1133AE0FDCF9DB591609DBD8EBD0DB407FEFDCF8C
S1133AF08DB581608DBD1EBC0DB407FEFDCF8EB5A6
S1133B0090E02DB521602DBD1EBC0DB407FEFDCF88
S1133B102EB5409A922B089540982DB521602DBD65
S1133B2023E02EBD0DB407FEFDCF2DB521602DBDC4
S1133B309EBD0DB407FEFDCF9DB591609DBD8EBDAC
S1133B400DB407FEFDCF6115710579F0FA01460F3A
S1133B50571F8DB581608DBD1EBC0DB407FEFDCF12
S1133B608EB58193E417F507A1F7409A089540981C
S1133B702DB521602DBD22E02EBD0DB407FEFDCF75
S1133B802DB521602DBD9EBD0DB407FEFDCF9DB5A5
S1133B9091609DBD8EBD0DB407FEFDCF611571050D
S1133BA071F0FA01460F571F81919DB591609DBD3B
S1133BB08EBD0DB407FEFDCFE417F507A9F7409AB3
S1133BC008958093040108951092C0028091040125
S1133BD08130A1F018F0823009F108952091BF02DC
S1133BE0822F90E006968C34910524F42A5F20936A
S1133BF0BF02089586E00E945E2208952091BF02CC
S1133C00822F90E00A968834910524F4265F20934D
S1133C10BF0208958AE00E945E2208952091BF02A7
S1133C20822F90E008968A34910524F4285F20932B
S1133C30BF02089588E00E945E2208950F93909138
S1133C400401913031F120F0923009F445C068C08C
S1133C50803108F065C090E09C01220F331F820F71
S1133C60931F9C01220F331F2050304F00E046E089
S1133C706091BF028091C0020E9439208091C002ED
S1133C808C5F8093C0028E3708F44AC00E94E41D02
S1133C9047C0803108F044C090E09C01220F331FDC
S1133CA0880F991F880F991F880F991F280F391F94
S1133CB0205A304F00E04AE06091BF028091C00278
S1133CC00E9439208091C002885F8093C0028A37A5
S1133CD038F10E94E41D24C08A3019F40E94E41DC6
S1133CE01FC090EE980F9536D8F4282F30E0220F9D
S1133CF0331F220F331F220F331F285C344F00E081
S1133D0048E06091BF028091C0020E9439208091F6
S1133D10C0028A5F8093C0028C3710F00E94E41DB9
S1133D200F9108958093C0026093BF020895CF93CA
S1133D30DF93EC018881882331F021960E941E1EB6
S1133D4089918111FBCFDF91CF910895CF93DF93B8
S1133D50EC012196FC018491882339F00E941E1EF7
S1133D60FE01849121968111F9CFDF91CF910895BD
S1133D700F931F93CF93DF9300D000D0CDB7DEB75E
S1133D80062F13E0282F2F702A3048F4E1E0F0E0EA
S1133D90EC0FFD1FE10FF11D205D208308C0E1E061
S1133DA0F0E0EC0FFD1FE10FF11D295C20839295DB
S1133DB082958F7089279F70892711500150009731
S1133DC009F780E20E941E1E002381F0812F801BD0
S1133DD020E39FEF910FE1E0F0E0EC0FFD1FE10F16
S1133DE0F11D2083981719F0192FF3CF812F8F5FBE
S1133DF0843078F411E0180FE1E0F0E0EC0FFD1FDF
S1133E00E80FF11D80810E941E1E143011F0812FD5
S1133E10F1CF0F900F900F900F90DF91CF911F91E2
S1133E200F910895DF92EF92FF920F931F93CF9318
S1133E30DF938C01F62E0E94272282E080930401F6
S1133E40E8012196F8010491002309F44FC0689415
S1133E50EE24E5F86894DD24D3F81092C002E092D1
S1133E60BF02002309F440C00A3009F43DC0802F8A
S1133E700E941E1E2196FE013197049184E00E9447
S1133E80A21981112EC0002379F10A3081F72CC0C8
S1133E90F092C5028091C5028111FCCF81E00E949D
S1133EA05E2284E00E94A21981111BC0115081F787
S1133EB09E012F5F3F4FFE0104910023B9F0E901F9
S1133EC0CCCFF092C5028091C5028111FCCF81E074
S1133ED00E945E2284E00E94A219811102C0C15096
S1133EE081F70E94272204C01D2DD2CFC0E2E9CF62
S1133EF0DF91CF911F910F91FF90EF90DF90089584
S1133F00569A83E085BD82E484BD0895CF93C62F7D
S1133F109C0140E050E068E478EE81E090E00E948B
S1133F20E023215027BD569AC093C402CF9108952F
S1133F30CF93C42F8F70E82FF0E0EE0FFF1FE05AED
S1133F40FF4E859194910E94861FCC2311F05699BF
S1133F50FECFCF910895569A8093C40207C00E9461
S1133F60672480FF02C05E9A01C05E988091C402FB
S1133F708111F5CF56980895229A82EC8093C2005D
S1133F8087EF93E0909389008093880083E693E021
S1133F9090938B0080938A0083E38093800089E16F
S1133FA080938100EFE6F0E080818460808308954F
S1133FB088230CF45DC0603508F05AC0E82F8823CC
S1133FC014F4E7E0E80FE595E595E59587781CF4AA
S1133FD08150886F8F5F97E0981B4130D9F018F0BB
S1133FE0423081F10895FF27E7FDF09540E1640236
S1133FF0E00DF11D1124EA53FD4F21E030E0A90149
S113400002C0440F551F9A95E2F7CA019081892B8B
S113401080830895FF27E7FDF09550E16502E00DE8
S1134020F11D1124EA53FD4F21E030E0A90102C043
S1134030440F551F9A95E2F7CA0180959081892310
S113404080830895FF27E7FDF09550E16502E00DB8
S1134050F11D1124EA53FD4F21E030E0A90102C013
S1134060440F551F9A95E2F7CA01908189278083EE
S113407008959F92AF92BF92CF92DF92EF92FF92F8
S11340800F931F93CF93DF93893F0CF4A7C09EE057
S1134090960F9E3508F0A4C08823C4F5819550E09E
S11340A0141615060CF09EC070E090E0A62F603543
S11340B018F5013039F4F901E90FF11D97FDFA956E
S11340C0C08106C0F901E90FF11D97FDFA95C4916D
S11340D0E0E1AE02D0011124AA53BD4F1C91D0E0FF
S11340E0FE01082E02C0EE0FFF1F0A94E2F7F12F23
S11340F0FE237F2BE127EC939F5F6F5FE92FFF2760
S1134100E7FDF095E417F5078CF263C0F82FF7701C
S1134110AF2E9F2F91959770B92E8595859585958E
S113412050E0141615060CF05FC070E010E0E82EA5
S1134130FF24E7FCF09467018FEFC81AD80A862F92
S1134140603508F03CC0013039F4F901E10FF11D8C
S113415017FDFA95C08106C0F901E10FF11D17FDA5
S1134160FA95C491F701A0E18A02E00DF11D112432
S1134170CF01DF01AA53BD4F9C90D0E0FE010A2C71
S113418002C0F595E7950A94E2F7F92DFE237F2BFB
S1134190E925EC93BB2099F0E0E1CE16D1047CF440
S11341A0FC01E953FD4F80810B2C02C0CC0FDD1FB5
S11341B00A94E2F79C2F9823792BC827C0831F5FAA
S11341C06F5FE12FFF27E7FDF095E417F5070CF487
S11341D0B6CF81E0711109C080E007C080E005C05E
S11341E080E003C080E001C080E0DF91CF911F91A7
S11341F00F91FF90EF90DF90CF90BF90AF909F9082
S113420008956F927F928F929F92AF92BF92CF92B6
S1134210DF92EF92FF920F931F93CF93DF93813F2F
S11342200CF4EFC09FE0960F9F3508F0ECC0893F77
S11342301CF578EF781BFA01319640E1912C60353A
S1134240A8F420E16202D0011124AA53BD4F5C916D
S1134250208130E0C901072E02C0880F991F0A94FB
S1134260E2F7952F9823992A85278C9341506F5F05
S113427032964111E4CFC0C088230CF048C0F82E18
S1134280F1946894EE24E3F8E80EFA01319670E1B3
S1134290912C6035B0F5C0E16C02C0011124DC0141
S11342A0AA53BD4FDC90EF012197288130E0E9014A
S11342B00F2C02C0CC0FDD1F0A94E2F7DC2FDD25A2
S11342C0DC93008110E0A8010E2C02C0559547959F
S11342D00A94E2F72D2F24272C93DC01A953BD4F18
S11342E09C9198010F2C02C0220F331F0A94E2F70D
S11342F0CD21892F8223C82B9C2A4D23942A292738
S11343002C9371506F5F32967111C3CF75C0D82F43
S1134310D770BD2E9D2F91959770A92E8595859563
S113432085954F5F5F4F70E1912CE82EFF24E7FCE9
S1134330F09467012FEFC21AD20A370182E0680EA7
S1134340711C603508F052C0D70190E16902A00DDC
S1134350B11D1124FD01EA53FD4F8080EA0121972C
S1134360888190E09C010B2C02C0359527950A9416
S1134370E2F7382D3223932A28252083C0E1CC1676
S1134380D104A4F5AA2009F440C0FD01E953FD4F6E
S113439020810A2C02C0880F991F0A94E2F7922FF9
S11343A09823992A82278083EA019881C92FD0E033
S11343B09E010B2C02C0359527950A94E2F7982F9D
S11343C09223992A8227808320E16216710474F46F
S11343D0A853BD4F8C910A2C02C0CC0FDD1F0A9448
S11343E0E2F79C2F9823992AC827CC9371506F5FCA
S11343F04E5F5F4F7111A5CF81E0911019C080E02D
S113440017C080E015C080E013C0A953BD4FEC91E4
S1134410EA01288130E0C9010B2C02C095958795EB
S11344200A94E2F79E2F9823992A8E278C93DECF45
S1134430DF91CF911F910F91FF90EF90DF90CF907C
S1134440BF90AF909F908F907F906F90089580E081
S113445095E0E6ECF2E0DF019C011D922150304032
S1134460E1F760E080E00E94921E0895CF93DF930D
S1134470882309F18F7190E0EC01C295D295D07F29
S1134480DC27C07FDC2740E550E0481B590B4295F0
S11344905295507F5427407F542766EC72E0CE013A
S11344A08A539D4F0E947724AE0160E070E086EC51
S11344B092E00E948924DF91CF9108950F931F9376
S11344C0CF93DF93882341F18F71082F10E0E80127
S11344D0C295D295D07FDC27C07FDC2740E550E031
S11344E0401B510B42955295507F5427407F5427CF
S11344F0BE016A537D4F86EC92E00E94772420EF40
S11345002003C001219F900D1124AE0160E070E0F2
S11345108A53984F0E948924DF91CF911F910F9164
S113452008951F93CF93DF93C6ECD2E066EC77E057
S1134530AE01405F5F4F9E012F5F3F4FDE011F962C
S1134540FA018E9110E1819FC001112492919295FC
S11345509F70892B8083E217F30799F788818295EE
S11345608F7088836417750711F0EA01E1CFDF913A
S1134570CF911F910895CF93DF9325ED32E045ED60
S113458057E0F9013F97E901D9011E976D916295B2
S11345906F70808170E1879FC0011124862B819305
S11345A0EC17FD0799F788818295807F8883205FC7
S11345B03F4F2417350729F7DF91CF91089546EC33
S11345C052E060E075E080E090E80E94B71D089535
S11345D046EC52E060E075E080E090E80E948C1DBB
S11345E008951F920F920FB60F9211242F938F9359
S11345F09F93AF93BF93CF93DF93EF93FF938091F8
S1134600C2029091C30201969093C3028093C202A6
S11346108091C2029091C3028330910561F130F41C
S11346208130910569F00297B1F03EC0813D91055A
S113463069F1863021E0920761F1C297A9F522C0A1
S11346408091C502882309F467C08091C502815016
S11346508093C50261C08091C402882309F45CC0C0
S11346608091C40281508093C4028091C40281115C
S113467053C0569851C08AE490E090938B00809385
S11346808A004AC081E08093C10246C01092C102F0
S113469043C01092C3021092C20283E693E0909347
S11346A08B0080938A0038C08091C1028823A1F1D5
S11346B0A091C202B091C302E4ECF0E01182108236
S11346C088E08093C10082E090E09183808310921F
S11346D0C600D297B695A795A295B295B07FBA2792
S11346E0A07FBA27AA53BD4FCD014096E0ECF0E07D
S11346F0C6ECD0E0208125FFFDCF2D912883A8179B
S1134700B907C1F7E0ECF0E0808186FFFDCFE1EC72
S1134710F0E08081877F8083FF91EF91DF91CF91DB
S1134720BF91AF919F918F912F910F900FBE0F90DA
S11347301F901895DB018F939F930E940E24BF91C5
S1134740AF91A29F800D911DA39F900DB29F900DDC
S113475011240895AA1BBB1B51E107C0AA1FBB1F4C
S1134760A617B70710F0A61BB70B881F991F5A95F9
S1134770A9F780959095BC01CD010895A1E21A2E68
S1134780AA1BBB1BFD010DC0AA1FBB1FEE1FFF1FF1
S1134790A217B307E407F50720F0A21BB30BE40B41
S11347A0F50B661F771F881F991F1A9469F7609588
S11347B07095809590959B01AC01BD01CF01089542
S11347C0052E97FB1EF400940E94F72357FD07D093
S11347D00E94BE2307FC03D04EF40C94F72350959B
S11347E04095309521953F4F4F4F5F4F08959095D9
S11347F08095709561957F4F8F4F9F4F0895A29F2D
S1134800B001B39FC001A39F700D811D1124911DA0
S1134810B29F700D811D1124911D08950E94FF23E4
S1134820A59F900DB49F900DA49F800D911D112400
S113483008958F929F92AF92BF92CF92DF92EF92A0
S1134840FF92CF93DF93EC01688179818A819B8108
S1134850611571058105910521F464E279ED8BE51B
S113486097E02DE133EF41E050E00E94E02349015D
S11348705A019B01AC01A7EAB1E40E940E246B012A
S11348807C01ACEEB4EFA50194010E94C524C60ED0
S1134890D71EE81EF91EF7FE06C081E0C81AD1082B
S11348A0E10880E8F80AC882D982EA82FB82C6015C
S11348B09F77DF91CF91FF90EF90DF90CF90BF90E3
S11348C0AF909F908F9008950E941924089580E0DE
S11348D091E00E9419240895A0E0B0E080930001C3
S11348E090930101A0930201B09303010895681706
S11348F0790768F4FB01DC01E40FF51FA40FB51F71
S113490002C002900E9241505040D8F708950C9482
S1134910B924DC0101C06D9341505040E0F7089583
S1134920FC018191861721F08823D9F799270895EE
S11349303197CF010895FB01DC018D91019080191D
S11349400110D9F3990B0895FB01DC0101900D923C
S11349500020E1F70895FB01DC014150504030F0A4
S11349608D910190801919F40020B9F7881B990BD7
S11349700895FB01DC0102C001900D9241505040AA
S1134980D8F70895B7FF0C940E240E940E24821BBE
S10B4990930B0895F894FFCF86
S10B499801000000022F0000E1
S9030000FC
