:100000000C94B4090C94D1090C94D1090C94D10925
:100010000C94D1090C94D1090C94D1090C94D109F8
:100020000C94D1090C94D1090C94D1090C94D109E8
:100030000C941B230C94D1090C94D1090C94D10974
:100040000C94D1090C94D1090C94D1090C94D109C8
:100050000C94D1090C94D1090C94D1090C94D109B8
:100060000C94D1090C94D10910124A6F6E6173205F
:100070004C696E6473746564740000FF108A6401D7
:10008000A3246B006C3BDBC47B083B80101E683CE8
:10009000A31C6935D89663004300103AA322D232DC
:1000A00063008C407CFF6B038CB26B004C00104EE5
:1000B0007B057CFF10446100A302FB1EF065A32AB0
:1000C000F11EF05571017B01310610506D086E056F
:1000D00066006A01A32A80D0D0E57014306C1070DD
:1000E0002148221220FA21884F42103022503463D6
:1000F000107A00E0A2A86D286E0A6C0ADDEA7D087D
:10010000FC1E3D581094A2E46D346E196C05DDE5BB
:100110007D08FC1E3D4C10A66D2D6E286C05DDE59E
:100120007D08FC1E3D4510B6A329F065A336F033CB
:100130006C00A336FC1EF065F029DDE57D057C0131
:100140003C0310CA6C20EC9E10DEA3286000610006
:10015000F1556C366F0A229E00C17CFF3C0010EC0A
:1001600010163300112ECC0F3C00112CCC077C0153
:100170008C06A330FC1EF0654000112C82D083E079
:1001800073054C00112472147CFF111AA322D23281
:100190003F00113C00EEA322D2327301333A112406
:1001A000630000EE6C358B308BC53F00646300EE5E
:1001B0008040700180066C00A330FC1EF0557C016D
:1001C0003C051150A336F43321706C78FC15FC0704
:1001D0003C001166217000EEA337F065F0306C37FB
:1001E0006B1BDCBAA338F065F0306C41DCBA00EE72
:1001F00046001204A322D56276FF46001204D5629F
:100200004F0012048CE07C058C654F001206D5620D
:1002100075FB66008CD060008BC08B553F0011BE13
:100220007C14700111B0A330F01EF06570FFF05522
:10023000A32A4000DCE56C0AFC18A328F0656CFFDB
:1002400080C3F055300011E8A329F0657001F05526
:100250006C006B00A330FC1EF06530007B017C015C
:100260003C0511EC3B00120474016F4200EEA32226
:10027000D232D5626300660000EE6B006C08ECA120
:100280006BFF6C10ECA16B014B00123848016B0145
:1002900048786BFFA31C6935D89688B4D896124A63
:1002A0006C20EC9E124A3600124A85806635A322E5
:1002B000D5626F06229E00EEF0073000126E601EBF
:1002C000F01567003D2112646AFF126A3D07126C47
:1002D0006A016701227000EE8BD06C0089B081E06A
:1002E000A330FC1EF0654000128CA32AD91589A406
:1002F0008174D9157C017B143C0512748DA48E7415
:100300004E30646300EEFF15FF073F0012A000EEC1
:100310003C0C1E1E33333F6161F31F0C0C0C0C0CA4
:100320000C8C8CDF070101010101010161E7E7830A
:1003300083838383838383E7FB190161E161010187
:1003400019FB9F86C6E6E6B69E9E8EE6E494E7908D
:10035000F7878080808788888888AF66884828C625
:100360004CAAACAA4AE088C088E0000018FF3C0014
:10037000183CFF81423C3C3C423C5A5A7E7E000085
:10038000243C24000018183C7EFF1818FF225588D2
:10039000000000000000000000000000000000005D
:1003A0000000101E312E3030204B2E762E53656EFD
:1003B0006762757363682032342F342D2739340017
:1003C00000FF6C04214865326632672883508460E0
:1003D000626469006A016B0000C120CC6001820583
:1003E000602852001036A190D348A190D34800C194
:1003F000D5683F00108020CC6001320082052108C2
:10040000835084606008E0A120B06010E0A120A8C3
:10041000C003400020BAC003400020C280C0217A3F
:10042000104880B0700380068006F0308070701134
:10043000611BD01A6064217A00C860006100A19835
:100440009012F00A40FF10A010227501456E656DF4
:1004500000EE600185054F00650000EE770147461C
:10046000674500EE600187054714671500EE809030
:10047000612D8105881061008070A184D011808475
:100480006100D0117A014A046A014A01A1864A0238
:10049000A1884A03A18A61006000D0116008D011D0
:1004A0006070D0116078D01100EE320000EEC00F05
:1004B000807470086100A190622D4B1E212C3B219D
:1004C000D0187B0180908205390B790100EE7B0307
:1004D000A18C80707005D0117008D0117008D011F7
:1004E0007008A18ED011626400EE00E0600061002F
:1004F000A1A39012620882C5F229602AD015F00AE1
:10050000400221744004216E3020114800E000EECA
:100510003C077C0111783C017CFF600FF015F0076F
:100520003000117C00EE8800880055002200FF009A
:10053000F800DBFFDB1824E7E7DB616E79206B65F1
:10054000792E2E2E0073706565643A200063617207
:10055000746520534420616273656E7465210043A5
:10056000524153482120626164206F70636F64655B
:100570000A0043524153482120626164206F706336
:100580006F64650A00464154206472697665720A98
:10059000436F7079726967687420323030362D325B
:1005A0003031320A526F6C616E6420526965676542
:1005B0006C0A004C454D0A4341520A574F524D0AAE
:1005C000414C49454E0A00274627697265207472DE
:1005D000616365206F7220616E79007661725B5D88
:1005E0003A002053503A00493A0050433A004563DC
:1005F000686563206F75766572742E20666963681E
:100600002E0A004563686563206163636573207229
:1006100065706572742E0A004563686563206163C6
:100620006365732066696368696572730A00456370
:1006300068656320616363657320706172746974B7
:10064000696F6E0A00626F75746F6E2E2E2E000039
:10065000E020C96900680078019E0860108E058E50
:10066000066D006C006B006A64208E207420BA4A0C
:1006700000102B6008E0A1101C6010E0A1102060A9
:1006800020E0A11024102B20BA7CFF7AFF10292033
:10069000BA7C017AFF102920BA7BFE3A017AFF7AF0
:1006A000FF904420BA20BA20748EC4607F8E028DE1
:1006B000B47B0120744F01104B20BA4A00103B60FC
:1006C000142046101020BA600A61049011600420C2
:1006D0004620BA6004901120461010F015F0073043
:1006E00000104700EE20BA600280B53F0110636041
:1006F0000280C53F01106380E080753F0110638078
:1007000070701080E73F0010637901A0F161006212
:100710001091221067A0EB61006210912220776097
:100720003C20466020E09E106B6101620A9121E04E
:10073000A1107000E01004A0D6DED000EE610062CF
:100740000AA115F9332083A0E6D1257104A115F87B
:1007500033208300EE6300A115F31EF065F029D16C
:1007600025710473013303108400EE6500C7FF9008
:1007700008631080359006807590073F01870084DC
:10078000707410C10F90098107835083753F011069
:10079000A5835083453F0110B49009800680153F22
:1007A000007101900970FF80173F0071FFC3038340
:1007B00006330071FE710195137501900855001004
:1007C0009D00EE610062006300A115FA33A115F3EC
:1007D0001EF065F030D12A71087301330310BF0099
:1007E000EEA0F96100920982069122910900D16080
:1007F00003204671FF310010CF00EE03C006601FDA
:10080000F83FFC2004AFF56C362C346FF6A0053FA2
:10081000FC3FFC12902448600CC0062000400040C1
:100820000080008000796F75206372617368656471
:1008300000636F6E67726174756C6174696F6E21AD
:10084000004C454D0A4A61637175657320446573B8
:100850006368656E65730A436F707972696768745F
:1008600020323031342C323031350A6C6963656E98
:1008700063652047504C7633000000000000000004
:1008800000000000000000000000000000FFFFFF6B
:10089000FFFFFFFFFFFFFFFFFFFFFFFFFFFFFFFF68
:1008A000FFFFFFFFFFFFFFFFFFFFFFFFFFFFFFFF58
:1008B000FFFFFFFFFFFFFFFFFFFFFFFFFFFFFFFF48
:1008C000FFFFFFFFFFFFFFFFFFFFFFFFFFFFFFFF38
:1008D000FFFFFFFFFFFFFFFFFFFFFFFFFFFFFFFF28
:1008E000FFFFFFFFFFFFFFFFFFFFFFFFFFFFFFFF18
:1008F000FFFFFFFFFFFFFFFFFFFFFFFFFFFFFFFF08
:10090000FFFFFFFFFFFFFFFFFFFFFFFFFFFFFFFFF7
:10091000FFFFFFFFFFFFFFFFFFFFFFFFFFFFFFFFE7
:10092000FFFFFFFFFFFFFFFFFFFFFFFFFFFFFFFFD7
:10093000FFFFFFFFFFFFFFFFFFFFFFFFFFFFFFFFC7
:10094000FFFFFFFFFFFFFFFFFFFFFFFFFFFFFFFFB7
:10095000FFFFFFFFFFFFFFFFFFFFFFFFFFFFFFC1E5
:10096000CF9981FFFFFFFFFFFFFFFFFFFFFFFF802A
:10097000CF9980FFFFFFFFFFFFFFFFFFFFFFFF1C7F
:100980004F999C7FFFFFFFFFFFFFFFFFFFFFFF3E31
:10099000CF999E7FFFFFFFFFFBFE7FFFFFFFFE7FE4
:1009A000CF999E787C3C87FFFBFDBFFFFFFFFE7F5A
:1009B000CF999E70381C03FFF3FBDFFFFFFFFE7F24
:1009C000C0199C63118C73EFABFBDFFFFFFFFE7F51
:1009D000C01980E793CCF3F77BFBDFFFFFFFFE7FBF
:1009E000CF9981E7F3CCF3F77BFBDFFFFFFFFE7EC0
:1009F000CF999FE7F3CCF3F77BFBDFFFFFFFFF3CD3
:100A00004F999FE793CCF3FAFBFBDFFFFFFFFF1C3F
:100A1000CF999FE3118CF3FAFBFBDFFFFFFFFF8011
:100A2000CF999FF0381CF3FAFBFDBFFFFFFFFFC11A
:100A3000CF999FF87C3CF3FDFBDE7FFFFFFFFFFFBC
:100A4000FFFFFFFFFFFFFFFFFFFFFFFFFFFFFFFFB6
:100A5000FFFFFFFFFFFFFFFFFFFFFFFFFFFFFFFFA6
:100A6000FFFFFFFFFFFFFFFFFFFFFFFFFFFFFFFF96
:100A7000FFFFFFFFFFFFFFFFFFFFFFFFFFFFFFFF86
:100A8000FFFFFFFFFFFFFFFFFFFFFFFFFFFFFFFF76
:100A9000FFFFFFFFFFFFFFFFFFFFFFFFFFFFFFFF66
:100AA000FFFFFFFFFFFFFFFFFFFFFFFFFFFFFFFF56
:100AB000FFFFFFFFFFFFFFFFFFFFFFFFFFFFFF8FB6
:100AC000FFFFF7F7DF3EFBF7FBFC3FFFFFFFFF7782
:100AD000FFFFFFF7DEDD73E7FBFDDFFFFFFFFEF645
:100AE00034DD56548EEBABE7FB1DEC7FFFFFFEFDC4
:100AF000D35D35935FEBBBD7FAEDEBBFFFFFFEFD98
:100B0000D76B75D75FDBBBD7FBEDEBBFFFFFFEFD00
:100B1000D76B75D75FBBBBB7FB0DE83FFFFFFEF59B
:100B2000D76B75D75F7BBB83DAEDEBFFFFFFFF75FC
:100B3000D37775975EFD7BF7DAEDDBBFFFFFFF8EA6
:100B400034F776574E0EFBF7E70C3C7FFFFFFFFFB5
:100B5000F7F7FFDFFFFFFFFFFFFFFFFFFFFFFFFFD5
:100B6000F7F7FDDFFFFFFFFFFFFFFFFFFFFFFFFFC7
:100B7000F7CFFE3FFFFFFFFFFFFFFFFFFFFFFFFF7E
:100B8000FFFFFFFFFFFFFFFFFFFFFFFFFFFFFFFF75
:100B9000FFFFFFFFFFFFFFFFFFFFFFFFFFFFFFFF65
:100BA000FFFFFFFFFFFFFFFFFFFFFFFFFFFFFFFF55
:100BB000FFFFFFFFFFFFFFFFFFFFFFFFFFFFFFFF45
:100BC000FFFFFFFFFFFFFFFFFFFFFFFFFFFFFFFF35
:100BD000FFFFFFFFFFFFFFFFFFFFFFFFFFFFFFFF25
:100BE000FFFFFFFFFFFFFFFFFFFFFFFFFFFFFFFF15
:100BF000FFFFFFFFFFFFFFFFFFFFFFFFFFFFFFFF05
:100C0000FFFFFFFFFFFFFFFFFFFFFFFFFFFFFFFFF4
:100C1000FFFFFFFFFFFFFFFFFFFFFFFFFFFFFFFFE4
:100C2000FFFFFFFFFFFFFFFFFFFFFFFFFFFFFFFFD4
:100C3000FFFFFFFFFFFFFFFFFFFFFFFFFFFFFFFFC4
:100C4000FFFFFFFFFFFFFFFFFFFFFFFFFFFFFFFFB4
:100C5000FFFFFFFFFFFFFFFFFFFFFFFFFFFFFFFFA4
:100C6000FFFFFFFFFFFFFFFFFFFFFFFFFFFFFFFF94
:100C7000FFFFFFFFFFFFFFFFFFFFFFFFFFFFFFFF84
:100C8000FFFFFFFFFFFFFFFFFFFFFFFFFF00000071
:100C900000000000002020202020002000505050A4
:100CA00000000000005050F850F85050002078A08C
:100CB0007028F02000C0C81020409818006090A054
:100CC00040A8906800602040000000000010204014
:100CD000404020100040201010102040000020A8AC
:100CE00070A8200000002020F82020000000000054
:100CF0000060204000000000F00000000000000044
:100D0000000060600000081020408000007088989B
:100D1000A8C8887000206020202020F8007088106B
:100D2000204080F800F00808F00808F0001030506B
:100D300090F8101000F88080F00808F00030408033
:100D4000F088887000F808102040404000708888C3
:100D50007088887000708888700808700000606073
:100D600000606000000060600060204000102040D3
:100D700080402010000000F800F800000040201023
:100D8000081020400070880810200020007088089B
:100D900068A8A87000708888F888888800F088881B
:100DA000F08888F0007880808080807800F08888E3
:100DB000888888F000F88080F88080F800F88080CB
:100DC000F880808000788080B0888870008888886B
:100DD000F88888880070202020202070007808087B
:100DE00008089060008890A0C0A090880080808053
:100DF000808080F80088D8A888888888008888C87B
:100E0000A8988888007088888888887000F088880A
:100E1000F08080800070888888A8987800F08888A2
:100E2000F0A0908800788080700808F000F82020FA
:100E300020202020008888888888887000888888FA
:100E40008888502000888888A8A8D888008888507A
:100E500020508888008888885020202000F81020A2
:100E6000408080F80060404040404060000080408A
:100E700020100800001808080808081800205088EA
:100E80000000000000000000000000F800402010FA
:100E900000000000000000700878887800808080E2
:100EA000B0C888F0000000708080887000080808D2
:100EB000689888780000007088F88070003048409A
:100EC000E04040400000007888887808708080B05A
:100ED000C8888888000020002020202000100030D2
:100EE0001010906000808090A0C0A0900060202032
:100EF00020202070000000D0A8A88888000000B042
:100F0000C88888880000007088888870000000F019
:100F10008888F080800000689090B050180000B081
:100F2000C880808000000070807008F0004040E0C1
:100F30004040483000000088888898680000008899
:100F4000888850200000008888A8A85000000088E9
:100F5000502050880000008888887808700000F8C9
:100F6000102040F8002040408040402000202020F9
:100F700020202020004020201020204000000040A1
:100F8000A810000000FCFCFCFCFCFCFCFC40201059
:100F9000F810204000102040F8402010002070A8D9
:100FA000202020000000202020A87020000070F8E1
:100FB000F8F87000007C82868A92A2C2827C0008C7
:100FC000182808080808083E003844820408102041
:100FD00040FE00384482023C02824438008484840B
:100FE000847E04040404007E8080807C020202FE71
:100FF0000078848080FC8282827C007E82040808E3
:101000000808080800384482827C8282443800380C
:10101000448282463A0204380038448282FE828248
:10102000828200FC828282FC828282FC003E4080BE
:1010300080808080403E00F884828282828284F8B0
:1010400000FE808080FE808080FE00FE808080FE2A
:101050008080808000E0A0A0A0E000C0404040E090
:1010600000E020E080E000E020E020E000A0A0E040
:10107000202000E080E020E0008080E0A0E000E0B0
:101080002020202000E0A0E0A0E000E0A0E0202060
:1010900000E0A0E0A0A000C0A0C0A0C000E0808050
:1010A00080E000C0A0A0A0C000E080E080E000E000
:1010B00080E08080000B022A024B026E029302BA8B
:1010C00002E40210033F037003A403DC031704557A
:1010D000049704DD04101A576F726D0052423932C2
:1010E0000000003E05002B7C0000061E01000400ED
:1010F000FF00E0A00BFE65A192F055FC1E710131CE
:10110000001024A168DAB3D421D4317403347A10E6
:1011100032A1776304D329D4297209323F1040A049
:1011200006F065A002F033632E20E4A002F5332020
:10113000E2214AA176D76176FE3611105E630AF38A
:1011400015A192F81EF065840080A0F055A292F8D7
:101150001EF065810080B0F055A16A3400D413A15F
:1011600060F91EF165A16DDAB28A048B14A168DA08
:10117000B33F0010FCC00F40002146780198E068A2
:10118000006108E19E6600E19E10C0360010C07943
:1011900002660689626110E19E6700E19E10D43705
:1011A0000010D479FE67068972F307330010AC1083
:1011B0006820E2A002F5336300647CA002F265F0CF
:1011C00029D4357306F129D4357306F229D43500B4
:1011D000EE215AA168DAB3DAB33F0011126402F4C7
:1011E00018750120DC10A6640AF418DAB38A058B9E
:1011F00015A16DDAB2A006F065805580504F00F061
:10120000556064F015F0073000113000C88100A16E
:10121000809012F00A3020113E101A7E0100EEA1DB
:101220006FCC7C7C02CD3C7D02DCD74F0000EEA170
:101230006FDCD7114C040000FCFC000004E0E0E08F
:10124000A0E00040387CDEFEFE7C38F080808080AC
:10125000808080808073656C6563742072657374B0
:101260006172742E2E2E00000000000000000000AD
:10127000000000000000000000000000000000006E
:10128000000000000000000000000000000000005E
:10129000000000000000000000000000000000004E
:1012A000000000000000000000000000000000003E
:1012B000000000000000000000000000000000002E
:1012C000000000000000000000000000000000001E
:1012D000000000000000000000000000000000000E
:1012E00000000000000000000000000000000000FE
:1012F00000000000000000000000000000000000EE
:1013000000000000000000000000000000000000DD
:1013100000000000000000000000000000000000CD
:1013200000000000000000000000000000000000BD
:1013300000000000000000000000000000000000AD
:10134000000000000000000000000000000000009D
:10135000000000000000000000000000000000008D
:10136000000000000000000011241FBECFEFD8E0F5
:10137000DEBFCDBF11E0A0E0B1E0ECEEF9E402C0C9
:1013800005900D92A830B107D9F727E0A8E0B1E0A9
:1013900001C01D92A63CB207E1F70E94940C0C9488
:1013A000F4240C940000FC01818190E0982F8827A0
:1013B0002081822B0895FC0123816281862F90E099
:1013C000A0E0B0E0DC0199278827B22B2081822B96
:1013D0002181BC01CD01722B0895EF92FF920F93F2
:1013E0001F93CF93DF937C018B016115710569F029
:1013F000C0E0D0E0F701EC0FFD1F6491CE010E9428
:101400004D1D2196C017D107A9F7DF91CF911F91EC
:101410000F91FF90EF900895FF920F931F93CF933A
:10142000DF93CDB7DEB7A0970FB6F894DEBF0FBE3F
:10143000CDBF182F0027F12CAE014F5F5F4F60E248
:1014400070E0C8010E94B91D8981882391F080E273
:101450000E944B1ECE0101960E94C41E86E08F158D
:1014600010F00E94111EF394005E1F4F88E0F812E6
:10147000E3CF8F2DA0960FB6F894DEBF0FBECDBF81
:10148000DF91CF911F910F91FF9008956F927F92FE
:101490008F929F92AF92BF92CF92DF92EF92FF9284
:1014A0000F931F93CF93DF936C010E94512282E030
:1014B0008093C5028091C5028111FCCF80E090E04D
:1014C0000E940C0AA82EC0E0D0E0E12CF12C812C67
:1014D000912C0F2EF7E06F2EF02D712C00E02DE8EF
:1014E0003FE048E01C2F110F110F110F612F80E01A
:1014F0000E9463200E94D519B82E2DE83FE048E0F5
:10150000612F80E00E94632088E0B816E9F08B1517
:1015100048F082E0B81609F448C084E0B81609F42F
:1015200057C023C080E1B81631F180E2B8121DC067
:101530000E94DD19C701880F991F880F991F880F16
:10154000991F8C0F9D1F6EC0E114F10461F081E0C2
:10155000E81AF1080E945122C7010E940C0AA82E25
:10156000C62DD72D02C0C82DD92D86B18E738E33CE
:1015700009F04EC0B3CFE7012196CE01880F991F25
:10158000880F991F880F991F8C159D0554F40E9490
:101590005122CE010E940C0AA82E7E01C82DD92D01
:1015A000E4CFCA2DD0E02197E0CF209711F021970A
:1015B000DCCFE114F104C9F281E0E81AF1080E94DD
:1015C0005122C7010E940C0AA82EC62DD72DCDCFBF
:1015D0008A2D90E00197C817D90714F42196C5CF3A
:1015E00087010F5F1F4FC801880F991F880F991F30
:1015F000880F991F8C159D050CF0B7CF0E945122C2
:10160000C8010E940C0AA82E7801C82DD92DADCF93
:1016100040E062E08B2D0E94C21F86B18E738E3334
:10162000B9F75CCFDF91CF911F910F91FF90EF90B1
:10163000DF90CF90BF90AF909F908F907F906F90F2
:1016400008950F931F93CF93DF93CDB7DEB7CB549D
:10165000D1090FB6F894DEBF0FBECDBF18A200E0CF
:1016600010E027C022968FAD229784FD1EC0BE01D8
:101670006F5D7F4FCE0101960E94CE24AE014F5F79
:101680005F4F60E270E0C801880F991F82959295C4
:10169000907F9827807F98270E94E41D0F5F1F4F3F
:1016A000011588E018072CF00AC0011588E018071A
:1016B00034F4CE0181960E94C7198111D3CF1982CB
:1016C000AE014F5F5F4F60E270E0C801880F991F65
:1016D00082959295907F9827807F98270E94E41D9D
:1016E000C801C55BDF4F0FB6F894DEBF0FBECDBF9C
:1016F000DF91CF911F910F9108950E94210B0097C8
:1017000099F00E94460A99237CF00E94761988235A
:1017100059F00E94512282E00E94470D823021F44C
:1017200082E795E00E94DD0C08959F92AF92BF92F0
:10173000CF92DF92EF92FF920F931F93CF93DF939D
:10174000CDB7DEB7A0970FB6F894DEBF0FBECDBF02
:10175000FE01319680E2DF011D928A95E9F7A12C06
:10176000B12CE12CF12CE0E0F0E0CE0101966C010F
:101770006894992495F80DC0ED930F5F1F4FF80101
:10178000EE54FA4FE491EE2309F456C0EA30A1F783
:101790006DC08F010F5F1F4FED54FA4FE491EE23A0
:1017A00029F0EA3009F462C0D601E6CFAE014F5FFE
:1017B0005F4F60E270E0C701880F991F8295929594
:1017C000907F9827807F98270E94E41D0E945122D5
:1017D000C7010E94460A8130910571F030F08230D5
:1017E000910589F00397B1F054C06EE372E08FE485
:1017F00096E00E94ED0914C06BEA71E082EA93E082
:101800000E94ED090DC062E972E085ED90E10E9451
:10181000ED0906C06AE373E088E690E00E94ED09F6
:101820000E94512282E00E94470D823091F58FE59F
:1018300095E00E94DD0C2DC08E010F5F1F4FA801A7
:1018400060E270E0C701880F991F82959295907FA2
:101850009827807F98270E94E41D9FEFE91AF90AD4
:1018600080E2D8011D928A95E9F7A0CFA60160E237
:1018700070E0C5010E94E41DBFEFEB1AFB0AF60100
:10188000892D11928A95E9F790E2A90EB11CF80111
:1018900080CFA0960FB6F894DEBF0FBECDBFDF910C
:1018A000CF911F910F91FF90EF90DF90CF90BF905D
:1018B000AF909F900895EF92FF920F931F93CF9355
:1018C000DF930DE81CE0CDE8D8E080E090E89C01D3
:1018D0002D5838407901FE016491C7018C0F9D1F7E
:1018E0000E944D1D2196C017D107A9F70E9412230F
:1018F00088E78093C5020BC086B18E738E3339F0B2
:1019000062E088EE93E00E94B01F1092C5028091C1
:10191000C5028111F1CF0E94DD19DF91CF911F9196
:101920000F91FF90EF900895E1E6F0E080E880836A
:1019300010820E94E61F84B1886284B980E58CBD64
:101940008DB581608DBD87B1817C87B988B18E638B
:1019500088B90E94AA1F0E94451D78948091840036
:10196000909185000E9496240E94111B0E9491185C
:10197000882331F085E091E00E94F218C82F01C061
:10198000C0E00E945B0C64E085E895E00E943F1F88
:101990000E94512282E00E940E1EC1110BC08DE4F4
:1019A00095E00E94D31E0E94111E0E94EB190E9416
:1019B000950BEECF0E947D0BEBCF0F931F93CF9330
:1019C000DF93EC010E9409230E94512282E00E94D1
:1019D0000E1ECE010E94D31E8AEE95E00E94D31EF9
:1019E000809128019091290164E002970E94E51EF0
:1019F00080914D0162E090E00E94E51E80914E01D1
:101A000062E090E00E94E51E0E94111E87EE95E0C4
:101A10000E94D31E64E080912A0190912B010E94C4
:101A2000E51E82EE95E00E94D31E80912C0162E0BB
:101A300090E00E94E51E0E94111E8BED95E00E9431
:101A4000D31ECDE2D1E00DE311E0899162E090E098
:101A50000E94E51EC017D107C1F70E94111E87EC36
:101A600095E00E94D31E0E94D519803229F0EFE83C
:101A7000F1E080818B7F808386B18E738E33E1F7B6
:101A80000E941223DF91CF911F910F9108952F9201
:101A90003F924F925F926F927F928F929F92AF92FE
:101AA000BF92CF92DF92EF92FF920F931F93CF934B
:101AB000DF931F92CDB7DEB781FF0AC010922901D4
:101AC0001092280110922C0110922B0110922A01E1
:101AD0000F2EFDE4EF2EF1E0FF2EF02D0F2EFEE491
:101AE000CF2EF1E0DF2EF02D0F2EFAE2AF2EF1E037
:101AF000BF2EF02D0F2EFFE86F2EF1E07F2EF02D80
:101B00000F2EF8E02F2EF1E03F2EF02D0F2EFCE2ED
:101B10008F2EF1E09F2EF02D0F2EFCE34F2EF1E0E3
:101B20005F2EF02D0E94FF19811194C4A8E2B1E04C
:101B30008D919C910E948E1DF70180839183A8E274
:101B4000B1E0ED91FC911197BF016E5F7F4F6D93F6
:101B50007C93082F0F70D6014C91142F12951F7093
:101B6000807FB0E18B9F90011124211589E0380717
:101B7000F9F040F42115310571F02115A8E03A077C
:101B8000B9F019C02115BEE03B0781F021158FE0A7
:101B9000380761F010C0842F807F803C09F419C1A0
:101BA000803D09F41BC1242F30E005C0242B03C065
:101BB000842F8F70282B213099E0390709F443C214
:101BC00008F07BC02115B4E03B0709F45CC1A0F527
:101BD0002C3F310509F41EC1B8F4203E310509F44B
:101BE00002C148F4203C310509F4F3C0203D310521
:101BF00009F032C4F3C02E3E310509F4F7C02B3F83
:101C0000310509F404C128C42F3F310509F028F437
:101C10002E3F310508F4DBC085CF211592E039074E
:101C200009F409C12115A3E03A0709F41EC12115E1
:101C3000314009F011C4F1C0233088E0380709F4BD
:101C40007EC1E0F42115A7E03A0709F448C150F439
:101C5000211585E0380709F425C12115364009F41E
:101C600038C1FAC32130A8E03A0709F44CC108F0A2
:101C700058C12115384009F43AC1EEC3263088E036
:101C8000380709F499C150F42430A8E03A0709F460
:101C900064C12530384009F47AC1DEC32E3088E0B3
:101CA000380709F4AAC1211599E0390709F4B3C12D
:101CB0002730384009F0D0C38BC12E39BEE03B0736
:101CC00009F4DDC208F03FC02730F9E03F0709F40E
:101CD00030C2D0F4243099E0390709F4FFC150F440
:101CE0002230B9E03B0709F4BDC12330394009F483
:101CF000E6C1B2C32530F9E03F0709F4F7C1263049
:101D0000394009F402C2A8C321159AE0390709F441
:101D100030C250F42830B9E03B0709F41CC2293026
:101D2000394009F41FC298C32115FCE03F0709F4AC
:101D300043C221158DE0380709F449C221153B4003
:101D400009F08AC327C22932AFE03A0709F4EBC28F
:101D5000F8F42A30EFE03E0709F4BDC250F4213A0E
:101D60008EE0380709F49EC227303F4009F4ABC229
:101D700073C32831AFE03A0709F4BDC22E31BFE08A
:101D80003B0709F4C2C225313F4009F065C3ABC22D
:101D90002535FFE03F0709F42FC350F420339FE0BF
:101DA000390709F4DAC223333F4009F4F4C254C3BB
:101DB0002537BFE03B0709F437C32538EFE03E077E
:101DC00009F43DC325363F4009F046C321C381E0F5
:101DD00044C3842F8F700E946022A4CE842F8F7002
:101DE0000E9488229FCE0E9451229CCED401EC9169
:101DF0008FEF8E0F8C93F0E0EE0FFF1FE85DFE4F2C
:101E000087A190A5E8E2F1E0918380838BCE0E94C8
:101E1000BB2288CE0E94E52285CEE02FF0E03E2F47
:101E20002227C901840F911D880F991FA8E2B1E0F4
:101E30008D939C9377CEF40180818F5F808390E0B7
:101E4000880F991FFC01E85DFE4F70A767A3E02F84
:101E5000F0E03E2F2227C901840F911D880F991FA2
:101E6000A8E2B1E08D939C935DCEA02FB0E0A85D79
:101E7000BE4F15968C91481355CE3496A8E2B1E02A
:101E8000ED93FC934FCEA02FB0E0A85DBE4F15960A
:101E90008C91481709F446CE3496A8E2B1E0ED9350
:101EA000FC9340CE602F70E0685D7E4FA12FB0E0C4
:101EB0009D01285D3E4FDB0115969C91D901159639
:101EC0008C9198132FCE3496A8E2B1E0ED93FC9359
:101ED00029CEE02FF0E0E85DFE4F458323CEE02FD2
:101EE000F0E0E85DFE4F8581480F45831BCEA12FB2
:101EF000B0E0A85DBE4F15968C91E02FF0E0E85D54
:101F0000FE4F85830FCEE02FF0E0E85DFE4FA12F5E
:101F1000B0E0A85DBE4F15969C918581892B858385
:101F200001CEE02FF0E0E85DFE4FA12FB0E0A85D0C
:101F3000BE4F15969C91858189238583F3CDE02F33
:101F4000F0E0E85DFE4FA12FB0E0A85DBE4F159612
:101F50009C91858189278583E5CDE02FF0E0E85DC0
:101F6000FE4F2581A12FB0E0A85DBE4F15968C9144
:101F7000982F920F958390E0820F911D21E08F3F63
:101F8000910509F00CF420E0F2012083CBCDE02F85
:101F9000F0E0E85DFE4F9581A12FB0E0A85DBE4F57
:101FA00015968C91292F281B258321E0981708F47A
:101FB00020E0D2012C93B6CDE02FF0E0E85DFE4F9B
:101FC0008581982F969595838170F2018083AACDA3
:101FD000A12FB0E0A85DBE4F15969C91E02FF0E0D8
:101FE000E85DFE4F8581292F281B258321E0981766
:101FF00008F420E0D2012C9395CDE02FF0E0E85DCD
:10200000FE4F8581982F990F9583881F8827881FF9
:10201000F201808387CD602F70E0685D7E4FA12F35
:10202000B0E09D01285D3E4FDB0115969C91D901E2
:1020300015968C91981709F475CD3496A8E2B1E005
:10204000ED93FC936FCDA12FB0E0A85DBE4FE02FC4
:10205000F0E0E85DFE4F40E015966C9185810E94AE
:10206000C21F60CD82E00E940E1EA12FB0E0A85DCD
:10207000BE4FE02FF0E0E85DFE4F15966C91858134
:102080000E94BF1EF501808191819C012F5F3F4F0F
:10209000318320830E946D1D882309F443CD0E9463
:1020A0004B1ED5018D919C9111979C012F5F3F4F45
:1020B0002D933C930E946D1D8111F1CF33CDA12F43
:1020C000B0E0A85DBE4FE02FF0E0E85DFE4F42E0DB
:1020D00015966C9185810E94022024CD812FB0E15C
:1020E0000B9F800D11240E94D51F1CCDA12FB0E0A5
:1020F000A85DBE4FE02FF0E0E85DFE4F41E0159691
:102100006C9185810E94C21F0DCDF401A081AF5F4B
:10211000A083B0E0AA0FBB1FA85DBE4FE02FF0E088
:10212000E85DFE4F858190E098969C938E939797FB
:10213000F9CCF401A0818FEF8A0F8083E02FF0E0CB
:10214000E85DFE4FB0E0AA0FBB1FA85DBE4F97969B
:102150008C918583E7CCE02FF0E0E85DFE4F20E82E
:102160002583E0CCE02FF0E0E85DFE4F80E585833D
:10217000D9CCE02FF0E03E2F2227C901840F911D1A
:10218000880F991FD5018D939C93F3018081816005
:102190008083C8CC50912D01E02FF0E03E2F222704
:1021A000C901840F911D850F911D880F991FA8E209
:1021B000B1E08D939C93B6CC0E949124E02FF0E087
:1021C000E85DFE4FD6019C9189238583ABCC4F708F
:1021D000498341111AC0A10160E270E0F5018081DC
:1021E00091810E94B91D812F90E0DC01A85DBE4F56
:1021F000E02FF0E0E85DFE4FA10115966C9185811E
:102200000E942B21D2018C938DCCF301808180FD23
:1022100017C0D5012D913C91A12FB0E0A85DBE4F14
:10222000E02FF0E0CF01885D9E4F00E049811596D8
:102230006C91FC0185810E946320D2018C9372CC49
:10224000B9816B2F70E0A101F501808191810E941D
:10225000B91DA12FB0E0A85DBE4FE02FF0E0CF0187
:10226000885D9E4F01E09101498115966C91DC01DA
:1022700015968C910E946320F201808353CCE02F4D
:10228000F0E0E85DFE4F85810E94CF19882309F4B4
:1022900049CCA8E2B1E08D919C91119702968D9363
:1022A0009C9340CCE02FF0E0E85DFE4F85810E94DA
:1022B000CF19811137CCE8E2F1E08081918102965B
:1022C000918380832FCC8091C502E02FF0E0E85D00
:1022D000FE4F858327CC0E94D519E02FF0E0E85D02
:1022E000FE4F85831FCCE02FF0E0E85DFE4F858137
:1022F0008093C50217CCE02FF0E0E85DFE4F6581CA
:102300008BE092E00E94B01F0DCCE02FF0E0E85D82
:10231000FE4F2581D5018D919C911197820F911DC2
:102320008D939C93FFCBE02FF0E0E85DFE4F85811D
:1023300090E09C01220F331F820F931F880F991F7B
:102340008B5A9F4EF5019183808380E00E940E1E80
:10235000D3018C918E7F8C93E5CBE02FF0E0E85D8C
:10236000FE4F858190E09C01220F331F880F991F3B
:10237000880F991F880F991F820F931F8B54904FBE
:10238000F5019183808381E00E940E1ED3018C9120
:102390008E7F8C93C7CBE02FF0E0E85DFE4F9581F8
:1023A000BDEC9B9F812D1124869586958695282FBF
:1023B000220F322F330F330F230F921BEAE0F1E08D
:1023C00090838B9F912D1124969596959695292F04
:1023D000220F322F330F330F230F821BA9E0B1E0FE
:1023E0008C93F1019083A10163E070E0D5018D91A0
:1023F0009C910E94E41D96CB602F70E06F5F7F4F31
:102400004DE251E0F501808191810E94E41D8ACB6B
:10241000602F70E06F5F7F4F4DE251E0D5018D91ED
:102420009C910E94B91D7ECB80E0E82FF0E0E85D32
:10243000FE4F9581958B8F5F0817B8F773CB80E0BF
:10244000E82FF0E0E85DFE4F958995838F5F0817D0
:10245000B8F768CB81E001C082E00F90DF91CF91A7
:102460001F910F91FF90EF90DF90CF90BF90AF90B2
:102470009F908F907F906F905F904F903F902F90A4
:102480000895CF92DF92EF92FF920F931F93CF9315
:10249000DF9300D0CDB7DEB7009791F162307105C0
:1024A00090F1DC01ED91FC911197AB0160E070E0DF
:1024B000440F551F661F771F1696CD90DD90ED9047
:1024C000FC901997CB01BA016C0D7D1D8E1D9F1DCF
:1024D0000190F081E02D22E030E0AE014F5F5F4FD0
:1024E0000995882351F029813A81C90101978F3ECE
:1024F0009F4F18F4822F932F08C080E090E005C012
:1025000080E090E002C080E090E00F900F90DF91BB
:10251000CF911F910F91FF90EF90DF90CF90089592
:10252000AF92BF92DF92EF92FF920F931F93CF93E0
:10253000DF937C01E901088119818A819B81809662
:102540009B838A83D7018C91853E09F49AC08823A6
:1025500009F499C01B968C918F3009F496C09801AC
:102560008BE2F80111928A95E9F7D80197964D937D
:102570005D936D937C939A97F701D080F0E2DF161C
:1025800051F1F7013196B70181E090E0A0E0B0E0B1
:102590000AC0BF01D190AC014F5F5F4FB0E2DB16C4
:1025A000D9F0DC01CA015D01A20EB31ED501DC9297
:1025B000D7011C964C9143FF09C0DB014C9141545B
:1025C0004A3120F440E24D0DD5014C93A82F8830BC
:1025D0009105F9F601C0A0E0F8018081853011F481
:1025E00085EE8083F7018085803259F141E04A0F02
:1025F0008EE2F801EA0FF11D8083C7010896F7010A
:1026000050855032F9F0399674E07A0F04C0CF014A
:1026100051915032B9F05901A40EB11CD5015C930F
:10262000D7011C966C9164FF08C0DC018C91815429
:102630008A3118F4505ED5015C934F5F4713E7CFA2
:1026400001C04A2FF801E40FF11D1082F7018385C4
:10265000D80190968C93C7014A960E94D309F8013D
:1026600092A381A3C7014C960E94DB09D8019396DF
:102670006D937D938D939C93969781E08C8380E0FE
:1026800005C081E003C081E001C081E0DF91CF910E
:102690001F910F91FF90EF90DF90BF90AF90089542
:1026A0002F923F924F925F926F927F928F929F9262
:1026B000AF92BF92CF92DF92EF92FF920F931F9350
:1026C000CF93DF93CDB7DEB7A8970FB6F894DEBFF0
:1026D0000FBECDBF8C01009709F438C180918902EB
:1026E00090918A02892B09F434C180E090E061C1A5
:1026F000CE0101960E94D3091C01CE0104960E94CE
:10270000D3099B8F8A8F2B812EA33E813E8FCE01D2
:1027100007960E94D30998A78FA3CE0109960E941D
:10272000D3092C01CE010C960E94D3093C01CE01A5
:1027300046960E94DB096B017C01611571058105DC
:10274000910539F44114510409F42DC16201E12CC1
:10275000F12C6114710409F426C1AA8DBB8DCD0141
:10276000A0E0B0E08A8F9B8FAC8FBD8F9301EE8D80
:10277000AE2FB0E00E9429246E8F7F8F88A399A38B
:10278000260137012A8D3B8D4C8D5D8D421A530AEF
:10279000640A750A461A570A680A790A8FA198A529
:1027A000880F991F82959295907F9827807F982710
:1027B000910121503109820F931FB1010E94D4234E
:1027C000A3019201261B370B41095109CA01B90126
:1027D0003EA1432E512C612C712CA30192010E9429
:1027E000E82329013A0145EF44164FE054066104FD
:1027F000710408F4D8C055EF45165FEF5506610423
:10280000710428F486E0D80118968C9303C08BE0FD
:10281000F8018087EBE8F2E088E1DF011D928A95FC
:10282000E9F7910140E050E02AA33BA34CA35DA34C
:10283000A70196016AA17BA18CA19DA10E94C4233E
:1028400060837183828393832AA13BA14CA15DA104
:102850006A8D7B8D8C8D9D8D0E94C4236B017C01C4
:10286000C80CD91CEA1CFB1CC0928F02D0929002AB
:10287000E0929102F0929202C301B2016E5F7F4F2B
:102880008F4F9F4FD80118962C91263029F422E0C3
:1028900030E040E050E004C024E030E040E050E0B0
:1028A0000E94C423609393027093940280939502D4
:1028B000909396023092980220929702BEA1B29D08
:1028C000C001B39D900D112490939A0280939902B8
:1028D0002E8D3F8D48A159A16AA17BA18CA19DA1FC
:1028E0000E94C423C60ED71EE81EF91EC0929F0286
:1028F000D092A002E092A102F092A202EFA1F8A56C
:10290000CF01A0E0B0E0880F991FAA1FBB1F880F5E
:10291000991FAA1FBB1F880F991FAA1FBB1F880FD3
:10292000991FAA1FBB1F880F991FAA1FBB1FC80E84
:10293000D91EEA1EFB1EC0929B02D0929C02E0921E
:102940009D02F0929E0289E892E033C080E090E020
:1029500030C0E9E8F2E08CE1DF011D928A95E9F7E9
:1029600011830083F801C184D284E384F484460196
:102970005701072E79E0880C991CAA1CBB1C7A957C
:10298000D1F7702DC501B401655F7F4F8F4F9F4F09
:102990000190F081E02D29E130E0AE014F5F5F4F03
:1029A00009958111A5CE10928A021092890280E0C9
:1029B00090E0A8960FB6F894DEBF0FBECDBFDF91B2
:1029C000CF911F910F91FF90EF90DF90CF90BF902C
:1029D000AF909F908F907F906F905F904F903F90BF
:1029E0002F900895009719F0FC011182108208952C
:1029F000CF93DF930097B1F061157105B1F0FB0142
:102A000020A124FD15C02091230230912402232B04
:102A100091F02091560230915702232B79F080E0FB
:102A200090E023C080E090E020C080E090E01DC0F6
:102A300080E090E01AC0C3E2D2E002C0C6E5D2E076
:102A4000DE0112962BE2FB0101900D922A95E1F72F
:102A5000998388831DA61EA61FA618AAFB0181A123
:102A600092A19AAB89AB8C2F9D2FDF91CF910895C6
:102A7000009719F0FC011182108208952F923F9265
:102A80004F925F926F927F928F929F92AF92BF927E
:102A9000CF92DF92EF92FF920F931F93CF93DF932A
:102AA000CDB7DEB728970FB6F894DEBF0FBECDBF07
:102AB00098878F831B015E834D83009709F4F6C0CE
:102AC0006115710509F4F5C0452B09F4F5C0DC0169
:102AD0009D96CD90DD90ED90FC90D097FC0185A166
:102AE00096A1A7A1B0A5B701A6012D813E81420FF5
:102AF000531F611D711D84179507A607B70740F482
:102B0000FC01EC19FD09FE83ED83EF2B09F4D7C01E
:102B1000AF81B885ED91FC91119760887188D1964D
:102B20000D911C91D29701151105E9F593960D9120
:102B30001C9194970115110561F481E090E0CD2876
:102B4000CE28CF2811F480E090E0919581959109ED
:102B5000BBC0C114D104E104F10429F146015701BD
:102B6000C301A0E0B0E089839A83AB83BC83C80132
:102B7000830149805A806B807C800EC08418950840
:102B8000A608B708BC01EF81F885808191810E9479
:102B90004112009709F496C084149504A604B70462
:102BA00068F738018C01C3010197C822D922AD8092
:102BB000BE80912C812C512C412CAF81B885ED9198
:102BC000FC913097A9F002301105B8F0A089B189C5
:102BD0009801225031090E9429242289338944898D
:102BE0005589DC01CB01820F931FA41FB51F09C0BB
:102BF000892D982DA0E0B0E004C0892D982DA0E08B
:102C0000B0E07301EC18FD08AE14BF0408F47501C0
:102C10000190F081E02DBC01CD016C0D7D1D811D69
:102C2000911D0190F081E02D9701A101099581117D
:102C300005C08D819E818A199B0946C02E0C3F1CC0
:102C4000AE18BF08EF81F88585A596A5A7A5B0A900
:102C50008E0D9F1DA11DB11D85A796A7A7A7B0AB7F
:102C6000EC0CFD1CE614F704B0F0B80180819181F2
:102C70000E9441128C01009761F42F813885D9019F
:102C8000D2961C921E92D1978D819E818A199B09A2
:102C90001BC0C52CD42CEF81F88512AB01ABA1145D
:102CA000B10409F08ACF8D819E810EC08FEF9FEF16
:102CB0000BC08FEF9FEF08C08FEF9FEF05C080E044
:102CC00090E002C08FEF9FEF28960FB6F894DEBF1A
:102CD0000FBECDBFDF91CF911F910F91FF90EF906D
:102CE000DF90CF90BF90AF909F908F907F906F902C
:102CF0005F904F903F902F900895CF93DF93009770
:102D0000E9F061157105E9F0FB0120A124FF1CC069
:102D10002091900130919101232BE1F02091C1018C
:102D20003091C201232B39F0C2EFD1E028813981E3
:102D3000232B69F411C0C1ECD1E00EC080E090E01B
:102D40001EC080E090E01BC080E090E018C080E0F2
:102D500090E015C0C0E9D1E0DE0112962BE2FB0144
:102D600001900D922A95E1F799838883FB0181A157
:102D700092A19EA78DA718AA1FA68C2F9D2FDF9129
:102D8000CF910895009719F0FC01118210820895E7
:102D9000FC01009741F083A194A196A785A710AAF2
:102DA00017A681E0089580E008952F923F924F92F8
:102DB0005F926F927F928F929F92AF92BF92CF92CB
:102DC000DF92EF92FF920F931F93CF93DF93CDB7D4
:102DD000DEB7AB970FB6F894DEBF0FBECDBF9FA393
:102DE0008EA3009709F4C5C06115710509F4C3C02D
:102DF000DC016D907C901197F301808891889D96FD
:102E00002D903C909E979F96AD90BC90D097A81423
:102E1000B90420F00E94C81680E0B0C0FE013196CF
:102E200085E0DF011D928A95E9F78BE2FB011192A3
:102E30008A95E9F77A8369832114310409F07EC009
:102E4000D30152968D909C90539756968D919C915C
:102E50005797881A990A72C084010A191B096501DB
:102E6000E12CF12C2114310461F4F3018689978956
:102E7000A08DB18DBC01CD016C0D7D1D8E1D9F1DE2
:102E80002AC061147104C1F0F2E02F163104C8F0B9
:102E9000F301A089B18928A539A54AA55BA50E949F
:102EA00038242289338944895589DC01CB01820F7A
:102EB000931FA41FB51F09C080E090E0A0E0B0E020
:102EC00004C080E090E0A0E0B0E0BC01CD016C0D5A
:102ED0007D1D8E1D9F1D1C821B82D301ED91FC91D7
:102EE0000280F381E02D9E012F5F3F4F69010F2E7D
:102EF000F0E9EF2EF2E1FF2EF02D20E230E0AE01FE
:102F00004A5F5F4F09958823C1F18B819C81A80E90
:102F1000B91EA814B904E8F0B101C3010E9441121E
:102F20001C01009749F48D81811117C08EA19FA1CA
:102F30000E94C81680E022C0A12CB12C210132E0F1
:102F4000431A5108C201A0E0B0E088A799A7AAA738
:102F5000BBA78D81882309F47FCFAEA1BFA19E9628
:102F60003C922E929D97D096BC92AE929F978D8167
:102F700005C080E003C080E001C080E0AB960FB6E2
:102F8000F894DEBF0FBECDBFDF91CF911F910F919F
:102F9000FF90EF90DF90CF90BF90AF909F908F9079
:102FA0007F906F905F904F903F902F9008954F9239
:102FB0005F926F927F928F929F92AF92BF92CF92C9
:102FC000DF92EF92FF920F931F93CF93DF935C01F9
:102FD0006B01EA01009709F474C06115710509F4E9
:102FE00072C0FB018081882309F46FC0209709F427
:102FF0006EC08F3219F4FFEFCF1ADF0A8BE2FE01A9
:1030000011928A95E9F780E188A3F60180818823EF
:1030100009F45FC0412C512CBE01C5010E947D16F0
:103020008C01009709F457C06FE270E0C6010E945E
:10303000BA24009741F0E82EEC184C01FFEF8F1AEC
:103040009F0AF12C2CC0F60101900020E9F731977E
:10305000EC19FD09EE2E46018E0E911CF2CFFE01F9
:1030600001900020E9F731973F016C1A7D0A6E1438
:103070007F04A9F4A301BE01C6010E94D524892BB7
:1030800071F4C8010E94C216F601E60DF71D808199
:10309000882319F188A184FD09C080E021C0BE0108
:1030A000C8010E94D5168111DACF03C06401042D36
:1030B000152DC8010E94C216F60180818111ACCF86
:1030C0000EC080E00DC080E00BC080E009C080E051
:1030D00007C081E005C080E003C081E001C081E05D
:1030E000DF91CF911F910F91FF90EF90DF90CF90E4
:1030F000BF90AF909F908F907F906F905F904F9018
:103100000895CF93DF93EC010E94512282E00E9448
:103110000E1ECE010E94D31E0E94EB19DF91CF91AB
:1031200008950F93189940C000E020E030E040E09F
:1031300050E069E07CE18EE89BE10E94191A9093CF
:10314000A6028093A502892BB9F40FEF20E030E0AE
:1031500040E050E069E07CE18EE89BE10E94191AB2
:103160009093A6028093A502892B31F48EE296E01B
:103170000E94811880E01BC08091A5029091A60258
:103180000E9450139093AC028093AB02892B71F490
:1031900088E196E00E9481188091A5029091A60294
:1031A0000E94B71A80E003C080E001C081E00F9167
:1031B00008958091A7029091A8020E9438158091ED
:1031C000A9029091AA020E94C2168091AB0290912E
:1031D000AC020E94F2148091A5029091A6020E9476
:1031E000B71A0895CF93DF93CDB7DEB7AB970FB67D
:1031F000F894DEBF0FBECDBFAE014F5F5F4FBC0185
:103200008091AB029091AC020E94D717BE016F5F14
:103210007F4F8091AB029091AC020E947D169093FB
:10322000AA028093A902892B41F483E096E00E94D0
:1032300081180E94D91880E001C081E0AB960FB6DA
:10324000F894DEBF0FBECDBFDF91CF9108950F93ED
:103250001F93CF93DF93CDB7DEB7AB970FB6F8943C
:10326000DEBF0FBECDBF8C011EC0B801CE010196DE
:103270000E94C524892BB9F48091A9029091AA02D9
:103280000E94C816BE016F5F7F4F8091AB02909184
:10329000AC020E94F8149093A8028093A702892B95
:1032A00071F081E011C0BE016F5F7F4F8091A90274
:1032B0009091AA020E94D5168111D7CF05C08EEE3B
:1032C00095E00E94811880E0AB960FB6F894DEBFBF
:1032D0000FBECDBFDF91CF911F910F9108958091C7
:1032E000A7029091A8020E9438150895EF92FF92CC
:1032F0000F931F93CF93DF93CDB7DEB7DA950FB659
:10330000F894DEBF0FBECDBFAE014F5F5F4F60E2EE
:1033100070E0880F991F82959295907F9827807F03
:1033200098270E94B91DCE0101960E942719882373
:10333000F1F0E12CF12C09C0AE014F5F5F4FB801F5
:10334000C7010E94E41DE00EF11E40E051E0BE0105
:103350006F5F7F4F8091A7029091A8020E943E1557
:103360008C011816190644F30E946F1902C0E12C53
:10337000F12C8E2DD3950FB6F894DEBF0FBECDBFC6
:10338000DF91CF911F910F91FF90EF900895BC01B5
:103390008091A9029091AA020E94D516089596B133
:1033A000982381E009F080E0089586B18E738E3312
:1033B000E1F386B180958E73089586B18E738E3356
:1033C00049F064E684EF91E00E94B01F86B18E73ED
:1033D0008E33B9F7089585E496E00E94D31E35999F
:1033E000FECF86B18E738E3349F064E684EF91E0B0
:1033F0000E94B01F86B18E738E33B9F7089586B1DF
:10340000867019F086B1887171F486B18E738E332F
:1034100061F064E684EF91E00E94B01F86B18E7384
:103420008E33B9F704C080E0089581E0089581E00B
:1034300008958F929F92AF92BF92CF92DF92EF92B8
:10344000FF920F93CF93DF93CDB7DEB760970FB6A0
:10345000F894DEBF0FBECDBF7C016B014A0159015C
:10346000009709F44AC06115710509F449C0043098
:103470000CF049C00023B4F080E10802B00111242F
:1034800062547E4F882777FD8095982F20E130E0A9
:10349000AE014F5F5F4FF70109958823B9F18D8128
:1034A0008823B9F18091B5028823B1F180E090E0E2
:1034B0004CC08D818093B502CE0109960E94DB0934
:1034C0006093B6027093B7028093B8029093B902EA
:1034D000CE010D960E94DB096093BA027093BB0285
:1034E0008093BC029093BD028DEA92E02EC08FEFD4
:1034F0008093B5028DEA92E028C080E090E025C07C
:1035000080E090E022C080E090E01FC080E090E08A
:103510001CC080E090E019C0EDEAF2E081E1DF013B
:103520001D928A95E9F7F182E082D092B002C092B2
:10353000AF029092B2028092B102B092B402A09215
:10354000B30200230CF0B5CFD2CF60960FB6F8943B
:10355000DEBF0FBECDBFDF91CF910F91FF90EF90F7
:10356000DF90CF90BF90AF909F908F90089500977D
:1035700021F0FC01108681E0089580E008958EBD61
:103580000DB407FEFDCF8DB58F778DBD08958FEFFC
:103590008EBD0DB407FEFDCF8DB58F778DBD8EB579
:1035A0000895FF920F931F93CF93DF93C82FD42FCB
:1035B000152F062FF72E0E94C71A8C2F80640E94A9
:1035C000BF1A8F2D0E94BF1A802F0E94BF1A812F11
:1035D0000E94BF1A8D2F0E94BF1ACC2319F0C83049
:1035E00029F008C085E90E94BF1A0FC087E80E9431
:1035F000BF1A0BC08FEF0E94BF1A07C00E94C71AE4
:103600008F3F29F4C150D1F702C0CAE0F7CFDF9154
:10361000CF911F910F91FF90089583B18095817094
:1036200008950F931F93CF93DF932098289A239A9E
:10363000259A219A2498299A83E58CBD8DB58E7F91
:103640008DBD1092BE020E940D1B882309F45FC03D
:103650001AE00E94C71A1150E1F72998C0E0D2E0A1
:1036600040E050E0BA0180E00E94D11A813029F098
:1036700021972097A9F7299A4BC040E050E0BA0162
:1036800087E30E94D11A40E050E0BA0189E20E942B
:10369000D11A82FD05C08091BE0281608093BE0276
:1036A000C0E0D0E88091BE02837069F040E050E055
:1036B000BA0187E30E94D11A40E050E0BA0189E2E2
:1036C0000E94D11A06C040E050E0BA0181E00E9499
:1036D000D11A082F017080FF05C02197209711F79C
:1036E000299A16C040E052E060E070E080E10E945C
:1036F000D11A882319F0299A102F0AC0299A8CB55B
:103700008C7F8CBD8DB581608DBD11E001C010E056
:10371000812FDF91CF911F910F9108952F923F92AA
:103720004F925F926F927F928F929F92AF92BF92D1
:10373000CF92DF92EF92FF920F931F93CF93DF937D
:103740002B013C017A0159012115310509F44BC0C7
:10375000212C6894332431F8820111704101801AC0
:10376000910AA814B90408F445012998B301A201EB
:10377000401B510B6109710981E10E94D11A882314
:1037800019F0299A80E032C00E94C71A8E3FE1F7F3
:103790006401C00ED11E80E0C82F90E0D92F0E9496
:1037A000C71AC017D10740F0CC15DD0528F4F70182
:1037B0008083C70101967C012196C11592E0D9074B
:1037C00071F70E94C71A0E94C71A299A0E94C71A45
:1037D000A818B908480C591C611C711CA114B1042B
:1037E00009F0BACF02C081E001C081E0DF91CF9142
:1037F0001F910F91FF90EF90DF90CF90BF90AF900F
:103800009F908F907F906F905F904F903F902F9000
:1038100008952F923F924F925F926F927F928F9274
:103820009F92AF92BF92CF92DF92EF92FF920F934F
:103830001F93CF93DF93CDB7DEB72A970FB6F894D7
:10384000DEBF0FBECDBF4B015C0119012801FC8218
:10385000EB82DE82CD824115510509F4ADC0211500
:10386000310509F4ABC00217130708F4A9C0EF280B
:1038700009F4A8C029986901C40ED51E642E752EBE
:103880008401117080E092E0801B910B9A83898300
:10389000D501C401801B910BA109B1098F839887C1
:1038A000A987BA87AC01BD0181E10E94D11A8823A2
:1038B00019F0299A80E093C00E94C71A8E3FE1F761
:1038C0000115110551F0E12CF12C0E94C71A9FEF50
:1038D000E91AF90AE016F106C1F7A981BA81A21521
:1038E000B30590F04214530488F07D010AC0E2143D
:1038F000F30408F469C0020D131D4214530408F4C4
:1039000066C069827A8211C0F12C06C0F12C04C015
:10391000FA82E982FF24F39409811A810150110986
:1039200089819A81892B41F530C00E94C71AA981EB
:10393000BA818D93BA83A983AC15BD05B1F72D81EA
:103940003E81B501A401400F511F611D711D862DDF
:10395000972DEB81FC8109958823D1F2E218F308B9
:1039600042185308E114F10479F04114510409F0AC
:10397000BECFFA82E9822DC00E94C71AC801019702
:10398000012B19F08C01F8CFF12C0E94C71A0E946C
:10399000C71A4214530458F08F809884A984BA84BB
:1039A000F2E09F0EA11CB11CFF2009F469CF299AF7
:1039B0000E94C71A81E013C080E011C080E00FC0F0
:1039C00080E00DC080E00BC0FA82E98202C0FA827A
:1039D000E98209811A8101501109F12CCDCF2A9673
:1039E0000FB6F894DEBF0FBECDBFDF91CF911F9110
:1039F0000F91FF90EF90DF90CF90BF90AF909F908E
:103A00008F907F906F905F904F903F902F90089590
:103A100040989DB591609DBD91E09EBD0DB407FE9F
:103A2000FDCF9DB591609DBD8EBD0DB407FEFDCF50
:103A3000409A089540988DB581608DBD82E08EBD1D
:103A40000DB407FEFDCF8DB581608DBD1EBC0DB4DC
:103A500007FEFDCF8DB581608DBD1EBC0DB407FE88
:103A6000FDCF80E090E0A1E0B0E02DB521602DBD5C
:103A70001EBC0DB407FEFDCF0197A109B109009747
:103A8000A105B10591F7409A0895389A409A80E4CB
:103A90000E94081D0E941A1D089540982DB52160AE
:103AA0002DBD22E02EBD0DB407FEFDCF2DB521604A
:103AB0002DBD9EBD0DB407FEFDCF9DB591609DBD92
:103AC0008EBD0DB407FEFDCF8DB581608DBD6EBD81
:103AD0000DB407FEFDCF409A089540982DB52160A2
:103AE0002DBD23E02EBD0DB407FEFDCF2DB5216009
:103AF0002DBD9EBD0DB407FEFDCF9DB591609DBD52
:103B00008EBD0DB407FEFDCF8DB581608DBD1EBC91
:103B10000DB407FEFDCF409A8EB5089540982DB59F
:103B200021602DBD23E02EBD0DB407FEFDCF2DB5C8
:103B300021602DBD9EBD0DB407FEFDCF9DB59160EA
:103B40009DBD8EBD0DB407FEFDCF8DB581608DBDD1
:103B50001EBC0DB407FEFDCF8EB590E02DB52160E3
:103B60002DBD1EBC0DB407FEFDCF2EB5409A922B85
:103B7000089540982DB521602DBD23E02EBD0DB4D4
:103B800007FEFDCF2DB521602DBD9EBD0DB407FEF6
:103B9000FDCF9DB591609DBD8EBD0DB407FEFDCFDF
:103BA0006115710579F0FA01460F571F8DB58160D7
:103BB0008DBD1EBC0DB407FEFDCF8EB58193E417FD
:103BC000F507A1F7409A089540982DB521602DBDC5
:103BD00022E02EBD0DB407FEFDCF2DB521602DBD19
:103BE0009EBD0DB407FEFDCF9DB591609DBD8EBD00
:103BF0000DB407FEFDCF6115710571F0FA01460F96
:103C0000571F81919DB591609DBD8EBD0DB407FE7E
:103C1000FDCFE417F507A9F7409A089580930401B2
:103C200008951092C002809104018130A1F018F033
:103C3000823009F108952091BF02822F90E006960C
:103C40008C34910524F42A5F2093BF02089586E006
:103C50000E94882208952091BF02822F90E00A9648
:103C60008834910524F4265F2093BF0208958AE0EA
:103C70000E94882208952091BF02822F90E008962A
:103C80008A34910524F4285F2093BF02089588E0C8
:103C90000E94882208950F9390910401913031F190
:103CA00020F0923009F445C068C0803108F065C04A
:103CB00090E09C01220F331F820F931F9C01220F63
:103CC000331F2B5A3F4E00E046E06091BF028091C7
:103CD000C0020E9463208091C0028C5F8093C0026A
:103CE0008E3708F44AC00E94111E47C0803108F088
:103CF00044C090E09C01220F331F880F991F880F4A
:103D0000991F880F991F280F391F2B54304F00E03F
:103D10004AE06091BF028091C0020E9463208091BE
:103D2000C002885F8093C0028A3738F10E94111E5A
:103D300024C08A3019F40E94111E1FC090EE980F03
:103D40009536D8F4282F30E0220F331F220F331F6F
:103D5000220F331F2357344F00E048E06091BF0229
:103D60008091C0020E9463208091C0028A5F80938C
:103D7000C0028C3710F00E94111E0F91089580939D
:103D8000C0026093BF020895CF93DF93EC01888156
:103D9000882331F021960E944B1E89918111FBCF1F
:103DA000DF91CF910895CF93DF93EC012196FC0131
:103DB0008491882339F00E944B1EFE018491219644
:103DC0008111F9CFDF91CF9108950F931F93CF9376
:103DD000DF9300D000D0CDB7DEB7062F13E0282F39
:103DE0002F702A3048F4E1E0F0E0EC0FFD1FE10F06
:103DF000F11D205D208308C0E1E0F0E0EC0FFD1F25
:103E0000E10FF11D295C2083929582958F7089279F
:103E10009F70892711500150009709F780E20E9496
:103E20004B1E002381F0812F801B20E39FEF910F19
:103E3000E1E0F0E0EC0FFD1FE10FF11D208398178A
:103E400019F0192FF3CF812F8F5F843078F411E0B0
:103E5000180FE1E0F0E0EC0FFD1FE80FF11D80818D
:103E60000E944B1E143011F0812FF1CF0F900F9054
:103E70000F900F90DF91CF911F910F910895DF92D6
:103E8000EF92FF920F931F93CF93DF938C01F62E47
:103E90000E94512282E080930401E8012196F801FA
:103EA0000491002309F44CC06894EE24E5F868946A
:103EB000DD24D3F81092C002E092BF02002309F47F
:103EC0003DC00A3009F43AC0802F0E944B1E219653
:103ED000FE01319704910E94FF1981112CC000232B
:103EE00069F10A3089F72AC0F092C5028091C502B3
:103EF0008111FCCF81E00E9488220E94FF1981116C
:103F00001AC0115089F79E012F5F3F4FFE010491A7
:103F10000023B1F0E901CECFF092C5028091C50235
:103F20008111FCCF81E00E9488220E94FF1981113B
:103F300002C0C15089F70E94512204C01D2DD4CF68
:103F4000C0E2EACFDF91CF911F910F91FF90EF90E8
:103F5000DF900895569A83E085BD82E484BD08957C
:103F6000CF93C62F9C0140E050E068E478EE81E0FA
:103F700090E00E940A24215027BD569AC093C402A3
:103F8000CF910895CF93C42F8F70E82FF0E0EE0FFC
:103F9000FF1FEB54FF4E859194910E94B01FCC23DC
:103FA00011F05699FECFCF910895569A8093C4028E
:103FB00007C00E94912480FF02C05E9A01C05E98F3
:103FC0008091C4028111F5CF56980895229A82EC0F
:103FD0008093C20087EF93E09093890080938800DC
:103FE00083E693E090938B0080938A0083E3809331
:103FF000800089E180938100EFE6F0E080818460B9
:104000008083089588230CF45DC0603508F05AC0A1
:10401000E82F882314F4E7E0E80FE595E595E595AA
:1040200087781CF48150886F8F5F97E0981B413030
:10403000D9F018F0423081F10895FF27E7FDF0959F
:1040400040E16402E00DF11D1124EA53FD4F21E02F
:1040500030E0A90102C0440F551F9A95E2F7CA014A
:104060009081892B80830895FF27E7FDF09550E12B
:104070006502E00DF11D1124EA53FD4F21E030E00F
:10408000A90102C0440F551F9A95E2F7CA01809515
:104090009081892380830895FF27E7FDF09550E103
:1040A0006502E00DF11D1124EA53FD4F21E030E0DF
:1040B000A90102C0440F551F9A95E2F7CA019081E9
:1040C0008927808308959F92AF92BF92CF92DF920B
:1040D000EF92FF920F931F93CF93DF93893F0CF4DE
:1040E000A7C09EE0960F9E3508F0A4C08823C4F5B3
:1040F000819550E0141615060CF09EC070E090E01B
:10410000A62F603518F5013039F4F901E90FF11DDA
:1041100097FDFA95C08106C0F901E90FF11D97FDE1
:10412000FA95C491E0E1AE02D0011124AA53BD4F2B
:104130001C91D0E0FE01082E02C0EE0FFF1F0A9472
:10414000E2F7F12FFE237F2BE127EC939F5F6F5F58
:10415000E92FFF27E7FDF095E417F5078CF263C020
:10416000F82FF770AF2E9F2F91959770B92E8595E8
:104170008595859550E0141615060CF05FC070E02B
:1041800010E0E82EFF24E7FCF09467018FEFC81AD7
:10419000D80A862F603508F03CC0013039F4F901A7
:1041A000E10FF11D17FDFA95C08106C0F901E10F7D
:1041B000F11D17FDFA95C491F701A0E18A02E00D07
:1041C000F11D1124CF01DF01AA53BD4F9C90D0E017
:1041D000FE010A2C02C0F595E7950A94E2F7F92D45
:1041E000FE237F2BE925EC93BB2099F0E0E1CE166E
:1041F000D1047CF4FC01E953FD4F80810B2C02C0FB
:10420000CC0FDD1F0A94E2F79C2F9823792BC82747
:10421000C0831F5F6F5FE12FFF27E7FDF095E41775
:10422000F5070CF4B6CF81E0711109C080E007C03A
:1042300080E005C080E003C080E001C080E0DF9145
:10424000CF911F910F91FF90EF90DF90CF90BF9093
:10425000AF909F9008956F927F928F929F92AF92AE
:10426000BF92CF92DF92EF92FF920F931F93CF9363
:10427000DF93813F0CF4EFC09FE0960F9F3508F06D
:10428000ECC0893F1CF578EF781BFA01319640E1CC
:10429000912C6035A8F420E16202D0011124AA53C8
:1042A000BD4F5C91208130E0C901072E02C0880F0C
:1042B000991F0A94E2F7952F9823992A85278C93C2
:1042C00041506F5F32964111E4CFC0C088230CF09B
:1042D00048C0F82EF1946894EE24E3F8E80EFA0151
:1042E000319670E1912C6035B0F5C0E16C02C001EF
:1042F0001124DC01AA53BD4FDC90EF0121972881E6
:1043000030E0E9010F2C02C0CC0FDD1F0A94E2F768
:10431000DC2FDD25DC93008110E0A8010E2C02C00B
:10432000559547950A94E2F72D2F24272C93DC010D
:10433000A953BD4F9C9198010F2C02C0220F331F2F
:104340000A94E2F7CD21892F8223C82B9C2A4D2382
:10435000942A29272C9371506F5F32967111C3CF25
:1043600075C0D82FD770BD2E9D2F91959770A92E0F
:104370008595859585954F5F5F4F70E1912CE82E6F
:10438000FF24E7FCF09467012FEFC21AD20A37012D
:1043900082E0680E711C603508F052C0D70190E1D0
:1043A0006902A00DB11D1124FD01EA53FD4F80806B
:1043B000EA012197888190E09C010B2C02C0359581
:1043C00027950A94E2F7382D3223932A2825208353
:1043D000C0E1CC16D104A4F5AA2009F440C0FD0127
:1043E000E953FD4F20810A2C02C0880F991F0A94BF
:1043F000E2F7922F9823992A82278083EA019881F5
:10440000C92FD0E09E010B2C02C0359527950A9448
:10441000E2F7982F9223992A8227808320E162165F
:10442000710474F4A853BD4F8C910A2C02C0CC0FB8
:10443000DD1F0A94E2F79C2F9823992AC827CC9372
:1044400071506F5F4E5F5F4F7111A5CF81E091108A
:1044500019C080E017C080E015C080E013C0A953E8
:10446000BD4FEC91EA01288130E0C9010B2C02C05C
:10447000959587950A94E2F79E2F9823992A8E277F
:104480008C93DECFDF91CF911F910F91FF90EF9032
:10449000DF90CF90BF90AF909F908F907F906F9064
:1044A000089580E095E0E6ECF2E0DF019C011D92CA
:1044B00021503040E1F760E080E00E94BF1E089587
:1044C000CF93DF93882309F18F7190E0EC01C295BF
:1044D000D295D07FDC27C07FDC2740E550E0481B29
:1044E000590B42955295507F5427407F542766ECD4
:1044F00072E0CE018A539D4F0E94A124AE0160E07C
:1045000070E086EC92E00E94B324DF91CF91089591
:104510000F931F93CF93DF93882341F18F71082F5F
:1045200010E0E801C295D295D07FDC27C07FDC2760
:1045300040E550E0401B510B42955295507F542767
:10454000407F5427BE016A537D4F86EC92E00E9463
:10455000A12420EF2003C001219F900D1124AE0162
:1045600060E070E08A53984F0E94B324DF91CF91AE
:104570001F910F9108951F93CF93DF93C6ECD2E064
:1045800066EC77E0AE01405F5F4F9E012F5F3F4FCB
:10459000DE011F96FA018E9110E1819FC001112466
:1045A000929192959F70892B8083E217F30799F778
:1045B000888182958F7088836417750711F0EA01EE
:1045C000E1CFDF91CF911F910895CF93DF9325ED38
:1045D00032E045ED57E0F9013F97E901D9011E9717
:1045E0006D9162956F70808170E1879FC001112489
:1045F000862B8193EC17FD0799F788818295807F40
:104600008883205F3F4F2417350729F7DF91CF912B
:10461000089546EC52E060E075E080E090E80E948A
:10462000E41D089546EC52E060E075E080E090E81B
:104630000E94B91D08951F920F920FB60F92112478
:104640002F938F939F93AF93BF93CF93DF93EF936A
:10465000FF938091C2029091C30201969093C3028E
:104660008093C2028091C2029091C302833091056F
:1046700061F130F48130910569F00297B1F03EC0EC
:10468000813D910569F1863021E0920761F1C29781
:10469000A9F522C08091C502882309F467C08091E2
:1046A000C50281508093C50261C08091C4028823F5
:1046B00009F45CC08091C40281508093C40280914F
:1046C000C402811153C0569851C08AE490E090937F
:1046D0008B0080938A004AC081E08093C10246C06B
:1046E0001092C10243C01092C3021092C20283E62C
:1046F00093E090938B0080938A0038C08091C10230
:104700008823A1F1A091C202B091C302E4ECF0E0D1
:104710001182108288E08093C10082E090E0918352
:1047200080831092C600D297B695A795A295B295B0
:10473000B07FBA27A07FBA27AA53BD4FCD014096BC
:10474000E0ECF0E0C6ECD0E0208125FFFDCF2D911C
:104750002883A817B907C1F7E0ECF0E0808186FF55
:10476000FDCFE1ECF0E08081877F8083FF91EF91C6
:10477000DF91CF91BF91AF919F918F912F910F902A
:104780000FBE0F901F901895DB018F939F930E948F
:104790003824BF91AF91A29F800D911DA39F900DD2
:1047A000B29F900D11240895AA1BBB1B51E107C0B5
:1047B000AA1FBB1FA617B70710F0A61BB70B881FB1
:1047C000991F5A95A9F780959095BC01CD01089540
:1047D000A1E21A2EAA1BBB1BFD010DC0AA1FBB1F05
:1047E000EE1FFF1FA217B307E407F50720F0A21B77
:1047F000B30BE40BF50B661F771F881F991F1A94E4
:1048000069F760957095809590959B01AC01BD010D
:10481000CF010895052E97FB1EF400940E942124D9
:1048200057FD07D00E94E82307FC03D04EF40C94F8
:10483000212450954095309521953F4F4F4F5F4F24
:10484000089590958095709561957F4F8F4F9F4FFC
:104850000895A29FB001B39FC001A39F700D811D59
:104860001124911DB29F700D811D1124911D089579
:104870000E942924A59F900DB49F900DA49F800DA8
:10488000911D112408958F929F92AF92BF92CF9263
:10489000DF92EF92FF92CF93DF93EC0168817981F1
:1048A0008A819B81611571058105910521F464E27E
:1048B00079ED8BE597E02DE133EF41E050E00E9488
:1048C0000A2449015A019B01AC01A7EAB1E40E9404
:1048D00038246B017C01ACEEB4EFA50194010E9479
:1048E000EF24C60ED71EE81EF91EF7FE06C081E0B3
:1048F000C81AD108E10880E8F80AC882D982EA8299
:10490000FB82C6019F77DF91CF91FF90EF90DF9000
:10491000CF90BF90AF909F908F9008950E944324B6
:10492000089580E091E00E9443240895A0E0B0E063
:104930008093000190930101A0930201B0930301C1
:1049400008956817790768F4FB01DC01E40FF51F8F
:10495000A40FB51F02C002900E9241505040D8F7EC
:1049600008950C94E324DC0101C06D934150504044
:10497000E0F70895FC018191861721F08823D9F78B
:10498000992708953197CF010895FB01DC018D919E
:10499000019080190110D9F3990B0895FB01DC01F6
:1049A00001900D920020E1F70895FB01DC014150D8
:1049B000504030F08D910190801919F40020B9F722
:1049C000881B990B0895FB01DC0102C001900D9238
:1049D00041505040D8F70895B7FF0C9438240E94F6
:0C49E0003824821B930B0895F894FFCF3D
:0849EC0001000000022F000091
:00000001FF
