:100000000C94870F0C94A40F0C94A40F0C94A40FC1
:100010000C94A40F0C94A40F0C94A40F0C94A40F94
:100020000C94A40F0C94A40F0C94A40F0C94A40F84
:100030000C94F1190C94A40F0C94A40F0C94A40F1D
:100040000C94A40F0C94A40F0C94A40F0C94A40F64
:100050000C94A40F0C94A40F0C94A40F0C94A40F54
:100060000C94A40F0C94A40F00100B10191027105F
:10007000351054106D107A10EA0FEA0FEA0FEA0FEC
:10008000EA0FEA0FF10FE211CB11BD11A6129E1279
:1000900090128A1282127B12651255124612371282
:1000A0001212F811EC112739272076657273206C33
:1000B00065206261730A00273727207665727320F6
:1000C0006C6520686175740A0027232720706167BA
:1000D000652073756976616E74650A00272A27208A
:1000E0007061676520707265636564616E74650A2E
:1000F000002741272073656C656374696F6E0A0081
:1001000043484950434F4E2056312E300A436F70BA
:1001100079726967687420323031340A4A616371D8
:10012000756573204465736368656E65730A0A4676
:100130004154206472697665720A436F70797269FE
:1001400067687420323030362D323031320A526FC7
:100150006C616E642052696567656C0A00736F6B31
:100160006F62616E0A737061636566696768740ABD
:1001700000756E6520746F756368652E2E2E000401
:10018000081020010408200102030A0405060B07D9
:1001900008090C0E000F0D536F6B6F62616E2062C9
:1001A00079204861700A0A0000FF221B6E05222F89
:1001B000ECA11237EDA1127F4A321204EBA1223FCB
:1001C00012048000E0A488FE65A4644A001458224A
:1001D00069F629D99500EEF1073100122F00EE4A99
:1001E0000112046E081216F7156001F018AFC8FA74
:1001F0001EF565A2F3F1654E05125F81354F007063
:10020000FF7AFF85301265814480F47A01F155222E
:100210006DA44CFA33A44CF265F129DD95F229D690
:1002200095A488FA5500EE221B6D006C006202F264
:1002300018614022D58760618022D584E081E08109
:100240006422A74C00132D431812BB230F12996E82
:100250000023014E012301230183E08323830E83C6
:100260000E00EE22A7431812CF22E57E04230F7E54
:10027000FF3E0012C51299A485F75512A322E57E10
:10028000058E0E8E0E86E08617860600EE6E002323
:100290000123012301230100EE6D08A4B4FC1EF02C
:1002A000658B009C506CFF7C014D0012F17DFF8E30
:1002B0000E8B0E8EF100EE431013193314131B78BE
:1002C000017901A494F31ED6747604561000EE86CC
:1002D00045770400EEA485F7656A00222F6B01A420
:1002E00093F56598901417E1A1143CE0A11440E344
:1002F000A11444E4A11448E5A11429E29E13354C4D
:100300000013356B007CFFA4ACD6747DFF4DFF6DF0
:1003100038A44CFD1EF0658A00F41581A2A493F167
:100320001EF5654B0023F380608170804481544B3F
:10033000001393A43A24074E011333A21A24074E44
:100340000013C382008310824483544B0013E5A240
:100350001A240F4E0113337A80A4A4240788E524BD
:100360000F88E4A4B0D014FB18D2344B0013EB3C3C
:10037000397C0180A0A44CFD1E7D014D396D00F03B
:1003800055A4ACD67486448754D67413338A0E4F62
:100390000113B1A485F765A4AC13DDA485F75586D8
:1003A0004487548644875485B784B7F55500EED00A
:1003B000128EF0D01200EED2328EF0D23200EEF376
:1003C000186032F015222F221B4A321202223F12ED
:1003D00081F118601EF015222FE59E13353A0012A8
:1003E0007F1200206A0213716A0413716A0113718B
:1003F0006A03137100C1D561F11E75083558144E9A
:100400006528831533FE144C6A011227FE7999E79B
:10041000C7DB0ECDF3366CDB1CCDE3366CDB38CDA1
:10042000B33667DB70CD9B37C0DBE07981E6079E92
:10043000FE01800600000F0702020009070A0508F6
:1004400000FC000400000000F0F0F0F0004020008C
:10045000F0D0B0F060F0F060F09090F06E0088C2E4
:1004600090185341842A1560E8528C155114408924
:10047000808A444365285836D121519143640180D4
:10048000C5402260598C03B030155D8128505D81D4
:10049000AAA0BB0048282EC08852282D288250A52B
:1004A000288200C0508C005C824520AC06460A952C
:1004B000A2C1528560CB4A2115288AB30029428205
:1004C000BB600A140598023C9E83C520E84C11903D
:1004D0009814010A5026052DAD0A213028580D1018
:1004E0009814B4694B150A301606A4560680200BE2
:1004F0000360340581A16B6848C0D004016071704D
:100500008C82446108111822354182301A45854099
:10051000598014A15566000A5A28CC00B4292245F6
:100520004282C15294182AA28C1D0060F120678972
:1005300002A3B022C8AEC0A80BB406D176044A2EDE
:10054000CA89488946820215288094282020A02044
:1005500045407881C4422602A8922968A01604A1C9
:10056000415015488D55282A6C894A536C8802BB26
:10057000644B4476C882A4445500BB0558421170B0
:10058000402814A209528850410A5040154A882A2E
:100590008B234A505014028D4045028052948904A6
:1005A00054181304604C11989823313046626091BE
:1005B000409C8344E0C86D98144436CC0981633074
:1005C000241436CC09450DB301548A4052DA2C0666
:1005D0002214A44C0694040590A1402852265A5295
:1005E0002301604C1628BE1508DC8AB034052D02A4
:1005F000D0A536CA16D40283B6528096968ED954A8
:10060000042803B6580A529476CA011215DB2A2030
:1006100085283B650512D29576536442C09CA6C8D6
:1006200096D2DA3A24303472009151C8030772012D
:100630001B00AE832AC195441822A0AD181A812050
:1006400050604A14B5458120D580B0244A5A22B062
:10065000140A20948A802168811114B055C00A843C
:100660005763645581BB673086616111308C8E0C95
:10067000291122501444294A5411102C94051511A3
:10068000A52ABB6510294176CA2B6D28BB6580A2BF
:100690008BB68900A2ED90088C0558230160D130FB
:1006A0008E022B0550142240AC0504015428D104BD
:1006B00036C289592A88E70A08D0403185280511B1
:1006C0001CE140505A531852880835CE152850283E
:1006D0005DB08D22400A088201161540BD81C4E03C
:1006E00031380B01602964A3016D1022A22B31283F
:1006F000088166251111598A02A80AA2A35506800D
:10070000850444296D04AA220528ADA2244603408D
:100710004602A8A808C0D80A03038A030A5500BCE9
:10072000022905404182A140606A8D0154010A0BF3
:10073000404010490A2540106054551455AB0144FF
:10074000ACC2880885DBFC54888330A02080A913C4
:1007500004B41060683016071201844440A988C1AF
:100760005016088020AA0941541042D281505641A7
:10077000A00A0828528A250514C883568391502E52
:10078000CB90401DF6C825A330A084541060CAA0A9
:100790009B022D0276040604ED02604EC082A81171
:1007A0003041418420820A084445055150A111106E
:1007B0005128504A0A4942808112148980200C1A1B
:1007C000248E80C5E08860406088E0090402222E03
:1007D000C8AA0A09B2B015528ED80A214500D850CD
:1007E00051488D5A94404414401A5A220851104AD4
:1007F000A20C2D0422E082AC1554BE0894250245BB
:10080000582444A0304405005580A5105006029499
:1008100042223015285004602A528A88C0544282ED
:100820002301511A808C0545404489850551198161
:100830004028050367446854A04C0B034149818F4D
:1008400080BE008B40623045506028141904122786
:10085000554154401441A6CA250A0820E5128301D7
:1008600069B2882A2C05CA2A0820D3651004AAA0D8
:10087000E51A050A0F36500A252883A2255401E6F9
:10088000C80805A2B302030252240450AA8AC098E1
:100890001B02606AA028AA2080A322802025B4A180
:1008A0006A0208A5040411429140B69504405026FE
:1008B000044404763220222ED92225076CC0540825
:1008C0008C0A22BE894055401008984480A82141D6
:1008D0000142850A25282B4A024894014291715110
:1008E0000198D2A22824C4822205992888946603FC
:1008F00064110A555AAA544A02A50282A580D285DB
:1009000000548914888B05606C7C9E0089C210415C
:100910005603112B441401D841040401D84AD10ACA
:10092000AA38180B41047602A094011DA441A341EA
:10093000047612B01A823B0836B41057612A085662
:1009400082EC20820202B855088808AA0AA0444016
:10095000BE8D803330655199ADC8245E880AC0A829
:10096000580D15154042882C090141150A82282A84
:100970002A51AA802A44428820A91100A2882289EB
:10098000410A14A022142B6D0404410B0288892211
:1009900082083018D0BE5585A11A0410366624107E
:1009A00044889B6416A01322080B62411128C06280
:1009B000520AD128112050A36D581AC09006B55480
:1009C000551944011100B0140444051602AA44ACA0
:1009D00048A2C1100408B804447A227044108880E8
:1009E000A083B65442A0ED81128DA6D8110A83B619
:1009F0003220258B581D28A821688091205B6460D7
:100A00004C096051408E23A0ED804010156610AA5D
:100A100023459890A0802CC482088458A14A0830AD
:100A200016AD16A8A05004A008828A882D11296C42
:100A30000685044A0156912226120B088900AC82D1
:100A4000C4609110181A9428454A14A2E581DA0B63
:100A5000B284485761510401DB0A5010076C2C83A3
:100A6000451576D110A5A0BB20285285DB2009684A
:100A7000510C80205282A80448061111008E88C2B1
:100A80009016129422B0151181C5040AD640405028
:100A9000605440A282A4545414DBCC222A8A7DF6EE
:100AA000FB88A962C2D142814280505040404041FF
:100AB0008F809E81C5E0880C052220C06944408853
:100AC00095445128A02294112849688B6D11454006
:100AD0004500451015223514603419811054528C8C
:100AE000C0A940A203B5C2829441660224044B6CA3
:100AF000A011100888BD05585211580A82820301BE
:100B000042A59280AA0D0A094A82A8551A580A825B
:100B100008816D0528050AA444A51A82080A0A82DC
:100B2000B4401066080A00AB312AC09981560AED1C
:100B30009610ED984C44A8812AC06220802C06A013
:100B4000294145464A512822A8A0541981A510667A
:100B5000040A833005A28ED84A0244A94181202B81
:100B60000268AC0D060AAAA78D4054150281488878
:100B7000A5A28144014B6891101128A8208514A9D1
:100B8000500503648A6C51916614A8ACC085157633
:100B90005008C8A922B0166001401CE428A0B30286
:100BA000248A24C0820AC05A2D15150A008D0A52C3
:100BB000A0888528A220A8282200A28A21442820D3
:100BC000AD280A802111812A80BE8C113010045674
:100BD00060502D4090261501150126054515042667
:100BE000044A580A22A8852A830288882A88A28271
:100BF00034051005285045101512940110110A28CB
:100C0000A24444B6036830151454A0C090044018A0
:100C100014488900BE8444422211201040550A52D3
:100C200088250145141440A580D0A22A5051602A7D
:100C30000911223688B62248B0144A0AD54A0A2534
:100C4000040541504B4A205A200C0501410089EC13
:100C500065581B32B04665609170AE8BC11988082B
:100C6000B4C4020A02ECA9402C0576C52880A02E47
:100C7000D9B110041540101A0D1042D2942A8208DE
:100C8000501AD16882A28802820214A29120100A0E
:100C900014181A80880C1223244610A866812A9101
:100CA000324460341102A9516BB64412ED810471D3
:100CB000914404688D0A008844C550BE84C488CC21
:100CC000C0A80B01598142D50A48B302C0AD2A130E
:100CD000028514B444DB28514A084C0A911151741E
:100CE000440A145030295504888AA050181A085113
:100CF000A52AA0825B52808AA0802168C0E2402B96
:100D0000088880BC008C40583280208DA50401A347
:100D100050524405144A22808146822008094044EA
:100D2000014A501440104142880200A5A8912B406E
:100D3000404660422839DB0B04660018233000C1AE
:100D400022A0AE83C4612A02C1D602C1942D060A34
:100D5000A5A1460A9402882A8081691208A0A00BE6
:100D6000A116D917244C5015C913C34AACCE201173
:100D7000B0A309505852A88D80C5206AB028902091
:100D80000A52812208A2D694B1126242D15026247E
:100D900010144989A14146CC45A94501515A1488EE
:100DA000850A142880850A14288112022504888067
:100DB0006E8244E0911041560280814010551B45DF
:100DC00014116048828AA0A95A14282ED801141040
:100DD000176C804822A2BB64150A1422A28080C12D
:100DE000A2A0AE2230A40614891382302B2448011D
:100DF00028B4540401154A01440122220D2240AABC
:100E00002D81285428228A2C151DB244C150DB03A1
:100E1000015511DB2306454460CC0D8345409B887A
:100E20008AB0276C882A80ED950A080CC0A50AA80C
:100E3000B302814115DB0A52888A0085044144547B
:100E4000889446850050A48500A0A0252D28AA11CD
:100E50002054114015401500B98B003045512242F5
:100E60000A894A50A2C0DA02AD0B505410512A80B0
:100E7000B502922008528A802205040114044050D1
:100E800088880C150198D50198D80C546D82AAC099
:100E9000A2A0A00A160548900A280BB651B4A5AD29
:100EA0005DB288048081B650A8ADA06D94A1685150
:100EB00066055B038982113822A8B808A803F77E6B
:100EC000E803BEFBE401FBEFBA00EFBEF9007EFBD6
:100ED000EE802A02B02404022444E0EA5294A515CC
:100EE000294A514694A52A08164A02084441055049
:100EF0001540AB81AAC210583A02C192D1606AD0A3
:100F0000A280AA0140454122208802330511102900
:100F10003022214477D911505515101549282D58E4
:100F20000AA580B0341406071500BE8146204BB0D8
:100F30000203015DB94028802EDF223450076F91F3
:100F400012822AED90401110518322494A2A088AC0
:100F500025028088082B680888880205011222096A
:100F600052230241A0202020820A80B01410604841
:100F70000282AC0A24282321382E242837354C3B02
:100F8000333C433E333139474B37474645442C3990
:100F90003F354341312C364B46421F483F353932AD
:100FA0003C3A342E38384BFF73706163656669676D
:100FB000687420323039310A4361727374656E206F
:100FC000536F6572656E73656E0A0A0A00122453C8
:100FD00070616365466967687432303931206279BF
:100FE00020536C616D6D65722F416E61726368791B
:100FF0002100FF00E02786222E1226AC406000F080
:10100000556800A86FF81EF765AC57F81EF75578BD
:101010000838C01236AC40600061036200F255220D
:101020009EAC3FF0654000126070FFF055283E26F0
:101030001E2566247E2350AC48F46530001294319E
:10104000001294320012943300129434001294224D
:10105000EAAC40F0657020F05540C000EE229E12D0
:1010600054AC41F0653000125400EE26EAAC436007
:101070003861006200F255AC4660006100620163B5
:10108000016401650166016705680069006A006B1B
:10109000006C05FC55AC3F60FFF05500E026A6262D
:1010A0008C26BE266E265826C66500151873013399
:1010B00005137E6300137EAC3FF06580568056803A
:1010C00056F055277826A6268C26BE266E6020610F
:1010D00019A9AF62086300D0187008F21E730133BB
:1010E00008130A266428362836AC3FF06540000015
:1010F000EE2664266EAC3FF06570FFF055AC42F012
:10110000657001F0552664266E6001F018283EAC2B
:101110003FF065300013242836283600EEAC50F23C
:1011200065300013A472FFF255320000EEAC40F0BF
:101130006562C082058256825682568256825680E9
:1011400020AC52F055C303C4018344AC48F31EF0F5
:1011500065400012E0A86AF31EF0658300AC46F11A
:1011600065803470077119AC50F2556002F01814A4
:101170007424747104AC50F15524744140144E41F0
:101180003F144E413E144E413D144E412B140E412E
:101190002A140E4129140E4128140E4127140E4F13
:1011A0000000EE82008310AC44F165400013FE5055
:1011B0002013FEAC42F0657001F0556001F0182577
:1011C000E6AC4460006100F155144E6A00245E24D0
:1011D0005A7A013A051400245E144E82008300827C
:1011E0005682568256AC40F065AC57F01EF21EF0A7
:1011F00065400000EEF06570FF82006000F055422F
:101200000014448020F0556210F21E6000F0551466
:101210004E60F88032612CAC3AD0142474AC50602B
:10122000006100F15500EE6901146269FF14622645
:101230008C6001F018AC41F0658094F055268C1854
:101240003AAC50F165AAF6D01300EEAC4DF06570E3
:10125000FFF055300000EE6005F0556500251824BC
:101260009865011518AC4EF1654000150440011455
:10127000CC400214F0600AF018AC47F065300C70F6
:1012800001F0557101AC4F8010F055310400EEAC07
:101290004E60006100F15500EE600AF018AC47F0B6
:1012A00065300C7001F0557101AC4F8010F0553174
:1012B0000400EEAC4E60026100F15500EEAC46F069
:1012C0006570FCF055300000EEAC4E6003F0550048
:1012D000EEAC46F0657004F055302800EEAC4E6080
:1012E00001F05500EEAC46F165871086007709687D
:1012F00000AC40F0658900AC48F81EF065AA0FF913
:101300001E3000D6703F002546761278013805154C
:101310002A00EE450000EED670AC48F81E6000F0E2
:1013200055266EAC42F0657002F055266E25E6AC8F
:10133000441616AC44F165400000EE412C157E4188
:101340002D157E412E157E312F00EE820083008206
:101350005682568256AC40F065AC57F01EF21EF035
:1013600065400000EEF06570FF82006000F05542BD
:101370000015B48020F0556210F21E6000F0551583
:10138000BE60F88032612CAC3AD01425E6AC44162D
:1013900016600AE09E00EEAC44F065300000EEAC52
:1013A00043F0657007AC44612EF15525E66001F00D
:1013B0001800EEAC44F165AAF63000D01300EE251B
:1013C000E6AC44F16571FE4108161641091616F1A6
:1013D0005525E630004F0000EE6500251865012513
:1013E0001800EE60006100F15500EE25C425F260A2
:1013F00003E0A11644600CE0A1163000EEAC43F00F
:1014000065407000EE26587001AC43F05526580038
:10141000EEAC43F065400000EE265870FFAC43F0A0
:1014200055265800EEAC43F0656131AACFD01000CC
:10143000EEAC3FF065633964221676AC42F065632A
:10144000226403AC53F033F265F0292686F1292695
:1014500086F229D345730500EEAC41F065400000EB
:10146000EE614D6201AAEFD127710870FF300016BE
:101470009A00EE60656100AB1962086300D01870D5
:1014800008F21E7301330416B000EE60006100AA7A
:10149000F916AC6100622C6300AC40F0658400ACCE
:1014A00067F41EF31EF065AC3A3000D12471087366
:1014B00001331016D200EE275C2714272C26F627BE
:1014C0006A00EE270E2836270E283A270E283A27DC
:1014D0000E2836270E2836270E18366003F018001F
:1014E000EE6020610CABF962086300D0187008F25E
:1014F0001E73013308171E00EE60306120A9EF62F1
:10150000086300D0187008F21E730133041736AC5C
:1015100040F065805680568056805680567001F0A7
:1015200030603B6129D01A00EE6100283E00FC715A
:10153000013120175E00EE6100283E00FB71013191
:1015400020176C00EE6100283E00C47101311017B5
:101550007A00EEAC3E6064F05527D026A6268C2695
:10156000BE266E27E8283E280027A6600AE09E17C0
:101570009800EEAC3EF06570FFF055300000EE6074
:1015800064F05527D0AB396010611862206300D039
:10159000107010F21E7301330617C200EEA92F60FF
:1015A00020611862206300D0107010F21E730133A6
:1015B0000417DA00EEAC566000F055820064002893
:1015C00028720180207401341017F200EEAC56F03E
:1015D00065820084002828A84A825EF21EC07FC16E
:1015E0003FF155AC39D011630F740184328040ACA7
:1015F00056F05500EEA84A805EF01EF165AC39D079
:101600001100EE600C1840600618406001F015F003
:10161000073000184200EE0A115B225B297538542E
:10162000110C09341378342604061A0C22200A00FF
:101630001606053F07001E00122436480000000071
:10164000000000000000000000000000000000009A
:10165000000000000000000000000000000000008A
:101660000000010101010000000000000000000076
:101670000000010101010000000000000000000264
:101680000202000000000101010000000000000152
:10169000010100000000010101000000000505003B
:1016A0000000050000050000000505000001010024
:1016B0000000010000010000000101000A0A000012
:1016C0000A0A000000000A0A00000A0A01010000DC
:1016D00001010000000001010000010114141414B4
:1016E0001414141414141414141414140101010106
:1016F0000101010101010101010101013C007C0026
:10170000E000C000CC71CCFBCDDBCD9BCD9BFDFBC5
:101710007CFB000000000000FFFFFFFF0000000056
:1017200000000000F0E0F9F07D986DF86D806DF834
:101730006CF8000000000000FFFFFFFF38007C0095
:10174000EC00CC00CD99CD9BCD9BCD9BCD9BFCF3EC
:101750007861000000000000FFFFFFFF00070007A6
:1017600000060006C1CCE3CC3708F6080600F618E0
:10177000F618000000000000FFFFFFFFFDFD113123
:1017800031313131A1B3BFBFB3B3B3B31C3C7060CF
:1017900078607C3C0E1F1B191F191F1F0E1FBBB347
:1017A00033B3BF1E66767E6E66666666CCCCCDCDE4
:1017B000CCEC7D3D70F383E0F033F3E0C0C1C3C3F4
:1017C000C3E37B39ECEC8C0CCC0FE7E3C7CFDCD860
:1017D000DED89F0F6060606060703C1C000097D294
:1017E000038001000FE03FF85554ABBAFF6EBABA60
:1017F00055543FF84FE400008002000003C006602B
:1018000004A003C004200B3014581428105812A848
:101810000D5016A823C47FFE400200004AAA1550AE
:101820004AAAD553E4277FFE399C0C30066007E0B6
:1018300033CC2BD407E003C00180000003C0056057
:1018400006A003C01BD82D745EBAA565C6A3C7E366
:10185000CDB3DA5B542A18181818300C300C481223
:10186000A42584214C32324C02401FF820AC28546D
:1018700020AC1FF87FFE9249924992493FFC4002FA
:101880005AFA500A43EA524A47CA500A5FFA4002DB
:101890003FFC0FF0381C5436AC2BF81F0100010040
:1018A00001000100010003800380038007C0C6C659
:1018B0007D7C3FF87FFCC3860100000010101028DB
:1018C0007CD6FE8080803879C3F37B1BFBF1E3E795
:1018D0008E0C0C0CEFE78EDFDBD9DFDFDB990E1E01
:1018E000B8B0BC30BE9EC3C3C3C3C3E37B3B666614
:1018F0006666667E3C183879E3C3F1C0FB7BE0E0A6
:1019000000C0E060E0C03C007C00E000C000F1E00E
:1019100079F11DBB0D9B0D9BFDFBF9F10180018051
:101920000180FC3FFFFF0000000000000000E1CE4E
:10193000F3DFB719361F3618F7DFF3CF00000000CA
:101940000000FFFFFFFF0F001F00380030003EC700
:101950003ECFB01DB0D930D9B0DFB0CF0001000FFD
:10196000000FFFE0FFFF30603060306030603C7897
:10197000BE78B760B360B370B33CB31C8000800026
:1019800000007FFFFFFF3C3C7E7EE6E6C6C60EC63B
:101990001CC638C670C6E0C6FEFEFE7C0000000015
:1019A0000000FFFFFFFF3CC77EC7E6C6C6C6C6CC29
:1019B000FECC7EC806C806C0FED8FCD800000000D9
:1019C0000000FFFFFFFF3C7CE1C1CDCDFD7C77F740
:1019D000C081E181F1F1E0E0808080808080F0F8DA
:1019E000DDCDFDF9DDCC71F3C786E786F6F6C7EFEE
:1019F0006D6CEC6C6F6F1999D9DFCFC6C68698985D
:101A000098981800181880FFAA55FF0000000000E1
:101A100000000000000000000000000000000000C6
:101A200000000000000000000000000000000000B6
:101A300000000000000000000000000000000000A6
:101A40000000000000000000000000000000000096
:101A50000000000000000000000000000000000086
:101A60000000000000000000000000000000000076
:101A70000000000000000000000000000000000066
:101A80000000000000000000000000000000000056
:101A90000000000000000000000000000000000046
:101AA0000000000000000000000000000000000036
:101AB0000000000000000000000000000000000026
:101AC0000000000000000000000000000000000016
:101AD0000000000000000000000000000000000006
:101AE00000000000FF000000000000000020202097
:101AF000202000200050505000000000005050F8FE
:101B000050F85050002078A07028F02000C0C81075
:101B100020409818006090A040A890680060204085
:101B20000000000000102040404020100040201025
:101B300010102040000020A870A8200000002020E5
:101B4000F82020000000000000602040000000009D
:101B5000F0000000000000000000606000000810BD
:101B60002040800000708898A8C8887000206020FD
:101B7000202020F800708810204080F800F008082D
:101B8000F00808F00010305090F8101000F8808035
:101B9000F00808F000304080F088887000F80810E5
:101BA0002040404000708888708888700070888865
:101BB00070080870000060600060600000006060F5
:101BC000006020400010204080402010000000F8FD
:101BD00000F8000000402010081020400070880825
:101BE000102000200070880868A8A87000708888FD
:101BF000F888888800F08888F08888F000788080ED
:101C00008080807800F08888888888F000F880805C
:101C1000F88080F800F88080F880808000788080EC
:101C2000B088887000888888F888888800702020AC
:101C3000202020700078080808089060008890A094
:101C4000C0A0908800808080808080F80088D8A81C
:101C500088888888008888C8A898888800708888BC
:101C60008888887000F08888F0808080007088887C
:101C700088A8987800F08888F0A090880078808004
:101C8000700808F000F82020202020200088888894
:101C9000888888700088888888885020008888888C
:101CA000A8A8D8880088885020508888008888880C
:101CB0005020202000F81020408080F80060404034
:101CC00040404060000080402010080000180808D4
:101CD00008080818002050880000000000000000DC
:101CE000000000F80040201000000000000000701C
:101CF0000878887800808080B0C888F00000007084
:101D00008080887000080808689888780000007053
:101D100088F8807000304840E04040400000007883
:101D200088887808708080B0C88888880000200083
:101D30002020202000100030101090600080809043
:101D4000A0C0A0900060202020202070000000D0C3
:101D5000A8A88888000000B0C888888800000070A3
:101D600088888870000000F08888F0808000006813
:101D70009090B050180000B0C880808000000070C3
:101D8000807008F0004040E040404830000000888B
:101D900088889868000000888888502000000088A3
:101DA00088A8A850000000885020508800000088B3
:101DB00088887808700000F8102040F80020404023
:101DC0008040402000202020202020200040202093
:101DD0001020204000000040A810000000FCFCFC87
:101DE000FCFCFCFCFC402010F810204000102040BF
:101DF000F8402010002070A82020200000002020A3
:101E000020A87020000070F8F8F87000007C82862E
:101E10008A92A2C2827C0008182808080808083E96
:101E2000003844820408102040FE00384482023CFE
:101E30000282443800848484847E04040404007E86
:101E40008080807C020202FE0078848080FC828296
:101E5000827C007E82040808080808080038448252
:101E6000827C828244380038448282463A020438B6
:101E70000038448282FE8282828200FC828282FC5E
:101E8000828282FC003E408080808080403E00F85C
:101E900084828282828284F800FE808080FE80803C
:101EA00080FE00FE808080FE8080808000E0A0A018
:101EB000A0E000C0404040E000E020E080E000E022
:101EC00020E020E000A0A0E0202000E080E020E072
:101ED000008080E0A0E000E02020202000E0A0E0E2
:101EE000A0E000E0A0E0202000E0A0E0A0A000C072
:101EF000A0C0A0C000E0808080E000C0A0A0A0C082
:101F000000E080E080E000E080E0808000001124BC
:101F10001FBECFEFD8E0DEBFCDBF11E0A0E0B1E043
:101F2000E0E2F7E302C005900D92A231B107D9F7C4
:101F300025E0A2E1B1E001C01D92A23AB207E1F7AB
:101F40000E94C9140C948E1B0C940000CF93C82FD0
:101F5000CF7061F4862F807F803C59F16B3F69F030
:101F600078F06C3F39F08C2FCF910895C1E08C2F21
:101F7000CF9108950E94D219F6CF0E94AB19F3CFEA
:101F8000603EA1F06E3E91F7E0913E058FEF8E0F1F
:101F900080933E05F0E0EE0FFF1FE65CFA4F27A1AD
:101FA00030A530933B0520933A05DDCF0E943C19C4
:101FB000DACF862F8F700E944A19D5CF282F2F7025
:101FC000A62FA295AF70862F8F70482F50E04F300C
:101FD000510510F081E008954C5C5F4FFA010C94BC
:101FE000E61AE22FF0E0E65CFA4F8581881F882729
:101FF000881F80934E058581880F858380E0089532
:10200000B0E0A65CBA4F15969C91E22FF0E0E65C3A
:10201000FA4F95830895E22FF0E0E65CFA4FB0E0C6
:10202000A65CBA4F858115969C91892B858380E0AB
:102030000895E22FF0E0E65CFA4FB0E0A65CBA4FFC
:10204000858115969C918923858380E00895E22FF0
:10205000F0E0E65CFA4FB0E0A65CBA4F85811596D9
:102060009C918927858380E0089510924E05E22F88
:10207000F0E0E65CFA4F2581B0E0A65CBA4F159619
:102080003C911597832F90E0820F911D8F3F910512
:1020900039F034F081E080934E05258115963C910E
:1020A000230F258380E0089581E080934E05E22F81
:1020B000F0E0E65CFA4F8581B0E0A65CBA4F159679
:1020C0009C911597891728F410924E0585811596D5
:1020D0009C91891B858380E00895E22FF0E0E65C07
:1020E000FA4F8581817080934E0585818695858321
:1020F00080E0089581E080934E05B0E0A65CBA4F81
:1021000015968C911597E22FF0E0E65CFA4F9581D9
:102110008917F8F610924E0515968C919581D9CFB6
:10212000CF93C82FCF70693209F494C078F0653529
:10213000B9F108F45DC0653709F440C0653809F4A9
:10214000B6C0653609F446C081E019C0653109F4AE
:10215000BAC0B8F0683109F4BFC06E31A9F7EC2FEE
:10216000F0E0E65CFA4F258180913C0590913D05B9
:10217000820F911D90933D0580933C0580E0CF91A7
:102180000895673009F490C06A30F1F60E94541542
:10219000EC2FF0E0E65CFA4F858380E0CF91089564
:1021A0006C2F70E06F5F7F4F4FE355E080913C05EF
:1021B00090913D050E94891780E0E1CF80E0E82FF3
:1021C000F0E0E65CFA4F9581958B8F5FC817B8F702
:1021D00080E0E4CF6C2F70E06F5F7F4F4FE355E0FE
:1021E00080913C0590913D050E945E1780E0C7CF2D
:1021F000603309F448C0633309F0A6CFEC2FF0E058
:10220000E65CFA4F25819DEC299F812D112486954E
:10221000869586953AE0839F201911242093140116
:10222000899F912D11249695969596952AE0929FD7
:1022300080191124809313019093120142E151E01F
:1022400063E070E080913C0590913D050E94891704
:1022500080E095CFEC2FF0E0E65CFA4F858126E038
:10226000829FC00111248355914E90933D05809328
:102270003C0580E00E9475158091A1058E7F8093BA
:10228000A10580E08BCFEC2FF0E0E65CFA4F858172
:102290003AE0839FC0011124835F914E90933D05E6
:1022A00080933C0581E0E6CF8091390171CF80E0D9
:1022B000E82FF0E0E65CFA4F958995838F5FC817A9
:1022C000B8F780E06BCFEC2FF0E0E65CFA4F858149
:1022D0008093390180E053CFEC2FF0E0E65CFA4FB9
:1022E00065818BE092E00E94B91780E048CFEF92C1
:1022F000FF920F931F93CF93DF93AFE3B5E0EFE42B
:10230000F5E01D92119285E0EF35F807D1F71092B4
:102310003D0510923C0580E092E090933B05809350
:102320003A0510923E0581E08093370180E092E00B
:10233000CEEF0E94331780935F0590936005209144
:102340003A0530913B05D901790192E0E90EF11C83
:102350009701F0923B05E0923A05182F1F70D0913B
:1023600060050D2F02950F70482F42954F7050E079
:102370004D5B5F4FFA010C94E61AA0913E05AF5FEA
:10238000A0933E05B0E0AA0FBB1FA65CBA4F98967B
:10239000FC92EE929797212F30E0322F22272D0FBB
:1023A000311D30933B0520933A05C15049F480918B
:1023B00037018111FCCF81E080933701C091790012
:1023C000C901B7CF6D2F0E94A60F81110AC02091BD
:1023D0003A0530913B05E9CF6D2F0E94901088237C
:1023E000B1F3DF91CF911F910F91FF90EF9008957E
:1023F000DE3909F4C1C0D13A09F0C8C00E940915FC
:10240000E12FF0E0E65CFA4F9581981701F32091F7
:102410003A0530913B052E5F3F4F30933B052093AB
:102420003A05C3CFDF7009F4B9C08091A10580FFE0
:1024300095C06D2F70E042E151E080913C05909194
:102440003D050E945E17A02FB0E0A65CBA4FE12FB9
:10245000F0E0E65CFA4F01E022E131E04D2F159605
:102460006C9185810E94E71780934E05B0CF0E9442
:10247000541BE12FF0E0E65CFA4F90916005982341
:10248000958320913A0530913B058FCF80913F0590
:10249000212F30E0322F22272D0F311D280F311D23
:1024A00030933B0520933A0580CF812F90E0982F01
:1024B00088278D0F911D90933D0580933C05809159
:1024C000A10581608093A10570CF812F90E0865C8B
:1024D0009A4F10E0065C1A4FFC019581F801858146
:1024E000981709F462CF9D012C5F3F4F30933B0555
:1024F00020933A055ACF6D2F0E94DE0F882309F4EE
:1025000066CF6FCFE12FF0E0E65CFA4F85818D0F4B
:1025100085834BCFE12FF0E0E65CFA4FD58345CFC2
:10252000812F90E0865C9A4F10E0065C1A4FFC0108
:102530009581F8018581981338CFD5CFE12FF0E050
:10254000E65CFA4F8581D813CECF2FCFE12FF0E094
:10255000E65CFA4F8581D81328CFC5CF20913C0582
:1025600030913D05A02FB0E0A65CBA4FE12FF0E01E
:10257000E65CFA4F00E072CF0E940915E12FF0E00F
:10258000E65CFA4F9581981322CF41CF81E0DF912D
:10259000CF911F910F91FF90EF90089542E151E08C
:1025A00060E270E080913C0590913D050E945E17CD
:1025B000A02FB0E0A65CBA4FE12FF0E0E65CFA4F46
:1025C00042E151E015966C9185810E9468188093D4
:1025D0004E0520913A0530913B05E7CE0E943C190B
:1025E00082E00E94751580913A0590913B0564E068
:1025F00002970E942C1664E080915F05909160051F
:102600000E942C1685E091E00E940B160C9459153F
:10261000EF92FF920F931F93CF93DF936115710594
:1026200089F08C017B018EEFF81AC0E0D2E0F8014E
:102630006491CE010E9413170F5F1F4F2196CE1594
:10264000DF05A9F7DF91CF911F910F91FF90EF90D8
:102650000895FF920F931F93CF93DF93CDB7DEB70B
:10266000A0970FB6F894DEBF0FBECDBF182F00277E
:10267000F12CAE014F5F5F4F60E270E0C8010E9435
:102680005E178981882391F080E20E94A915CE010E
:1026900001960E940B1687E0F81631F00E9478151B
:1026A000F394005E1F4FE5CF88E0F82E8F2DA096A3
:1026B0000FB6F894DEBF0FBECDBFDF91CF911F9153
:1026C0000F91FF900895AF92BF92CF92DF92EF9259
:1026D000FF920F931F93CF93DF936C0181EF90E0F4
:1026E0000E941A168CED90E00E941A1689EC90E078
:1026F0000E941A1687EB90E00E941A1686EA90E074
:102700000E941A160E9459150E943C1982E080937B
:102710003901809139018111FCCF80E090E00E9465
:102720002913B82EC0E0D0E0E12CF12CA12C00E060
:1027300025EE3DE148E06A2D80E00E94E7170E9407
:102740005415182F66E090E00E94B91725EE3DE180
:1027500048E06A2D80E00E94E7171A3009F440C073
:10276000B8F4173071F1193069F42B2D30E0215095
:102770003109C217D3070CF059C02196AC2EAA0C10
:10278000AA0CAA0C0E9409158F3F89F20000FACF0B
:102790001E30F9F01F30B1F7E70121969E01220F9C
:1027A000331F220F331F220F331F2C153D050CF44E
:1027B00053C0CB2DD0E02197AC2EAA0CAA0CAA0CAA
:1027C000E1CF209709F12197AC2EAA0CAA0CAA0CF4
:1027D000D9CFE114F104E1F4C0E0D0E0A12CD2CFD4
:1027E000C701880F991F880F991F880F991F8C0F99
:1027F0009D1FDF91CF911F910F91FF90EF90DF9080
:10280000CF90BF90AF900895E114F10409F4BACFCE
:1028100081E0E81AF1080E943C19C7010E942913BF
:10282000B82EC7E0D0E058E3A52EACCF87010F5FEC
:102830001F4F9801220F331F220F331F220F331F08
:102840002C153D050CF09ECF0E943C19C8010E943A
:102850002913B82E7801C0CF0E943C19CE010E94E6
:102860002913B82E7E01C0E0D0E0A12C8BCFAF920F
:10287000BF92CF92DF92EF92FF920F931F93CF936D
:10288000DF93CDB7DEB7A2970FB6F894DEBF0FBEC9
:10289000CDBFEDE5F1E09491992309F477C0C12C07
:1028A000D12CA12CB12C01E010E09A3009F467C0C2
:1028B000DE01119620E030E02F5F3F4F9D930F5FC8
:1028C0001F4FC801835A9E4F7C01FC0131979491A0
:1028D0009A3091F7E1E0F0E0EC0FFD1FE20FF31FFB
:1028E0001082AE014F5F5F4F60E270E0C6010E9450
:1028F0008917FFEFAF1ABF0A0F5F1F4FF7019491BF
:10290000F0E2CF0ED11C9111D0CFC50189A39AA3BB
:102910000E943C1989A19AA10E946313009719F1A2
:10292000019781F468E17BE08DEC9FE00E94081341
:1029300064E088EA9FE00E9481160E94771181116D
:102940000E94EE12A2960FB6F894DEBF0FBECDBF66
:10295000DF91CF911F910F91FF90EF90DF90CF907B
:10296000BF90AF90089560E07EE088EA91E00E9419
:10297000081364E087E991E00E948116DECF20E031
:1029800030E0F801E35AFE4F7F01A4CF80E090E0F1
:10299000BDCF80E880936100109261000E94CB1748
:1029A00084B1886284B980E58CBD8DB581608DBDB0
:1029B00081E680937C0087EC80937A0010927B0004
:1029C00081E080937E000E94FF140E94B3170E9452
:1029D0000C17789480918400909185000E94591B77
:1029E00064E080E091E00E9481160E94E1160E945E
:1029F0003C1982E00E9475150E943714F6CF8AB107
:102A00008D628AB98BB18D628BB988B18C6388B9BC
:102A1000089540E050E020E030E0A2E08BB1FA0100
:102A2000ED57FE4FE491E095E823EBB980E090E0AC
:102A300076B1FC01E158FE4F64916723A1F4A093A5
:102A4000390160913901662351F076B164916723B1
:102A5000C1F42F5F3F4F609139016111F6CF213EE4
:102A60006EE236078CF401968430910509F78BB13C
:102A70008D628BB94F5F5F4F4430510579F68FEF10
:102A8000089521503109DDCFFA01EE0FFF1FEE0F3F
:102A9000FF1FE80FF91FE957FE4F84919BB19D621C
:102AA0009BB98F3F39F308950E9409158F3FE1F3D9
:102AB000089582E00E9475150E9409158F3FE1F785
:102AC00081E791E00E941A160E9409158F3FE1F3F9
:102AD0000E9409158F3F41F064E090E00E94B91711
:102AE0000E9409158F3FC1F708958093040108954E
:102AF00010923301809104018130C1F068F082307E
:102B000051F420913201822F90E0C297CCF4285FDB
:102B1000209332010895089520913201822F90E090
:102B2000C697A4F42A5F20933201089520913201C0
:102B3000822F90E08E973CF4265F20933201089517
:102B400088E00C9474198AE00C94741986E00C9453
:102B500074190F9390910401913029F150F0923043
:102B600031F48A30E9F090EE980F9536A0F10F918C
:102B700008958031E0F796E0899F90011124235554
:102B8000314E00E046E060913201809133010E94B5
:102B9000E717809133018C5F809333018E3738F3D0
:102BA0000F910C947815803110F79AE0899F90016D
:102BB0001124235F314E00E04AE0609132018091A0
:102BC00033010E94E71780913301885F80933301BE
:102BD0008A3768F2E5CF282F30E0220F331F220F0B
:102BE000331F220F331F2B51364E00E048E0609117
:102BF0003201809133010E94E717809133018A5F8F
:102C0000809333018C3708F4B2CFCACF809333015D
:102C1000609332010895CF93DF93EC01888188237C
:102C200031F021960E94A91589918111FBCFDF9186
:102C3000CF910895CF93DF93EC012196FC0184910D
:102C4000882339F00E94A915FE01849121968111F3
:102C5000F9CFDF91CF9108951F93CF93DF9300D0E9
:102C600000D01F92CDB7DEB713E00CC0205D2083EB
:102C7000929582958F7089279F7089271150615096
:102C8000009769F0282F2F70E1E0F0E0EC0FFD1FB6
:102C9000E10FF11D2A3050F3295C2083E9CF80E257
:102CA0006D830E94A9156D81812F662379F0861BA3
:102CB00020E301C0192F9FEF910FE1E0F0E0EC0F4E
:102CC000FD1FE10FF11D20839813F4CF8F5F843037
:102CD00010F00EC0812F11E0180FE1E0F0E0EC0FD2
:102CE000FD1FE80FF11D80810E94A915143091F796
:102CF0000F900F900F900F900F90DF91CF911F9139
:102D00000895EF92FF920F931F93CF93DF937C016F
:102D1000062F0E943C1922E020930401E70121962E
:102D2000F7018491882329F1A0E2FA2E1092330151
:102D3000F09232018A3041F00E94A9152196FE01DD
:102D4000319784918111F6CF18E000933901809179
:102D500039018111FCCF81E00E9474191150A9F74B
:102D60009E012F5F3F4FFE018491882311F0E901FE
:102D7000DDCFD4E0C8E000933901809139018111A1
:102D8000FCCF81E00E947419C150A9F7D15091F78E
:102D9000DF91CF911F910F91FF90EF900895409890
:102DA0009DB591609DBD91E09EBD0DB407FEFDCF28
:102DB0009DB591609DBD8EBD0DB407FEFDCF409ABF
:102DC000089540988DB581608DBD82E08EBD0DB4B3
:102DD00007FEFDCF8DB581608DBD1EBC0DB407FE15
:102DE000FDCF8DB581608DBD1EBC0DB407FEFDCF3E
:102DF00080E090E0A1E0B0E02DB521602DBD1EBCCB
:102E00000DB407FEFDCF0197A109B1090097A105F7
:102E1000B10591F7409A0895389A409A80E40E944B
:102E2000CF160C94E11640982DB521602DBD22E0FF
:102E30002EBD0DB407FEFDCF2DB521602DBD9EBD6D
:102E40000DB407FEFDCF9DB591609DBD8EBD0DB447
:102E500007FEFDCF8DB581608DBD6EBD0DB407FE43
:102E6000FDCF409A089540982DB521602DBD23E0F7
:102E70002EBD0DB407FEFDCF2DB521602DBD9EBD2D
:102E80000DB407FEFDCF9DB591609DBD8EBD0DB407
:102E900007FEFDCF8DB581608DBD1EBC0DB407FE54
:102EA000FDCF8EB590E02DB521602DBD1EBC0DB4BB
:102EB00007FEFDCF2EB5409A922B089540982DB570
:102EC00021602DBD23E02EBD0DB407FEFDCF2DB535
:102ED00021602DBD9EBD0DB407FEFDCF9DB5916057
:102EE0009DBD8EBD0DB407FEFDCF6115710579F056
:102EF000FA01640F751F8DB581608DBD1EBC0DB4C8
:102F000007FEFDCF8EB58193E617F707A1F7409A2C
:102F1000089540982DB521602DBD22E02EBD0DB441
:102F200007FEFDCF2DB521602DBD9EBD0DB407FE62
:102F3000FDCF9DB591609DBD8EBD0DB407FEFDCF4B
:102F40006115710571F0FA01640F751F91918DB5CE
:102F500081608DBD9EBD0DB407FEFDCFE617F7075E
:102F6000A9F7409A0895569A83E085BD82E484BD0E
:102F70000895CF93C62F9C0140E050E068E478EEBE
:102F800081E090E00E94C71A215027BD569AC09355
:102F90003801CF910895229A82EC8093C20087EF86
:102FA00093E0909389008093880083E693E0909368
:102FB0008B0080938A0083E38093800089E1809373
:102FC0008100EFE6F0E080818460808308958F9235
:102FD0009F92AF92BF92CF92DF92EF92FF920F93A8
:102FE0001F93CF93DF93902E982F9F776F738770E7
:102FF000082F01950770969596959695CC24C394C5
:10300000C90EC42FD0E0209709F460C0E92EF12C3E
:10301000992787FD909570E010E0E0E0F0E0D12C7A
:1030200035C0E49140E1649F50011124D501AE0DFB
:10303000BF1DA65CBE4F8C90F0E0AF01082E02C011
:10304000559547950A94E2F7582D5423752B48253A
:103050004C93002381F0D501AC0DBD1DA65CBE4F85
:103060004C91002E01C0EE0F0A94EAF7542F5E2314
:10307000752BE427EC936F5F603479F01F5FE12FCD
:10308000FF27E7FDF095EC17FD0784F441E0E20F20
:10309000F31F9412C6CFE081C5CF60E01F5FE12F20
:1030A000FF27E7FDF095EC17FD0784F381E0772318
:1030B00069F0DF91CF911F910F91FF90EF90DF901A
:1030C000CF90BF90AF909F908F90089580E0F1CF08
:1030D0003F924F925F926F927F928F929F92AF92A8
:1030E000BF92CF92DF92EF92FF920F931F93CF93F5
:1030F000DF9300D000D000D0CDB7DEB7282F2F77D8
:103100006F7338E0320F932F9F778770682E61942A
:10311000762D7770672E269526952695E22EF12C32
:103120003770A32E732F7195777096959695969517
:10313000092F10E0A32FBB27A7FDB095BC83AB835D
:10314000FA0131964F5D5F4F712C2F5F2F70422E29
:10315000552447FC50949F5F9F70292F332727FDEC
:1031600030953A83298307C03296E417F50709F4AE
:1031700067C08A2D672E90E1699F90011124D901C3
:10318000AE0DBF1DA65CBE4FBE83AD833C904F010C
:10319000B1E08B1A9108D401CC90D12CD60102C099
:1031A000B595A7958A95E2F7CD01B32CBA22B72839
:1031B0008325AD81BE818C93662081F0D901A40D59
:1031C000B51DA65CBE4F8C91062C01C0CC0C0A9498
:1031D000EAF7982F9C21B92AC826CC92D901A00FD2
:1031E000B11FA65CBE4F9C90C080D12CC6010B8045
:1031F00002C0959587950A94E2F7792C78227B286E
:1032000089258C93772391F089819A81280F391F22
:10321000265C3E4FD9018C91072E01C0CC0C0A943C
:10322000EAF7982F9C21792AC826CC926F5F6034E8
:1032300009F09ACF60E03296E417F50709F099CFCC
:1032400081E0711001C080E026960FB6F894DEBFD1
:103250000FBECDBFDF91CF911F910F91FF90EF90E7
:10326000DF90CF90BF90AF909F908F907F906F90A6
:103270005F904F903F90089580E094E0EAE3F1E0A2
:10328000DF019C011D9221503040E1F760E080E0B9
:103290000C940616CF93DF93811103C0DF91CF9179
:1032A00008958F7190E0EC01C295D295D07FDC2714
:1032B000C07FDC2740E450E0481B590B42955295F3
:1032C000507F5427407F54276AE371E0CE01865C2B
:1032D0009E4F0E94641BAE0160E070E08AE391E0C3
:1032E000DF91CF910C94761B0F931F93CF93DF93B5
:1032F000811105C0DF91CF911F910F9108958F71BA
:10330000082F10E0E801C295D295D07FDC27C07F5E
:10331000DC2740E450E0401B510B42955295507F12
:103320005427407F5427BE01665C7E4F8AE391E0BC
:103330000E94641B20EF2003C001219F900D1124E7
:10334000AE0160E070E0865C9A4FDF91CF911F91F3
:103350000F910C94761BCF93DF93CAE3D1E0AE01BB
:10336000405F5F4F9E012F5F3F4FDE011F96FA01C6
:103370008E9160E1869FC0011124929192959F7079
:10338000982B9083E217F30799F7888182958F70C5
:10339000888385E04A33580711F0EA01E0CFDF91D6
:1033A000CF91089529E431E0F9013F97D9011E97A3
:1033B0004D9142954F70808150E1859FC00111244D
:1033C000482B4193E217F30799F780818295807F1C
:1033D00080839F01205F3F4F85E02934380721F724
:1033E00008951F920F920FB60F9211242F938F936F
:1033F0009F93EF93FF938091350190913601019651
:10340000909336018093350180913501909136017A
:103410008430910509F447C0B0F08C339105B9F1BF
:10342000D0F18B3B910549F18630914009F045C0C0
:10343000109236011092350183E693E090938B0051
:1034400080938A0010C08230910509F46EC0C0F4E8
:10345000019799F580913901882329F080913901EC
:10346000815080933901FF91EF919F918F912F911E
:103470000F900FBE0F901F90189510923401F3CF4C
:103480008AE490E090938B0080938A00ECCF81E0F7
:1034900080933401E8CF059781F480917A008064AD
:1034A00080937A00E0CF809137018823E1F2809108
:1034B0003701815080933701D6CF80913401882322
:1034C00091F2E0913501F09136011092C500109211
:1034D000C40088E08093C10082E090E09093C50032
:1034E0008093C4001092C600FC97F695E795E2958C
:1034F000F295F07FFE27E07FFE27E65CFE4FCF01CE
:1035000040962091C00025FFFCCF21912093C6005A
:10351000E817F907B1F78091C00086FFFCCF8091D2
:10352000C100877F8093C1009ECF8091380188239E
:1035300009F499CF809138018150809338018091AE
:103540003801811190CF56988ECFA1E21A2EAA1B76
:10355000BB1BFD010DC0AA1FBB1FEE1FFF1FA21743
:10356000B307E407F50720F0A21BB30BE40BF50B40
:10357000661F771F881F991F1A9469F760957095C9
:10358000809590959B01AC01BD01CF010895052E5A
:1035900097FB1EF400940E94DE1A57FD07D00E948C
:1035A000A51A07FC03D04EF40C94DE1A50954095F2
:1035B000309521953F4F4F4F5F4F089590958095DF
:1035C000709561957F4F8F4F9F4F0895EE0FFF1FAE
:1035D0000590F491E02D0994A29FB001B39FC00122
:1035E000A39F700D811D1124911DB29F700D811D2F
:1035F0001124911D08950E94EC1AA59F900DB49F6F
:10360000900DA49F800D911D112408958F929F927B
:10361000AF92BF92CF92DF92EF92FF92CF93DF9360
:10362000EC01688179818A819B8161157105810531
:10363000910521F464E279ED8BE597E02DE133EF1C
:1036400041E050E00E94C71A49015A019B01AC01B8
:10365000A7EAB1E40E94FB1A6B017C01ACEEB4EF67
:10366000A50194010E94891BC60ED71EE81EF91EF3
:10367000F7FE06C081E0C81AD108E10880E8F80A20
:10368000C882D982EA82FB82C6019F77DF91CF91FF
:10369000FF90EF90DF90CF90BF90AF909F908F9072
:1036A00008950E94061B089580E091E00E94061B89
:1036B0000895A0E0B0E08093000190930101A093F1
:1036C0000201B093030108956817790768F4FB01BC
:1036D000DC01E40FF51FA40FB51F02C002900E928B
:1036E00041505040D8F708950C947D1BDC0101C077
:1036F0006D9341505040E0F70895FB01DC0102C09A
:1037000001900D9241505040D8F70895B7FF0C94A6
:10371000FB1A0E94FB1A821B930B0895F894FFCFAB
:10372000010000000220636F6465206572726F7291
:023730000A008D
:00000001FF
