:100000000C94E4220C9401230C9401230C940123FE
:100010000C9401230C9401230C9401230C940123D0
:100020000C9401230C9401230C9401230C940123C0
:100030000C944A3B0C9401230C9401230C9401234F
:100040000C9401230C9401230C9401230C940123A0
:100050000C9401230C9401230C9401230C94012390
:100060000C9401230C940123CF29DB29E729F329E0
:10007000FF299529C329121A322E303020432E2011
:10008000456765626572672031382F382D27393111
:1000900000FF80038113A8E2F1556005A8E6F05542
:1000A00087738663278600E027A86E4087E26E2765
:1000B00087E1683469186A706B006C046D342762DC
:1000C000A928DAB8DCD823E23E00127EA8E6F06563
:1000D0008500C4FF84522508C4FF84522630600185
:1000E000E0A127F036F712508E6028946E642894B1
:1000F00027F0122CF0074000132280808006800633
:1001000081A0810681068015400012A0400112A046
:1001100040FF12A012D280908006800681B0810636
:1001200081068015400012BC400112BC40FF12BC89
:1001300012D2A928DAB86A706B00DAB86EF387E2D7
:100140006E0487E16E32289480808006800681C02C
:10015000810681068015400012EE400112EE40FF3C
:1001600012EE125680908006800681D081068106AC
:1001700080154000130A4001130A40FF130A12566B
:10018000A928DCD86C046D34DCD86ECF87E26E20F1
:1001900087E16E1928941256603F28C22762A92869
:1001A000DAB8DCD86E4087E3807080E23000123429
:1001B0008E60289428A400E066246714A8E4280030
:1001C00066246720A8E22800640065106601670FB6
:1001D000AB80D460ABA0D560600328C23E0013D8CA
:1001E000AB80D460ABA0D560740475043460135A3E
:1001F000AB80D460ABA0D560600328C23E0013D8AA
:10020000AB80D460ABA0D5607604362D137AAB807A
:10021000D460ABA0D560600328C23E0013D8AB8089
:10022000D460ABA0D56074FC75FC34001398AB802F
:10023000D460ABA0D560600328C23E0013D8AB8069
:10024000D460ABA0D56076FC360113B8135AABA0CE
:10025000D560ABC0D560121A83706E0383E28480D0
:1002600085906E06EEA114446E03EEA1145C6E0838
:10027000EEA114746E07EEA1148C430375044300C1
:1002800075FC43027404430174FC8040815027D004
:1002900082006E0880E2300014A46E07802082E2A3
:1002A000420514AC420614C4420714FE27626EFCD9
:1002B00087E28731884089501762804081507104FD
:1002C00027D082006E0880E23000140463037504B6
:1002D00014208040815071FC27D082006E0880E29B
:1002E00030001404630075FC1420804081507004B9
:1002F00027D082006E0880E2300014046302740488
:1003000014208040815070FC27D082006E0880E26B
:1003100030001404630174FC14202762D8988EF016
:1003200000EE6EF080E28031F055A930D4587601AD
:100330006105F0074000F11814366EF080E280315C
:10034000F055A938D458760480A081B027D06EF03B
:1003500080E2300014E46E0C87E380C081D027D0A7
:100360006EF080E2300014F66E3087E360FFF01824
:10037000F01514364301647443026400143682702D
:1003800083706E0C82E280A081B027D0A9286EF025
:1003900080E230001536DAB8420C7B0442007BFC68
:1003A00042087A0442047AFCDAB800EE6E80F10763
:1003B000310015E6340015E68100830E3F00156814
:1003C000839083B54F00159E3300158687E38380A5
:1003D00083A54F0015CE330015B687E315E683805D
:1003E00083A54F0015CE330015B687E3839083B500
:1003F0004F00159E3300158687E315E66340813272
:10040000410015E6DAB87B04DAB86EF387E2620CD5
:10041000872100EE63108132410015E6DAB87BFCDB
:10042000DAB86EF387E26200872100EE6320813242
:10043000410015E6DAB87A04DAB86EF387E26208AA
:10044000872100EE63808132410015E6DAB87AFC3C
:10045000DAB86EF387E26204872100EEC1F0801201
:10046000300015F66E0C87E382E31520DAB8800EB3
:100470004F00160462047AFC1626800E4F001610F8
:10048000620C7B041626800E4F00161C62087A044C
:100490001626800E4F0015EE62007BFCDAB86EF374
:1004A00087E2872100EE827083706E3082E280C026
:1004B00081D027D0A9286EF080E23000165EDCD80B
:1004C00042307D0442007DFC42207C0442107CFCD2
:1004D000DCD800EE6E80F1073100171634001716D5
:1004E0008100830E4F001690839083D54F0016C86D
:1004F000330016AE87E3838083C54F0016FC3300BC
:1005000016E287E31716838083C54F0016FC33007D
:1005100016E287E3839083D54F0016C8330016AEEA
:1005200087E317166340813241001716DCD87D043B
:10053000DCD887E36ECF87E26230872100EE63105C
:10054000813241001716DCD87DFCDCD887E36ECF02
:1005500087E26200872100EE632081324100171696
:10056000DCD87C04DCD887E36ECF87E26220872169
:1005700000EE6380813241001716DCD87CFCDCD8A9
:1005800087E36ECF87E26210872100EEC1F0801210
:100590003000172887E36E3087E382E31648DCD803
:1005A000800E4F00173662907CFC1758800E4F006B
:1005B000174262307D041758800E4F00174E62A01C
:1005C0007C041758800E4F00171E62007DFCDCD89B
:1005D0006E4F87E2872100EE80706E0380E2800E0E
:1005E000818081946E0481E241007001800E800E52
:1005F000800EA8E8F01ED8988EF000EE6E00A9805C
:10060000FE1EFE1EFE1EFE1EF365ABE0FE1EFE1E5F
:10061000FE1EFE1EF3557E013E80178800EE8223EB
:1006200083336E0F8020813027D480E2800E800ECD
:10063000A940F01ED2347204328017AE82237304B4
:10064000434000EE17AE70047104800680068106F8
:100650008106810E810E810E810EABE0F11EF11E2E
:10066000F01EF06500EEA8E6F0658006F05560012A
:10067000E0A117FA00EEF1656E0184438200831059
:10068000651083554F0082E54F0018266527825577
:100690004F0018268020813084E4180AF430D67A7E
:1006A000760C84438200831065E883554F0082E511
:1006B0004F00184E650382554F00184E8020813040
:1006C00084E41832F430D67A760C844382008310A6
:1006D000656483554F0082E54F00186E802081309D
:1006E00084E4185AF430D67A760C8443820083105E
:1006F000650A83554F001888813084E4187AF430F5
:10070000D67A760CF130D67A00EEA8E2F16581E473
:100710003F007001A8E2F15500EEA8E2F3658E00FB
:100720008E254F0000EE3E0018BC8E108E354F0017
:1007300000EEA8E4F15500EE8EE3620F63FF611056
:10074000E2A118DE8134310018CA61108034300013
:1007500018CA00EE6E0100EE000000000500002245
:100760006363777F3E1C001C1E5D5D6F3E1C003C7A
:100770007E0F070F7E3C001C267F7F7B061C001E21
:100780003F7870783F1E001C327F7F6F301C001C4A
:100790003E7F77636322001C3E6F5D5D1E1C001C64
:1007A0003E49777F637F00000000080000000000E2
:1007B0000000080800000000000000000000000029
:1007C00000000000000000000000800000008080A9
:1007D000000000000000F000000000000000808029
:1007E000808000000000F080808080808080F000A9
:1007F0000000800000000C08080808080808080825
:1008000008080808080D0C0808080808080808085F
:1008100008080808080D0A6505050505E50505E54C
:1008200005050505C50A0A6505050505E50505E58E
:1008300005050505C50A0A050C08080F050C0D0578
:100840000808080D050E0F050C08080F050C0D050E
:100850000808080D050A0A050A650605950A0A35FD
:100860000505C50A350505950A650505950A0A3584
:100870000506C50A050A0A050F0508080808080C38
:10088000080F0508080808080F0508080C080808DC
:10089000080F050F050A0A7505B505050505C50A02
:1008A0006505B505E50505E505B505C50A65050553
:1008B0000505B505D50A0A050C080808080D050F39
:1008C000050C080F05080F0508080D050F050C0895
:1008D0000808080D050A0F050F650505C50A35E569
:1008E000950A6505B00505B505C50A35E5950A659E
:1008F0000505C50F050F077405D5080F050E0F0573
:10090000080F050C080808080D05080F05080F0555
:10091000080F7505D4070A050A350505F50505B55F
:100920000505D508080D0C080F750505B50505F575
:100930000505950A050A0A050808080D050C0808AA
:10094000080D3505C50A0A6505950C0808080D054A
:100950000C08080F050A0A750506C50A05080808E7
:100960000808080F05080F050808080808080F05FB
:100970000A650605D50A0A050C0D050A35050505A3
:1009800005E50505F50505F50505E50505050595E7
:100990000A050C0D050A0A05080F050808080808CD
:1009A0000F050C0D05080F050C0D050808080808B3
:1009B0000F05080F050A0A350505B50505050505E6
:1009C00005950A0A350505950A0A35050505050543
:1009D00005B50505950A0808080808080808080864
:1009E00008080F08080808080F0808080808080879
:1009F00008080808080F01E0021004C809E40BF415
:100A00000BB409E504C9021301E70007018303F0F1
:100A100001FF00FF003F0F00108026404F205FA025
:100A20005DA04F2026409080CF00C00083001F8033
:100A3000FF00FE00F8000F001F803FC07FE07FE056
:100A40005FE047E020C09080CF00C08083C01F805F
:100A5000FF00FE00F800FF426C696E6B7920563291
:100A60002E30303A0A482E432E2045676562657263
:100A7000670A0A6B6579733A0A332075700A362063
:100A8000646F776E0A37206C6566740A3820726965
:100A90006768740A00274527786974207472616357
:100AA00065206F7220616E79007661725B5D3A003D
:100AB0002053503A00493A0050433A00636172743F
:100AC0006520534420616273656E74652100435252
:100AD0004153482120626164206F70636F64650A2E
:100AE0000043524153482120626164206F70636F5C
:100AF00064650A002739272076657273206C6520AB
:100B00006261730A002737272076657273206C654F
:100B100020686175740A00272327207061676520AB
:100B200073756976616E74650A00272A27207061E3
:100B3000676520707265636564616E74650A00277D
:100B400041272073656C656374696F6E0A004641C6
:100B500054206472697665720A436F7079726967AE
:100B6000687420323030362D323031320A526F6C98
:100B7000616E642052696567656C0A00736F6B6F04
:100B800062616E0A737061636566696768740A62A0
:100B90006C696E6B790A6A6F75737420322E330A32
:100BA0006D696E65732068756E7465720A6D616734
:100BB0006963207371756172650A61737465726F20
:100BC000696473206669656C640A0000FF612A62CB
:100BD00001A4BCD120613AA4DCD120614AA4FCD19B
:100BE0002061406230A47CD1206130A45CD12062BD
:100BF00020633064206E016D03A39CD120A3BC61EF
:100C000040D12065FF85E53500123A65FF85E53561
:100C10000012426130A39CD120A3DCD12065F08575
:100C2000E535001254D120A3FCD12083D584D5A46E
:100C30003CD34065F085E53500126AD34083D58406
:100C4000D5A41CD34065F085E53500127CD34083E4
:100C5000D584D5A43CD34065F085E53500128ED30C
:100C6000406200E29E127200E06301610162076966
:100C7000206A0F65016B7A6E016D006700A398779B
:100C80000147C013206201E2A113106202E2A11326
:100C9000146204E2A113186205E2A1131C6207E2C8
:100CA000A113746208E2A11382620CE2A11326620E
:100CB0000DE2A1132C4C0113744C0213826270825A
:100CC00035320012F4A390C13A6E408E15D5E4DBA4
:100CD000E44C0113324C02133812B4630112EA637C
:100CE0000212EA630412EA630812EA7D0167001245
:100CF000BA6E018AE512EA6E017A0112EAA394D96A
:100D0000A312B4A398D9A312B4650889558A55A52E
:100D10001CD9A065F06E0185E53500134CA53CD9C2
:100D2000A065FF6E0185E53500135A00E0612C6275
:100D300010A49CD12061326225FD29D12512020028
:100D4000FCA394D9A34F01133E6C0112F200FBA344
:100D500098D9A34F01133E6C0212F26EFF7E33E06E
:100D60007FE00007FE07990000208331867FC74A95
:100D7000467BC63F805F43FFE4DF63FFE0DB60AAA2
:100D8000A36AC0EAFFD57F0000C6006600E60066E1
:100D90000067C00000C06000848C8E52C452848CF6
:100DA000830000FFFFFFFF04001E0337867F870FCD
:100DB000C607760FF80FDB07FC03EF01DF009F008B
:100DC0000F0107FFFFFF7F00000003000600070080
:100DD00006000600000003000400030000000000FD
:100DE000030000FFFFFF7F04001E0037807F800F9D
:100DF000C007700FF80FD807F803EE01DF009F005F
:100E00004F00670003000010003C0E5EBFFFFF3F75
:100E1000FF0FF707FB07F903F801FC00DE009E0057
:100E20005F000F000F000024305428543074295400
:100E30002A542900005000548071E0548054835497
:100E40004300000000000020022002200226C6AA63
:100E5000AA26A60000706020A024842AAA2AAA2418
:100E600064000000000000140014000894095408F5
:100E7000880000C4EEAA48CE4EAA48AA48AA4E004E
:100E80000007E003C001800000FF7EFF7EE018E065
:100E900018E018FC18FC18E018E018E018E018E05A
:100EA0007EE07E000000000000FF70FF70E070E058
:100EB00070E070FC70FC70E070E070E070E070FF5B
:100EC0007EFF7E000000000000F808FE1CE73EE701
:100ED0003EE73EE73EE71CE71CE71CE708E700FEAD
:100EE0001CF81C000000000002100C08140EC005C5
:100EF000A0061C1A247A90C1E8021805080C1010EC
:100F000000000000000000C302318C09540EC475BB
:100F1000B91E1C1A3E7A93E1E9221905084C1430D7
:100F20000A1B321432200161737465726F69647335
:100F3000206669656C64210A627920416C20526FD9
:100F40006C616E640A6B6579733A0A3120736C6F59
:100F5000776573740A3220736C6F770A3420666188
:100F600073740A3520666173746573740A3720726E
:100F7000696768740A38206C6566740A4320757066
:100F80000A4420646F776E0A004563686563206FCA
:100F900075766572742E20666963682E0A00456353
:100FA0006865632061636365732072657065727440
:100FB0002E0A00456368656320616363657320667C
:100FC000696368696572730A0045636865632061D7
:100FD0006363657320706172746974696F6E0A006F
:100FE000120E204A6F7573742076322E330000FF84
:100FF00028F06000AA5AF055680069036C006D0F74
:10100000229E00E06A027C016D078DC54F00124EE2
:101010004C0468018BC07B0127486E1B6D098DC590
:101020004F001254FC306D3CDDEA2750126A6B0809
:1010300068021238AAB0FC33F2656D37F130DDEA90
:101040006D41F230DDEA2750126A6D078DC24D07FF
:101050001950284C277025F83B0025F06D0F229E73
:1010600022A846DD16B04A00121E22FA380024BC1F
:101070006D054800229E6D034801229E1280FD15D9
:10108000FD073D0012A000EEAA82F56524A06200D3
:101090006D0AEDA1249C6D03EDA124906D0CEDA1D2
:1010A000249622CE46DD00EE3F00251600EE278274
:1010B00027EC8D008E1080248134AA62F51E657F96
:1010C0008052854086008710DDE8AA62F41ED018A1
:1010D000413866DDAA82F55500EE4A0113164A0230
:1010E000130E4A0313AE4A0413B44A0513BA231667
:1010F0004A02236800EEAA88F565CD034D0024A4BA
:10110000232A237A3F0014E800EE8D608D054F00FE
:101110008DF76E108ED54F0000EE8D708D154F003F
:101120008DF76E0C8ED54F0000EE8D608D054F0053
:1011300024903F0024968D708D153F0024A04F0011
:10114000249C9170249C00EEAA8EF565CD014D0083
:1011500024A423823F0014F000EE238AAA88F555C8
:1011600000EE238AAA8EF55500EE278227EC413443
:10117000249C8D008E1080248134AA72F51E657F18
:1011800080528540DDE8AA72F41ED01800EE2316C6
:1011900023BA00EE240E23BA00EEAA94F4654402AA
:1011A00013CE62002440247CAA94F45500EE720110
:1011B000420813DAAA94F45500EEAAC2D0144A04E5
:1011C00013EA4A0314006A0000EEAA9AF465AA948E
:1011D000F4554B006A054B0000EE25F86A0300EE5B
:1011E0004B006A014B0000EE25F06A0200EEAA9A5D
:1011F000F4654402142262002440247CAA9AF45527
:1012000000EE72014208142EAA9AF45500EEAAC20A
:10121000D0144B00143C25F86A0300EE6A0500EE7A
:1012200041181450410C146641241466630100EE09
:1012300027AC330000EE6D01FD1863FD440062FE33
:101240004401620200EE27BE330000EE6D01FD187E
:1012500063FD440062FE4401620200EE8D008E10C8
:1012600080248134AAC2DDE4D0144138640200EE47
:10127000640862FC00EE6400620400EE63FE00EEAF
:10128000630200EECD01FD184D0024904D0124961F
:10129000CD014D0024A04D01249C00EECD033D0066
:1012A00000EEAAC0F1656D3BAABAD0D58014400803
:1012B00024DC407024E2AAC0F15500EE6010610801
:1012C00000EE606861F800EE24F84F00159200EE21
:1012D00024F84F0015CE00EE8D608D054F008DF780
:1012E0006E088DE53F0000EE8D708D154F008DF777
:1012F0006E088DE500EE4A0215644A0115924A0413
:1013000015284A05153A1552AA94F46525764F001A
:10131000154625844F001546153A27202702270237
:10132000AA94F46513DA272027022702AA9AF46503
:10133000142EAA88F56525764F00153A25844F00AE
:10134000153A1592AA88F56525764F0015CE2584A5
:101350004F0015CE15928D608D054F008DF76E08EC
:101360008ED500EE8D708D154F008DF76E088ED5E1
:1013700000EEAA88F565971016628D708D153F00F6
:1013800015EC270CAA72F51ED0184A0315BA4A02AA
:1013900015C04A016A05264000EE6A04264800EEA0
:1013A0002640AA8EF565AA88F5556A0300EEAA8E36
:1013B000F565971016788D708D153F0015EC270C8C
:1013C000AA72F51ED0186A03264000EE66DD00EE14
:1013D0002600AA8EF55500EE2600AA88F55500EEE7
:1013E000261A7BFF249CCD013D0124903D002496CC
:1013F000AA72F41ED018854000EECD034D00163AB7
:101400004D0116344D02162E6078613400EE6040B6
:10141000612000EE6040610800EE6008611400EE9B
:101420002650AA94F45500EE2650AA9AF45500EEE0
:1014300071086D378D154F006137C401AAC2D014F1
:1014400000EE268E3F0016702496237A237A16A487
:101450002490237A237A1698268E3F0016862496A7
:101460002382238216A424902382238216986D035C
:10147000FD188D608D0500EEAA82F565249622CEBA
:1014800022CE00EEAA82F565249022CE22CE00EE76
:10149000270C270227166D0A229E79FF490016DACB
:1014A0004A017B014A037B014A027B026A024B002C
:1014B000121E6A024B016A01126A26E400E0272A22
:1014C000290C12126D0CFD186D18229E270C270C8A
:1014D000271627166D20229E271627166D20229E7E
:1014E00000EE6D02FD186D05229E00EE6D04FD18E4
:1014F0006D0A229E00EE6D08FD186D14229E00EE0E
:10150000AA5AF0657001F05500EEAA5AF065F03362
:10151000F2656E1B6D31F030DDEA7D0AF130DDEAF7
:101520007D0AF230DDEA00EE63006400657C663E11
:10153000AA5ED343D363D543D5637304740275FCA9
:1015400076FE6D04229E434000EE438000EE17526B
:101550006400650060706114AA62D018AA82F55513
:1015600000EE410017D0413417D86D0253D0179EBA
:10157000411417AC410817BE412017BE00EE4120B0
:1015800017AC411417BE412C17BE00EE6D108D072D
:101590004F0017E86D688D054F0017E800EE6D29C4
:1015A0008D074F0000EE6D508D074F0017E800EEDD
:1015B0006DFE93D024A000EE6D0253D000EE4800E3
:1015C00017E8380017AC00EE630000EE420000EEB2
:1015D0006D0452D018004068180A4028181C00EE0C
:1015E0004010180A4050181C00EE6D118D174F0066
:1015F00000EE6D218D174F00184800EE6D1C8D1503
:101600004F0018366D058D174F0000EE6D158D17C4
:101610004F00184800EE6D1D8D174F0000EE6D2D28
:101620008D174F00184800EE620000EE00E06D00DC
:101630006E3CAAACDDE46D08DDE4AAA86D1048009C
:1016400028A8380028B2AAA86E1C6D78DDE46D00C9
:10165000DDE46D386E10DDE46D40DDE46E28DDE420
:101660006D38DDE4AAA06D48DDE46E10DDE46D08A0
:101670006E1CDDE4AAA46D70DDE46E286D30DDE43F
:101680006E10DDE428D200EEDDE47D083D8018A870
:1016900000EE6D70DDE46D78DDE46D10AAB46E3B94
:1016A000DDE57D083D7018C0606861F8AAC0F1559D
:1016B00000EE490100EE6D016E3DAA5EDDE37D04A2
:1016C0003902DDE37D04660386954F00DDE300EE1D
:1016D000AAC66D246E18DDE06020F01E7D10DDE0EE
:1016E000F01E7D10DDE0F01E7D10DDE068006B0176
:1016F0006A0025F827702496AA82F5556D0A229E65
:10170000AA82F565294022D2AA82F555AA88F565F4
:1017100029402392AA88F5556D0AED9E191C00EE0A
:10172000CD0F4D0024A441026302413663FE00EE5A
:10173000284C2770AAC26E0C6D32DDE47D0CDDE40E
:101740007D0CDDE46E246D32DDE47D0CDDE47D0C8A
:10175000DDE46E186D0ADDE46E38DDE46D72DDE403
:10176000660067007701476A121E6D01FD186D0360
:10177000229EAA82F56524A062006D0AEDA1249C38
:101780006D03EDA124906D0CEDA12496278227EC2A
:101790008D008E1080248134AA62F51E657F8052F0
:1017A0008540DDE8AA62F41ED01841381A38AA82B2
:1017B000F5553F0029DC46091A4819846E3491E03A
:1017C00019F66E1491E01A046E0891E01A0C6E205E
:1017D00091E01A0C00EE6D7090D01A206D0890D038
:1017E0001A2000EE6D0890D01A2000EE6D3090D0D7
:1017F0001A207D0C90D01A207D0C90D01A2000EE7B
:101800007D027E04AAC2DDE4270227027601AA5ADD
:10181000F0657001F05500EE6D08FD186D14229E04
:1018200079FF490016DA121EAA5AF0657008F055C1
:1018300079012716270C2716121E0000000040E031
:101840004000666F4CFF6CDCEC7866F632FF363B8E
:10185000371E6E6F4CFF6CBE9E7C76F632FF367D77
:10186000793E0000000000000000000000000000C1
:101870000000000000000000000000000000000068
:10188000FFBAE880FF6D1B02FFEEBBB6FFFFFFFF54
:1018900000000000061C284CFE0066243C6E000080
:1018A000000060B0F06000C000C000C000C000C018
:1018B00000C000C300C700CC00CCC0CCC0CCC0CCA2
:1018C000C0CC7F873F030000000000000000000044
:1018D0000000F0C0F8C00CC00CC00CC00CC00CC0A4
:1018E0000CC0F87FF03F0000000000000000000086
:1018F0000000C3FCC7FCCC00CC00C7F0C3F8C00C90
:10190000C00CCFF8CFF000000000300030003000F5
:101910003000FC00FC0030003000300030003300AC
:1019200033001E000C004A6F75737420322E330A88
:101930004572696E205320436174746F0A6B657938
:10194000733A0A412073746172742C7265706C6111
:10195000792C75700A432072696768740A33206CA9
:101960006566740A00756E6520746F756368652E10
:101970002E2E0020100804010408200102030A048E
:1019800005060B0708090C0E000F0D121D4D494EE0
:1019900045532120312E3030204279204461766930
:1019A000642057494E54455200FF00E0600061003A
:1019B0006220A526D010F21E71103140122961005C
:1019C0007010308012296C01246FF30A3304124F17
:1019D000246F7CFF4C006C05246F3306125D246F6E
:1019E0007C014C066C01246F3305123F80C08CC40F
:1019F0008CC48CC48C048C046AA28AC500E0602A62
:101A0000611D6205A508D015F21E7008305A127BC0
:101A1000A953600061016200F055F11E720132A20B
:101A2000128D6300A953C1FF62A182153F01129973
:101A3000F11EF065300012996001F055730153C03A
:101A4000129900E060006100A487D010710E313857
:101A500012BFD0106100700E307E12BFA4A7D01844
:101A60007108314012D36D006E002455F20A320223
:101A700012F124557EFF4EFF6E082455320412FFEA
:101A800024557DFF4DFF6D1124553206130D24554D
:101A90007D014D126D0024553208131B24557E0123
:101AA0004E096E002455320C1335242D810062023C
:101AB00081224102133561048013F0552451244DD5
:101AC000320512E1242D830062028322430212E1D7
:101AD0008021F0552455242D830062018322430187
:101AE00013FB242D8300620483224304244D43000E
:101AF00024516B004D00137B4E00137B7DFF7EFF56
:101B0000242D7D017E014E0013857EFF242D7E0154
:101B10004D1113974E0013977D017EFF242D7DFFFD
:101B20007E014D0013A17DFF242D7D014D1113ABCE
:101B30007D01242D7DFF4D0013BD4E0813BD7DFF9B
:101B40007E01242D7D017EFF4E0813C77E01242DCA
:101B50007EFF4D1113D94E0813D97D017E01242D2E
:101B60007DFF7EFF4B0013EF7BFFA4CF80B080048E
:101B70008004800480B5F01E245724557AFF3A0073
:101B800012E12455142B6D006E00242D610180128A
:101B90003001141D242D6104801283004004244D63
:101BA00033042451A4BF24577D013D1213FF6D005F
:101BB0007E013E0913FF142BA95380E080048004AA
:101BC0008004800480E480E480D4F01EF06581000D
:101BD000640181428B1400EEA4B71457A4C71457B4
:101BE000A4AF80D081E080048004800480D581147B
:101BF0008114811481E5D01800EE6056612FA9266A
:101C000082C082248224822482C472F7F21ED019F8
:101C100000EEFFFCD5A8AB54D5A8AB54D5A8AB5467
:101C2000FFFCD5A8AB54D5A8AB54D5A8AB54000045
:101C300000008080808080808080FFFFFFFFFFFFAA
:101C4000FFFF0000183C3C18000000183C7E7E3C62
:101C5000180000542A542A542A00007666567676D4
:101C60004200665A7A665E4200467A7A467A4600B2
:101C70005A5A5A627A7A00425E467A7A4600625E20
:101C8000465A5A6600427A72666E6E00665A5A6604
:101C90005A6600E8A8E8888EEE8ACE8AEAEE88ECDA
:101CA00028EE1111151B1177527252577020202007
:101CB00020000000000000000000FE003E001E00AA
:101CC0001F0017001700130013001300110011006C
:101CD0001000100010001000100010001000100084
:101CE00010003800FE0000000000000000007E0030
:101CF0001800180018001800180018001800180024
:101D000000000000000000000000000000000000D3
:101D100000000000000000000000000000000000C3
:101D200000000000000000000000000000000000B3
:101D3000000000000000000000000F000F001E0067
:101D40001E001E803E803E804EC04EC04EE08EE0A3
:101D50008EE10EF10E710E7A0E3A0E3C0E1C0E1C28
:101D60000E081F087F0000000000000000600060F7
:101D7000007C3C66666666667E66606660663C0001
:101D8000000000000000000000001F001000100014
:101D900017001100110011001100110011001100B5
:101DA0001700100010001F000000000000000000DD
:101DB000000000000000000000CFF903E001C001B6
:101DC000C001C001C001C001C001C001C001C0010B
:101DD000C001C001C001C001C001C001C001C001FB
:101DE000C003E0CFF9000000000000000000000088
:101DF00000007E006B006B006B006B006B006300EB
:101E0000000000000000000000FFFF00000000C70D
:101E1000F702120202024203C1024102011210F74C
:101E2000F000000000FFFF000000000000000000C4
:101E3000000000000000000000F00778013C003CBA
:101E4000003E002F002780278023C021E020F020C3
:101E5000F02078203C201E201E200F200720032089
:101E6000037001FC000000000000001800180000D2
:101E700000787C186618661866186618667E660014
:101E8000000000000000000000FFFF0000000077DD
:101E9000F722112201224143C142414201821187AE
:101EA000F700000000FFFF0000000000000000003D
:101EB000000000000000000000F3FFC0F880708008
:101EC00070807080708070807080708070807F8083
:101ED0007080708070807080708070807080708082
:101EE0007080F883FF000000000000000000600028
:101EF000603C7C666666667E66606660663C660020
:101F0000000000000000000000FFFF00000000C013
:101F1000000000000000800000000000001000F041
:101F20008000000000FFFF00000000000000000033
:101F3000000000000000000000FC010C07040E047B
:101F40000E001E001E001E100F100F3007F0033091
:101F50000010001000000000000010001001180325
:101F60001C0E1EFE13000000000000000000000018
:101F700000667C666666666666666666663E6600DF
:101F8000000000000000000000FFFF000000000053
:101F90000100020002000200020002000200020032
:101FA0000100000000FFFF00000000000000000032
:101FB000000000000000000000F9000F0003000115
:101FC000000100000000000000C000F000F800FE6A
:101FD000007F001F000F8007800780078007000731
:101FE000000E00F80000000000000000003000308B
:101FF000007E3C30663066307E306030601E3C00D3
:10200000000000000000000000F80008000800C800
:10201000002800280028002800280028002800C8E0
:102020000008000800F800000000000000000000A8
:102030000000000000000002000700070007000782
:102040000007000700070007000700020002000267
:102050000002000200000000000000000002000773
:102060000007000200000000000000000000000067
:102070000066006E0070006000600060006000009C
:102080000000000000000000000000000000000050
:102090000000000000000000000000000000000040
:1020A0000000000000000000000000000000000030
:1020B0000020E0202020202020F870880808102030
:1020C0004080F87088080830080888701030305058
:1020D0005090F81038F8808080F0080888704D69BA
:1020E0006E65732068756E7465720A446176696402
:1020F0002057696E7465720A6B6579733A0A3220EB
:1021000075700A3820646F776E0A34206C656674C7
:102110000A362072696768740A352073656C6563D6
:10212000740A0000FF221B6E05222FECA11237ED6E
:10213000A1127F4A321204EBA1223F12048000E078
:10214000A488FE65A4644A0014582269F629D9952A
:1021500000EEF1073100122F00EE4A0112046E0862
:102160001216F7156001F018AFC8FA1EF565A2F354
:10217000F1654E05125F81354F0070FF7AFF8530A3
:102180001265814480F47A01F155226DA44CFA3332
:10219000A44CF265F129DD95F229D695A488FA556B
:1021A00000EE221B6D006C006202F218614022D525
:1021B0008760618022D584E081E0816422A74C00A1
:1021C000132D431812BB230F12996E0023014E01E9
:1021D0002301230183E08323830E830E00EE22A7D5
:1021E000431812CF22E57E04230F7EFF3E0012C566
:1021F0001299A485F75512A322E57E058E0E8E0E48
:1022000086E08617860600EE6E0023012301230177
:10221000230100EE6D08A4B4FC1EF0658B009C50F9
:102220006CFF7C014D0012F17DFF8E0E8B0E8EF146
:1022300000EE431013193314131B78017901A49491
:10224000F31ED6747604561000EE8645770400EE31
:10225000A485F7656A00222F6B01A493F565989019
:102260001417E1A1143CE0A11440E3A11444E4A13B
:102270001448E5A11429E29E13354C0013356B0078
:102280007CFFA4ACD6747DFF4DFF6D38A44CFD1EC1
:10229000F0658A00F41581A2A493F11EF5654B0048
:1022A00023F380608170804481544B001393A43ADF
:1022B00024074E011333A21A24074E0013C38200D1
:1022C0008310824483544B0013E5A21A240F4E015D
:1022D00013337A80A4A4240788E5240F88E4A4B0EB
:1022E000D014FB18D2344B0013EB3C397C0180A096
:1022F000A44CFD1E7D014D396D00F055A4ACD67483
:1023000086448754D67413338A0E4F0113B1A485C3
:10231000F765A4AC13DDA485F7558644875486443D
:10232000875485B784B7F55500EED0128EF0D012E1
:1023300000EED2328EF0D23200EEF3186032F01599
:10234000222F221B4A321202223F1281F118601EF4
:10235000F015222FE59E13353A00127F1200206AF5
:102360000213716A0413716A0113716A0313710015
:10237000C1D561F11E75083558144E652883153393
:10238000FE144C6A011227FE7999E7C7DB0ECDF3E4
:10239000366CDB1CCDE3366CDB38CDB33667DB70D7
:1023A000CD9B37C0DBE07981E6079EFE0180060009
:1023B000000F0702020009070A050800FC000400DC
:1023C000000000F0F0F0F000402000F0D0B0F0602D
:1023D000F0F060F09090F06E0088C2901853418445
:1023E0002A1560E8528C1551144089808A4443654F
:1023F000285836D121519143640180C5402260594B
:102400008C03B030155D8128505D81AAA0BB0048C7
:10241000282EC08852282D288250A5288200C0501E
:102420008C005C824520AC06460A95A2C1528560AC
:10243000CB4A2115288AB300294282BB600A1405C1
:1024400098023C9E83C520E84C11909814010A50D4
:1024500026052DAD0A213028580D109814B4694B6B
:10246000150A301606A4560680200B036034058139
:10247000A16B6848C0D004016071708C824461080F
:10248000111822354182301A458540598014A155D2
:1024900066000A5A28CC00B42922454282C15294CF
:1024A000182AA28C1D0060F120678902A3B022C8FF
:1024B000AEC0A80BB406D176044A2ECA8948894614
:1024C000820215288094282020A02045407881C4CD
:1024D000422602A8922968A01604A1415015488DF1
:1024E00055282A6C894A536C8802BB644B4476C8D1
:1024F00082A4445500BB0558421170402814A2091B
:10250000528850410A5040154A882A8B234A50501D
:1025100014028D40450280529489045418130460BB
:102520004C11989823313046626091409C8344E07E
:10253000C86D98144436CC09816330241436CC0914
:10254000450DB301548A4052DA2C062214A44C06DD
:1025500094040590A1402852265A522301604C163B
:1025600028BE1508DC8AB034052D02D0A536CA165F
:10257000D40283B6528096968ED954042803B65856
:102580000A529476CA011215DB2A2085283B65057C
:1025900012D29576536442C09CA6C896D2DA3A24E9
:1025A000303472009151C8030772011B00AE832AB8
:1025B000C195441822A0AD181A812050604A14B564
:1025C000458120D580B0244A5A22B0140A20948A2A
:1025D000802168811114B055C00A84576364558105
:1025E000BB673086616111308C8E0C29112250142A
:1025F00044294A5411102C94051511A52ABB6510C5
:10260000294176CA2B6D28BB6580A28BB68900A2B2
:10261000ED90088C0558230160D1308E022B0550B7
:10262000142240AC0504015428D10436C289592A29
:1026300088E70A08D04031852805111CE140505A2E
:10264000531852880835CE152850285DB08D224089
:102650000A088201161540BD81C4E031380B0160C3
:102660002964A3016D1022A22B312808816625114F
:1026700011598A02A80AA2A3550680850444296D2F
:1026800004AA220528ADA2244603404602A8A808B1
:10269000C0D80A03038A030A5500BC022905404139
:1026A00082A140606A8D0154010A0B404010490A22
:1026B0002540106054551455AB0144ACC2880885C0
:1026C000DBFC54888330A02080A91304B410606818
:1026D0003016071201844440A988C1501608802092
:1026E000AA0941541042D281505641A00A082852EA
:1026F0008A250514C883568391502ECB90401DF631
:10270000C825A330A084541060CAA09B022D027675
:10271000040604ED02604EC082A8113041418420BD
:10272000820A084445055150A111105128504A0A07
:102730004942808112148980200C1A248E80C5E0C1
:102740008860406088E0090402222EC8AA0A09B203
:10275000B015528ED80A214500D85051488D5A9450
:10276000404414401A5A220851104AA20C2D042247
:10277000E082AC1554BE0894250245582444A0308C
:102780004405005580A510500602944222301528B9
:102790005004602A528A88C05442822301511A8010
:1027A0008C054540448985055119814028050367FA
:1027B000446854A04C0B034149818F80BE008B407C
:1027C00062304550602814190412275541544014B2
:1027D00041A6CA250A0820E512830169B2882A2C7D
:1027E00005CA2A0820D3651004AAA0E51A050A0F15
:1027F00036500A252883A2255401E6C80805A2B34D
:1028000002030252240450AA8AC0981B02606AA0E4
:1028100028AA2080A322802025B4A16A0208A5044A
:102820000411429140B69504405026044404763287
:1028300020222ED92225076CC054088C0A22BE897A
:102840004055401008984480A821410142850A253E
:10285000282B4A02489401429171510198D2A22832
:1028600024C482220599288894660364110A555A63
:10287000AA544A02A50282A580D2850054891488F0
:102880008B05606C7C9E0089C210415603112B445D
:102890001401D841040401D84AD10AAA38180B41BE
:1028A000047602A094011DA441A341047612B01A3B
:1028B000823B0836B41057612A085682EC20820207
:1028C00002B855088808AA0AA04440BE8D8033305B
:1028D000655199ADC8245E880AC0A8580D151540E9
:1028E00042882C090141150A82282A2A51AA802AE5
:1028F00044428820A91100A2882289410A14A022FA
:10290000142B6D0404410B0288892282083018D0F0
:10291000BE5585A11A04103666241044889B64169F
:10292000A01322080B62411128C062520AD128115B
:102930002050A36D581AC09006B554551944011182
:1029400000B0140444051602AA44AC48A2C1100405
:1029500008B804447A227044108880A083B6544298
:10296000A0ED81128DA6D8110A83B63220258B588E
:102970001D28A821688091205B64604C096051404B
:102980008E23A0ED804010156610AA23459890A0D4
:10299000802CC482088458A14A083016AD16A8A01D
:1029A0005004A008828A882D11296C0685044A01EA
:1029B00056912226120B088900AC82C4609110182F
:1029C0001A9428454A14A2E581DA0BB2844857616B
:1029D000510401DB0A5010076C2C83451576D11089
:1029E000A5A0BB20285285DB200968510C8020520D
:1029F00082A80448061111008E88C29016129422F3
:102A0000B0151181C5040AD6404050605440A282DE
:102A1000A4545414DBCC222A8A7DF6FB88A962C216
:102A2000D1428142805050404040418F809E81C5BC
:102A3000E0880C052220C06944408895445128A0B4
:102A40002294112849688B6D1145404500451015A9
:102A5000223514603419811054528CC0A940A2034D
:102A6000B5C2829441660224044B6CA01110088800
:102A7000BD05585211580A8282030142A59280AACC
:102A80000D0A094A82A8551A580A8208816D05283C
:102A9000050AA444A51A82080A0A82B440106608EE
:102AA0000A00AB312AC09981560AED9610ED984C78
:102AB00044A8812AC06220802C06A0294145464AAC
:102AC000512822A8A0541981A51066040A83300554
:102AD000A28ED84A0244A94181202B0268AC0D067F
:102AE0000AAAA78D40541502814888A5A2814401F5
:102AF0004B6891101128A8208514A9500503648AF9
:102B00006C51916614A8ACC08515765008C8A922EE
:102B1000B0166001401CE428A0B302248A24C082BD
:102B20000AC05A2D15150A008D0A52A0888528A2C0
:102B300020A8282200A28A21442820AD280A80212A
:102B400011812A80BE8C113010045660502D4090A7
:102B50002615011501260545150426044A580A22A2
:102B6000A8852A830288882A88A28234051005282D
:102B70005045101512940110110A28A24444B603BE
:102B80006830151454A0C09004401814488900BE41
:102B90008444422211201040550A528825014514D0
:102BA0001440A580D0A22A5051602A0911223688EB
:102BB000B62248B0144A0AD54A0A25040541504BAA
:102BC0004A205A200C0501410089EC65581B32B09F
:102BD0004665609170AE8BC1198808B4C4020A02C0
:102BE000ECA9402C0576C52880A02ED9B11004157B
:102BF00040101A0D1042D2942A8208501AD16882CD
:102C0000A28802820214A29120100A14181A808845
:102C10000C1223244610A866812A91324460341194
:102C200002A9516BB64412ED810471914404688D80
:102C30000A008844C550BE84C488CCC0A80B015982
:102C40008142D50A48B302C0AD2A13028514B444A8
:102C5000DB28514A084C0A91115174440A1450302F
:102C6000295504888AA050181A0851A52AA0825B09
:102C700052808AA0802168C0E2402B088880BC0076
:102C80008C40583280208DA50401A3505244051475
:102C90004A22808146822008094044014A5014405B
:102CA000104142880200A5A8912B4040466042286E
:102CB00039DB0B04660018233000C122A0AE83C4A8
:102CC000612A02C1D602C1942D060AA5A1460A9422
:102CD00002882A8081691208A0A00BA116D91724A6
:102CE0004C5015C913C34AACCE2011B0A30950589B
:102CF00052A88D80C5206AB02890200A52812208EF
:102D0000A2D694B1126242D150262410144989A14E
:102D10004146CC45A94501515A1488850A1428809A
:102D2000850A1428811202250488806E8244E0916D
:102D30001041560280814010551B45141160488295
:102D40008AA0A95A14282ED8011410176C80482282
:102D5000A2BB64150A1422A28080C1A2A0AE2230B8
:102D6000A40614891382302B24480128B45404018A
:102D7000154A01440122220D2240AA2D81285428FF
:102D8000228A2C151DB244C150DB03015511DB23EF
:102D900006454460CC0D8345409B888AB0276C88EB
:102DA0002A80ED950A080CC0A50AA8B30281411536
:102DB000DB0A52888A008504414454889446850081
:102DC00050A48500A0A0252D28AA1120541140153B
:102DD000401500B98B0030455122420A894A50A261
:102DE000C0DA02AD0B505410512A80B5029220086F
:102DF000528A80220504011404405088880C150171
:102E000098D50198D80C546D82AAC0A2A0A00A1629
:102E10000548900A280BB651B4A5AD5DB288048070
:102E200081B650A8ADA06D94A1685166055B038979
:102E300082113822A8B808A803F77EE803BEFBE495
:102E400001FBEFBA00EFBEF9007EFBEE802A02B074
:102E50002404022444E0EA5294A515294A514694D8
:102E6000A52A08164A0208444105501540AB81AA1C
:102E7000C210583A02C192D1606AD0A280AA014021
:102E80004541222088023305111029302221447740
:102E9000D911505515101549282D580AA580B03460
:102EA0001406071500BE8146204BB00203015DB930
:102EB0004028802EDF223450076F9112822AED9035
:102EC000401110518322494A2A088A250280880825
:102ED0002B6808888802050112220952230241A0AA
:102EE000202020820A80B0141060480282AC0A249C
:102EF000282321382E242837354C3B333C433E339E
:102F00003139474B37474645442C393F35434131EA
:102F10002C364B46421F483F3539323C3A342E3826
:102F2000384BFF536F6B6F62616E2062792048618E
:102F3000700A6B6579733A0A352075700A38206417
:102F40006F776E0A37206C6566740A39207269677C
:102F500068740A412073656C6563740A0012245317
:102F6000706163654669676874323039312062790F
:102F700020536C616D6D65722F416E61726368796B
:102F80002100FF00E02786222E1226AC406000F0D0
:102F9000556800A86FF81EF765AC57F81EF755780E
:102FA0000838C01236AC40600061036200F255225E
:102FB0009EAC3FF0654000126070FFF055283E2641
:102FC0001E2566247E2350AC48F4653000129431EF
:102FD000001294320012943300129434001294229E
:102FE000EAAC40F0657020F05540C000EE229E1221
:102FF00054AC41F0653000125400EE26EAAC436058
:103000003861006200F255AC466000610062016305
:10301000016401650166016705680069006A006B6B
:10302000006C05FC55AC3F60FFF05500E026A6267D
:103030008C26BE266E265826C665001518730133E9
:1030400005137E6300137EAC3FF06580568056808A
:1030500056F055277826A6268C26BE266E6020615F
:1030600019A9AF62086300D0187008F21E7301330B
:1030700008130A266428362836AC3FF06540000065
:10308000EE2664266EAC3FF06570FFF055AC42F062
:10309000657001F0552664266E6001F018283EAC7C
:1030A0003FF065300013242836283600EEAC50F28D
:1030B00065300013A472FFF255320000EEAC40F010
:1030C0006562C0820582568256825682568256803A
:1030D00020AC52F055C303C4018344AC48F31EF046
:1030E00065400012E0A86AF31EF0658300AC46F16B
:1030F00065803470077119AC50F2556002F01814F5
:103100007424747104AC50F15524744140144E4140
:103110003F144E413E144E413D144E412B140E417E
:103120002A140E4129140E4128140E4127140E4F63
:103130000000EE82008310AC44F165400013FE50A5
:103140002013FEAC42F0657001F0556001F01825C7
:10315000E6AC4460006100F155144E6A00245E2420
:103160005A7A013A051400245E144E8200830082CC
:103170005682568256AC40F065AC57F01EF21EF0F7
:1031800065400000EEF06570FF82006000F055427F
:103190000014448020F0556210F21E6000F05514B7
:1031A0004E60F88032612CAC3AD0142474AC50607C
:1031B000006100F15500EE6901146269FF14622696
:1031C0008C6001F018AC41F0658094F055268C18A5
:1031D0003AAC50F165AAF6D01300EEAC4DF0657034
:1031E000FFF055300000EE6005F05565002518240D
:1031F0009865011518AC4EF16540001504400114A6
:10320000CC400214F0600AF018AC47F065300C7046
:1032100001F0557101AC4F8010F055310400EEAC57
:103220004E60006100F15500EE600AF018AC47F006
:1032300065300C7001F0557101AC4F8010F05531C4
:103240000400EEAC4E60026100F15500EEAC46F0B9
:103250006570FCF055300000EEAC4E6003F0550098
:10326000EEAC46F0657004F055302800EEAC4E60D0
:1032700001F05500EEAC46F16587108600770968CD
:1032800000AC40F0658900AC48F81EF065AA0FF963
:103290001E3000D6703F002546761278013805159D
:1032A0002A00EE450000EED670AC48F81E6000F033
:1032B00055266EAC42F0657002F055266E25E6ACE0
:1032C000441616AC44F165400000EE412C157E41D9
:1032D0002D157E412E157E312F00EE820083008257
:1032E0005682568256AC40F065AC57F01EF21EF086
:1032F00065400000EEF06570FF82006000F055420E
:103300000015B48020F0556210F21E6000F05515D3
:10331000BE60F88032612CAC3AD01425E6AC44167D
:1033200016600AE09E00EEAC44F065300000EEACA2
:1033300043F0657007AC44612EF15525E66001F05D
:103340001800EEAC44F165AAF63000D01300EE256B
:10335000E6AC44F16571FE4108161641091616F1F6
:103360005525E630004F0000EE6500251865012563
:103370001800EE60006100F15500EE25C425F260F2
:1033800003E0A11644600CE0A1163000EEAC43F05F
:1033900065407000EE26587001AC43F05526580089
:1033A000EEAC43F065400000EE265870FFAC43F0F1
:1033B00055265800EEAC43F0656131AACFD010001D
:1033C000EEAC3FF065633964221676AC42F065637B
:1033D000226403AC53F033F265F0292686F12926E6
:1033E00086F229D345730500EEAC41F0654000003C
:1033F000EE614D6201AAEFD127710870FF3000160F
:103400009A00EE60656100AB1962086300D0187025
:1034100008F21E7301330416B000EE60006100AACA
:10342000F916AC6100622C6300AC40F0658400AC1E
:1034300067F41EF31EF065AC3A3000D124710873B6
:1034400001331016D200EE275C2714272C26F6270E
:103450006A00EE270E2836270E283A270E283A272C
:103460000E2836270E2836270E18366003F018006F
:10347000EE6020610CABF962086300D0187008F2AE
:103480001E73013308171E00EE60306120A9EF6241
:10349000086300D0187008F21E730133041736ACAD
:1034A00040F065805680568056805680567001F0F8
:1034B00030603B6129D01A00EE6100283E00FC71AB
:1034C000013120175E00EE6100283E00FB710131E2
:1034D00020176C00EE6100283E00C4710131101706
:1034E0007A00EEAC3E6064F05527D026A6268C26E6
:1034F000BE266E27E8283E280027A6600AE09E1711
:103500009800EEAC3EF06570FFF055300000EE60C4
:1035100064F05527D0AB396010611862206300D089
:10352000107010F21E7301330617C200EEA92F604F
:1035300020611862206300D0107010F21E730133F6
:103540000417DA00EEAC566000F0558200640028E3
:1035500028720180207401341017F200EEAC56F08E
:1035600065820084002828A84A825EF21EC07FC1BE
:103570003FF155AC39D011630F740184328040ACF7
:1035800056F05500EEA84A805EF01EF165AC39D0C9
:103590001100EE600C1840600618406001F015F054
:1035A000073000184200EE0A115B225B297538547F
:1035B000110C09341378342604061A0C22200A0050
:1035C0001606053F07001E001224364800000000C2
:1035D00000000000000000000000000000000000EB
:1035E00000000000000000000000000000000000DB
:1035F00000000101010100000000000000000000C7
:1036000000000101010100000000000000000002B4
:1036100002020000000001010100000000000001A2
:10362000010100000000010101000000000505008B
:103630000000050000050000000505000001010074
:103640000000010000010000000101000A0A000062
:103650000A0A000000000A0A00000A0A010100002C
:103660000101000000000101000001011414141404
:103670001414141414141414141414140101010156
:103680000101010101010101010101013C007C0076
:10369000E000C000CC71CCFBCDDBCD9BCD9BFDFB16
:1036A0007CFB000000000000FFFFFFFF00000000A7
:1036B00000000000F0E0F9F07D986DF86D806DF885
:1036C0006CF8000000000000FFFFFFFF38007C00E6
:1036D000EC00CC00CD99CD9BCD9BCD9BCD9BFCF33D
:1036E0007861000000000000FFFFFFFF00070007F7
:1036F00000060006C1CCE3CC3708F6080600F61831
:10370000F618000000000000FFFFFFFFFDFD113173
:1037100031313131A1B3BFBFB3B3B3B31C3C70601F
:1037200078607C3C0E1F1B191F191F1F0E1FBBB397
:1037300033B3BF1E66767E6E66666666CCCCCDCD34
:10374000CCEC7D3D70F383E0F033F3E0C0C1C3C344
:10375000C3E37B39ECEC8C0CCC0FE7E3C7CFDCD8B0
:10376000DED89F0F6060606060703C1C000097D2E4
:10377000038001000FE03FF85554ABBAFF6EBABAB0
:1037800055543FF84FE400008002000003C006607B
:1037900004A003C004200B3014581428105812A899
:1037A0000D5016A823C47FFE400200004AAA1550FF
:1037B0004AAAD553E4277FFE399C0C30066007E007
:1037C00033CC2BD407E003C00180000003C00560A8
:1037D00006A003C01BD82D745EBAA565C6A3C7E3B7
:1037E000CDB3DA5B542A18181818300C300C481274
:1037F000A42584214C32324C02401FF820AC2854BE
:1038000020AC1FF87FFE9249924992493FFC40024A
:103810005AFA500A43EA524A47CA500A5FFA40022B
:103820003FFC0FF0381C5436AC2BF81F0100010090
:1038300001000100010003800380038007C0C6C6A9
:103840007D7C3FF87FFCC38601000000101010282B
:103850007CD6FE8080803879C3F37B1BFBF1E3E7E5
:103860008E0C0C0CEFE78EDFDBD9DFDFDB990E1E51
:10387000B8B0BC30BE9EC3C3C3C3C3E37B3B666664
:103880006666667E3C183879E3C3F1C0FB7BE0E0F6
:1038900000C0E060E0C03C007C00E000C000F1E05F
:1038A00079F11DBB0D9B0D9BFDFBF9F101800180A2
:1038B0000180FC3FFFFF0000000000000000E1CE9F
:1038C000F3DFB719361F3618F7DFF3CF000000001B
:1038D0000000FFFFFFFF0F001F00380030003EC751
:1038E0003ECFB01DB0D930D9B0DFB0CF0001000F4E
:1038F000000FFFE0FFFF30603060306030603C78E8
:10390000BE78B760B360B370B33CB31C8000800076
:1039100000007FFFFFFF3C3C7E7EE6E6C6C60EC68B
:103920001CC638C670C6E0C6FEFEFE7C0000000065
:103930000000FFFFFFFF3CC77EC7E6C6C6C6C6CC79
:10394000FECC7EC806C806C0FED8FCD80000000029
:103950000000FFFFFFFF3C7CE1C1CDCDFD7C77F790
:10396000C081E181F1F1E0E0808080808080F0F82A
:10397000DDCDFDF9DDCC71F3C786E786F6F6C7EF3E
:103980006D6CEC6C6F6F1999D9DFCFC6C6869898AD
:1039900098981800181880FFAA55FF000000000032
:1039A0000000000000000000000000000000000017
:1039B0000000000000000000000000000000000007
:1039C00000000000000000000000000000000000F7
:1039D00000000000000000000000000000000000E7
:1039E00000000000000000000000000000000000D7
:1039F00000000000000000000000000000000000C7
:103A000000000000000000000000000000000000B6
:103A100000000000000000000000000000000000A6
:103A20000000000000000000000000000000000096
:103A30000000000000000000000000000000000086
:103A40000000000000000000000000000000000076
:103A50000000000000000000000000000000000066
:103A60000000000000000000000000000000000056
:103A700000000000FF737061636566696768742009
:103A8000323039310A4361727374656E20536F6549
:103A900072656E73656E0A0A6B6579733A0A412026
:103AA00073746172742C20666972650A33206C65C8
:103AB00066740A432072696768740A00FFFFFFFF9B
:103AC000FFFFFFFFFFFFFFFFFFFFFFFFFFFFFFFF06
:103AD000FFFFFFFFFFFFFFFFFFFFFFFFFFFFFFFFF6
:103AE000FFFFFFFFFFFFFFFFFFFFFFFFFFFFFFFFE6
:103AF000FFFFFFFFFFFFFFFFFFFFFFFFFFFFFFFFD6
:103B0000FFFFFFFFFFFFFFFFFFFFFFFFFFFFFFFFC5
:103B1000FFFFFFFFFFFFFFFFFFFFFFFFFFFFFFFFB5
:103B2000FFFFFFFFFFFFFFFFFFFFFFFFFFFFFFFFA5
:103B3000FFFFFFFFFFFFFFFFFFFFFFFFFFFFFFFF95
:103B4000FFFFFFFFFFFFFFFFFFFFFFFFFFFFFFFF85
:103B5000FFFFFFFFFFFFFFFFFFFFFFFFFFFFFFFF75
:103B6000FFFFFFFFFFFFFFFFFFFFFFFFFFFFFFFF65
:103B7000FFFFFFFFFFFFFFFFFFFFFFFFFFFFFFFF55
:103B8000FFFFFFFFFFFFFFFFFFFFFFFFFFFFC1CFB3
:103B90009981FFFFFFFFFFFFFFFFFFFFFFFF80CFC8
:103BA0009980FFFFFFFFFFFFFFFFFFFFFFFF1C4F9D
:103BB000999C7FFFFFFFFFFFFFFFFFFFFFFF3ECF4F
:103BC000999E7FFFFFFFFFFBFE7FFFFFFFFE7FCF82
:103BD000999E787C3C87FFFBFDBFFFFFFFFE7FCFF8
:103BE000999E70381C03FFF3FBDFFFFFFFFE7FC0D1
:103BF000199C63118C73EFABFBDFFFFFFFFE7FC0EF
:103C00001980E793CCF3F77BFBDFFFFFFFFE7FCF4D
:103C10009981E7F3CCF3F77BFBDFFFFFFFFE7ECF5D
:103C2000999FE7F3CCF3F77BFBDFFFFFFFFF3C4FF0
:103C3000999FE793CCF3FAFBFBDFFFFFFFFF1CCF5D
:103C4000999FE3118CF3FAFBFBDFFFFFFFFF80CFAF
:103C5000999FF0381CF3FAFBFDBFFFFFFFFFC1CFB8
:103C6000999FF87C3CF3FDFBDE7FFFFFFFFFFFFF2A
:103C7000FFFFFFFFFFFFFFFFFFFFFFFFFFFFFFFF54
:103C8000FFFFFFFFFFFFFFFFFFFFFFFFFFFFFFFF44
:103C9000FFFFFFFFFFFFFFFFFFFFFFFFFFFFFFFF34
:103CA000FFFFFFFFFFFFFFFFFFFFFFFFFFFFFFFF24
:103CB000FFFFFFFFFFFFFFFFFFFFFFFFFFFFFFFF14
:103CC000FFFFFFFFFFFFFFFFFFFFFFFFFFFFFFFF04
:103CD000FFFFFFFFFFFFFFFFFFFFFFFFFFFFFFFFF4
:103CE000FFFFFFFFFFFFFFFFFFFFFFFFFFFF8FFF54
:103CF000FFF7F7DF3EFBF7FBFC3FFFFFFFFF77FF20
:103D0000FFFFF7DEDD73E7FBFDDFFFFFFFFEF634AD
:103D1000DD56548EEBABE7FB1DEC7FFFFFFEFDD3C2
:103D20005D35935FEBBBD7FAEDEBBFFFFFFEFDD731
:103D30006B75D75FDBBBD7FBEDEBBFFFFFFEFDD79E
:103D40006B75D75FBBBBB7FB0DE83FFFFFFEF5D739
:103D50006B75D75F7BBB83DAEDEBFFFFFFFF75D39E
:103D60007775975EFD7BF7DAEDDBBFFFFFFF8E34E3
:103D7000F776574E0EFBF7E70C3C7FFFFFFFFFF790
:103D8000F7FFDFFFFFFFFFFFFFFFFFFFFFFFFFF773
:103D9000F7FDDFFFFFFFFFFFFFFFFFFFFFFFFFF765
:103DA000CFFE3FFFFFFFFFFFFFFFFFFFFFFFFFFF14
:103DB000FFFFFFFFFFFFFFFFFFFFFFFFFFFFFFFF13
:103DC000FFFFFFFFFFFFFFFFFFFFFFFFFFFFFFFF03
:103DD000FFFFFFFFFFFFFFFFFFFFFFFFFFFFFFFFF3
:103DE000FFFFFFFFFFFFFFFFFFFFFFFFFFFFFFFFE3
:103DF000FFFFFFFFFFFFFFFFFFFFFFFFFFFFFFFFD3
:103E0000FFFFFFFFFFFFFFFFFFFFFFFFFFFFFFFFC2
:103E1000FFFFFFFFFFFFFFFFFFFFFFFFFFFFFFFFB2
:103E2000FFFFFFFFFFFFFFFFFFFFFFFFFFFFFFFFA2
:103E3000FFFFFFFFFFFFFFFFFFFFFFFFFFFFFFFF92
:103E4000FFFFFFFFFFFFFFFFFFFFFFFFFFFFFFFF82
:103E5000FFFFFFFFFFFFFFFFFFFFFFFFFFFFFFFF72
:103E6000FFFFFFFFFFFFFFFFFFFFFFFFFFFFFFFF62
:103E7000FFFFFFFFFFFFFFFFFFFFFFFFFFFFFFFF52
:103E8000FFFFFFFFFFFFFFFFFFFFFFFFFFFFFFFF42
:103E9000FFFFFFFFFFFFFFFFFFFFFFFFFFFFFFFF32
:103EA000FFFFFFFFFFFFFFFFFFFFFFFFFFFFFFFF22
:103EB000FFFFFFFFFFFFFFFFFFFFFFFF12234D612B
:103EC000676963205371756172652076312E3020E9
:103ED00062792044617669642057494E5445520006
:103EE000FE00E0A47D60006100620167006800F0F0
:103EF00055F21E710131401233A3FF610660016269
:103F00000B6307D10BF21E700DD107F31E70F37116
:103F100008313E1247600D611A62056E03A3D0D0CE
:103F200015F21E700630311263235FF20A3204125A
:103F30007F4E03128D235F7EFF235F3206128D4E6C
:103F400008128D235F7E01235F3205126F00FF0090
:103F5000E0610088E4710151E012978AE08AA48A46
:103F6000A48AA460808A078A068BE08BB48BB48B0A
:103F7000B460408B078B0680A081B062006300A311
:103F8000F8D0177008720152E012C580A071086263
:103F900000730153E012C56C006D002365F00A3018
:103FA0000212EF23653D007DFF2365300412FB23E1
:103FB000653C007CFF23653006130923657C019C6A
:103FC000E07CFF23653008131723657D019DE07DAC
:103FD000FF2365300512E123A3237F4D0013297DC4
:103FE000FF237F7D014C0013337CFF237F7C018006
:103FF000C0700190E013417C01237F7CFF80D07072
:104000000190E0134F7D01237F7DFF23A357801292
:10401000E123656020610023A3135BFE29D0150016
:10402000EEA3F282C083D082248224822482A483DD
:10403000348334833483B4D23600EE81C082D0829C
:1040400024822482248124A47DF11EF065690180EC
:1040500093300177FF30007701F055A3ED136763CC
:1040600018A3B16108D1306167D13000EE0420029D
:10407000408241400223C4042008101008D24B1291
:1040800048099005A003C003C003C0018080808060
:10409000F8F880E080F88888885020F880E080F880
:1040A00080808080F8002000200000383838007CB4
:1040B0004444447CFE8282828282FEC1E3F7DDC9F1
:1040C000C1C1C1C1C1C1FE00C0FE0202FE8F9FB8C6
:1040D000B0B0BFBFB0B0B0B07F01616165627D8339
:1040E000C7EE6C6CECEC6C6E6763300030303030D7
:1040F0003FF3FB03030373FB1B3BF3E39F80989F9A
:104100009898981F3F706060606060703F1FCF405C
:104110004CCF4C4C4C80C000000000000000FFFF62
:10412000E72026E786462700000000000000000088
:10413000F0E0F00000800000F07371756172650AB4
:1041400044617669642057696E7465720A6B65799B
:10415000733A0A322075700A3820646F776E0A3419
:10416000206C6566740A362072696768740A3520A7
:10417000696E76657274207371756172650A0000EC
:10418000000000000000002020202020002000501F
:10419000505000000000005050F850F850500020DF
:1041A00078A07028F02000C0C81020409818006047
:1041B00090A040A89068006020400000000000101F
:1041C00020404040201000402010101020400000EF
:1041D00020A870A8200000002020F8202000000067
:1041E00000000060204000000000F000000000001F
:1041F0000000000060600000081020408000007097
:104200008898A8C8887000206020202020F80070BE
:104210008810204080F800F00808F00808F000102E
:10422000305090F8101000F88080F00808F000304E
:104230004080F088887000F80810204040400070EE
:1042400088887088887000708888700808700000FE
:10425000606000606000000060600060204000104E
:10426000204080402010000000F800F800000040CE
:1042700020100810204000708808102000200070D6
:10428000880868A8A87000708888F888888800F076
:104290008888F08888F0007880808080807800F0BE
:1042A0008888888888F000F88080F88080F800F896
:1042B0008080F880808000788080B0888870008856
:1042C0008888F88888880070202020202070007856
:1042D000080808089060008890A0C0A0908800801E
:1042E0008080808080F80088D8A8888888880088A6
:1042F00088C8A8988888007088888888887000F0A6
:104300008888F08080800070888888A8987800F07D
:104310008888F0A0908800788080700808F000F805
:1043200020202020202000888888888888700088A5
:1043300088888888502000888888A8A8D88800881D
:10434000885020508888008888885020202000F8D5
:104350001020408080F800604040404040600000F5
:1043600080402010080000180808080808180020DD
:1043700050880000000000000000000000F800402D
:10438000201000000000000000700878887800808D
:104390008080B0C888F000000070808088700008BD
:1043A0000808689888780000007088F880700030ED
:1043B0004840E040404000000078888878087080DD
:1043C00080B0C888888800002000202020200010AD
:1043D00000301010906000808090A0C0A09000601D
:1043E000202020202070000000D0A8A8888800008D
:1043F00000B0C88888880000007088888870000035
:1044000000F08888F080800000689090B05018001C
:1044100000B0C880808000000070807008F000400C
:1044200040E04040483000000088888898680000DC
:104430000088888850200000008888A8A8500000C4
:104440000088502050880000008888887808700014
:1044500000F8102040F8002040408040402000201C
:10446000202020202020004020201020204000007C
:104470000040A810000000FCFCFCFCFCFCFCFC4024
:104480002010F810204000102040F840201000209C
:1044900070A8202020000000202020A8702000000C
:1044A00070F8F8F87000007C82868A92A2C2827C42
:1044B0000008182808080808083E00384482040844
:1044C000102040FE00384482023C028244380084BE
:1044D0008484847E04040404007E8080807C020244
:1044E00002FE0078848080FC8282827C007E8204CE
:1044F00008080808080800384482827C8282443810
:104500000038448282463A0204380038448282FEEF
:104510008282828200FC828282FC828282FC003E55
:10452000408080808080403E00F884828282828247
:1045300084F800FE808080FE808080FE00FE808007
:1045400080FE8080808000E0A0A0A0E000C040400D
:1045500040E000E020E080E000E020E020E000A07B
:10456000A0E0202000E080E020E0008080E0A0E0EB
:1045700000E02020202000E0A0E0A0E000E0A0E09B
:10458000202000E0A0E0A0A000C0A0C0A0C000E0EB
:10459000808080E000C0A0A0A0C000E080E080E0BB
:1045A00000E080E08080000B022A024B026E029342
:1045B00002BA02E40210033F037003A403DC0317F2
:1045C0000455049704DD040011241FBECFEFD8E08A
:1045D000DEBFCDBF11E0A0E0B1E0EEE6FAE702C039
:1045E00005900D92A830B107D9F728E0A8E0B1E016
:1045F00001C01D92A934B207E1F70E94432A0C942E
:10460000353D0C940000FC01818190E0982F8827B3
:104610002081822B0895FC0123816281862F90E006
:10462000A0E0B0E077276627922B2081622B2181C2
:10463000722B0895CF93DF93EC010E943A3B0E94C6
:10464000853A82E00E94C035CE010E94683688EB30
:104650009AE00E946836809128019091290164E0D7
:1046600002970E947A3680914D0162E090E00E94AC
:104670007A3680914E0162E090E00E947A360E9484
:10468000C33585EB9AE00E94683664E080912A0188
:1046900090912B010E947A3680EB9AE00E94683656
:1046A00080912C0162E090E00E947A360E94C3352E
:1046B00089EA9AE00E946836CDE2D1E0899162E011
:1046C00090E00E947A3681E0CD33D807B9F70E9496
:1046D000C33585E99AE00E9468360E94DC318E304D
:1046E00041F00E948E318F3FE1F7DF91CF910C9422
:1046F000423B80918F018B7F80938F01F2CFFF929D
:104700000F931F93CF93DF9381FF0CC080E092E063
:10471000909329018093280110922C0110922B0173
:1047200010922A0181E08093C402CEEFDDEC0E945A
:10473000FD3181116DC080912801909129010E9465
:10474000AD3780934D0190934E01409128015091D7
:104750002901BA016E5F7F4F709329016093280190
:10476000182F1F70092F02950F70807FE0E18E9F38
:1047700090011124211589E0380751F008F07CC020
:104780002115310509F495C0211588E0380719F481
:10479000892F8F70282B2E30E8E03E0709F47BC06C
:1047A0002F3088E03807D8F52115E4E03E0709F4FA
:1047B0007FC308F4A5C02230E8E03E0709F46AC3CD
:1047C00008F0D0C02115E7E03E0709F45BC308F00C
:1047D0007CC12115E5E03E0709F459C22115364098
:1047E00009F06EC3E12FF0E0E85DFE4F9583C15004
:1047F00009F09DCF8091C4028111FCCF81E08093AC
:10480000C402C09179000E94FD31882309F493CF3E
:1048100081E0DF91CF911F910F91FF900895273094
:10482000EFE03E0709F426C308F04BC02115EAE08B
:104830003E0709F40FC308F07AC02230E9E03E07D2
:1048400009F490C208F074C12115E9E03E0709F4AB
:10485000BFC12130394009F033C3A02FB0E0A85DBB
:10486000BE4FE12FF0E0E85DFE4F40E015966C9101
:1048700085810E944538BBCF2115EEE03E0729F027
:1048800021158FE0380709F086CF292B2E30E8E07C
:104890003E0709F085CFE12FF0E0E85DFE4F85810E
:1048A000982F990F9583881F8827881F80933C0134
:1048B0009ECF892F807F803C09F44FC2292F30E0A2
:1048C0006ACF2033EFE03E0709F479C208F074C0E4
:1048D0002831EFE03E0709F468C208F0B7C02A307B
:1048E000EFE03E0709F46CC125313F4009F0E8C212
:1048F000E12FF0E0E85DFE4F85818093C60277CF1F
:104900002D3F310509F484CF08F073C02E3E3105E8
:1049100009F405C208F4F9C12B3F310509F47BC144
:104920002C3F310509F0CCC20E941B3B60CF211502
:10493000EDE03E0709F45BC208F0DEC02115EBE0B4
:104940003E0709F46BC121153C4009F0B9C20E9431
:10495000D23CE12FF0E0E85DFE4F90914E019823AC
:10496000958345CF2530E8E03E0709F4EAC108F019
:104970008EC02330E8E03E0709F43FC124303840C0
:1049800009F09EC2E12FF0E0E85DFE4F2581A02FE7
:10499000B0E0A85DBE4F15968C91982F920F95832D
:1049A00090E0820F911D21E08F3F910509F00CF4FA
:1049B00088C020933C011BCF2536EFE03E0709F469
:1049C0003CC208F0CDC02333EFE03E0709F435C107
:1049D00025353F4009F074C2612F70E06F5F7F4F53
:1049E0004DE251E080912A0190912B010E94033801
:1049F000FECE2115E1E03E07F1F008F4F8CE2115D6
:104A0000E2E03E0761F02115334009F059C2E12F81
:104A1000F0E0E85DFE4F85819813E9CEE7C0E091B4
:104A20002C01EF5FE0932C01F0E0EE0FFF1FE85D3B
:104A3000FE4F70A767A3212F30E0322F2227290FC6
:104A4000311D3093290120932801D1CE2E31EFE082
:104A50003E0709F4A5C029323F4009F031C2E12FD9
:104A6000F0E0E85DFE4F8581E6E08E9FC0011124F5
:104A7000895B9A4B90932B0180932A0180E00E94DE
:104A8000C03580918F018E7F80938F01B0CE26300C
:104A9000E8E03E0709F478C02730384009F010C23A
:104AA000E02FF0E0E85DFE4F9581E12FF0E0E85D5A
:104AB000FE4F8581292F281B258321E0981708F0B8
:104AC00078CF20E020933C0192CE2115E8E03E070C
:104AD00009F405C12130384009F0F2C1E12FF0E0BE
:104AE000E85DFE4FA02FB0E0A85DBE4F15968C91FB
:104AF0009581892B85837BCE2E39EEE03E0709F424
:104B0000E3C0213A3E4009F0DBC1E12FF0E0E85D6F
:104B1000FE4F85810E941D32811169CE809128014E
:104B200090912901029690932901809328015FCEEC
:104B30002330E9E03E0709F4B8C02530394009F0D8
:104B4000BFC1A02FB0E0A85DBE4FE12FF0E0E85D4F
:104B5000FE4F41E015966C9185810E94453847CE05
:104B60002537EFE03E0709F4C5C025383F4009F07E
:104B7000A7C180E0E82FF0E0E85DFE4F95899583BE
:104B80008F5F1817B8F733CEE12FF0E0E85DFE4FE6
:104B90008581982F96959583817080933C0127CECF
:104BA000E12FF0E0E85DFE4F258180912A01909190
:104BB0002B01820F911D90932B0180932A0117CE18
:104BC0000E94DC31E12FF0E0E85DFE4F85830FCEDF
:104BD000A12FB0E0A85DBE4FE02FF0E0E85DFE4FF2
:104BE00015969C918581981709F401CE4C5F5F4F13
:104BF0005093290140932801FACDE12FF0E0E85DC0
:104C0000FE4FA02FB0E0A85DBE4F15968C91958108
:104C100089278583ECCD0E94F43AE9CD80912D015E
:104C2000212F30E0322F2227290F311D280F311D6F
:104C30003093290120932801DACDE12FF0E0E85DDF
:104C4000FE4F95819D9F812D112486958695869591
:104C5000EAE08E9F9019112490930A018D9F912D67
:104C600011249695969596952AE0929F8019112485
:104C7000809309019093080148E051E063E070E0FF
:104C800080912A0190912B010E940338B0CDA12F71
:104C9000B0E0A85DBE4FE02FF0E0E85DFE4F159656
:104CA0009C9185819813A3CDA1CFA02FB0E0A85DE2
:104CB000BE4FE12FF0E0E85DFE4F42E015966C91AB
:104CC00085810E94823893CDE12FF0E0E85DFE4FB0
:104CD00085810E941D32882309F489CD1FCFE02FE2
:104CE000F0E0E85DFE4F8581E12FF0E0E85DFE4FEA
:104CF00085837DCD80E0E82FF0E0E85DFE4F958173
:104D0000958B8F5F1817B8F772CD203C310529F1CC
:104D1000203E310509F0D4C00E94853A68CDE0916B
:104D20002C018FEF8E0F80932C01F0E0EE0FFF1F10
:104D3000E85DFE4F87A190A59093290180932801FB
:104D400056CDE12FF0E0E85DFE4F9581A02FB0E059
:104D5000A85DBE4F15968C91ADCE892F8F700E94A5
:104D6000933A45CD82E00E94C035A02FB0E0A85D07
:104D7000BE4FE12FF0E0E85DFE4F15966C91858106
:104D80000E94543602C00E94F73580912A0190910A
:104D90002B019C012F5F3F4F30932B0120932A0161
:104DA0000E948C378111EFCF22CDE12FF0E0E85D3A
:104DB000FE4F65818BE092E00E94333818CDE12FE1
:104DC000F0E0E85DFE4F85812AE0829FC00111245A
:104DD00089559B4B90932B0180932A0181E00E947F
:104DE000C03580918F018E7F80938F0100CD9F70A1
:104DF000F92E09F47AC080918F0180FF68C0692F75
:104E000070E048E051E080912A0190912B010E94CE
:104E1000D837A02FB0E0A85DBE4FE12FF0E0E85DED
:104E2000FE4F01E028E031E04F2D15966C91858111
:104E30000E94CF3880933C01DACC612F70E06F5F25
:104E40007F4F4DE251E080912A0190912B010E9409
:104E5000D837CDCC212F30E0322F2227290F311D1A
:104E600030932B0120932A0180918F0181608093E0
:104E70008F01BDCC8091C602E12FF0E0E85DFE4FCE
:104E80008583B5CCE12FF0E0E85DFE4F8581890F89
:104E90008583ADCCE12FF0E0E85DFE4FA02FB0E0C0
:104EA000A85DBE4F15968C919581892385839FCCF3
:104EB000E12FF0E0E85DFE4F8581981397CE97CC07
:104EC00082E0DF91CF911F910F91FF900895209183
:104ED0002A0130912B01A02FB0E0A85DBE4FE12F39
:104EE000F0E0E85DFE4F00E09FCF48E051E060E277
:104EF00070E080912A0190912B010E94D837A02F59
:104F0000B0E0A85DBE4FE12FF0E0E85DFE4F48E065
:104F100051E015966C9185810E947D3980933C010A
:104F200066CCEF92FF920F931F93CF93DF9361159F
:104F3000710589F08C017B018EEFF81AC0E0D2E098
:104F4000F8016491CE010E946C370F5F1F4F2196CC
:104F5000CE15DF05A9F7DF91CF911F910F91FF903B
:104F6000EF900895FF920F931F93CF93DF93CDB7E8
:104F7000DEB7A0970FB6F894DEBF0FBECDBF182FD7
:104F80000027F12CAE014F5F5F4F60E270E0C80177
:104F90000E94D8378981882391F080E20E94F735FA
:104FA000CE0101960E94593687E0F81631F00E9432
:104FB000C335F394005E1F4FE5CF88E0F82E8F2DA8
:104FC000A0960FB6F894DEBF0FBECDBFDF91CF9194
:104FD0001F910F91FF9008956F927F929F92AF92D1
:104FE000CF92DF92EF92FF920F931F93CF93DF93B5
:104FF0006C018FE39BE00E9468368AE29BE00E948E
:10500000683687E19BE00E94683685E09BE00E945D
:10501000683684EF9AE00E9468360E94E1310E946F
:10502000853A82E08093C6028091C6028111FCCF4E
:1050300080E090E00E94B227A82EC0E0D0E0E12CF2
:10504000F12C912C00E02FE734E448E0692D80E05A
:105050000E94CF380E94DC31182F40E066E00E94A9
:1050600045382FE734E448E0692D80E00E94CF38CE
:105070001A3009F444C0D8F4173091F1193069F4AA
:105080002A2D30E021503109C217D3070CF05FC040
:1050900021969C2E990C990C990C0E948E318F3F71
:1050A00089F240E062E0812F0E944538F6CF1E3041
:1050B000F9F01F3091F7E70121969E01220F331F6F
:1050C000220F331F220F331F2C153D050CF456C041
:1050D000CA2DD0E021979C2E990C990C990CDDCF0C
:1050E000209719F121979C2E990C990C990CD5CFEA
:1050F000E114F104F1F4C0E0D0E0912CCECFC7016F
:10510000880F991F880F991F880F991F8C0F9D1F5B
:10511000DF91CF911F910F91FF90EF90DF90CF9093
:10512000AF909F907F906F900895E114F10409F47F
:10513000B4CF81E0E81AF1080E94853AC7010E94C5
:10514000B227A82EC7E0D0E048E3942EA6CF3701BF
:105150008FEF681A780AC301880F991F880F991F6B
:10516000880F991F8C159D050CF097CF0E94853AEA
:10517000C3010E94B227A82E7301BDCF0E94853AB9
:10518000CE010E94B227A82E7E01C0E0D0E0912C73
:1051900084CFEF92FF920F931F93CF93DF93CDB7FE
:1051A000DEB7CB54D1090FB6F894DEBF0FBECDBF2A
:1051B0002C961FAE2C97E12CF12C00E010E003C0E0
:1051C00089A184FF26C0CE0101960E94773181110A
:1051D000F7CF1CA6AE01445D5F4F60E270E0C801EE
:1051E000880F991F82959295907F9827807F9827A6
:1051F0000E940338C801C55BDF4F0FB6F894DEBFCD
:105200000FBECDBFDF91CF911F910F91FF90EF9017
:105210000895BE016F5F7F4FCE018C960E940F3DB7
:10522000AE01445D5F4F60E270E0C7010E94033849
:105230000F5F1F4F80E2E80EF11CC5CF0E94C92806
:10524000009709F408950E94EC2797FDFBCF0E9478
:1052500022318823B9F30E94853A82E00E947F239D
:10526000823081F781EE9AE00C941A23AF92BF92BC
:10527000CF92DF92EF92FF920F931F93CF93DF9322
:10528000CDB7DEB7A2970FB6F894DEBF0FBECDBF85
:10529000ECE7FBE09491992309F4BDC0C12CD12C1B
:1052A000A12CB12C01E010E09A3009F465C0DE01B8
:1052B000119620E030E02F5F3F4F9D930F5F1F4F0F
:1052C000C8018458944F7C01FC01319794919A3025
:1052D00091F7E1E0F0E0EC0FFD1FE20FF31F108209
:1052E000AE014F5F5F4F60E270E0C6010E9403387D
:1052F000FFEFAF1ABF0A0F5F1F4FF7019491F0E263
:10530000CF0ED11C9111D0CFC50189A39AA30E94C1
:10531000853A89A19AA10E94EC2787309105D8F49B
:10532000FC01EC5CFF4F0C94643C6DE772E08CEB8D
:105330009EE30E94912764E089E391E40E94CF36C6
:105340000E94853A82E00E947F23823021F48EEC15
:105350009AE00E941A23A2960FB6F894DEBF0FBE01
:10536000CDBFDF91CF911F910F91FF90EF90DF9014
:10537000CF90BF90AF90089520E030E0F801E4585E
:10538000F44F7F01A6CF6CE573E08BEC9BE00E94AD
:10539000912764E087E29FE00E94CF36D1CF60E0A2
:1053A0007EE083E291E20E94912764E083E29FE243
:1053B0000E94CF36C5CF68E17BE08DE59FE20E9479
:1053C000912764E085E79AE30E94CF36B9CF61EE7A
:1053D00079E086E790E00E94912764E087E59AE013
:1053E0000E94CF36ADCF66E479E080EE9FE00E9468
:1053F000912764E086E299E10E94CF36A1CF63E570
:1054000077E08BE899E10E94912764E08EED90E2CD
:105410000E94CF3695CF80E090E077CF0F931F9317
:10542000CF93DF93CCEBDAE300E010E80C5B1A4398
:10543000FE016491C8018C0F9D1F0E946C3721965C
:10544000FEE3CC3BDF07A1F70E94423B88E7809355
:10545000C60204C00E948E318F3F69F48091C6025B
:105460008111F8CF0E948E318F3FE1F7DF91CF910C
:105470001F910F91089562E088EE93E00E94333807
:105480001092C602EBCF80E8809361001092610019
:105490000E94663884B1886284B980E58CBD8DB580
:1054A00081608DBD81E680937C0087EC80937A00DB
:1054B00010927B0081E080937E000E947E310E94EA
:1054C0002D380E94653778948091840090918500F2
:1054D0000E94D73C0E9480330E944830811123C033
:1054E000C0E00E940E2A64E08EE49BE00E94CF366A
:1054F0000E94853A82E00E94C035C11111C08CEB38
:105500009AE00E9468360E94C3350E94E1310E94F1
:1055100036290E94853A82E00E94C035CC2379F377
:105520000E941E29E5CF85E091E00E94A530C82F9A
:10553000D8CFCF92DF92EF92FF920F931F93CF932A
:10554000DF937C016901E901088119818A819B81CE
:1055500080969B838A83F7018081853E09F473C01E
:10556000882309F470C083858F3009F46CC08BE206
:10557000E80119928A95E9F7F80147A350A761A7B6
:1055800072A7F701D80180E090E0582F9C0140817C
:105590004032A1F04C93E7012C8523FF06C0208107
:1055A00021542A3110F4405E4C93019631961196A5
:1055B0008830910551F728E030E058E0F80180810B
:1055C000853009F44AC0E7018885803209F181E01D
:1055D000850FF801E20FF31F9EE29083F7013896E2
:1055E0005C5F9081903291F0D801A80FB11D9C931F
:1055F000E7012C8524FF06C0208121542A3110F4B4
:10560000905E9C938F5F31968513EBCF282F30E00F
:10561000F801E20FF31F1082F7018385E80188A3E8
:10562000C7014A960E9403239AA389A3C7014C96F7
:105630000E940B236BA37CA38DA39EA381E0E601B4
:105640008C8380E001C081E0DF91CF911F910F91A9
:10565000FF90EF90DF90CF90089585EE8083B3CFD9
:105660000F931F93CF93DF9300D0CDB7DEB7FC012C
:10567000A081B18180E090E0660F771F881F991F9D
:105680000681178120853185600F711F821F931F4E
:10569000ED91FC9122E030E0AE014F5F5F4F099544
:1056A000882339F029813A81C90101978F3E9F4FA4
:1056B00048F080E090E00F900F90DF91CF911F9124
:1056C0000F910895C9010F900F90DF91CF911F9115
:1056D0000F9108952F923F924F925F926F927F9217
:1056E0008F929F92AF92BF92CF92DF92EF92FF92F2
:1056F0000F931F93CF93DF93CDB7DEB7A6970FB667
:10570000F894DEBF0FBECDBF8C01009731F08091C1
:10571000890290918A02892BD9F080E090E0A696C8
:105720000FB6F894DEBF0FBECDBFDF91CF911F91B2
:105730000F91FF90EF90DF90CF90BF90AF909F9030
:105740008F907F906F905F904F903F902F90089533
:10575000E9E8F2E08CE1DF011D928A95E9F7109308
:105760008A0200938902F80141845284638474841C
:1057700039E0440C551C661C771C3A95D1F7C301DF
:10578000B201655F7F4F8F4F9F4F0190F081E02DF9
:1057900029E130E0AE014F5F5F4F0995811107C0ED
:1057A00010928A021092890280E090E0B8CFCE0178
:1057B00001960E9403231C01CE0104960E9403233C
:1057C0009F8F8E8F2B8128A34E814A8FCE01079603
:1057D0000E9403239AA389A3CE0109960E94032362
:1057E0004C01CE010C960E9403235C01CE0146962B
:1057F0000E940B236B017C016115710581059105E8
:1058000009F4E4C0A114B10459F295015A8DA52FF1
:10581000B0E00E946A3C6A8F7B8F8C8F9D8F46011F
:1058200057018E8D9F8D881A990AA108B1088A8D1B
:105830009B8DAC8DBD8D881A990AAA0ABB0AC1013D
:10584000019729A13AA1220F331F22953295307F6B
:105850003227207F3227820F931FB1010E940F3C15
:10586000861A970AA108B10898A1292F30E040E0D4
:1058700050E0C501B4010E94233C49015A01253F73
:10588000AFE03A074105510508F48ACF253FBFEF45
:105890003B074105510508F4A1C08BE0D8011896DB
:1058A0008C9388E1EBE8F2E0DF011D928A95E9F73D
:1058B000C101A0E0B0E08BA39CA3ADA3BEA3A70150
:1058C0009601BC01CD010E94FF3B60938B02709357
:1058D0008C0280938D0290938E029101AE8DBF8DCC
:1058E0000E946A3C6B017C01C40CD51CE61CF71CB1
:1058F000C0928F02D0929002E0929102F0929202B6
:10590000C501B4016E5F7F4F8F4F9F4FD80118962E
:105910002C91263009F466C024E030E040E050E0ED
:105920000E94FF3B609393027093940280939502D0
:10593000909396023092980220929702B8A1B29D5D
:10594000C001B39D900D112490939A028093990207
:105950002A8D3B8D4C8D5D8D6BA17CA18DA19EA16F
:105960000E94FF3B6C0D7D1D8E1D9F1D60939F024D
:105970007093A0028093A1029093A202E9A1FAA1E0
:105980008F0120E030E0000F111F221F331F000F96
:10599000111F221F331F000F111F221F331F000F63
:1059A000111F221F331F000F111F221F331F060F4D
:1059B000171F281F391F00939B0210939C022093EE
:1059C0009D0230939E0289E892E0A9CE8114910451
:1059D00009F4E6CE6401E12CF12C14CF86E0F80145
:1059E00080875FCF22E030E040E050E099CF009721
:1059F00019F0FC01118210820895CF93DF93009774
:105A000099F06115710581F0FB0120A124FD0CC006
:105A10002091230230912402232B59F02091560229
:105A200030915702232BE1F080E090E0DF91CF919D
:105A30000895C3E2D2E0DE0112962BE2FB01019051
:105A40000D922A95E1F7998388831DA61EA61FA6AD
:105A500018AAFB0181A192A19AAB89ABCE01E6CF36
:105A6000C6E5D2E0E8CF009719F0FC011182108260
:105A700008952F923F924F925F926F927F928F92F2
:105A80009F92AF92BF92CF92DF92EF92FF920F93CD
:105A90001F93CF93DF9300D000D0CDB7DEB78C013A
:105AA0004B012A01009709F405C16115710509F43C
:105AB00001C14115510509F4FDC0DC019D96AD9071
:105AC000BD90CD90DC90D09795968D919D910D9045
:105AD000BC91A02DB601A501440D551D611D711D80
