:100000000C94D0190C94ED190C94ED190C94ED1975
:100010000C94ED190C94ED190C94ED190C94ED1948
:100020000C94ED190C94ED190C94ED190C94ED1938
:100030000C943E330C94ED190C94ED190C94ED19BD
:100040000C94ED190C94ED190C94ED190C94ED1918
:100050000C94ED190C94ED190C94ED190C94ED1908
:100060000C94ED190C94ED19FE1B031C081C0D1CBF
:10007000121C171C1C1C211C261C2B1C301C351C84
:10008000681DB51DA81DBF1DC81DD11DE01DE61DA5
:10009000F81D7E1E7B1F881F941F9F1FE41F0720D3
:1000A000041E0A1E171E221E2F1E491E551E5F1EED
:1000B000CB20CB20CB20CB20CB20CB20721E9A1E76
:1000C000A41EC91ED81EE01EEF1E031F161F1C1FF4
:1000D000221F311F411F501F601F761F10094A6FDA
:1000E0006E6173204C696E6473746564740000FF04
:1000F00010456401A1926B006C3BDBC47B083B8024
:10010000100F683CA18E6935D89663004300101D1E
:10011000A191D23263008C407CFF6B038CB26B00E8
:100120004C0010277B057CFF10226100A181FB1E83
:10013000F065A196F11EF05571017B013106102882
:100140006D086E0566006A01A19680D0D0E5701436
:10015000306C103820A42109207D20C44F42101893
:1001600021283463103D00E0A1546D286E0A6C0A0A
:10017000DDEA7D08FC1E3D58104AA1726D346E19EF
:100180006C05DDE57D08FC1E3D4C10536D2D6E2881
:100190006C05DDE57D08FC1E3D45105BA195F06515
:1001A000A19CF0336C00A19CFC1EF065F029DDE5FC
:1001B0007D057C013C0310656C20EC9E106FA194C2
:1001C00060006100F1556C366F0A214F00C17CFF61
:1001D0003C001076100B33001097CC0F3C001096AB
:1001E000CC077C018C06A199FC1EF065400010969E
:1001F00082D083E073054C00109272147CFF108D46
:10020000A191D2323F00109E00EEA191D232730133
:10021000333A1092630000EE6C358B308BC53F0093
:10022000646300EE8040700180066C00A199FC1EA2
:10023000F0557C013C0510A8A19CF43320B86C78E3
:10024000FC15FC073C0010B320B800EEA19DF06542
:10025000F0306C376B1BDCBAA19EF065F0306C415E
:10026000DCBA00EE46001102A191D56276FF46008D
:100270001102D5624F0011028CE07C058C654F00A5
:100280001103D56275FB66008CD060008BC08B5566
:100290003F0010DF7C14700110D8A199F01EF065AA
:1002A00070FFF055A1964000DCE56C0AFC18A194A3
:1002B000F0656CFF80C3F055300010F4A195F06537
:1002C0007001F0556C006B00A199FC1EF0653000C8
:1002D0007B017C013C0510F63B00110274016F426A
:1002E00000EEA191D232D5626300660000EE6B0091
:1002F0006C08ECA16BFF6C10ECA16B014B00111CA6
:1003000048016B0148786BFFA18E6935D89688B497
:10031000D89611256C20EC9E11253600112585807C
:100320006635A191D5626F06214F00EEF0073000CF
:100330001137601EF01567003D2111326AFF11353B
:100340003D0711366A016701213800EE8BD06C0041
:1003500089B081E0A199FC1EF06540001146A1968C
:10036000D91589A48174D9157C017B143C05113AF7
:100370008DA48E744E30646300EEFF15FF073F00BE
:10038000115000EE3C0C1E1E33333F6161F31F0C15
:100390000C0C0C0C0C8C8CDF07010101010101011C
:1003A00061E7E78383838383838383E7FB190161A9
:1003B000E161010119FB9F86C6E6E6B69E9E8EE6C8
:1003C000E494E790F7878080808788888888AF6684
:1003D000884828C64CAAACAA4AE088C088E0000039
:1003E00018FF3C00183CFF81423C3C3C423C5A5ABE
:1003F0007E7E0000243C24000018183C7EFF181864
:10040000FF225588000000000000000000000000EE
:1004100000000000000000000000101B626C696E0C
:100420006B7920322E303020432E2045676562657F
:10043000726720313939310A4A61637175657320F9
:100440004465736368656E65732C20323031350006
:1004500000E0A001600091098106901291096020DE
:10046000E0A1102B600223B500D171FF31001022F2
:100470006020E0A1102B00E060006100A53A90121E
:10048000A539F0658200630A8325F329602AD01517
:10049000F00A40022046400420433020102E104E27
:1004A000320A72011048320172FF8020A539F055DE
:1004B000600F23B500EE00E080038113A3BAF1556D
:1004C0006005A3BCF05587738663230C00E0231DF1
:1004D0006E4087E26E2787E1683469186A706B00A6
:1004E0006C046D3422FAA3DDDAB8DCD8A539F065E6
:1004F00023B5213A3E001083A3BCF0658500C4FFFC
:10050000845221CDC4FF845222616020E0A12341A6
:1005100036F710698E6023936E642393234110573E
:10052000F007400010D580808006800681A08106FB
:1005300081068015400010944001109440FF1094F3
:1005400010AD80908006800681B0810681068015FE
:10055000400010A2400110A240FF10A210ADA3DD88
:10056000DAB86A706B00DAB86EF387E26E0487E17E
:100570006E32239380808006800681C081068106CA
:100580008015400010BB400110BB40FF10BB106F36
:1005900080908006800681D081068106801540000B
:1005A00010C9400110C940FF10C9106FA3DDDCD88D
:1005B0006C046D34DCD86ECF87E26E2087E16E1953
:1005C0002393106F605A23AA22FAA3DDDAB8DCD88D
:1005D0006E4087E3807080E23000105B8E60239372
:1005E000239B00E066246714A3BB2349662467208D
:1005F000A3BA2349640065106601670FA509D4609A
:10060000A519D560601423AA3E001130A509D46055
:10061000A519D56074047504346010F1A509D4607F
:10062000A519D560601423AA3E001130A509D46035
:10063000A519D5607604362D1101A509D460A51938
:10064000D560601423AA3E001130A509D460A51915
:10065000D56074FC75FC34001110A509D460A5198F
:10066000D560601423AA3E001130A509D460A519F5
:10067000D56076FC3601112010F1A519D560A529A9
:10068000D560601EF015F00730001136104E8370F3
:100690006E0383E2848085906E04EEA1116B6E027E
:1006A000EEA111776E10EEA111836E08EEA1118FED
:1006B00043037504430075FC43027404430174FC56
:1006C00080408150233182006E0880E23000119B0F
:1006D0006E07802082E24205119F420611AB42075D
:1006E00011C822FA6EFC87E287318840895012FADD
:1006F000804081507104233182006E0880E2300016
:10070000114B6303750411598040815071FC2331F2
:1007100082006E0880E23000114B630075FC1159B5
:10072000804081507004233182006E0880E23000E6
:10073000114B6302740411598040815070FC2331C5
:1007400082006E0880E23000114B630174FC115985
:1007500022FAD8988EF000EE6EF080E28031F055EB
:10076000A3E1D45876016105F0074000F118116447
:100770006EF080E28031F055A3E5D458760480A075
:1007800081B023316EF080E2300011BB6E0C87E344
:1007900080C081D023316EF080E2300011C46E3011
:1007A00087E360FFF018F01511644301647443029D
:1007B00064001164827083706E0C82E280A081B04C
:1007C0002331A3DD6EF080E2300011E4DAB8420C90
:1007D0007B0442007BFC42087A0442047AFCDAB8CB
:1007E00000EE6E80F1073100123C3400123C8100B3
:1007F000830E3F0011FD839083B54F001218330024
:10080000120C87E3838083A54F001230330012243B
:1008100087E3123C838083A54F00123033001224FB
:1008200087E3839083B54F0012183300120C87E3DF
:10083000123C634081324100123CDAB87B04DAB8E2
:100840006EF387E2620C872100EE63108132410073
:10085000123CDAB87BFCDAB86EF387E262008721DB
:1008600000EE632081324100123CDAB87A04DAB833
:100870006EF387E26208872100EE638081324100D7
:10088000123CDAB87AFCDAB86EF387E262048721A8
:1008900000EEC1F08012300012446E0C87E382E358
:1008A00011D9DAB8800E4F00124B62047AFC125C48
:1008B000800E4F001251620C7B04125C800E4F00C0
:1008C000125762087A04125C800E4F0012406200D8
:1008D0007BFCDAB86EF387E2872100EE82708370CA
:1008E0006E3082E280C081D02331A3DD6EF080E2E1
:1008F00030001278DCD842307D0442007DFC42207A
:100900007C0442107CFCDCD800EE6E80F1073100E4
:1009100012D4340012D48100830E4F0012918390C0
:1009200083D54F0012AD330012A087E3838083C5C7
:100930004F0012C7330012BA87E312D4838083C5F5
:100940004F0012C7330012BA87E3839083D54F005C
:1009500012AD330012A087E312D46340813241000C
:1009600012D4DCD87D04DCD887E36ECF87E2623016
:10097000872100EE63108132410012D4DCD87DFC67
:10098000DCD887E36ECF87E26200872100EE632028
:100990008132410012D4DCD87C04DCD887E36ECFEE
:1009A00087E26220872100EE63808132410012D409
:1009B000DCD87CFCDCD887E36ECF87E2621087212D
:1009C00000EEC1F08012300012DD87E36E3087E365
:1009D00082E3126DDCD8800E4F0012E462907CFC42
:1009E00012F5800E4F0012EA62307D0412F5800E7F
:1009F0004F0012F062A07C0412F5800E4F0012D856
:100A000062007DFCDCD86E4F87E2872100EE8070AB
:100A10006E0380E2800E818081946E0481E2410049
:100A20007001800E800E800EA3BDF01ED8988EF04F
:100A300000EE6E00A409FE1EFE1EFE1EFE1EF365E5
:100A4000A53EFE1EFE1EFE1EFE1EF3557E013E80CE
:100A5000130D00EE822383336E0F80208130233309
:100A600080E2800E800EA3E9F01ED2347204328040
:100A7000132082237304434000EE1320700471049A
:100A80008006800681068106810E810E810E810E10
:100A9000A53EF11EF11EF01EF06500EEA3BCF06550
:100AA0008006F0556020E0A1134600EEF1656E016E
:100AB000844382008310651083554F0082E54F0008
:100AC000135C652782554F00135C8020813084E4DD
:100AD000134EF430D67A760C84438200831065E896
:100AE00083554F0082E54F001370650382554F0018
:100AF00013708020813084E41362F430D67A760C4F
:100B0000844382008310656483554F0082E54F0063
:100B100013808020813084E41376F430D67A760C0A
:100B2000844382008310650A83554F00138D813002
:100B300084E41386F430D67A760CF130D67A00EE5F
:100B4000A3BAF16581E43F007001A3BAF15500EE4C
:100B5000A3BAF3658E008E254F0000EE3E0013A76A
:100B60008E108E354F0000EEA3BBF15500EE8EE3E4
:100B70006220F015E2A113B3F007300013AD00EED0
:100B80006E0100EEF015F007300013B600EE000025
:100B90000000050000226363777F3E1C001C1E5D81
:100BA0005D6F3E1C003C7E0F070F7E3C001C267FC5
:100BB0007F7B061C001E3F7870783F1E001C327F32
:100BC0007F6F301C001C3E7F77636322001C3E6FEA
:100BD0005D5D1E1C001C3E49777F637F00000000A6
:100BE00008000000000000000808000000000000ED
:100BF00000000000000000000000000000000000F5
:100C0000800000008080000000000000F000000074
:100C1000000000008080808000000000F080808064
:100C200080808080F0000000800000000C08080830
:100C300008080808080808080808080D0C0808082B
:100C400008080808080808080808080D0A650505C6
:100C50000505E50505E505050505C50A0A6505055A
:100C60000505E50505E505050505C50A0A050C08A0
:100C7000080F050C0D050808080D050E0F050C08DA
:100C8000080F050C0D050808080D050A0A050A6578
:100C90000605950A0A350505C50A350505950A654F
:100CA0000505950A0A350506C50A050A0A050F0550
:100CB00008080808080C080F0508080808080F05A8
:100CC00008080C080808080F050F050A0A7505B57D
:100CD00005050505C50A6505B505E50505E505B57F
:100CE00005C50A6505050505B505D50A0A050C08FB
:100CF0000808080D050F050C080F05080F05080862
:100D00000D050F050C080808080D050A0F050F65ED
:100D10000505C50A35E5950A6505B00505B505C59E
:100D20000A35E5950A650505C50F050F077405D554
:100D3000080F050E0F05080F050C080808080D051B
:100D4000080F05080F05080F7505D4070A050A35B1
:100D50000505F50505B50505D508080D0C080F7541
:100D60000505B50505F50505950A050A0A050808EE
:100D7000080D050C0808080D3505C50A0A65059516
:100D80000C0808080D050C08080F050A0A75050669
:100D9000C50A050808080808080F05080F0508080F
:100DA000080808080F050A650605D50A0A050C0D8E
:100DB000050A3505050505E50505F50505F50505EE
:100DC000E505050505950A050C0D050A0A05080F38
:100DD0000508080808080F050C0D05080F050C0D7F
:100DE0000508080808080F05080F050A0A35050553
:100DF000B5050505050505950A0A350505950A0A8F
:100E000035050505050505B50505950A0808080811
:100E100008080808080808080F08080808080F0844
:100E200008080808080808080808080F01E0021068
:100E300004C809E40BF40BB409E504C9021301E783
:100E40000007018303F001FF00FF003F0F00108047
:100E500026404F205FA05DA04F2026409080CF000D
:100E6000C00083001F80FF00FE00F8000F001F80FD
:100E70003FC07FE07FE05FE047E020C09080CF0090
:100E8000C08083C01F80FF00FE00F8000500737063
:100E90006565643A200000000000100F312E3030EC
:100EA000204B2E762E53656E676275736368203211
:100EB000342F342D2739340000FF6C0420A4653210
:100EC0006632672883508460626469006A016B003F
:100ED00000C120666001820560285200101BA0C876
:100EE000D348A0C8D34800C1D5683F001040206651
:100EF0006001320082052084835084606008E0A194
:100F000020586010E0A12054C0034000205DC003C1
:100F10004000206180C020BD102480B07003800696
:100F20008006F03080707011611BD01A606420BDA3
:100F300000C860006100A0CC9012F00A40FF105081
:100F400010117501456E656D00EE600185054F005D
:100F5000650000EE77014746674500EE60018705B2
:100F60004714671500EE8090612D8105881061009F
:100F70008070A0C2D01180846100D0117A014A042F
:100F80006A014A01A0C34A02A0C44A03A0C5610085
:100F90006000D0116008D0116070D0116078D0115D
:100FA00000EE320000EEC00F807470086100A0C82F
:100FB000622D4B1E20963B21D0187B01809082052C
:100FC000390B790100EE7B03A0C680707005D0114B
:100FD0007008D0117008D0117008A0C7D0116264D9
:100FE00000EE00E060006100A0D29012620882C5AD
:100FF000F229602AD015F00A400220BA400420B736
:10100000302010A400E000EE3C077C0110BC3C0145
:101010007CFF600FF015F007300010BE00EE880076
:10102000880055002200FF00F800DBFFDB1824E7F2
:10103000E7DB616E79206B65792E2E2E00007370D0
:101040006565643A200063617274652053443F0A09
:101050000043524153482120626164206F70636FE6
:1010600064650A0043524153482120626164206F45
:1010700070636F64650A0046415420647269766546
:10108000720A436F70797269676874203230303643
:101090002D323031320A526F6C616E6420526965B4
:1010A00067656C0A004C454D0A4341520A574F523E
:1010B0004D0A414C49454E0A424C494E4B590A464D
:1010C00049454C44210A50495045520A4D4147492F
:1010D00043205351554152450A4F43544F205041EC
:1010E000434D414E0A4A4F594D55530A7361766537
:1010F0002D726573746F72650A73706565640A009A
:101100007661725B5D3A002053503A00493A0050D4
:10111000433A001027204649454C442120416C2089
:10112000526F6C616E642031393933000020616484
:10113000617074656420666F722043484950636F24
:101140006E20763200206279204A61637175657382
:10115000204465736368656E65732C2032303135C9
:1011600000612A6201A179D120613AA189D120616F
:101170004AA199D12061406230A159D1206130A1AA
:1011800049D1206220633064206E016D03A0E9D153
:1011900020A0F96140D12065FF601020DE6130A001
:1011A000E9D120A109D12065F0601020DED120A175
:1011B00019D12083D584D5A139D340601020DED346
:1011C0004083D584D5653F8452850E8352A129D3AF
:1011D00040601020DED34083D584D5653F8452859E
:1011E0000E8352A139D340601020DED3406220E24A
:1011F0009E105700E063106101620769206A0F6565
:10120000016B7A6C016E016D006700A0E777014702
:10121000C010A96220E2A110A06210E2A110D06269
:1012200008E2A110D76202E2A110AC6204E2A110B0
:10123000B14C0110D04C0210D7803020DEA0E3C1A9
:101240003F6E408E15D5E4DBE44C0110B54C021026
:10125000B8107D4302108F73FF600120DE6020E034
:10126000A110A3108F7D01670010804A00108F6EBF
:10127000018AE5108F4A3D108F7A01108FA0E5D9C1
:10128000A3107DA0E7D9A3107D650889558A55A1D3
:10129000A9D9A0601020DEA1B9D9A0601020DE007D
:1012A000E0612C6210A169D12061326225FD29D153
:1012B00025102700FCA0E5D9A34F0110BB6C01103D
:1012C0009300FBA0E7D9A34F0110BB6C021093F071
:1012D00015F007300010DF00EE6EFF7E33E07FE098
:1012E0000007FE07990000208331867FC74A467BAE
:1012F000C63F805F43FFE4DF63FFE0DB60AAA36AD1
:10130000C0EAFFD57F0000C6006600E60066006701
:10131000C00000C06000848C8E52C452848C830054
:1013200000FFFFFFFF04001E0337867F870FC607FD
:10133000760FF80FDB07FC03EF01DF009F000F01C2
:1013400007FFFFFF7F000000030006000700060004
:10135000060000000300040003000000000003007A
:1013600000FFFFFF7F04001E0037807F800FC00753
:10137000700FF80FD807F803EE01DF009F004F0051
:10138000670003000010003C0E5EBFFFFF3FFF0F31
:10139000F707FB07F903F801FC00DE009E005F0081
:1013A0000F000F00002430542854307429542A545C
:1013B0002900005000548071E0548054835443004D
:1013C000000000000020022002200226C6AAAA2651
:1013D000A60000706020A024842AAA2AAA246400FF
:1013E000000000000014001400089409540888004C
:1013F00000C4EEAA48CE4EAA48AA48AA4E0000074A
:10140000E003C001800000FF7EFF7EE018E018E0EE
:1014100018FC18FC18E018E018E018E018E07EE06E
:101420007E000000000000FF70FF70E070E070E0E0
:1014300070FC70FC70E070E070E070E070FF7EFFA8
:101440007E000000000000F808FE1CE73EE73EE7D3
:101450003EE73EE71CE71CE71CE708E700FE1CF838
:101460001C000000000002100C08140EC005A006AD
:101470001C1A247A90C1E8021805080C101000000C
:101480000000000000C302318C09540EC475B91E5F
:101490001C1A3E7A93E1E9221905084C14300A1B04
:1014A00032143220014563686563206F757665727A
:1014B000742E20666963682E0A00456368656320A0
:1014C0006163636573207265706572742E0A0045EE
:1014D0006368656320616363657320666963686937
:1014E0006572730A004563686563206163636573B1
:1014F00020706172746974696F6E0A0000E06000A8
:101500006100A02B9012620261FFF00A40026100AC
:101510004012610140106102401461034004610403
:10152000400C610540086106400A610740226108DD
:10153000403261094030610A4034610B4024610C43
:10154000402C610D4028610E402A610F31FF91252A
:1015500010064A6F79737469636B206D75736963E4
:10156000616C0A4A616371756573204465736368D1
:10157000656E65730A32303135000A626F75746FBB
:101580006E2E2E2E0000E020C26900680078019EB9
:101590000860108E058E066D006C006B006A64207A
:1015A00087206D20B34A00102B6008E0A1101C605A
:1015B00010E0A110206020E0A11024102B20B37CAB
:1015C000FF7AFF102920B37C017AFF102920B37B1A
:1015D000FE3A017AFF7AFF904420B320B3206D8E4B
:1015E000C4607F8E028DB47B01206D4F01104B20B3
:1015F000B34A00103B60142046101020B3600A610B
:101600000490116004204620B3600490112046101D
:1016100010F015F0073000104700EE20B360028094
:10162000B53F01105C600280C53F01105C5E701028
:101630005C7901A0EB6100621091221060A0E5616D
:1016400000621091222070603C20466020E09E10D5
:10165000646101620A9121E0A1106900E01004A018
:10166000D2DED000EE6100620AA10FF933207CA027
:10167000E2D1257104A10FF833207C00EE6300A1B4
:101680000FF31EF065F029D12571047301330310A7
:101690007D00EE6500C77F9008631080359006805E
:1016A0007590073F01870084707410C10F90098105
:1016B00007835083753F01109E835083453F01107F
:1016C000AD9009800680153F007101900970FF8080
:1016D000173F0071FFC3038306330071FE7101954C
:1016E00013750190085500109600EE6100620063CA
:1016F00000A10FFA33A10FF31EF065F030D12A716B
:10170000087301330310B800EEA0F3610092098260
:1017100006912291096020E0A100EE00D160032033
:101720004671FF310010C800EE03C006601FF83F8D
:10173000FC2004AFF56C362C346FF6A0053FFC3F5F
:10174000FC12902448600CC0062040408080007944
:101750006F75206372617368656400636F6E677292
:101760006174756C6174696F6E21004C454D0A4A55
:10177000616371756573204465736368656E657335
:101780000A436F7079726967687420323031342C83
:10179000323031350A6C6963656E63652047504CA1
:1017A00076330000000000101A4F63746F7061639D
:1017B0006D616E0A6279204A6163717565732044B8
:1017C00065736368656E65730A436F7079726967E4
:1017D0006874203230313500001A00207800E06E45
:1017E000006D086C006B046A05690020EF209120F1
:1017F0004879013F0021519E062059900790E01042
:1018000030209180E0209120F94D00103C9CB010D8
:101810003960078092400020B080A0216F10250021
:10182000C800D86000910971F8A1759012635F64D7
:101830004121562070101B4D0000EEF37580D061E1
:101840007F80126200930973FAA20DD23272017086
:10185000FF30001052F38500EE60006108E1A11036
:10186000686110E1A1106B6102E1A110676104E100
:10187000A1106A00EE70017001106C70FF70FF8E95
:101880000460078E0200EE6020E09E10716104F19A
:1018900018E0A1107400EE00E0A00160009109833F
:1018A0001071F890126002216F00D173FF43001095
:1018B000886120E19E107F6120E1A1108900EEF097
:1018C00015F0073000108D00EE613862166320A11C
:1018D0007E4000109BF31E70FF30001097D1200057
:1018E000EEA2156306400010A5F31E70FF30001035
:1018F000A1F365A1FD6008410010AEF01E71FF313B
:101900000010AAD23800EEC40794066306A215445C
:101910000010BAF31E74FF340010B69407F165404E
:101920000010C37401440800EEF31E10BBC1034451
:101930000010E7440110E4440210E1440310DE44C7
:101940000410DB440510D8440610D56278633810C3
:10195000E9623C633810E96200633810E9620063B1
:101960001C10E96200630010E96238630010E9624C
:1019700078630010E96278631C6001F355804020B1
:101980009D7C0100EE6206A21560006100F055F238
:101990001E7101310810F300EE660010FE7601465C
:1019A0000800EE80602146F565300110FB801021B3
:1019B0003BD238824483546001F575D238F585678F
:1019C000014F01211A806021468070F555370010C3
:1019D000FB8010213BD2387CFF10FB56E0112B68B6
:1019E00004F81841007D0141017D0541027D0A4155
:1019F000037D0F687F88D53F016D7F11369044418C
:101A0000007DFF41017DFB41027DF641037DF13FF9
:101A1000016D0000C800D82048670000EE9106A1C3
:101A2000FD610840001144F11E70FF30001140912B
:101A30000700EE9106A21561064000114FF11E70DD
:101A4000FF3000114B910700EEA174F0657001F0BA
:101A50005500EEA174F065A22DF033F265F029D3A4
:101A6000457304F129D3457304F229D3457305F96D
:101A700033F265F029D3457304F129D3457304F299
:101A800029D34500EEF015F0073000117000EE008C
:101A900000506172746965207465726D696E656568
:101AA000210000000007F008081084214240844013
:101AB00008401040104008400420021004080807A5
:101AC000F00000000007C008401040204044408A59
:101AD0007E84028002800280024004200810100FE1
:101AE000E000000000081014282244418240024413
:101AF000024A024402400240022004100808100773
:101B0000E00000000003E002100208020402227E4E
:101B100052402240024002400220041008081007F0
:101B2000E0000000000FF0100821044282210210A2
:101B3000020802080210022002400420081FF000E0
:101B40000000000FF0100820044002810182818112
:101B5000018001FE01020202040208021003E000FB
:101B600000000007E0081010082004400240024076
:101B70000240224052402241822244142808100090
:101B800000000007E00810100820244052402240C6
:101B9000024002403E402020201020082007E000A4
:101BA000000000001818000000003C66C3663C00FE
:101BB00000182C468383462C1818246699996624AD
:101BC000188080C0C0E0E0F0F0F8F8FCFCFEFEFFFA
:101BD000FF0000781CFE0000007800FE0100003CC1
:101BE0000000010000000002010000001C020000D3
:101BF00000003802FF00003C3800FF00007838FE8B
:101C0000FF00000000100B76322E30205261696E0A
:101C1000657320286329203139393100FFF3858E1F
:101C200020430110136E4E60006100A337F1556C24
:101C3000FF600061006200F27500E0600B6100620D
:101C400000A356F21EF15572023278101E60006237
:101C500000A332F21EF155720232061026A339603B
:101C60002661396300F31ED01563057008304610F5
:101C700030A34360686102D01570086205F21ED07F
:101C800015A3486068612AD01570086205F21ED05D
:101C90001581E0810660648015A30FF033F265635F
:101CA0005A6439F129D3457305F229D34580E0A25E
:101CB000DEF055A2E760006100D0127008306010BD
:101CC0005A6402A2D26000D04CA2D86008D04C74F2
:101CD0000C343E105F67008070229077013705104A
:101CE0006961326010A2EFD0167008306010716127
:101CF000006060A2D1D0127102313810786D3421A9
:101D000009210F21166102A30B6010D01870083052
:101D10006010837108313210824CFF10954B0063C4
:101D2000064B0363044B0663024B056300109CC320
:101D3000077301CC307C108C34C303830EA32EF3C5
:101D40001EF1658B008210892080C0223922666ACC
:101D500002211F6700680022AF22C060FFF01560FB
:101D600008E0A120D56010E0A120E26002E0A120FF
:101D7000EF6004E0A120FC6020E0A120C6600AE042
:101D8000A120CB6014E0A16E02F0074000212710D3
:101D9000AD600F229080D0223900EE228E80D022BA
:101DA0003900EE80D0610F801281D0810500EE21D4
:101DB00009211620CF70FF40FF60008D108D042197
:101DC0000921166090211B00EE2109211620CF70F9
:101DD00001400A60098D108D0421092116609021AF
:101DE0001B00EE210F211620CF71F041F061008D14
:101DF000108D04210F21166090211B00EE210F2170
:101E00001620CF7110416061508D108D04210F217B
:101E1000166090211B00EE20CF70602215A323D006
:101E20001400EE20CF8010700A2215A31FD01800D6
:101E3000EE80D02215A31BD01800EE70FF300011E9
:101E40001B00EEA32AFA1EF065225E606C611CD0B6
:101E50001800EE211F7A01809061F080124000117D
:101E6000324A0411494A05119182A03B00113762A0
:101E70000882A580B080068006300011603B0072A9
:101E8000FF80C022158124A325D0114F0011823A72
:101E90000111826900119F8B9360078B0280C02221
:101EA0001539161152A3267104391D1156A3277135
:101EB000023915115AA3287104391E115EA3297124
:101EC00002D01211913B05116863804208116E83A4
:101ED000067201116363014208116E830E720111D3
:101EE0006981308030A30FF155A30F80C022157196
:101EF000033903117B4A04117C3A05D0124F0011BB
:101F0000823A0111826900119F3A08119122AF6053
:101F10000077013764118B7801670070013003117D
:101F20008622AF6A00227280E08180817441007055
:101F3000B0F015211F00EE600CE09E119AE0A11197
:101F40009C00EE6003F018219900E062006300A39A
:101F500056F21EF16572028314327811A5433C7863
:101F600001A337F16580746364803584F0340071B7
:101F700001340170648184A337F1558500632864BE
:101F800028A335F133F265F030D34A730BF130D327
:101F90004A730BF230D34AA335F533F265730BF174
:101FA00030D34A730BF230D34A22AFA2DEF0658EF3
:101FB000004E027E047EFC380011E18006616481DF
:101FC0000587154F0011E621FB3000101A6301113F
:101FD000F0A34D602A6118D01570086205F21ED07A
:101FE0001521FB6300A337F16582E0F375600AE019
:101FF000A111F5600AE0A111F800FDA2E7630264F7
:1020000008D348A2F3630AD348A352630E6410D3E3
:10201000476025211B600AE0A112146000E0A112B4
:1020200014D347740244381203D347120600EE81DA
:10203000006FF081F281066F0F80F2800E800E80BB
:102040000E7010710200EE70F071FE8056805680A6
:1020500056815E801400EEA35681006F0F81F281DD
:102060000EF11E6FF080F2800681008106810680ED
:1020700014800EF01E00EE83002229F16565003009
:102080000B65FF410012446103F1181252225E8079
:10209000302215D0188030222961008020F155802F
:1020A00020225E80302215D01822AF875437FF12CD
:1020B0005C4800125B78FF6763125C670022AF0028
:1020C000EE610F8012800E800E800EA2DFF01E00E7
:1020D000EE80C02229F165400B119F890080C0224B
:1020E0002980906101F15500EE63004B0663014BBE
:1020F0000363104B0063F04B0563FF81C081346FB5
:10210000F081F241F0119F4160119F81C081346FD5
:102110000F81F2410F119F410A119F8C34226600FA
:10212000EE81A01295C1078006800640008106A3BB
:102130002AF11EF065850064036300A332F31EF0EC
:10214000658200225E6004D048A332F31E8050F006
:1021500055225E6004D048740C852073013305124B
:102160009B00EE63696409A335F833F265F229D365
:10217000457306A335F733F265F129D3457306F2AB
:1021800029D34500EE80E070FE8006800661148150
:1021900005A335F133F265F13063686432D34A73D5
:1021A0000BF230D34A00EEF8F8C0C0C0C0C0C0C0C7
:1021B000C0C0C0C0FF0303030303030303030303FF
:1021C000FF00000000000000000000C3C3C3C3C341
:1021D000C3C3C3FFFF00000000FFFFC3C300000034
:1021E00000C3C3FFFFFFFFFFFFFFFFFFFF0F07035A
:1021F0000383C3FFFFF0E0C0C0C1C3FFFFC0C0C086
:10220000C0FFFFFFFF03030303FFFFC3C3C3C3C339
:10221000C3FFFFFFFFC3C3C3C3C3C3007E42424229
:10222000427E000000000000000000C3C1C0C0E00A
:10223000F0FFFFC3830303070FFFFF0000183C3CC0
:1022400018000000101070701010000018187E1890
:102250000008040408102020101D15161E0102039A
:1022600003060705080009030A000000000000003B
:1022700000000000000000A3A2E3A2AABB929312F8
:102280003ABBA2B3223A8888884048D992D252D920
:102290003BAAB3AA2B9A929A91D9B4A4B42436EA51
:1022A000AAAEA4E4EE8ACE89E9202070F8F8F8708E
:1022B000000B000B000B000B000B000B000B000BC6
:1022C000000B000B000B000B000B000B000B000BB6
:1022D000000B000B000B000B000B000B000B000BA6
:1022E000000B000B000B000B000B000B000B000B96
:1022F000000B000B000B000B000B000B000B000B86
:10230000000B000B000B000B000B000B000B000B75
:10231000000B000B000B000B000B000B000B000B65
:10232000000B000B000B000B0000E060006100A040
:10233000179012603C611EA020D014601EF015F0B2
:10234000073000100B00E100E0601EF015F00730D0
:1023500000101200E21000736176652072657374DC
:102360006F7265207465737400FFFFFFFF00E0A0CB
:102370002C600061009012633C60006100F31571F5
:10238000013F007001F30733001009640065082065
:102390001F640065108010201F623CF215F20732A6
:1023A0000010186020E09E100000FDA032F03363A2
:1023B00000A032F31EF065F029D455740473013384
:1023C00003102200EE7370656564207465737400F9
:1023D0000000000000FFFFFFFFFFFFFFFFFFFFFF08
:1023E000FFFFFFFFFFFFFFFFFFFFFFFFFFFFFFFFFD
:1023F000FFFFFFFFFFFFFFFFFFFFFFFFFFFFFFFFED
:10240000FFFFFFFFFFFFFE03FCFFE7CF800FFFFF93
:10241000FFFFFFFFFFFFF800FCFFE7CF8007FFFF94
:10242000FFFFFFFFFFFFF0FC7CFFE7CF9FE3FFFF15
:10243000FFFFFFFFFFFFE3FE3CFFE7CF9FF1FFFF42
:10244000FFFFFFFFFFFFC7FF1CFFE7CF9FF9FFFF65
:10245000FFFFFFFFFFFFCFFF9CFFE7CF9FF9F83F94
:10246000E0FE60FFFFFF8FFFFCFFE7CF9FF9E01F5B
:10247000803E007FFFFF9FFFFCFFE7CF9FF9C78FE4
:102480001F1E1E3FFFFF9FFFFCFFE7CF9FF1CFC73F
:102490003F9E3F3FFFFF9FFFFC0007CF9FE39FE66C
:1024A0003F8E7F3FFFFF9FFFFC0007CF80079FFE0F
:1024B0007FCE7F3FFFFF9FFFFCFFE7CF801F9FFE88
:1024C0007FCE7F3FFFFF9FFFFCFFE7CF9FFF9FFE79
:1024D0007FCE7F3FFFFFCFFF9CFFE7CF9FFF9FFE99
:1024E0007FCE7F3FFFFFCFFF1CFFE7CF9FFF9FE621
:1024F0007FCE7F3FFFFFC7FF3CFFE7CF9FFF9FE6F9
:102500003F8E7F3FFFFFE3FE3CFFE7CF9FFFCFCF34
:102510003F9E7F3FFFFFF1F87CFFE7CF9FFFC78F14
:102520001F1E7F3FFFFFF800FCFFE7CF9FFFE01F6C
:10253000803E7F3FFFFFFE03FCFFE7CF9FFFF83F9A
:10254000E0FE7F3FFFFFFFFFFFFFFFFFFFFFFFFFFB
:10255000FFFFFFFFFFFFFFFFFFFFFFFFFFFFFFFF8B
:10256000FFFFFFFFFFFFFFFFFFFFFFDFFFFFF87F22
:10257000C7FFFFFFFFFFFFFFFFFFFFFFFFFFF77F2B
:10258000BBFFFFFFFFFFFFFFFFFFFFFFFFFFEFBFEF
:102590007DFFFFFFFFFFFFF7DC7A61DF1E8FFFBFCC
:1025A0007DFFFFFFFFFFFFF7DBB9DEDEEE77FFBF4A
:1025B0007DFFFFFFFFFFFFFBB7DBDFDDF6F7FF7FF0
:1025C0007DFFFFFFFFFFFFFBB7DBDFDDF6F7FF7FE0
:1025D0007DFFFFFFFFFFFFFD701BE1DDF6F7FEFF54
:1025E0007DFFFFFFFFFFFFFD77FBFEDDF6F7FDFF41
:1025F0007DFFFFFFFFFFFFFD77DBFEDDF6F7FBFF53
:102600007DFFFFFFFFFFFFFEFBBBDEDEEEF7F7FF08
:10261000BBFFFFFFFFFFFFFEFC7BE1DF1EF7E03BA0
:10262000C7FFFFFFFFFFFFFFFFFFFFFFFFFFFFFFF2
:10263000FFFFFFFFFFFFFFFFFFFFFFFFFFFFFFFFAA
:10264000FFFFFFFFFFFFFFFFFFFFFFFFFFFFFFFF9A
:10265000FFFFFFFFFFFFFFFFFFFFFFFFFFFFFFFF8A
:10266000FFFFFFFFFFFFFFFFFFFFFFFFFFFFFFFF7A
:10267000FFFFFFFFFFFFFFF1FFFFFEFEFBF1C7BC07
:102680003FFFFFFFFFFFFFEEFFFFFFFEFBEEBB3D47
:10269000FFFFFFFFFFFFFFDFC69BAACA91FEBABB89
:1026A000FFFFFFFFFFFFFFDFBA6BA6B26BFEBBB8F9
:1026B0007FFFFFFFFFFFFFDFBAED6EBAEBFDBBBF91
:1026C000BFFFFFFFFFFFFFDFBAED6EBAEBFBBBBF43
:1026D000BFFFFFFFFFFFFFEEBA6EEEB2EBF7BBBB33
:1026E000BFFFFFFFFFFFFFF1C69EEECAE9E0C7BCD8
:1026F0007FFFFFFFFFFFFFFFFEFEFFFBFFFFFFFF70
:10270000FFFFFFFFFFFFFFFFFEFDFF87FFFFFFFF54
:10271000FFFFFFFFFFFFFFFFFFFFFFFFFFFFFFFFC9
:10272000DFFFFFFFFFFFFF7FFFFFFFFF87FFFFDFF1
:10273000AFFFFFFFFFFFFF7FFFFFFFFFBBFFFFDFDD
:10274000FFFFFFFFFFFFFF638E57638FBD8E38D300
:102750008C38E3FFFFFFFF5D75975D77BD75D74D43
:1027600075D75DFFFFFFFF617DD7419FBD0677DD18
:1027700005D067FFFFFFFB5D7DD75FEFBD7FB7DD56
:102780007DD7FBFFFFFFFB5975965D77BB75D75D66
:1027900075D75DFFFFFFFCE58E59638F878E38DDAF
:1027A0008DD8E3FFFFFFFFFFFFDFFFFFFFFFFFFF0E
:1027B000FFFFFFFFFFFFFFFFFFDFFFFFFFFFFFFF49
:1027C000FFFFFFFFFFFFFFFFFFFFFFFFFFFFFFFF19
:1027D000FFFFFFFFFFFFFFFFFFFFFFFFFFFFFFFF09
:1027E000FFFFFFFFFFFFFFFFFFFFFFFFFFFFFFFFF9
:1027F000FFFFFFFFFFFFFFFFFFFFFFFFFFFFFFFFE9
:1029D000FFFFFFFFFF102C4D616769632053717586
:1029E0006172652076312E302062792044617669EB
:1029F000642057494E5445520041646170746564C7
:102A000020746F2043484950636F6E2076322E3019
:102A1000206279204A616371756573204465736330
:102A200068656E65732C2032303135000000E0A1FE
:102A30007460006100620167006800F055F21E7169
:102A40000131401033A13561066001620B6307D18B
:102A50000BF21E700DD107F31E70F37108313E109A
:102A60003D600D611A62056E03A11CD015F21E7047
:102A7000063031104B20E3620FF215F207320010DE
:102A800053F20A3208105E4E03106520E37EFF20E9
:102A9000E3321010654E08106520E37E0120E3321A
:102AA00020105100E0610088E4710151E010698A52
:102AB000E08AA48AA48AA460808A078A068BE08BB5
:102AC000B48BB48BB460408B078B0680A081B0625E
:102AD000006300A131D0177008720152E0108080AD
:102AE000A071086200730153E010806C006D00203B
:102AF000E6600FF015F00730001090F00A30021079
:102B00009A20E63D007DFF20E6300810A020E63C3C
:102B1000007CFF20E6301010A720E67C019CE07CC2
:102B2000FF20E6300410AE20E67D019DE07DFF2011
:102B3000E63020108E210520F34D0010B77DFF20D8
:102B4000F37D014C0010BC7CFF20F37C0180C07041
:102B50000190E010C37C0120F37CFF80D0700190D5
:102B6000E010CA7D0120F37DFF600FF015F0073003
:102B70000010CC21055780108E20E6602061006097
:102B80000FF015F007300010D721056020E09E10EF
:102B9000D56104F118E0A110DE102CFE29D015003B
:102BA000EEA12E82C083D082248224822482A48338
:102BB000348334833483B4D23600EE81C082D08231
:102BC00024822482248124A174F11EF0656901808D
:102BD00093300177FF30007701F055A12B10E763A8
:102BE00018A10C6108D1306167D13000EE042002D9
:102BF000408241400223C4042008101008D24B1226
:102C000048099005A003C003C003C0010080808074
:102C100080F8F880E080F88888885020F880E0808C
:102C2000F880808080F800200020000000383838CC
:102C300000007C4444447CFE8282828282FE00C189
:102C4000E3F7DDC9C1C1C1C1C1C1FE00C0FE0202BE
:102C5000FE8F9FB8B0B0BFBFB0B0B0B07F016161B0
:102C600065627D83C7EE6C6CECEC6C6E6763300064
:102C7000303030303FF3FB03030373FB1B3BF3E3C4
:102C80009F80989F9898981F3F7060606060607008
:102C90003F1FCF404CCF4C4C4C80C0000000000088
:102CA0000000FFFFE72026E786462700000000001F
:102CB00000000000F0E0F00000800000F0000000E4
:102CC00000000000000000202020202000200050F4
:102CD000505000000000005050F850F850500020B4
:102CE00078A07028F02000C0C8102040981800601C
:102CF00090A040A8906800602040000000000010F4
:102D000020404040201000402010101020400000C3
:102D100020A870A8200000002020F820200000003B
:102D200000000060204000000000F00000000000F3
:102D3000000000006060000008102040800000706B
:102D40008898A8C8887000206020202020F8007093
:102D50008810204080F800F00808F00808F0001003
:102D6000305090F8101000F88080F00808F0003023
:102D70004080F088887000F80810204040400070C3
:102D800088887088887000708888700808700000D3
:102D90006060006060000000606000602040001023
:102DA000204080402010000000F800F800000040A3
:102DB00020100810204000708808102000200070AB
:102DC000880868A8A87000708888F888888800F04B
:102DD0008888F08888F0007880808080807800F093
:102DE0008888888888F000F88080F88080F800F86B
:102DF0008080F880808000788080B088887000882B
:102E00008888F8888888007020202020207000782A
:102E1000080808089060008890A0C0A090880080F2
:102E20008080808080F80088D8A88888888800887A
:102E300088C8A8988888007088888888887000F07A
:102E40008888F08080800070888888A8987800F052
:102E50008888F0A0908800788080700808F000F8DA
:102E6000202020202020008888888888887000887A
:102E700088888888502000888888A8A8D8880088F2
:102E8000885020508888008888885020202000F8AA
:102E90001020408080F800604040404040600000CA
:102EA00080402010080000180808080808180020B2
:102EB00050880000000000000000000000F8004002
:102EC0002010000000000000007008788878008062
:102ED0008080B0C888F00000007080808870000892
:102EE0000808689888780000007088F880700030C2
:102EF0004840E040404000000078888878087080B2
:102F000080B0C88888880000200020202020001081
:102F100000301010906000808090A0C0A0900060F1
:102F2000202020202070000000D0A8A88888000061
:102F300000B0C88888880000007088888870000009
:102F400000F08888F080800000689090B0501800F1
:102F500000B0C880808000000070807008F00040E1
:102F600040E04040483000000088888898680000B1
:102F70000088888850200000008888A8A850000099
:102F800000885020508800000088888878087000E9
:102F900000F8102040F800204040804040200020F1
:102FA0002020202020200040202010202040000051
:102FB0000040A810000000FCFCFCFCFCFCFCFC40F9
:102FC0002010F810204000102040F8402010002071
:102FD00070A8202020000000202020A870200000E1
:102FE00070F8F8F87000007C82868A92A2C2827C17
:102FF0000008182808080808083E00384482040819
:10300000102040FE00384482023C02824438008492
:103010008484847E04040404007E8080807C020218
:1030200002FE0078848080FC8282827C007E8204A2
:1030300008080808080800384482827C82824438E4
:103040000038448282463A0204380038448282FEC4
:103050008282828200FC828282FC828282FC003E2A
:10306000408080808080403E00F88482828282821C
:1030700084F800FE808080FE808080FE00FE8080DC
:1030800080FE8080808000E0A0A0A0E000C04040E2
:1030900040E000E020E080E000E020E020E000A050
:1030A000A0E0202000E080E020E0008080E0A0E0C0
:1030B00000E02020202000E0A0E0A0E000E0A0E070
:1030C000202000E0A0E0A0A000C0A0C0A0C000E0C0
:1030D000808080E000C0A0A0A0C000E080E080E090
:1030E00000E080E08080000B022A024B026E029317
:1030F00002BA02E40210033F037003A403DC0317C7
:103100000455049704DD04100E576F726D0052428F
:103110003932000000004705002B7C0000061E012C
:1031200000040000FF00E0A006FE65A0CCF055FC06
:103130001E710131001013A0B5DAB3D421D431745B
:1031400003347A101AA0BE6304D329D42972093239
:10315000481021A003F065A001F033632E2073A076
:1031600001F533207220A6A0BDD76176FE3611107E
:1031700030630AF315A0CCF81EF065840080A0F03F
:1031800055A14CF81EF065810080B0F055A0B63412
:1031900000D413A0B1F91EF165A0B8DAB28A048B8D
:1031A00014A0B5DAB33F00107FC00F400020A47810
:1031B0000198E068006108E19E6600E19E106136BA
:1031C0000010617902660689626110E19E6700E184
:1031D0009E106B3700106B79FE67068972F3073318
:1031E00000105710352072A001F5336300647CA0F5
:1031F00001F265F029D4357306F129D4357306F24E
:1032000029D43500EE20AEA0B5DAB3DAB33F001012
:103210008A6402F4187501206F1054640AF418DAF5
:10322000B38A058B15A0B8DAB2A003F0658055808B
:10323000504F00F0556064F015F007300010990011
:10324000C88100A0C39012F00A302010A0100E7E9A
:103250000100EEA0B9CC707C02CD3C7D02DCD74FE2
:103260000000EEA0B9DCD710A7040000FCFC0000B1
:1032700004E0E0E0A0E0000040387CDEFEFE7C38A8
:1032800000F0008080808080808080800073656C8A
:1032900065637420726573746172742E2E2E000043
:1032A000000000000000000000000000000000001E
:1032B000000000000000000000000000000000000E
:1032C00000000000000000000000000000000000FE
:1032D00000000000000000000000000000000000EE
:1032E00000000000000000000000000000000000DE
:1032F00000000000000000000000000000000000CE
:1033000000000000000000000000000000000000BD
:1033100000000000000000000000000000000000AD
:10332000000000000000000000000000000000009D
:10333000000000000000000000000000000000008D
:10334000000000000000000000000000000000007D
:10335000000000000000000000000000000000006D
:10336000000000000000000000000000000000005D
:10337000000000000000000000000000000000004D
:10338000000000000000000000000000000000003D
:10339000000000000000000000000000000000002D
:1033A00011241FBECFEFD8E0DEBFCDBF11E0A0E0FB
:1033B000B1E0EAE8FCE602C005900D92A431B10745
:1033C000D9F727E0A4E1B1E001C01D92A83FB20700
:1033D000E1F70E94811C0C9443360C940000FC0120
:1033E000818190E0982F88272081822B0895FC010D
:1033F00023816281862F90E0A0E0B0E077276627E6
:10340000922B2081622B2181722B0895EF92FF92E3
:103410000F931F93CF93DF938C017B01C0E0D0E02B
:10342000CE15DF0549F0F801EC0FFD1F6491CE01C8
:103430000E94112E2196F4CFDF91CF911F910F9111
:10344000FF90EF900895DF92EF92FF920F931F93FA
:10345000CF93DF93CDB7DEB7A0970FB6F894DEBF5A
:103460000FBECDBF29E0289F7001299FF00C1124C9
:1034700085E0EE0CFF1C8A95E1F700E010E0D12C0E
:10348000AE014F5F5F4F60E270E0C8018E0D9F1D7F
:103490000E94562E8981882389F080E20E94BD2EE9
:1034A000CE0101960E941B2F88E0D8120E94922E16
:1034B000D394005E1F4F89E0D812E2CF8D2DA096E5
:1034C0000FB6F894DEBF0FBECDBFDF91CF911F9135
:1034D0000F91FF90EF90DF9008959F92AF92BF926F
:1034E000CF92DF92EF92FF920F931F93CF93DF93D0
:1034F0006C010E94803282E0809377038091770391
:103500008111FCCF80E090E00E94231A982EC0E049
:10351000D0E0E12CF12C99E0A92E00E02FEB3FE266
:1035200048E01C2F110F110F110F612F80E00E9436
:10353000E7300E94202AB82E2FEB3FE248E0612FAF
:1035400080E00E94E73088E0B81631F18B1540F03A
:1035500082E0B816D9F184E0B81609F44AC066C012
:1035600080E1B816F1F080E2B81260C00E94282A0B
:1035700029E02E9DC0012F9D900D11248C0F9D1FC1
:10358000DF91CF911F910F91FF90EF90DF90CF903F
:10359000BF90AF909F900895E114F10409F444C0E6
:1035A0001CC0E7012196AC9E9001AD9E300D112408
:1035B0002C153D0544F40E948032CE010E94231A4E
:1035C000982E7E0131C0C92DD0E002C0209711F0A5
:1035D00021972CC0E114F10449F181E0E81AF108C7
:1035E0000E948032C7010E94231A982EC7E0D0E0C3
:1035F0001DC0292D30E021503109C217D30714F422
:10360000219614C087010F5F1F4FA09E9001A19EBD
:10361000300D11242C153D054CF40E948032C80158
:103620000E94231A982E7801C0E0D0E086B18E73F4
:103630008E3309F472CF41E062E08B2D0E9401309D
:10364000F5CF0F931F93CF93DF93CDB7DEB7C1555F
:10365000D1090FB6F894DEBF0FBECDBF62961FAE84
:10366000629700E010E0CE0101960E94132A8823A1
:1036700069F189A184FD26C069E071E0CE0101965F
:103680000E941836892B41F464E071E0CE01019666
:103690000E941836892BB1F0BE016F5F7F4FCE01BB
:1036A000C2960E940336AE014E5C5F4F60E270E04E
:1036B000C80135E0880F991F3A95E1F70E94732EF3
:1036C0000F5F1F4F011588E018076CF21AAAAE01B0
:1036D0004E5C5F4F60E270E0C80125E0880F991FE3
:1036E0002A95E1F70E94732EC801CF5ADF4F0FB61B
:1036F000F894DEBF0FBECDBFDF91CF911F910F9128
:1037000008950E94211B009791F00E946D1A97FD69
:103710000EC00E94C829882351F00E9480320E9466
:10372000241D823021F484E690E10C94D31C08958A
:103730008F929F92AF92BF92CF92DF92EF92FF92C1
:103740000F931F93CF93DF93CDB7DEB7A0970FB63C
:10375000F894DEBF0FBECDBFCE0101967C0180E2A2
:10376000F70111928A95E9F7A12CB12CC12CD12C2B
:1037700000E010E0F0E28F2EC8010196F801EB5551
:10378000FF4E9490992009F1D7018C01FAE09F1621
:1037900049F09D920F5F1F4FF801EC55FF4E94903A
:1037A0009110F4CFA70160E270E0C5010E94732E72
:1037B0008FEFC81AD80AF701882D11928A95E9F778
:1037C00090E2A90EB11C9110D7CFA70160E270E082
:1037D000C601E5E0880F991FEA95E1F70E94732E74
:1037E0000E948032C6010E946D1A8C30910508F04B
:1037F0004CC0FC01EC5CFF4F0C94833462E272E03D
:1038000085E895E136C06CEA71E08AE99EE031C056
:1038100068E972E087E091E32CC06EE373E08CED21
:1038200090E027C060E87AE08AE194E022C062E993
:1038300073E083E191E11DC064E277E085E09CE103
:1038400018C06AEE72E085ED99E213C06EE574E08F
:1038500087EA97E10EC06EE770E08CEF94E109C053
:1038600064E470E089E293E204C068E670E08DE60B
:1038700093E20E94061A0E9480320E94241D823028
:1038800021F481E590E10E94D31CA0960FB6F89434
:10389000DEBF0FBECDBFDF91CF911F910F91FF9083
:1038A000EF90DF90CF90BF90AF909F908F90089552
:1038B000CF93DF93C0E0D0E0FE01EB52FC4D64916A
:1038C000CE010E9476302196C03884E0D807A1F757
:1038D0008CE38093770380917703882361F086B12E
:1038E0008E738E33C1F362E088EE93E00E94EF2F77
:1038F00010927703F0CF0E94282ADF91CF910C9489
:10390000803280E880936100109261000E94513003
:1039100082E00E948F2E84B1886284B980E58CBDDC
:103920008DB581608DBD87B1817C87B988B18E638B
:1039300088B90E94E72F0E940A2E78940E94581C92
:1039400080918400909185000E94CB350E94312B9C
:10395000882351F00E941229882331F082E191E0FE
:103960000E946F29C82F07C08DB581608DBD8CB5B1
:103970008C7F8CBDC0E064E087E790E10E948B2FD4
:103980000E94803282E00E948F2ECC2319F00E9488
:10399000811BF6CF86E490E10E94272F0E94332AF4
:1039A0000E94981BEDCFCF93DF93EC010E948032F1
:1039B00082E00E948F2ECE010E94272F8FE091E19E
:1039C0000E94272F809134019091350164E0029785
:1039D0000E94362F8091590162E090E00E94362FBC
:1039E00080915A0162E090E00E94362F0E94922E50
:1039F0008CE091E10E94272F64E080913601909144
:103A000037010E94362F87E091E10E94272F809195
:103A1000380162E090E00E94362F0E94922E80E0F2
:103A200091E10E94272FC9E3D1E0899162E090E003
:103A30000E94362F81E0C934D807B9F70E94922E30
:103A4000DF91CF910C94332A6F927F929F92AF9225
:103A5000BF92CF92DF92EF92FF920F931F93CF937B
:103A6000DF931F92CDB7DEB710923501109234016B
:103A70001092380110923701109236011AE0662434
:103A80006394712CE8E4FE2EF0E8EF2E809134016F
:103A9000909135010E943A2E8093590190935A01DA
:103AA000C0903401D0903501D6011296B093350103
:103AB000A0933401082F0F70292F92959F70482FE3
:103AC00042954F7050E0405C5F4FFA010C94833494
:103AD000822F807F803C29F4822F8F700E948E324B
:103AE000D5CF803D29F4822F8F700E94B632CECF81
:103AF0002B3F59F1E0F4213E11F130F4203E09F062
:103B00004AC30E948032C2CF223EE1F02E3E09F02D
:103B100042C3E09138018FEF8E0F80933801F0E0BF
:103B2000EE0FFF1FEC5CFE4F87A190A561C22D3FF9
:103B300009F42FC308F0AACF0E941233A7CF0E9426
:103B40002E33A4CF0E943633A1CF0E94EB329ECFFA
:103B5000409138014F5F40933801E42FF0E0EE0FC1
:103B6000FF1FEC5CFE4FB0A7A7A330E0382B220F5D
:103B7000331F3F70309335012093340187CFA02F3E
:103B8000B0E0AC5CBE4F15968C9182137FCFA7C17D
:103B9000A02FB0E0AC5CBE4F15968C9182139FC1F4
:103BA00075CF202F30E02C5C3E4FA92FB0E0AC5CED
:103BB000BE4FF901958115968C91981367CF8FC1EF
:103BC000E02FF0E0EC5CFE4F258360CFE02FF0E0CB
:103BD000EC5CFE4F8581982F920F958330E0280F83
:103BE000311D81E02F3F310511F00CF0EAC178C0A2
:103BF000422F4F7050E04F30510508F0CCC2FA010F
:103C0000E05BFF4F0C948334E92FF0E0EC5CFE4F57
:103C100085815BC2E02FF0E0EC5CFE4FA92FB0E0A5
:103C2000AC5CBE4F15968C919581892B52C2E02FCA
:103C3000F0E0EC5CFE4FA92FB0E0AC5CBE4F1596F7
:103C40008C911CC1E02FF0E0EC5CFE4FA92FB0E09E
:103C5000AC5CBE4F15968C91958189273AC2E02FB6
:103C6000F0E0EC5CFE4F2581A92FB0E0AC5CBE4FCC
:103C700015968C91982F920F958390E0820F911D4D
:103C800021E08F3F910509F00CF420E020934801DA
:103C9000FDCEE02FF0E0EC5CFE4F2581A92FB0E0D7
:103CA000AC5CBE4F15969C9114C0E02FF0E0EC5C2C
:103CB000FE4F8581982F96959583817082C1E92F5B
:103CC000F0E0EC5CFE4F2581E02FF0E0EC5CFE4F75
:103CD0009581822F891B858381E0291708F071C1A6
:103CE00080E06FC1E02FF0E0EC5CFE4F8581982F03
:103CF000990F9583881F8827881F63C1422F4F70B3
:103D000050E0415051094F30510528F4415A5F4F5E
:103D1000FA010C948334202F30E02C5C3E4FA92F05
:103D2000B0E0AC5CBE4FF901958115968C9198136B
:103D3000D6C0ACCEA92FB0E0AC5CBE4FE02FF0E017
:103D4000EC5CFE4F40E045C082E099830E948F2EDC
:103D50009981A92FB0E0AC5CBE4FE02FF0E0EC5CA5
:103D6000FE4F15966C9185810E94162F8091360129
:103D7000909137019C012F5F3F4F30933701209383
:103D800036010E94252E882309F480CE0E94BD2E84
:103D9000EDCFA92FB0E0AC5CBE4FE02FF0E0EC5CC3
:103DA000FE4F42E015966C9185810E947B306ECE6D
:103DB000892FF0E10F9F800D11240E941D3066CEE7
:103DC000A92FB0E0AC5CBE4FE02FF0E0EC5CFE4F02
:103DD00041E015966C9185810E94013057CEE091AB
:103DE0003801EF5FE0933801F0E0EE0FFF1FEC5C6D
:103DF000FE4FA02FB0E0AC5CBE4F15968C9190E0CA
:103E000090A787A343CEE09138018FEF8E0F809368
:103E10003801A02FB0E0AC5CBE4FF0E0EE0FFF1F0A
:103E2000EC5CFE4F87A115968C9330CEE02FF0E02E
:103E3000EC5CFE4FE5822ACEE02FF0E0EC5CFE4F1A
:103E4000F58224CEE02FF0E0EC5CFE4F97709301FA
:103E500002C0220F331F9A95E2F7C9019581982B72
:103E60006CC0E02FF0E0EC5CFE4F9770930102C055
:103E7000220F331F9A95E2F7C90180959581892316
:103E800028C1E02FF0E0EC5CFE4F9770930102C078
:103E9000220F331F9A95E2F7C901958198274DC0EB
:103EA000A02FB0E0AC5CBE4F15962C9130E097701F
:103EB00002C0359527959A95E2F720FFE7CD0FC010
:103EC000A02FB0E0AC5CBE4F15962C9130E09770FF
:103ED00002C0359527959A95E2F720FDD7CDF601DA
:103EE0003496F0933501E0933401D0CD692F802FC3
:103EF0000E94C83066C030E0382B220F331F3F705D
:103F0000309337012093360180919B0181601BC162
:103F10009091390130E0382B220F331F3F70290F69
:103F2000311D290F311D26CE0E94C635E02FF0E04D
:103F3000EC5CFE4F90915A0198239583A7CD2F708A
:103F4000922EC02ED12CA92EB12C809136019091A9
:103F50003701211114C044E151E060E270E00E9499
:103F6000562ED501AC5CBE4FF601EC5CFE4F44E131
:103F700051E015966C9185810E94843122C0209178
:103F80009B0120FD09C0D501AC5CBE4FF601EC5C85
:103F9000FE4F00E09C010FC0692D70E044E151E04C
:103FA0000E94562ED501AC5CBE4FF601EC5CFE4F74
:103FB00001E024E131E0492D15966C9185810E9444
:103FC000E7308093480162CD2E3919F0213AA9F0EB
:103FD000E2C0E02FF0E0EC5CFE4F85810E941A2ADF
:103FE000882309F453CD80913401909135010296D4
:103FF000909335018093340149CDE02FF0E0EC5CE3
:10400000FE4F85810E941A2A811140CDECCF2932C2
:1040100009F473C018F5253109F45DC048F4273060
:1040200009F451C02A3009F0B6C00E94202A4DC0C0
:10403000283109F458C02E3109F0ADC0E02FF0E06E
:10404000EC5CFE4F25818091360190913701820F03
:10405000911D909337018093360118CD253509F4D1
:1040600075C0D8F4203309F459C0233309F093C044
:10407000E02FF0E0EC5CFE4F8581612F0E9422343E
:10408000909316010E94223490931501809314019D
:1040900044E151E063E070E05FC0253709F463C09C
:1040A000253809F46BC0253609F075C0602F70E023
:1040B0006F5F7F4F49E351E0809136019091370166
:1040C0000E94562EE3CC80917703E02FF0E0EC5C69
:1040D000FE4F8583DBCCE02FF0E0EC5CFE4F85816A
:1040E00080937703D3CCE02FF0E0EC5CFE4F65814A
:1040F0008BE092E00E94EF2FC9CCE02FF0E0EC5C67
:10410000FE4F858136E0839FC001112489579F4C63
:10411000909337018093360180E010C0E02FF0E0EB
:10412000EC5CFE4F8581EAE08E9FC001112489512D
:10413000904D909337018093360181E00E948F2E3D
:1041400080919B018E7F80939B01A0CC602F70E0BB
:104150006F5F7F4F49E351E08091360190913701C5
:104160000E94732E93CC80E0E82FF0E0EC5CFE4FD1
:104170009581958B8F5F0817B8F788CC80E0E82F82
:10418000F0E0EC5CFE4F958995838F5F0817B8F7D8
:104190007DCC81E001C082E00F90DF91CF911F9133
:1041A0000F91FF90EF90DF90CF90BF90AF909F90D6
:1041B0007F906F9008956F927F928F929F92AF92AF
:1041C000BF92CF92DF92EF92FF920F931F93CF9304
:1041D000DF9300D000D0CDB7DEB74C01CB01BA01E0
:1041E0008114910409F476C062307105810591054E
:1041F00008F470C0D401ED91FC912085608071803D
:104200002B3089F524E030E040E050E00E94ED34AE
:10421000F401A284B384C484D584E684F78400893D
:1042200011890E943635F4E0EF2EF12C8E010F5FDC
:104230001F4FF3010995882309F44CC049815A8125
:104240006B817C81411551056105710509F442C0FE
:10425000DB01CA01805F9F4FAF4FBF404097A10570
:10426000B105A0F537C022E030E040E050E00E9408
:10427000ED34D4011A96AC901A971B96BC901B97FC
:104280001C96CC901C971D96DC901D971E96EC906A
:104290001E971F96FC901F9750960C915097519621
:1042A0001C910E943635E2E0EE2EF12C8E010F5F5C
:1042B0001F4FF3010995882369F089819A81AC0128
:1042C00060E070E001978F3E9F4F20F4342F252F40
:1042D000CB0104C030E020E080E090E0632F722F3B
:1042E0000F900F900F900F90DF91CF911F910F9132
:1042F000FF90EF90DF90CF90BF90AF909F908F9006
:104300007F906F9008958F929F92AF92BF92CF92BD
:10431000DF92EF92FF920F931F93CF93DF936C0185
:10432000D701CD91DC91119712968D919C911397A5
:10433000809613969C938E931297F6018081853E0A
:1043400009F48BC0882309F488C083858F3009F471
:1043500084C081E3DE011D928A95E9F709A71AA7B7
:104360002BA73CA74DA75EA76FA778ABD601AE01E0
:1043700080E09C91903299F0FA019083F6012485B7
:1043800023FF07C02C9121542A3118F4905EFA01C2
:1043900090838F5F11964F5F5F4F883051F7988100
:1043A000953011F495EE9883D60118969C91903231
:1043B00011F1FE01E80FF11D9EE29083F60138969F
:1043C00034E0380F8F5F90819032A9F0AE01480F32
:1043D000511DDA019C93D6011C962C9124FF07C035
:1043E000208121542A3118F4905EDA019C938F5F6A
:1043F00031968313E8CFFE01E80FF11D1082F6011C
:10440000838588A3C6014A960E94EF194C01A12C0E
:10441000B12C89A29AA2ABA2BCA2C60144960E946A
:10442000EF19AC0160E070E0BA0155274427482934
:1044300059296A297B2949A35AA36BA37CA3C601E6
:104440004C960E94F7196DA37EA38FA398A781E0D5
:10445000D70114968C9380E001C081E0DF91CF9169
:104460001F910F91FF90EF90DF90CF90BF90AF9092
:104470009F908F9008952F923F924F925F926F92EC
:104480007F928F929F92AF92BF92CF92DF92EF92E4
:10449000FF920F931F93CF93DF93CDB7DEB7C9542D
:1044A000D1090FB6F894DEBF0FBECDBF9FA38EA378
:1044B000892B09F40FC28091C5029091C602892B05
:1044C00009F008C2E5ECF2E082E3DF011D928A9573
:1044D000E9F7EEA1FFA1F093C602E093C502618562
:1044E00072858385948520E032E040E050E00E94B0
:1044F000ED34322E232E6A0168AB79AB8AAB9BABCD
:10450000ABE00E943F35AEA1BFA1ED91FC91B5E2B9
:10451000EB2EF12C8E010F5F1F4F0995811105C005
:104520001092C6021092C502D5C1CE0101960E941A
:10453000EF199FA78EA7CE0104960E94EF198C0158
:10454000AB80AEAEBE80BFAECE0107960E94EF1923
:1045500022969FAF8EAF2297CE0109960E94EF1947
:104560003C01CE010C960E94EF1999AF88AFCE01A5
:1045700046960E94F7194B015C01CE014A960E94B3
:10458000F7196CAB7DAB8EAB9FABCE0182960E94D0
:10459000F7192A966CAF7DAF8EAF9FAF2A97811423
:1045A0009104A104B10439F46114710409F4B8CF81
:1045B0004301A12CB12CE8ACF9ACE114F10441F0B9
:1045C000C701A0E0B0E08CAB9DABAEABBFAB09C008
:1045D0008CA99DA9AEA9BFA9892B8A2B8B2B09F485
:1045E0009FCF24013501401A510A610871089FAD1F
:1045F000892F90E0A0E0B0E026968CAF9DAFAEAFE3
:10460000BFAF26972CA93DA94EA95FA9BC01CD013A
:104610000E941234461A570A680A790A8EA59FA585
:10462000019722962EAD3FAD229745E0220F331F12
:104630004A95E1F7820F931F6EA57FA50E942E3445
:10464000461A570A61087108AEAD2A2F30E040E0E3
:1046500050E0C301B2010E9442342AAF3BAF4CAFDD
:104660005DAF253FBFE03B074105510508F458CF3A
:10467000253F3F4F4105510530F486E0AEA1BFA173
:1046800018968C9304C08BE0EEA1FFA180878CE28A
:10469000E7ECF2E0DF011D928A95E9F7EEA5FFA5B0
:1046A0002F01612C712CC501B401A30192010E945C
:1046B000ED342093C7023093C8024093C90250934F
:1046C000CA026093CB027093CC028093CD02909388
:1046D000CE02B80180E090E0A30192010E94ED3487
:1046E000A32CB22CE8A8F9A80AA91BA90E94363568
:1046F00028AB39AB4AAB5BAB1B014C012093CF021B
:104700003093D0024093D1025093D2026093D302EF
:104710003092D4028093D5029092D6026AAD7BADDE
:104720008CAD9DAD6E5F7F4F8F4F9F4FAEA1BFA1F0
:1047300018962C91263029F422E030E040E050E039
:1047400004C024E030E040E050E00E941234609366
:10475000D7027093D8028093D9029093DA02EEA523
:10476000FFA5F093DC02E093DB02AEACAE9EC0018D
:10477000AF9E900D11249093DE028093DD02AEA1D6
:10478000BFA118968C91863009F057C0E8ADF9ADFD
:104790009F0140E050E0C301B2010E94ED34AFAC94
:1047A000B12CC12CD12CE12CF12C00E010E00E94A6
:1047B0009434A8A8B9A8CAA8DBA8710184010E94F2
:1047C000363519012A013B014C012093E702309252
:1047D000E8024093E9025092EA026093EB02709281
:1047E000EC028093ED029092EE022296AEACBFAC4A
:1047F0002297B50180E090E020E230E040E050E018
:104800000E94ED3459016A017B018C019101A201E2
:10481000B301C4010E9436352093DF023093E002D9
:104820004093E1025093E2026093E3027093E4024A
:104830008093E5029093E6024AC0CEA4DFA4B601BD
:1048400080E090E026962CAD3DAD4EAD5FAD269755
:104850000E94ED34CCA8DDA8EEA8FFA856016701A0
:10486000E12CF12C8701AEA2BFA2C8A6D9A6EAA668
:10487000FBA60CA71DA7E12CF12C00E010E00E9484
:104880009434A8A8B9A8CAA8DBA8710184010E9421
:1048900036352093DF023093E0024093E1025093DB
:1048A000E2026093E3027093E4028093E502909346
:1048B000E6022A96ECACFDAC0EAD1FAD2A97E09255
:1048C000EF02F092F0020093F1021093F20285ECF5
:1048D00092E002C080E090E0C75BDF4F0FB6F89433
:1048E000DEBF0FBECDBFDF91CF911F910F91FF9023
:1048F000EF90DF90CF90BF90AF909F908F907F9080
:104900006F905F904F903F902F900895009719F00F
:10491000FC01118210820895CF93DF93009799F0E4
:104920006115710581F0FB0120A124FD0CC02091CF
:10493000470230914802232B49F0209186023091A2
:104940008702232B31F080E090E021C0C7E4D2E061
:1049500002C0C6E8D2E0DE01129621E3FB0101901D
:104960000D922A95E1F7998388831BAA1CAA1DAA98
:104970001EAA1FAA18AE19AE1AAEFB0181A192A100
:10498000A3A1B4A18BAF9CAFADAFBEAFCE01DF9101
:10499000CF910895009719F0FC01118210820895BB
:1049A0002F923F924F925F926F927F928F929F923F
:1049B000AF92BF92CF92DF92EF92FF920F931F932D
:1049C000CF93DF93CDB7DEB76A970FB6F894DEBF0B
:1049D0000FBECDBF1C017A8F698F5A8B498B009710
:1049E00019F48FEF9FEFC4C1A98CBA8CAB28C9F31F
:1049F000C988DA88C114D104A1F3DC01D396BC9133
:104A0000B983FC01F4A9FA83DC01D596BC91BB8380
:104A1000FC01F6A9FC83DC01D796BC91BD83FC01A7
:104A2000F0ADFE83DC01D996BC91BF83FC01F2ADF1
:104A3000F887DC0197964D905D906D907C909A97E9
:104A4000960140E050E060E070E080E090E0A980F6
:104A5000BA80CB80DC80ED80FE800F8118850E94BB
:104A6000363563015201E12CF12C87014986BA8663
:104A7000CB86DC86ED86FE860F87188BE12CF12C29
:104A800000E010E00E94543559F050F06201E980D6
:104A9000FA80CE18DF08DA8AC98ACD2809F466C1FF
:104AA000D101ED91FC911197A08CB18CB88EAF8A99
:104AB000DB964D905D906D907C90DE974114510493
:104AC0006104710409F04DC093964D905D906D9016
:104AD0007C9096974114510461047104A9F4E1E0BB
:104AE000F0E029813A814B815C816D817E818F81EB
:104AF0009885A0E00E945D3511F4E0E0F0E08827A1
:104B000099278E1B9F0B34C129813A814B815C818F
:104B10006D817E818F819885A0E00E945D3509F1CD
:104B2000C980DA80EB80FC800F89188D4801A12CA8
:104B3000B12CC814D904EA04FB0498F0C818D908A9
:104B4000EA08FB08B301A201D1018D919C910E945A
:104B5000DB202B013C01611571058105910549F7A9
:104B600040CFEF89F88D3197A980BA80EA21FB21E7
:104B7000FE8BED8BC988DA88DA86C986D1018D90E3
:104B80009C908114910479F1B2E04B1651046104B8
:104B9000710448F1F401808D918D9C0140E050E05A
:104BA000C301B20162507109810991090E94ED347B
:104BB000D4015A96AC905A975B96BC905B975C96E2
:104BC000CC905C975D96DC905D975E96EC905E97DE
:104BD0005F96FC905F9790960C91909791961C91A0
:104BE0000E94363508C020E030E040E050E060E050
:104BF00070E080E090E0EF89F88DAD88BE88EA191A
:104C0000FB09FC8BEB8BC984DA84CE16DF0610F42B
:104C1000DC8ACB8AD401ED91FC910D891E89480173
:104C2000A12CB12CC12CD12C760109839A82AB82A4
:104C3000BC82CD82DE82EF82F8865801C12CD12C55
:104C4000E12CF12C00E010E00E9436350190F0815B
:104C5000E02DEB88FC88098D1A8D0995811107C01C
:104C600089899A8929853A85821B930B81C0898D10
:104C70009A8DAB89BC898A0F9B1F9A8F898FE98592
:104C8000FA85EA1BFB0BFA87E9879D0140E050E0BB
:104C900060E070E080E090E0D101D396AC90D397D3
:104CA000D496BC90D497D596CC90D597D696DC90D8
:104CB000D697D796EC90D797D896FC90D897D99658
:104CC0000C91D997DA961C91DA970E943635D396D3
:104CD0002C93D397D4963C93D497D5964C93D59751
:104CE000D6965C93D697D7966C93D797D8967C93A5
:104CF000D897D9968C93D997DA969C93DA978B8923
:104D00009C89ED89FE898E0F9F1FAF88B88C8A150C
:104D10009B05E8F0B301A2018D919C910E94DB20DC
:104D20002B013C01611571058105910571F4D101DB
:104D3000DB961D921D921D921C92DE9789899A899D
:104D4000E985FA858E1B9F0B13C01E8A1D8AD1012F
:104D5000DB964D925D926D927C92DE97E985FA85A5
:104D6000EF2B09F00BCF89899A8902C080E090E08F
:104D70006A960FB6F894DEBF0FBECDBFDF91CF911C
:104D80001F910F91FF90EF90DF90CF90BF90AF9069
:104D90009F908F907F906F905F904F903F902F905B
:104DA0000895CF93DF93009791F06115710579F025
:104DB000FB0120A124FF0BC0CCE9D1E0288139817F
:104DC000232B41F0E996F2E0C734DF07B9F780E022
:104DD00090E016C0DE01129621E3FB0101900D92D6
:104DE0002A95E1F799838883FB0181A192A1A3A170
:104DF000B4A18BAB9CABADABBEAB18AE1FAACE01C2
:104E0000DF91CF910895009719F0FC011182108273
:104E10000895FC01009761F043A154A165A176A11A
:104E200043AB54AB65AB76AB10AE17AA81E00895E7
:104E300080E008952F923F924F925F926F927F92FF
:104E40008F929F92AF92BF92CF92DF92EF92FF929A
:104E50000F931F93CF93DF93CDB7DEB7E9970FB6CC
:104E6000F894DEBF0FBECDBF99AB88AB892B09F19B
:104E700061157105F1F0A8A9B9A92D903C90119781
:104E8000F101008CF18DE02DFBABEAABD3964D9098
:104E90005D906D907C90D697D7962D913C91D89748
:104EA0003FA72EA72E173F0730F088A999A90E9487
:104EB000092780E005C1FE01B19685E0DF011D9262
:104EC0008A95E9F781E3FB0111928A95E9F77AA3C4
:104ED00069A3411451046104710409F093C0D10124
:104EE000ED91FC91119780858B3039F49A964D9015
:104EF0005D906D907C909D9785C0F101028CF38D43
:104F0000E02DD10192968D919C919397E81BF90B1E
:104F1000FBABEAAB77C08DA18111C3C0EAA9FBA9A5
:104F20002EA53FA5E21BF30BFDABECABA90160E0A6
:104F300070E080E090E0DC012EA35FA368A779A772
:104F40008AA79BA7ACA7BDA74114510461047104B3
:104F500009F063C040E050E060E070E080E090E085
:104F6000D1019296AC9092979396BC909397949619
:104F7000CC9094979596DC9095979696EC90969712
:104F80009796FC90979798960C91989799961C9164
:104F90000E9436351CA21BA2D101ED91FC9102802A
:104FA000F381E02DDE0191964D01A3E8AA2EA1E246
:104FB000BA2ECCA8DDA8B0E2EB2EF12C8E010F5F4B
:104FC0001F4F0995882309F474CF8BA19CA1EEA5EE
:104FD000FFA5E80FF91FFFA7EEA72AA93BA9E21733
:104FE000F30708F498CFB301A201C1010E94DB20AE
:104FF0002B013C01611571058105910509F44DC036
:105000001FA61EA6B301A2014250510961097109F0
:105010004EAB5FAB68AF79AF7ECF2114310461F145
:10502000B2E04B1651046104710430F1F101208D9E
:10503000318D40E050E06EA97FA988AD99AD0E9406
:10504000ED34D1015A96AC905A975B96BC905B9721
:105050005C96CC905C975D96DC905D975E96EC904C
:105060005E975F96FC905F9790960C9190979196C3
:105070001C910E94363508C020E030E040E050E04E
:1050800060E070E080E090E0AEA0BFA0C8A4D9A42A
:10509000EAA4FBA40CA51DA57BCF8DA1882309F450
:1050A00004CFA8A9B9A9D3964D925D926D927C9236
:1050B000D697EEA5FFA5D896FC93EE93D7978DA132
:1050C000E9960FB6F894DEBF0FBECDBFDF91CF914A
:1050D0001F910F91FF90EF90DF90CF90BF90AF9016
:1050E0009F908F907F906F905F904F903F902F9008
:1050F00008958F929F92AF92BF92CF92DF92EF92DC
:10510000FF920F931F93CF93DF935C01EB018A0112
:10511000009709F46AC0209709F467C08881882342
:1051200009F463C04115510509F45FC08F3209F4D9
:10513000219681E3F80111928A95E9F780E1F8015F
:1051400080A38881811102C081E050C0B801C501EF
:105150000E94D1267C01009709F447C06FE270E0FD
:10516000CE010E94EF35009741F0C82ECC1A4C01B9
:105170002FEF821A920AD12C16C0FE010190002056
:10518000E9F73197EC1BFD0BCE2E4E018E0E911CD4
:10519000F2CFF80101900020E9F73197E01BF10B05
:1051A000EC15FD0539F0B801C7010E941A278111DD
:1051B000F0CF17C0A601B801CE010E940A36892B94
:1051C00091F7C7010E940327CC0DDD1D888188233C
:1051D00009F4BACFF80180A184FF07C0E401E12CF3
:1051E000F12CC7010E940327ACCF80E0DF91CF9163
:1051F0001F910F91FF90EF90DF90CF90BF90AF90F5
:105200009F908F900895CF93DF93EC010E9480329E
:1052100082E00E948F2ECE010E94272FDF91CF9136
:105220000C94332A0F9318993DC000E020E030E041
:1052300040E050E06EEA7CE28FEE9BE20E943B2A67
:1052400090935A0380935903892BB1F40FEF20E018
:1052500030E040E050E06EEA7CE28FEE9BE20E949C
:105260003B2A90935A0380935903892B29F485EEA6
:1052700094E10E94032916C08091590390915A032A
:105280000E943B229093600380935F03892B61F41B
:105290008FEC94E10E9403298091590390915A0365
:1052A0000E94D62A80E001C081E00F91089580918C
:1052B0005B0390915C030E94CA2480915D039091EE
:1052C0005E030E94032780915F03909160030E9418
:1052D00086248091590390915A030C94D62A48E26F
:1052E00053E0BC0180915F03909160030E94792894
:1052F00068E273E080915F03909160030E94D12681
:1053000090935E0380935D03892B41F48AEB94E1D3
:105310000E9403290E94572980E0089581E00895A2
:10532000CF93DF93EC0167EF72E080915D03909182
:105330005E030E941A27882311F1BE0187EF92E0D5
:105340000E94FA35892B79F780915D0390915E0375
:105350000E94092767EF72E080915F0390916003DC
:105360000E948C2490935C0380935B03892B11F043
:1053700081E005C085EA94E10E94032980E0DF9185
:10538000CF91089580915B0390915C030C94CA24A3
:10539000EF92FF920F931F93CF93DF93CDB7DEB7BA
:1053A000A0970FB6F894DEBF0FBECDBFAE014F5F22
:1053B0005F4F60E270E025E0880F991F2A95E1F7C2
:1053C0000E94562ECE0101960E94902900E010E026
:1053D0008823D9F040E250E0BE016F5F7F4F80919B
:1053E0005B0390915C030E94D0247C01181619067F
:1053F00054F4AE014F5F5F4FB701C8010E94732E96
:105400000E0D1F1DE7CF0E94C229802FA0960FB658
:10541000F894DEBF0FBECDBFDF91CF911F910F91EA
:10542000FF90EF900895BC0180915D0390915E0321
:105430000C941A2796B1982381E009F080E0089532
:1054400086B18E738E33E1F386B180958E730895A5
:1054500086B18E738E3331F062E084EF91E00E946A
:10546000EF2FF6CF08958AE795E10E94272F35990F
:10547000FECF0C94282A5F926F927F928F929F9218
:10548000AF92BF92CF92DF92EF92FF920F931F9352
:10549000CF93DF93CDB7DEB760970FB6F894DEBF3A
:1054A0000FBECDBF6C015B013A014901502E009740
:1054B00019F480E090E064C061157105D1F383E0D8
:1054C0008017BCF307FF05C0809169038111F1CFFC
:1054D0001DC0A0E10A02F0011124E254FE4F9F2FEB
:1054E000990F990B80E1E82EF12C8E010F5F1F4F71
:1054F0009F01492F592F692F792F892FF60109957F
:105500008823B9F28D818111DFCFD3CF81E1E1E62C
:10551000F3E0DF011D928A95E9F7D0926203C09211
:105520006103B0926403A092630370926603609279
:105530006503909268038092670357FC1CC08D81BD
:1055400080936903CE0109960E94F71960936A035C
:1055500070936B0380936C0390936D03CE010D9653
:105560000E94F71960936E0370936F03809370032A
:105570009093710303C08FEF8093690381E693E0FA
:1055800060960FB6F894DEBF0FBECDBFDF91CF910E
:105590001F910F91FF90EF90DF90CF90BF90AF9051
:1055A0009F908F907F906F905F900895009721F06B
:1055B000FC01108681E0089580E008958EBD0DB451
:1055C00007FEFDCF8DB58F778DBD08958FEF8EBD12
:1055D0000DB407FEFDCF8DB58F778DBD8EB50895C7
:1055E0001F93CF93DF9300D000D0CDB7DEB7182F35
:1055F0004C835B836A8379830E94E62A812F8064CF
:105600000E94DE2A7981872F0E94DE2A6A81862FF6
:105610000E94DE2A5B81852F0E94DE2A4C81842F26
:105620000E94DE2A112321F0183039F487E801C0E6
:1056300085E90E94DE2A1AE004C08FEFFACF1150EC
:1056400021F00E94E62A8F3FD1F30F900F900F9028
:105650000F90DF91CF911F91089583B18095817054
:105660000895CF92DF92EF92FF921F93CF93DF9333
:105670002098289A239A259A219A2498299A83E592
:105680008CBD8DB58E7F8DBD109272030E942D2B27
:10569000882309F46DC0CAE00E94E62AC150E1F7F0
:1056A0002998C0E0D2E040E050E0BA0180E00E94DA
:1056B000F02A813021F021972097A9F758C04AEAB3
:1056C00051E060E070E088E00E94F02A82FD15C0A1
:1056D0000E94E62A0E94E62A0E94E62A80FF48C02D
:1056E0000E94E62A8A3A09F043C0809172038260E0
:1056F00080937203C0E0D0E829C040E050E0BA01D6
:1057000087E30E94F02A40E050E0BA0189E20E945B
:10571000F02A82FDEFCF809172038160E9CF81FD95
:105720001BC0C12CD12C760140E050E0BA0187E3C8
:105730000E94F02AB701A60189E20E94F02A182FE0
:10574000117080FF17C02197209789F08091720314
:10575000982F937021F706C0C12CD12CE12C80E446
:10576000F82EE2CF40E050E0BA0181E0E6CF299A7E
:1057700010E02CC0C0917203C1FF17C040E050E0A0
:10578000BA018AE30E94F02A882311F0299A1EC0E8
:105790000E94E62A86FF03C0C460C09372030E9481
:1057A000E62A0E94E62A0E94E62A40E052E060E0F3
:1057B00070E080E10E94F02A299A811107C08CB51F
:1057C0008C7F8CBD8DB581608DBD11E0812FDF9107
:1057D000CF911F91FF90EF90DF90CF9008952F927F
:1057E0003F924F925F926F927F928F929F92AF9271
:1057F000BF92CF92DF92EF92FF920F931F93CF93BE
:10580000DF93CDB7DEB72E970FB6F894DEBF0FBE8D
:10581000CDBF19012A013B014C011C830B83FE867D
:10582000ED864D855E85452B09F47EC09101317072
:105830003A83298340E050E060E070E0CB012D83A3
:105840003E834F83588769877A878B879C8791012E
:10585000A201B301C401AD80BE80C12CD12CE12CCA
:10586000F12C00E010E00E944B35E12CE2E0FE2E2E
:10587000E981FA81EE1AFF0AED85FE85EE15FF0536
:1058800008F47F012998E0917203E2FF03C009E068
:105890000E941A35BA01422F532F81E10E94F02A4B
:1058A000882319F0299A80E040C00E94E62A8E3FA2
:1058B000E1F7C980DA80CE0CDF1C00E010E00E9426
:1058C000E62A29813A810217130748F00C151D05B5
:1058D00030F4EB81FC8180833196FC83EB830F5F96
:1058E0001F4F0115F2E01F0751F70E94E62A0E94A0
:1058F000E62A299A0E94E62A2D853E852E193F091F
:105900003E872D87970140E050E060E070E080E046
:1059100090E051016201730184010E943635190142
:105920002A013B014C017DCF81E02E960FB6F89401
:10593000DEBF0FBECDBFDF91CF911F910F91FF90C2
:10594000EF90DF90CF90BF90AF909F908F907F901F
:105950006F905F904F903F902F9008952F923F92BD
:105960004F925F926F927F928F929F92AF92BF926F
:10597000CF92DF92EF92FF920F931F93CF93DF931B
:10598000CDB7DEB768970FB6F894DEBF0FBECDBFB8
:1059900029833A834B835C836D837E838F839887CF
:1059A0001A8B098B37011601BC8AAB8A9E8A8D8AB5
:1059B000012B09F4EAC0E114F10409F4E6C0CE14A5
:1059C000DF0408F4E2C0AB2809F4DFC02998298974
:1059D0003A892E0D3F1D388F2F8B49815A81517086
:1059E0005A874987412CF2E05F2E441A550A80916C
:1059F000720382FF14C029813A814B815C816D81E1
:105A00007E818F81988509E00E941A35F22FE32F5D
:105A1000942F852F4F2F5E2F692F782F0DC069850A
:105A20007A85CB01A0E0B0E049815A816B817C810D
:105A3000481B590B6A0B7B0B81E10E94F02A8823DB
:105A400011F0299AA2C00E94E62A8E3FE1F700E0F9
:105A500010E089859A850817190729F00E94E62A1F
:105A60000F5F1F4FF6CF4C014614570468F0261401
:105A7000370450F009891A8909C0461857082618B2
:105A800037084114510471F5912C33C02F89388D9A
:105A90000217130731F00E94E62AF80181938F0163
:105AA000F5CF940140E050E060E070E080E090E0ED
:105AB000A980BA80CB80DC80ED80FE800F811885C4
:105AC0000E943635ED88FE8889019A01AB01BC0140
:105AD00089899A89EB89FC8909958111CECF99240E
:105AE000939407C0860C971C2114310409F0BCCF95
:105AF000CBCF4114510431F00E94E62AF1E04F1A55
:105B00005108F7CF0E94E62A0E94E62A261437049D
:105B1000B8F149855A859A0140E050E060E070E0B4
:105B2000CB0129873A874B875C876D877E878F8774
:105B3000988B20E032E040E050E060E070E080E0F0
:105B400090E0A984BA84C12CD12CE12CF12C00E086
:105B500010E00E944B35A980BA80CB80DC80ED80BC
:105B6000FE800F8118850E94363529833A834B8346
:105B70005C836D837E838F839887992009F42DCF72
:105B8000299A0E94E62A81E001C080E068960FB65B
:105B9000F894DEBF0FBECDBFDF91CF911F910F9163
:105BA000FF90EF90DF90CF90BF90AF909F908F903D
:105BB0007F906F905F904F903F902F900895409806
:105BC00091E09EBD0DB407FEFDCF8EBD0DB407FE66
:105BD000FDCF409A0895409882E08EBD0DB407FE37
:105BE000FDCF1EBC0DB407FEFDCF1EBC0DB407FEDD
:105BF000FDCF80E090E0A1E0B0E01EBC0DB407FE58
:105C0000FDCF0197A109B1090097A105B105A9F739
:105C1000409A0895389A409A80E40E94DF2D0C94AF
:105C2000EB2D409822E02EBD0DB407FEFDCF9EBDAA
:105C30000DB407FEFDCF8EBD0DB407FEFDCF6EBDCA
:105C40000DB407FEFDCF409A0895409823E02EBD85
:105C50000DB407FEFDCF9EBD0DB407FEFDCF8EBD7A
:105C60000DB407FEFDCF1EBC0DB407FEFDCF409A5C
:105C70008EB50895409823E02EBD0DB407FEFDCFEC
:105C80009EBD0DB407FEFDCF8EBD0DB407FEFDCF4A
:105C90001EBC0DB407FEFDCF8EB590E01EBC0DB44A
:105CA00007FEFDCF2EB5409A922B0895409823E031
