S012000063686970636F6E5F76322E7372656327
S11300000C943F100C945C100C945C100C945C10D9
S11300100C945C100C945C100C945C100C945C10AC
S11300200C945C100C945C100C945C100C945C109C
S11300300C941D290C945C100C945C100C945C10B2
S11300400C945C100C945C100C945C100C945C107C
S11300500C945C100C945C100C945C100C945C106C
S11300600C945C100C945C10B513F513E813001495
S113007007140E1435141D142414B11459156715DE
S113008074157F15C315E61530143B144814551424
S113009062147C1488149214A516A516A516A51628
S11300A0A516A516A514BD14D314DD1400150F153B
S11300B0171526153A154D15531510094A6F6E611B
S11300C073204C696E6473746564740000FF10459A
S11300D06401A1926B006C3BDBC47B083B80100F76
S11300E0683CA18E6935D89663004300101DA19128
S11300F0D23263008C407CFF6B038CB26B004C00EB
S113010010277B057CFF10226100A181FB1EF06596
S1130110A196F11EF05571017B01310610286D087E
S11301206E0566006A01A19680D0D0E57014306C2B
S1130130103820A42109207D20C44F421018212802
S11301403463103D00E0A1546D286E0A6C0ADDEAA8
S11301507D08FC1E3D58104AA1726D346E196C0561
S1130160DDE57D08FC1E3D4C10536D2D6E286C059D
S1130170DDE57D08FC1E3D45105BA195F065A19C65
S1130180F0336C00A19CFC1EF065F029DDE57D05D3
S11301907C013C0310656C20EC9E106FA194600000
S11301A06100F1556C366F0A214F00C17CFF3C00A1
S11301B01076100B33001097CC0F3C001096CC0730
S11301C07C018C06A199FC1EF0654000109682D03B
S11301D083E073054C00109272147CFF108DA19182
S11301E0D2323F00109E00EEA191D2327301333A15
S11301F01092630000EE6C358B308BC53F00646356
S113020000EE8040700180066C00A199FC1EF05540
S11302107C013C0510A8A19CF43320B86C78FC1533
S1130220FC073C0010B320B800EEA19DF065F0304F
S11302306C376B1BDCBAA19EF065F0306C41DCBA04
S113024000EE46001102A191D56276FF460011022C
S1130250D5624F0011028CE07C058C654F001103C0
S1130260D56275FB66008CD060008BC08B553F0057
S113027010DF7C14700110D8A199F01EF06570FF96
S1130280F055A1964000DCE56C0AFC18A194F065D9
S11302906CFF80C3F055300010F4A195F065700137
S11302A0F0556C006B00A199FC1EF06530007B01D9
S11302B07C013C0510F63B00110274016F4200EE14
S11302C0A191D232D5626300660000EE6B006C0827
S11302D0ECA16BFF6C10ECA16B014B00111C4801ED
S11302E06B0148786BFFA18E6935D89688B4D8968F
S11302F011256C20EC9E112536001125858066356C
S1130300A191D5626F06214F00EEF007300011373E
S1130310601EF01567003D2111326AFF11353D075B
S113032011366A016701213800EE8BD06C0089B068
S113033081E0A199FC1EF06540001146A196D915F3
S113034089A48174D9157C017B143C05113A8DA4D0
S11303508E744E30646300EEFF15FF073F001150AA
S113036000EE3C0C1E1E33333F6161F31F0C0C0C7A
S11303700C0C0C8C8CDF070101010101010161E708
S1130380E78383838383838383E7FB190161E161CB
S1130390010119FB9F86C6E6E6B69E9E8EE6E494AE
S11303A0E790F7878080808788888888AF66884848
S11303B028C64CAAACAA4AE088C088E0000018FF0E
S11303C03C00183CFF81423C3C3C423C5A5A7E7EF5
S11303D00000243C24000018183C7EFF1818FF225B
S11303E0558800000000000000000000000000002C
S11303F00000000000000000101B626C696E6B7945
S113040020322E303020432E2045676562657267A6
S113041020313939310A4A61637175657320446545
S1130420736368656E65732C20323031350000E0EB
S1130430A001600091098106901291096020E0A159
S1130440102B600223B500D171FF3100102260200F
S1130450E0A1102B00E060006100A53A9012A539DC
S1130460F0658200630A8325F329602AD015F00A17
S113047040022046400420433020102E104E320A01
S113048072011048320172FF8020A539F055600FC7
S113049023B500EE00E080038113A3BAF155600593
S11304A0A3BCF05587738663230C00E0231D6E40C4
S11304B087E26E2787E1683469186A706B006C0400
S11304C06D3422FAA3DDDAB8DCD8A539F06523B59A
S11304D0213A3E001083A3BCF0658500C4FF84521A
S11304E021CDC4FF845222616020E0A1234136F76C
S11304F010698E6023936E64239323411057F00791
S1130500400010D580808006800681A08106810687
S11305108015400010944001109440FF109410ADD9
S113052080908006800681B0810681068015400097
S113053010A2400110A240FF10A210ADA3DDDAB852
S11305406A706B00DAB86EF387E26E0487E16E328C
S1130550239380808006800681C0810681068015F1
S1130560400010BB400110BB40FF10BB106F8090D7
S11305708006800681D0810681068015400010C95E
S1130580400110C940FF10C9106FA3DDDCD86C0412
S11305906D34DCD86ECF87E26E2087E16E19239329
S11305A0106F605A23AA22FAA3DDDAB8DCD86E40B1
S11305B087E3807080E23000105B8E602393239B7E
S11305C000E066246714A3BB234966246720A3BA0A
S11305D02349640065106601670FA509D460A51955
S11305E0D560601423AA3E001130A509D460A51972
S11305F0D56074047504346010F1A509D460A5199C
S1130600D560601423AA3E001130A509D460A51951
S1130610D5607604362D1101A509D460A519D560DD
S1130620601423AA3E001130A509D460A519D56031
S113063074FC75FC34001110A509D460A519D560AB
S1130640601423AA3E001130A509D460A519D56011
S113065076FC3601112010F1A519D560A529D560C5
S1130660601EF015F00730001136104E83706E03D3
S113067083E2848085906E04EEA1116B6E02EEA17C
S113068011776E10EEA111836E08EEA1118F430352
S11306907504430075FC43027404430174FC8040F8
S11306A08150233182006E0880E23000119B6E0776
S11306B0802082E24205119F420611AB420711C815
S11306C022FA6EFC87E287318840895012FA804012
S11306D081507104233182006E0880E23000114B96
S11306E06303750411598040815071FC23318200E9
S11306F06E0880E23000114B630075FC1159804094
S113070081507004233182006E0880E23000114B66
S11307106302740411598040815070FC23318200BB
S11307206E0880E23000114B630174FC115922FA07
S1130730D8988EF000EE6EF080E28031F055A3E19F
S1130740D45876016105F0074000F11811646EF089
S113075080E28031F055A3E5D458760480A081B0BE
S113076023316EF080E2300011BB6E0C87E380C051
S113077081D023316EF080E2300011C46E3087E303
S113078060FFF018F01511644301647443026400BF
S11307901164827083706E0C82E280A081B0233178
S11307A0A3DD6EF080E2300011E4DAB8420C7B0481
S11307B042007BFC42087A0442047AFCDAB800EE78
S11307C06E80F1073100123C3400123C8100830E2C
S11307D03F0011FD839083B54F0012183300120CB3
S11307E087E3838083A54F0012303300122487E30C
S11307F0123C838083A54F0012303300122487E318
S1130800839083B54F0012183300120C87E3123C17
S1130810634081324100123CDAB87B04DAB86EF3EB
S113082087E2620C872100EE631081324100123CA2
S1130830DAB87BFCDAB86EF387E26200872100EE57
S1130840632081324100123CDAB87A04DAB86EF3DC
S113085087E26208872100EE638081324100123C06
S1130860DAB87AFCDAB86EF387E26204872100EE24
S1130870C1F08012300012446E0C87E382E311D978
S1130880DAB8800E4F00124B62047AFC125C800EC0
S11308904F001251620C7B04125C800E4F00125701
S11308A062087A04125C800E4F00124062007BFCE6
S11308B0DAB86EF387E2872100EE827083706E30BF
S11308C082E280C081D02331A3DD6EF080E230006B
S11308D01278DCD842307D0442007DFC42207C0446
S11308E042107CFCDCD800EE6E80F107310012D49B
S11308F0340012D48100830E4F001291839083D56B
S11309004F0012AD330012A087E3838083C54F00EC
S113091012C7330012BA87E312D4838083C54F0011
S113092012C7330012BA87E3839083D54F0012AD08
S1130930330012A087E312D463408132410012D401
S1130940DCD87D04DCD887E36ECF87E26230872170
S113095000EE63108132410012D4DCD87DFCDCD877
S113096087E36ECF87E26200872100EE6320813245
S1130970410012D4DCD87C04DCD887E36ECF87E254
S11309806220872100EE63808132410012D4DCD8DA
S11309907CFCDCD887E36ECF87E26210872100EE0F
S11309A0C1F08012300012DD87E36E3087E382E30A
S11309B0126DDCD8800E4F0012E462907CFC12F5BC
S11309C0800E4F0012EA62307D0412F5800E4F0053
S11309D012F062A07C0412F5800E4F0012D862005F
S11309E07DFCDCD86E4F87E2872100EE80706E03B9
S11309F080E2800E818081946E0481E24100700166
S1130A00800E800E800EA3BDF01ED8988EF000EEEE
S1130A106E00A409FE1EFE1EFE1EFE1EF365A53E0C
S1130A20FE1EFE1EFE1EFE1EF3557E013E80130DAD
S1130A3000EE822383336E0F80208130233380E2E3
S1130A40800E800EA3E9F01ED2347204328013208B
S1130A5082237304434000EE132070047104800663
S1130A60800681068106810E810E810E810EA53ECF
S1130A70F11EF11EF01EF06500EEA3BCF0658006C9
S1130A80F0556020E0A1134600EEF1656E01844349
S1130A9082008310651083554F0082E54F00135C7C
S1130AA0652782554F00135C8020813084E4134E07
S1130AB0F430D67A760C84438200831065E883553B
S1130AC04F0082E54F001370650382554F00137089
S1130AD08020813084E41362F430D67A760C844327
S1130AE082008310656483554F0082E54F001380B4
S1130AF08020813084E41376F430D67A760C8443F3
S1130B0082008310650A83554F00138D813084E47D
S1130B101386F430D67A760CF130D67A00EEA3BA86
S1130B20F16581E43F007001A3BAF15500EEA3BA68
S1130B30F3658E008E254F0000EE3E0013A78E1045
S1130B408E354F0000EEA3BBF15500EE8EE362201C
S1130B50F015E2A113B3F007300013AD00EE6E01FF
S1130B6000EEF015F007300013B600EE00000000B0
S1130B70050000226363777F3E1C001C1E5D5D6FD1
S1130B803E1C003C7E0F070F7E3C001C267F7F7BB3
S1130B90061C001E3F7870783F1E001C327F7F6F5A
S1130BA0301C001C3E7F77636322001C3E6F5D5D3A
S1130BB01E1C001C3E49777F637F00000000080074
S1130BC00000000000000808000000000000000011
S1130BD00000000000000000000000000000800091
S1130BE000008080000000000000F0000000000011
S1130BF000008080808000000000F0808080808081
S1130C008080F0000000800000000C08080808083C
S1130C100808080808080808080D0C080808080847
S1130C200808080808080808080D0A6505050505E8
S1130C30E50505E505050505C50A0A650505050576
S1130C40E50505E505050505C50A0A050C08080FAF
S1130C50050C0D050808080D050E0F050C08080FF6
S1130C60050C0D050808080D050A0A050A650605A0
S1130C70950A0A350505C50A350505950A6505056C
S1130C80950A0A350506C50A050A0A050F05080866
S1130C900808080C080F0508080808080F050808C4
S1130CA00C080808080F050F050A0A7505B505059F
S1130CB00505C50A6505B505E50505E505B505C5DB
S1130CC00A6505050505B505D50A0A050C080808D1
S1130CD0080D050F050C080F05080F0508080D057C
S1130CE00F050C080808080D050A0F050F65050512
S1130CF0C50A35E5950A6505B00505B505C50A3586
S1130D00E5950A650505C50F050F077405D5080F98
S1130D10050E0F05080F050C080808080D05080F37
S1130D2005080F05080F7505D4070A050A350505DA
S1130D30F50505B50505D508080D0C080F7505055D
S1130D40B50505F50505950A050A0A050808080DFF
S1130D50050C0808080D3505C50A0A6505950C0833
S1130D6008080D050C08080F050A0A750506C50ACA
S1130D70050808080808080F05080F0508080808EA
S1130D8008080F050A650605D50A0A050C0D050AAB
S1130D903505050505E50505F50505F50505E5052F
S1130DA0050505950A050C0D050A0A05080F050831
S1130DB0080808080F050C0D05080F050C0D05089B
S1130DC0080808080F05080F050A0A350505B505C2
S1130DD00505050505950A0A350505950A0A35052B
S1130DE00505050505B50505950A08080808080858
S1130DF00808080808080F08080808080F08080861
S1130E000808080808080808080F01E0021004C8C8
S1130E1009E40BF40BB409E504C9021301E7000764
S1130E20018303F001FF00FF003F0F001080264004
S1130E304F205FA05DA04F2026409080CF00C000CF
S1130E4083001F80FF00FE00F8000F001F803FC0DA
S1130E507FE07FE05FE047E020C09080CF00C0806B
S1130E6083C01F80FF00FE00F800050073706565F5
S1130E70643A200000000000100F312E3030204B67
S1130E802E762E53656E6762757363682032342F35
S1130E90342D2739340000FF6C0420A465326632F7
S1130EA0672883508460626469006A016B0000C132
S1130EB020666001820560285200101BA0C8D34838
S1130EC0A0C8D34800C1D5683F0010402066600127
S1130ED0320082052084835084606008E0A1205899
S1130EE06010E0A12054C0034000205DC003400016
S1130EF0206180C020BD102480B07003800680066D
S1130F00F03080707011611BD01A606420BD00C87D
S1130F1060006100A0CC9012F00A40FF1050101144
S1130F207501456E656D00EE600185054F00650035
S1130F3000EE77014746674500EE600187054714D8
S1130F40671500EE8090612D810588106100807026
S1130F50A0C2D01180846100D0117A014A046A01D0
S1130F604A01A0C34A02A0C44A03A0C561006000AC
S1130F70D0116008D0116070D0116078D01100EEEB
S1130F80320000EEC00F807470086100A0C8622DAA
S1130F904B1E20963B21D0187B0180908205390B93
S1130FA0790100EE7B03A0C680707005D011700833
S1130FB0D0117008D0117008A0C7D011626400EE7F
S1130FC000E060006100A0D29012620882C5F2299C
S1130FD0602AD015F00A400220BA400420B730201D
S1130FE010A400E000EE3C077C0110BC3C017CFF37
S1130FF0600FF015F007300010BE00EE8800880086
S113100055002200FF00F800DBFFDB1824E7E7DBD4
S1131010616E79206B65792E2E2E000073706565E4
S1131020643A200063617274652053443F0A0043AC
S1131030524153482120626164206F70636F64657C
S11310400A0043524153482120626164206F706357
S11310506F64650A00464154206472697665720AB9
S1131060436F7079726967687420323030362D327C
S11310703031320A526F6C616E6420526965676563
S11310806C0A004C454D0A4341520A574F524D0ACF
S1131090414C49454E0A424C494E4B590A737065BE
S11310A0656420746573740A007661725B5D3A004E
S11310B02053503A00493A0050433A00456368656A
S11310C063206F75766572742E20666963682E0AD4
S11310D000456368656320616363657320726570AE
S11310E06572742E0A0045636865632061636365F5
S11310F0732066696368696572730A00456368658D
S11311006320616363657320706172746974696FCD
S11311106E0A000A626F75746F6E2E2E2E0000E048
S113112020C26900680078019E0860108E058E0652
S11311306D006C006B006A642087206D20B34A0048
S1131140102B6008E0A1101C6010E0A110206020AA
S1131150E0A11024102B20B37CFF7AFF102920B3C8
S11311607C017AFF102920B37BFE3A017AFF7AFFD3
S1131170904420B320B3206D8EC4607F8E028DB462
S11311807B01206D4F01104B20B34A00103B6014CB
S11311902046101020B3600A6104901160042046B8
S11311A020B36004901120461010F015F0073000B1
S11311B0104700EE20B3600280B53F01105C60026E
S11311C080C53F01105C5E70105C7901A0E861008D
S11311D0621091221060A0E26100621091222070DE
S11311E0603C20466020E09E10646101620A912107
S11311F0E0A1106900E01004A0CFDED000EE610091
S1131200620AA10CF933207CA0DFD1257104A10C62
S1131210F833207C00EE6300A10CF31EF065F02986
S1131220D125710473013303107D00EE6500C77F7F
S11312309008631080359006807590073F01870001
S113124084707410C10F90098107835083753F0126
S1131250109E835083453F0110AD90098006801590
S11312603F007101900970FF80173F0071FFC303B5
S11312708306330071FE71019513750190085500C2
S1131280109600EE610062006300A10CFA33A10C19
S1131290F31EF065F030D12A71087301330310B8DE
S11312A000EEA0F06100920982069122910900D11A
S11312B06003204671FF310010C800EE03C00660D1
S11312C01FF83FFC2004AFF56C362C346FF6A005F4
S11312D03FFC3FFC12902448600CC0062040408034
S11312E08000796F75206372617368656400636F51
S11312F06E67726174756C6174696F6E21004C4520
S11313004D0A4A616371756573204465736368654A
S11313106E65730A436F707972696768742032303E
S113132031342C323031350A6C6963656E63652063
S113133047504C7633000000000000E0A02A600013
S113134061009012633C60006100F3157001F307C3
S11313503300100964006508201D640065108010C6
S1131360201D623CF215F207320010166020E09E48
S1131370100000FDA030F0336300A030F31EF065D0
S1131380F029D455740473013303102000EE7370F4
S11313906565642074657374000000000000FFFF3D
S11313A0FFFFFFFFFFFFFFFFFFFFFFFFFFFFFFFF49
S11313B0FFFFFFFFFFFFFFFFFFFFFFFFFFFFFFFF39
S11313C0FFFFFFFFFFFFFFFFFFFFFFFFFFFFFFFE2A
S11313D003FCFFE7CF800FFFFFFFFFFFFFFFFFF8D6
S11313E000FCFFE7CF8007FFFFFFFFFFFFFFFFF0D9
S11313F0FC7CFFE7CF9FE3FFFFFFFFFFFFFFFFE35F
S1131400FE3CFFE7CF9FF1FFFFFFFFFFFFFFFFC79A
S1131410FF1CFFE7CF9FF9FFFFFFFFFFFFFFFFCF99
S1131420FF9CFFE7CF9FF9F83FE0FE60FFFFFF8FCF
S1131430FFFCFFE7CF9FF9E01F803E007FFFFF9F87
S1131440FFFCFFE7CF9FF9C78F1F1E1E3FFFFF9FC3
S1131450FFFCFFE7CF9FF1CFC73F9E3F3FFFFF9FBA
S1131460FFFC0007CF9FE39FE63F8E7F3FFFFF9F78
S1131470FFFC0007CF80079FFE7FCE7F3FFFFF9FCB
S1131480FFFCFFE7CF801F9FFE7FCE7F3FFFFF9FC4
S1131490FFFCFFE7CF9FFF9FFE7FCE7F3FFFFFCF85
S11314A0FF9CFFE7CF9FFF9FFE7FCE7F3FFFFFCFD5
S11314B0FF1CFFE7CF9FFF9FE67FCE7F3FFFFFC765
S11314C0FF3CFFE7CF9FFF9FE63F8E7F3FFFFFE399
S11314D0FE3CFFE7CF9FFFCFCF3F9E7F3FFFFFF153
S11314E0F87CFFE7CF9FFFC78F1F1E7F3FFFFFF8EA
S11314F000FCFFE7CF9FFFE01F803E7F3FFFFFFE22
S113150003FCFFE7CF9FFFF83FE0FE7F3FFFFFFFB5
S1131510FFFFFFFFFFFFFFFFFFFFFFFFFFFFFFFFD7
S1131520FFFFFFFFFFFFFFFFFFFFFFFFFFFFFFFFC7
S1131530FFFFFFFFDFFFFFF87FC7FFFFFFFFFFFF96
S1131540FFFFFFFFFFFFFFF77FBBFFFFFFFFFFFF73
S1131550FFFFFFFFFFFFFFEFBF7DFFFFFFFFFFFF69
S1131560F7DC7A61DF1E8FFFBF7DFFFFFFFFFFFF08
S1131570F7DBB9DEDEEE77FFBF7DFFFFFFFFFFFF86
S1131580FBB7DBDFDDF6F7FF7F7DFFFFFFFFFFFF2C
S1131590FBB7DBDFDDF6F7FF7F7DFFFFFFFFFFFF1C
S11315A0FD701BE1DDF6F7FEFF7DFFFFFFFFFFFF90
S11315B0FD77FBFEDDF6F7FDFF7DFFFFFFFFFFFF7D
S11315C0FD77DBFEDDF6F7FBFF7DFFFFFFFFFFFF8F
S11315D0FEFBBBDEDEEEF7F7FFBBFFFFFFFFFFFF07
S11315E0FEFC7BE1DF1EF7E03BC7FFFFFFFFFFFFD1
S11315F0FFFFFFFFFFFFFFFFFFFFFFFFFFFFFFFFF7
S1131600FFFFFFFFFFFFFFFFFFFFFFFFFFFFFFFFE6
S1131610FFFFFFFFFFFFFFFFFFFFFFFFFFFFFFFFD6
S1131620FFFFFFFFFFFFFFFFFFFFFFFFFFFFFFFFC6
S1131630FFFFFFFFFFFFFFFFFFFFFFFFFFFFFFFFB6
S1131640F1FFFFFEFEFBF1C7BC3FFFFFFFFFFFFF03
S1131650EEFFFFFFFEFBEEBB3DFFFFFFFFFFFFFFC3
S1131660DFC69BAACA91FEBABBFFFFFFFFFFFFFFC5
S1131670DFBA6BA6B26BFEBBB87FFFFFFFFFFFFFB5
S1131680DFBAED6EBAEBFDBBBFBFFFFFFFFFFFFF8D
S1131690DFBAED6EBAEBFBBBBFBFFFFFFFFFFFFF7F
S11316A0EEBA6EEEB2EBF7BBBBBFFFFFFFFFFFFF6F
S11316B0F1C69EEECAE9E0C7BC7FFFFFFFFFFFFF54
S11316C0FFFEFEFFFBFFFFFFFFFFFFFFFFFFFFFF2C
S11316D0FFFEFDFF87FFFFFFFFFFFFFFFFFFFFFF91
S11316E0FFFFFFFFFFFFFFFFFFDFFFFFFFFFFFFF26
S11316F07FFFFFFFFF87FFFFDFAFFFFFFFFFFFFF5E
S11317007FFFFFFFFFBBFFFFDFFFFFFFFFFFFFFFC9
S1131710638E57638FBD8E38D38C38E3FFFFFFFF92
S11317205D75975D77BD75D74D75D75DFFFFFFFF7D
S1131730617DD7419FBD0677DD05D067FFFFFFFBC5
S11317405D7DD75FEFBD7FB7DD7DD7FBFFFFFFFB7F
S11317505975965D77BB75D75D75D75DFFFFFFFC47
S1131760E58E59638F878E38DD8DD8E3FFFFFFFF49
S1131770FFFFDFFFFFFFFFFFFFFFFFFFFFFFFFFF95
S1131780FFFFDFFFFFFFFFFFFFFFFFFFFFFFFFFF85
S1131790FFFFFFFFFFFFFFFFFFFFFFFFFFFFFFFF55
S11317A0FFFFFFFFFFFFFFFFFFFFFFFFFFFFFFFF45
S11317B0FFFFFFFFFFFFFFFFFFFFFFFFFFFFFFFF35
S11317C0FFFFFFFFFFFFFFFFFFFFFFFFFFFFFFFF25
S11317D0FFFFFFFFFFFFFFFFFFFFFFFFFFFFFFFF15
S11317E0FFFFFFFFFFFFFFFFFFFFFFFFFFFFFFFF05
S11317F0FFFFFFFFFFFFFFFFFFFFFFFFFFFFFFFFF5
S1131800FFFFFFFFFFFFFFFFFFFFFFFFFFFFFFFFE4
S1131810FFFFFFFFFFFFFFFFFFFFFFFFFFFFFFFFD4
S1131820FFFFFFFFFFFFFFFFFFFFFFFFFFFFFFFFC4
S1131830FFFFFFFFFFFFFFFFFFFFFFFFFFFFFFFFB4
S1131840FFFFFFFFFFFFFFFFFFFFFFFFFFFFFFFFA4
S1131850FFFFFFFFFFFFFFFFFFFFFFFFFFFFFFFF94
S1131860FFFFFFFFFFFFFFFFFFFFFFFFFFFFFFFF84
S1131870FFFFFFFFFFFFFFFFFFFFFFFFFFFFFFFF74
S1131880FFFFFFFFFFFFFFFFFFFFFFFFFFFFFFFF64
S1131890FFFFFFFFFFFFFFFFFFFFFFFFFFFFFFFF54
S11318A0FFFFFFFFFFFFFFFFFFFFFFFFFFFFFFFF44
S11318B0FFFFFFFFFFFFFFFFFFFFFFFFFFFFFFFF34
S11318C0FFFFFFFFFFFFFFFFFFFFFFFFFFFFFFFF24
S11318D0FFFFFFFFFFFFFFFFFFFFFFFFFFFFFFFF14
S11318E0FFFFFFFFFFFFFFFFFFFFFFFFFFFFFFFF04
S11318F0FFFFFFFFFFFFFFFFFFFFFFFFFFFFFFFFF4
S1131900FFFFFFFFFFFFFFFFFFFFFFFFFFFFFFFFE3
S1131910FFFFFFFFFFFFFFFFFFFFFFFFFFFFFFFFD3
S1131920FFFFFFFFFFFFFFFFFFFFFFFFFFFFFFFFC3
S1131930FFFFFFFFFFFFFFFFFFFFFFFFFFFFFFFFB3
S1131940FFFFFFFFFFFFFFFFFFFFFFFFFFFFFFFFA3
S1131950FFFFFFFFFFFFFFFFFFFFFFFFFFFFFFFF93
S1131960FFFFFFFFFFFFFFFFFFFFFFFFFFFFFFFF83
S1131970FFFFFFFFFFFFFFFFFFFFFFFFFFFFFFFF73
S1131980FFFFFFFFFFFFFFFFFFFFFFFFFFFFFFFF63
S1131990FFFFFFFFFFFFFFFFFFFFFFFFFFFF000051
S11319A000000000000020202020200020005050D3
S11319B05000000000005050F850F85050002078BB
S11319C0A07028F02000C0C8102040981800609033
S11319D0A040A89068006020400000000000102093
S11319E040404020100040201010102040000020F3
S11319F0A870A8200000002020F82020000000008B
S1131A00000060204000000000F000000000000022
S1131A100000006060000008102040800000708812
S1131A2098A8C8887000206020202020F8007088C2
S1131A3010204080F800F00808F00808F00010308A
S1131A405090F8101000F88080F00808F000304042
S1131A5080F088887000F8081020404040007088AA
S1131A60887088887000708888700808700000602A
S1131A706000606000000060600060204000102092
S1131A804080402010000000F800F80000004020D2
S1131A901008102040007088081020002000708872
S1131AA00868A8A87000708888F888888800F0887A
S1131AB088F08888F0007880808080807800F088C2
S1131AC088888888F000F88080F88080F800F880A2
S1131AD080F880808000788080B088887000888852
S1131AE088F88888880070202020202070007808DA
S1131AF00808089060008890A0C0A09088008080AA
S1131B0080808080F80088D8A888888888008888A1
S1131B10C8A8988888007088888888887000F088A9
S1131B2088F08080800070888888A8987800F08881
S1131B3088F0A0908800788080700808F000F82071
S1131B402020202020008888888888887000888841
S1131B50888888502000888888A8A8D88800888821
S1131B605020508888008888885020202000F81051
S1131B7020408080F8006040404040406000008089
S1131B804020100800001808080808081800205011
S1131B90880000000000000000000000F800402061
S1131BA01000000000000000700878887800808031
S1131BB080B0C888F0000000708080887000080839
S1131BC008689888780000007088F88070003048B1
S1131BD040E04040400000007888887808708080A9
S1131BE0B0C8888888000020002020202000100031
S1131BF0301010906000808090A0C0A09000602001
S1131C002020202070000000D0A8A88888000000B0
S1131C10B0C8888888000000708888887000000038
S1131C20F08888F080800000689090B05018000020
S1131C30B0C880808000000070807008F0004040D0
S1131C40E040404830000000888888986800000020
S1131C5088888850200000008888A8A850000000C8
S1131C608850205088000000888888780870000018
S1131C70F8102040F8002040408040402000202000
S1131C8020202020200040202010202040000000A0
S1131C9040A810000000FCFCFCFCFCFCFCFC402008
S1131CA010F810204000102040F840201000207050
S1131CB0A8202020000000202020A8702000007010
S1131CC0F8F8F87000007C82868A92A2C2827C00B6
S1131CD008182808080808083E0038448204081038
S1131CE02040FE00384482023C028244380084844E
S1131CF084847E04040404007E8080807C020202CA
S1131D00FE0078848080FC8282827C007E820408CB
S1131D10080808080800384482827C82824438001B
S1131D2038448282463A0204380038448282FE8271
S1131D3082828200FC828282FC828282FC003E409B
S1131D408080808080403E00F88482828282828407
S1131D50F800FE808080FE808080FE00FE8080800F
S1131D60FE8080808000E0A0A0A0E000C040404051
S1131D70E000E020E080E000E020E020E000A0A01F
S1131D80E0202000E080E020E0008080E0A0E0008F
S1131D90E02020202000E0A0E0A0E000E0A0E0207F
S1131DA02000E0A0E0A0A000C0A0C0A0C000E0808F
S1131DB08080E000C0A0A0A0C000E080E080E0003F
S1131DC0E080E08080000B022A024B026E02930244
S1131DD0BA02E40210033F037003A403DC031704F4
S1131DE055049704DD04100E576F726D005242398A
S1131DF032000000003E05002B7C0000061E01009E
S1131E00040000FF00E0A006FE65A0CCF055FC1E17
S1131E10710131001013A0B5DAB3D421D4317403A5
S1131E20347A101AA0BE6304D329D4297209323F2C
S1131E301021A003F065A001F033632E2073A001EC
S1131E40F533207220A6A0BDD76176FE361110307E
S1131E50630AF315A0CCF81EF065840080A0F05549
S1131E60A14CF81EF065810080B0F055A0B6340096
S1131E70D413A0B1F91EF165A0B8DAB28A048B14A8
S1131E80A0B5DAB33F00107FC00F400020A4780152
S1131E9098E068006108E19E6600E19E10613600EA
S1131EA010617902660689626110E19E6700E19E15
S1131EB0106B3700106B79FE67068972F3073300E5
S1131EC0105710352072A001F5336300647CA00123
S1131ED0F265F029D4357306F129D4357306F22955
S1131EE0D43500EE20AEA0B5DAB3DAB33F00108AE1
S1131EF06402F4187501206F1054640AF418DAB3FC
S1131F008A058B15A0B8DAB2A003F065805580501D
S1131F104F00F0556064F015F0073000109900C8C8
S1131F208100A0C39012F00A302010A0100E7E0190
S1131F3000EEA0B9CC7C7C02CD3C7D02DCD74F0006
S1131F4000EEA0B9DCD710A7040000FCFC000004DC
S1131F50E0E0E0A0E0000040387CDEFEFE7C3800DB
S1131F60F0008080808080808080800073656C6554
S1131F70637420726573746172742E2E2E000000D7
S1131F80000000000000000000000000000000004D
S1131F90000000000000000000000000000000003D
S1131FA0000000000000000000000000000000002D
S1131FB0000000000000000000000000000000001D
S1131FC0000000000000000000000000000000000D
S1131FD000000000000000000000000000000000FD
S1131FE000000000000000000000000000000000ED
S1131FF000000000000000000000000000000000DD
S113200000000000000000000000000000000000CC
S113201000000000000000000000000000000000BC
S113202000000000000000000000000000000000AC
S1132030000000000000000000000000000000009C
S1132040000000000000000000000000000000008C
S1132050000000000000000000000000000000007C
S1132060000000000000000000000000000000006C
S11320700000000000000000000000000000112427
S11320801FBECFEFD8E0DEBFCDBF11E0A0E0B1E0CE
S1132090E0E3F8E502C005900D92A431B107D9F749
S11320A027E0A4E1B1E001C01D92A83FB207E1F727
S11320B00E94D8120C94162C0C940000FC0181810F
S11320C090E0982F88272081822B0895FC0123819A
S11320D06281862F90E0A0E0B0E077276627922BFC
S11320E02081622B2181722B0895EF92FF920F932E
S11320F01F93CF93DF938C017B01C0E0D0E0CE151A
S1132100DF0549F0F801EC0FFD1F6491CE010E9438
S113211003242196F4CFDF91CF911F910F91FF906B
S1132120EF900895DF92EF92FF920F931F93CF9356
S1132130DF93CDB7DEB7A0970FB6F894DEBF0FBE1E
S1132140CDBF29E0289F7001299FF00C112485E060
S1132150EE0CFF1C8A95E1F700E010E0D12CAE01F3
S11321604F5F5F4F60E270E0C8018E0D9F1D0E94BB
S11321706F248981882391F080E20E94EE24CE01AD
S113218001960E944C2586E08D1510F00E94C32410
S1132190D394005E1F4F89E0D812E1CF8D2DA09615
S11321A00FB6F894DEBF0FBECDBFDF91CF911F9164
S11321B00F91FF90EF90DF9008959F92AF92BF929E
S11321C0CF92DF92EF92FF920F931F93CF93DF93FF
S11321D06C010E946F2882E08093770380917703DB
S11321E08111FCCF80E090E00E949210982EC0E014
S11321F0D0E0E12CF12C99E0A92E00E02EE93CE19D
S113220048E01C2F110F110F110F612F80E00E9465
S1132210D6260E94F41FB82E2EE93CE148E0612F37
S113222080E00E94D62688E0B81631F18B1540F084
S113223082E0B816D9F184E0B81609F44AC066C041
S113224080E1B816F1F080E2B81260C00E94FC1F71
S113225029E02E9DC0012F9D900D11248C0F9D1FF0
S1132260DF91CF911F910F91FF90EF90DF90CF906E
S1132270BF90AF909F900895E114F10409F444C015
S11322801CC0E7012196AC9E9001AD9E300D112437
S11322902C153D0544F40E946F28CE010E94921033
S11322A0982E7E0131C0C92DD0E002C0209711F0D4
S11322B021972CC0E114F10449F181E0E81AF108F6
S11322C00E946F28C7010E949210982EC7E0D0E0A8
S11322D01DC0292D30E021503109C217D30714F451
S11322E0219614C087010F5F1F4FA09E9001A19EED
S11322F0300D11242C153D054CF40E946F28C801A3
S11323000E949210982E7801C0E0D0E086B18E73BE
S11323108E3309F472CF41E062E08B2D0E943026A7
S1132320F5CF0F931F93CF93DF93CDB7DEB7C1558E
S1132330D1090FB6F894DEBF0FBECDBF62961FAEB3
S1132340629700E010E0CE0101960E94E71F882307
S113235069F189A184FD26C069E071E0CE0101968E
S11323600E94EB2B892B41F464E071E0CE010196CD
S11323700E94EB2B892BB1F0BE016F5F7F4FCE0122
S1132380C2960E94D62BAE014E5C5F4F60E270E0B5
S1132390C80135E0880F991F3A95E1F70E94982407
S11323A00F5F1F4F011588E018076CF21AAAAE01DF
S11323B04E5C5F4F60E270E0C80125E0880F991F12
S11323C02A95E1F70E949824C801CF5ADF4F0FB62F
S11323D0F894DEBF0FBECDBFDF91CF911F910F9157
S11323E008950E949111009791F00E94DD1097FDCD
S11323F00EC00E949C1F882351F00E946F280E94E7
S11324007513823021F482E490E10C94241308952E
S11324108F929F92AF92BF92CF92DF92EF92FF92F0
S11324200F931F93CF93DF93CDB7DEB7A0970FB66B
S1132430F894DEBF0FBECDBFCE0101967C0180E2D1
S1132440F70111928A95E9F7A12CB12CC12CD12C5A
S113245000E010E0F0E28F2EC8010196F801ED577C
S1132460FF4E9490992009F1D7018C01FAE09F1650
S113247049F09D920F5F1F4FF801EE57FF4E949065
S11324809110F4CFA70160E270E0C5010E94982486
S11324908FEFC81AD80AF701882D11928A95E9F7A7
S11324A090E2A90EB11C9110D7CFA70160E270E0B1
S11324B0C601E5E0880F991FEA95E1F70E94982488
S11324C00E946F28C6010E94DD1082309105D1F070
S11324D048F4009791F0019779F56CEA71E088E788
S11324E09EE01EC084309105B9F088F0059721F56F
S11324F064E670E08AE393E113C06CE172E08EE17C
S113250091E10EC068E972E086EE9DE109C06EE3D8
S113251073E08AEB90E004C060E87AE088EF93E02F
S11325200E9475100E946F280E947513823021F456
S11325308FE290E10E942413A0960FB6F894DEBFB8
S11325400FBECDBFDF91CF911F910F91FF90EF9000
S1132550DF90CF90BF90AF909F908F900895CF93CE
S1132560DF93C0E0D0E0FE01E256FC4E6491CE0160
S11325700E9484262196C03884E0D807A1F78CE312
S11325808093770380917703882361F086B18E73FB
S11325908E33C1F362E088EE93E00E941E2610920F
S11325A07703F0CF0E94FC1FDF91CF910C946F282A
S11325B080E880936100109261000E94602682E0AE
S11325C00E94C02484B1886284B980E58CBD8DB535
S11325D081608DBD87B1817C87B988B18E6388B9EC
S11325E00E9418260E94FC23789480918400909184
S11325F085000E949E2B0E94AF120E94112181111E
S113260002C0C0E009C00E94E61E8823D1F382E123
S113261091E00E94431FC82F64E085E590E10E9489
S1132620BC250E946F2882E00E94C024CC2319F0AC
S11326300E94F111F6CF84E290E10E9458250E9495
S113264007200E940812EDCFCF93DF93EC010E9484
S11326506F2882E00E94C024CE010E94582588EB96
S113266090E10E945825809134019091350164E0F5
S113267002970E9467258091590162E090E00E94D0
S1132680672580915A0162E090E00E9467250E94CC
S1132690C32485EB90E10E94582564E080913601C3
S11326A0909137010E94672580EB90E10E945825A4
S11326B08091380162E090E00E9467250E94C32463
S11326C089EA90E10E945825C9E3D1E0899162E04A
S11326D090E00E94672581E0C934D807B9F70E94C9
S11326E0C324DF91CF910C940720BF92DF92EF9225
S11326F0FF920F931F93CF93DF93109235011092A3
S11327003401109238011092370110923601CAE058
S1132710D8E4E0E8DE2E0E940F20811114C38091DA
S11327203401909135010E9444248093590190937F
S11327305A012091340130913501D9011296B09398
S11327403501A0933401982F082F0F7080915A01FE
S1132750F82EF2947FE0F722492F42954F7050E013
S11327604C5C5F4FFA010C94562A982F907F903C52
S113277021F48F700E947D28CECF903D21F48F707C
S11327800E94A528C8CF8C3F01F150F48E3E61F021
S11327908B3FC1F0803E09F0D8C20E946F28BBCFA6
S11327A08D3F09F0B8CFCFC2E09138018FEF8E0F83
S11327B080933801F0E0EE0FFF1FEC5CFE4F87A121
S11327C090A5F5C10E94DA28A6CF0E940129A3CFC3
S11327D0409138014F5F40933801E42FF0E0EE0F51
S11327E0FF1FEC5CFE4FB0A7A7A3282F30E0392BC6
S11327F0220F331F3F7030933501209334018BCF68
S1132800A02FB0E0AC5CBE4F15969C9113C0A02FD6
S1132810B0E0AC5CBE4F15969C91BBC0802F90E09D
S11328208C5C9E4FAF2DB0E0AC5CBE4FFC0195813B
S113283015968C9198136FCFAFC0E02FF0E0EC5C4D
S1132840FE4F9581980F59C1482F4F7050E04F307B
S1132850510508F07AC2FA01EC5BFF4F0C94562A3A
S1132860EF2DF0E0EC5CFE4F8581E02FF0E0EC5CB6
S1132870FE4F858350CFE02FF0E0EC5CFE4FAF2D90
S1132880B0E0AC5CBE4F15968C919581892BF1CF4D
S1132890E02FF0E0EC5CFE4FAF2DB0E0AC5CBE4F3F
S11328A015968C9195818923E4CFE02FF0E0EC5CC0
S11328B0FE4FAF2DB0E0AC5CBE4F15968C91958168
S11328C08927D7CFE02FF0E0EC5CFE4F2581AF2DB8
S11328D0B0E0AC5CBE4F15968C91982F920F958307
S11328E090E0820F911D21E08F3F910509F00CF4D7
S11328F020E0209348010FCFE02FF0E0EC5CFE4F86
S11329002581AF2DB0E0AC5CBE4F15969C9114C0F0
S1132910E02FF0E0EC5CFE4F8581982F969595832F
S113292081702EC1EF2DF0E0EC5CFE4F2581E02F8D
S1132930F0E0EC5CFE4F9581822F891B858381E05A
S1132940291708F01DC180E01BC1E02FF0E0EC5C0A
S1132950FE4F8581982F990F9583881F8827881F9C
S11329600FC1482F4F7050E04A30510508F0EDC1B7
S11329704D5A5F4FFA010C94562A802F90E08C5CDC
S11329809E4FAF2DB0E0AC5CBE4FFC019581159617
S11329908C91981709F4BFCEF9013496F093350160
S11329A0E0933401B8CEAF2DB0E0AC5CBE4FE02F65
S11329B0F0E0EC5CFE4F40E043C082E00E94C024A3
S11329C0AF2DB0E0AC5CBE4FE02FF0E0EC5CFE4F0E
S11329D015966C9185810E944725809136019091CE
S11329E037019C012F5F3F4F30933701209336010D
S11329F00E942324882309F48ECE0E94EE24EDCF76
S1132A00AF2DB0E0AC5CBE4FE02FF0E0EC5CFE4FCD
S1132A1042E015966C9185810E9489267CCE8F2D8B
S1132A20F0E10F9F800D11240E944C2674CEAF2D2F
S1132A30B0E0AC5CBE4FE02FF0E0EC5CFE4F41E058
S1132A4015966C9185810E94302665CEE0913801FF
S1132A50EF5FE0933801F0E0EE0FFF1FEC5CFE4FF8
S1132A60A02FB0E0AC5CBE4F15968C9190E090A77F
S1132A7087A351CEE09138018FEF8E0F80933801F8
S1132A80A02FB0E0AC5CBE4FF0E0EE0FFF1FEC5C9B
S1132A90FE4F87A115968C933ECEE02FF0E0EC5CC0
S1132AA0FE4FD58238CEE02FF0E0EC5CFE4FD583AC
S1132AB032CE282F30E0392B220F331F3F70309352
S1132AC037012093360180919B01816016C14091AA
S1132AD03901282F30E0392B220F331F3F70240F88
S1132AE0311D240F311D87CE0E94992BE02FF0E079
S1132AF0EC5CFE4F90915A01982395830CCE8F7015
S1132B00B82E10E0EF2CF12C809136019091370112
S1132B10B11014C044E151E060E270E00E946F24FF
S1132B20D701AC5CBE4FF801EC5CFE4F44E151E0D0
S1132B3015966C9185810E94732722C020919B0178
S1132B4020FD09C0D701AC5CBE4FF801EC5CFE4F20
S1132B5000E09C010FC06B2D70E044E151E00E9445
S1132B606F24D701AC5CBE4FF801EC5CFE4F01E072
S1132B7024E131E04B2D15966C9185810E94D62677
S1132B8080934801C8CD8E3919F0813AA9F0DDC08F
S1132B90E02FF0E0EC5CFE4F85810E94EE1F88235D
S1132BA009F4B9CD80913401909135010296909346
S1132BB0350180933401AFCDE02FF0E0EC5CFE4FA3
S1132BC085810E94EE1F8111A6CDECCF893209F4D4
S1132BD06EC018F5853109F458C048F4873009F4FB
S1132BE051C08A3009F0B1C00E94F41F3ECE883132
S1132BF009F453C08E3109F0A8C0E02FF0E0EC5C7A
S1132C00FE4F25818091360190913701820F911DED
S1132C1090933701809336017ECD853509F470C0D9
S1132C20D8F4803309F454C0833309F08EC0E02F04
S1132C30F0E0EC5CFE4F85816C2F0E94F5299093A7
S1132C4016010E94F529909315018093140144E123
S1132C5051E063E070E05AC0853709F45EC08538FE
S1132C6009F466C0853609F070C0602F70E06F5FAC
S1132C707F4F49E351E080913601909137010E94E2
S1132C806F2449CD80917703F0CDE02FF0E0EC5C28
S1132C90FE4F8581809377033ECDE02FF0E0EC5C1E
S1132CA0FE4F65818BE092E00E941E2634CDE02F1A
S1132CB0F0E0EC5CFE4F858126E0829FC001112488
S1132CC08A59924E909337018093360180E010C068
S1132CD0E02FF0E0EC5CFE4F8581EAE08E9FC001BE
S1132CE011248A53934E909337018093360181E0E7
S1132CF00E94C02480919B018E7F80939B010BCD09
S1132D00602F70E06F5F7F4F49E351E0809136019F
S1132D10909137010E949824FECC80E0E82FF0E0E7
S1132D20EC5CFE4F9581958B8F5F0817B8F7F3CC59
S1132D3080E0E82FF0E0EC5CFE4F958995838F5F8F
S1132D400817B8F7E8CC81E001C082E0DF91CF91A9
S1132D501F910F91FF90EF90DF90BF9008956F92B5
S1132D607F928F929F92AF92BF92CF92DF92EF9217
S1132D70FF920F931F93CF93DF9300D000D0CDB772
S1132D80DEB74C01CB01BA018114910409F476C079
S1132D90623071058105910508F470C0D401ED918C
S1132DA0FC912085608071802B3089F524E030E02F
S1132DB040E050E00E94C02AF401A284B384C48499
S1132DC0D584E684F784008911890E94092BF4E0F4
S1132DD0EF2EF12C8E010F5F1F4FF301099588230D
S1132DE009F44CC049815A816B817C81411551059C
S1132DF06105710509F442C0DB01CA01805F9F4F80
S1132E00AF4FBF404097A105B105A0F537C022E000
S1132E1030E040E050E00E94C02AD4011A96AC9001
S1132E201A971B96BC901B971C96CC901C971D96CA
S1132E30DC901D971E96EC901E971F96FC901F9792
S1132E4050960C91509751961C910E94092BE2E0E8
S1132E50EE2EF12C8E010F5F1F4FF301099588238D
S1132E6069F089819A81AC0160E070E001978F3E3E
S1132E709F4F20F4342F252FCB0104C030E020E0F5
S1132E8080E090E0632F722F0F900F900F900F90BF
S1132E90DF91CF911F910F91FF90EF90DF90CF9032
S1132EA0BF90AF909F908F907F906F9008958F9276
S1132EB09F92AF92BF92CF92DF92EF92FF920F93C5
S1132EC01F93CF93DF936C01D701CD91DC911197C0
S1132ED012968D919C911397809613969C938E9342
S1132EE01297F6018081853E09F48BC0882309F48A
S1132EF088C083858F3009F484C081E3DE011D928C
S1132F008A95E9F709A71AA72BA73CA74DA75EA79F
S1132F106FA778ABD601AE0180E09C91903299F016
S1132F20FA019083F601248523FF07C02C912154D4
S1132F302A3118F4905EFA0190838F5F11964F5FE7
S1132F405F4F883051F79881953011F495EE98834E
S1132F50D60118969C91903211F1FE01E80FF11DF3
S1132F609EE29083F601389634E0380F8F5F9081AB
S1132F709032A9F0AE01480F511DDA019C93D6019D
S1132F801C962C9124FF07C0208121542A3118F467
S1132F90905EDA019C938F5F31968313E8CFFE0134
S1132FA0E80FF11D1082F601838588A3C6014A96B5
S1132FB00E945E104C01A12CB12C89A29AA2ABA252
S1132FC0BCA2C60144960E945E10AC0160E070E0B1
S1132FD0BA0155274427482959296A297B2949A335
S1132FE05AA36BA37CA3C6014C960E9466106DA3E2
S1132FF07EA38FA398A781E0D70114968C9380E0D9
S113300001C081E0DF91CF911F910F91FF90EF906C
S1133010DF90CF90BF90AF909F908F9008952F92A4
S11330203F924F925F926F927F928F929F92AF9254
S1133030BF92CF92DF92EF92FF920F931F93CF93A1
S1133040DF93CDB7DEB7C954D1090FB6F894DEBF0C
S11330500FBECDBF9FA38EA3892B09F40FC280910D
S1133060C5029091C602892B09F008C2E5ECF2E092
S113307082E3DF011D928A95E9F7EEA1FFA1F093A7
S1133080C602E093C502618572858385948520E03C
S113309032E040E050E00E94C02A322E232E6A0122
S11330A068AB79AB8AAB9BABABE00E94122BAEA1B1
S11330B0BFA1ED91FC91B5E2EB2EF12C8E010F5FD7
S11330C01F4F0995811105C01092C6021092C502C6
S11330D0D5C1CE0101960E945E109FA78EA7CE0196
S11330E004960E945E108C01AB80AEAEBE80BFAE73
S11330F0CE0107960E945E1022969FAF8EAF229754
S1133100CE0109960E945E103C01CE010C960E94ED
S11331105E1099AF88AFCE0146960E9466104B01AF
S11331205C01CE014A960E9466106CAB7DAB8EABFF
S11331309FABCE0182960E9466102A966CAF7DAF3B
S11331408EAF9FAF2A9781149104A104B10439F47E
S11331506114710409F4B8CF4301A12CB12CE8AC7B
S1133160F9ACE114F10441F0C701A0E0B0E08CAB8C
S11331709DABAEABBFAB09C08CA99DA9AEA9BFA93D
S1133180892B8A2B8B2B09F49FCF24013501401AFC
S1133190510A610871089FAD892F90E0A0E0B0E06A
S11331A026968CAF9DAFAEAFBFAF26972CA93DA995
S11331B04EA95FA9BC01CD010E94E529461A570A10
S11331C0680A790A8EA59FA5019722962EAD3FAD78
S11331D0229745E0220F331F4A95E1F7820F931F90
S11331E06EA57FA50E94012A461A570A6108710834
S11331F0AEAD2A2F30E040E050E0C301B2010E949E
S1133200152A2AAF3BAF4CAF5DAF253FBFE03B076C
S11332104105510508F458CF253F3F4F410551055D
S113322030F486E0AEA1BFA118968C9304C08BE065
S1133230EEA1FFA180878CE2E7ECF2E0DF011D92B2
S11332408A95E9F7EEA5FFA52F01612C712CC50124
S1133250B401A30192010E94C02A2093C7023093B3
S1133260C8024093C9025093CA026093CB02709380
S1133270CC028093CD029093CE02B80180E090E01E
S1133280A30192010E94C02AA32CB22CE8A8F9A899
S11332900AA91BA90E94092B28AB39AB4AAB5BAB2B
S11332A01B014C012093CF023093D0024093D102F2
S11332B05093D2026093D3023092D4028093D50209
S11332C09092D6026AAD7BAD8CAD9DAD6E5F7F4FA3
S11332D08F4F9F4FAEA1BFA118962C91263029F491
S11332E022E030E040E050E004C024E030E040E080
S11332F050E00E94E5296093D7027093D80280932E
S1133300D9029093DA02EEA5FFA5F093DC02E093D4
S1133310DB02AEACAE9EC001AF9E900D1124909323
S1133320DE028093DD02AEA1BFA118968C91863097
S113333009F057C0E8ADF9AD9F0140E050E0C3018A
S1133340B2010E94C02AAFACB12CC12CD12CE12C0B
S1133350F12C00E010E00E94672AA8A8B9A8CAA826
S1133360DBA8710184010E94092B19012A013B0188
S11333704C012093E7023092E8024093E902509214
S1133380EA026093EB027092EC028093ED02909259
S1133390EE022296AEACBFAC2297B50180E090E07D
S11333A020E230E040E050E00E94C02A59016A0166
S11333B07B018C019101A201B301C4010E94092B7C
S11333C02093DF023093E0024093E1025093E20243
S11333D06093E3027093E4028093E5029093E60223
S11333E04AC0CEA4DFA4B60180E090E026962CADBE
S11333F03DAD4EAD5FAD26970E94C02ACCA8DDA896
S1133400EEA8FFA856016701E12CF12C8701AEA2BA
S1133410BFA2C8A6D9A6EAA6FBA60CA71DA7E12CA5
S1133420F12C00E010E00E94672AA8A8B9A8CAA855
S1133430DBA8710184010E94092B2093DF023093E1
S1133440E0024093E1025093E2026093E30270933E
S1133450E4028093E5029093E6022A96ECACFDAC7C
S11334600EAD1FAD2A97E092EF02F092F0020093A6
S1133470F1021093F20285EC92E002C080E090E049
S1133480C75BDF4F0FB6F894DEBF0FBECDBFDF9131
S1133490CF911F910F91FF90EF90DF90CF90BF904D
S11334A0AF909F908F907F906F905F904F903F90E0
S11334B02F900895009719F0FC011182108208954D
S11334C0CF93DF93009799F06115710581F0FB01AB
S11334D020A124FD0CC02091470230914802232BE7
S11334E049F02091860230918702232B31F080E04D
S11334F090E021C0C7E4D2E002C0C6E8D2E0DE0119
S1133500129621E3FB0101900D922A95E1F799832C
S113351088831BAA1CAA1DAA1EAA1FAA18AE19AE2C
S11335201AAEFB0181A192A1A3A1B4A18BAF9CAF60
S1133530ADAFBEAFCE01DF91CF910895009719F0E2
S1133540FC011182108208952F923F924F925F9254
S11335506F927F928F929F92AF92BF92CF92DF929F
S1133560EF92FF920F931F93CF93DF93CDB7DEB704
S11335706A970FB6F894DEBF0FBECDBF1C017A8FD9
S1133580698F5A8B498B009719F48FEF9FEFC4C151
S1133590A98CBA8CAB28C9F3C988DA88C114D104C0
S11335A0A1F3DC01D396BC91B983FC01F4A9FA839D
S11335B0DC01D596BC91BB83FC01F6A9FC83DC013C
S11335C0D796BC91BD83FC01F0ADFE83DC01D99696
S11335D0BC91BF83FC01F2ADF887DC0197964D9056
S11335E05D906D907C909A97960140E050E060E089
S11335F070E080E090E0A980BA80CB80DC80ED8030
S1133600FE800F8118850E94092B63015201E12C71
S1133610F12C87014986BA86CB86DC86ED86FE8648
S11336200F87188BE12CF12C00E010E00E94272B6F
S113363059F050F06201E980FA80CE18DF08DA8A86
S1133640C98ACD2809F466C1D101ED91FC91119785
S1133650A08CB18CB88EAF8ADB964D905D906D9046
S11336607C90DE97411451046104710409F04DC04B
S113367093964D905D906D907C9096974114510473
S113368061047104A9F4E1E0F0E029813A814B81FD
S11336905C816D817E818F819885A0E00E94302BB2
S11336A011F4E0E0F0E0882799278E1B9F0B34C1CA
S11336B029813A814B815C816D817E818F819885DE
S11336C0A0E00E94302B09F1C980DA80EB80FC80F5
S11336D00F89188D4801A12CB12CC814D904EA040F
S11336E0FB0498F0C818D908EA08FB08B301A20142
S11336F0D1018D919C910E94AF162B013C01611563
S113370071058105910549F740CFEF89F88D31970F
S1133710A980BA80EA21FB21FE8BED8BC988DA8867
S1133720DA86C986D1018D909C908114910479F137
S1133730B2E04B1651046104710448F1F401808D28
S1133740918D9C0140E050E0C301B20162507109C7
S1133750810991090E94C02AD4015A96AC905A97C3
S11337605B96BC905B975C96CC905C975D96DC9086
S11337705D975E96EC905E975F96FC905F9790964F
S11337800C91909791961C910E94092B08C020E0FF
S113379030E040E050E060E070E080E090E0EF89ED
S11337A0F88DAD88BE88EA19FB09FC8BEB8BC984C4
S11337B0DA84CE16DF0610F4DC8ACB8AD401ED91CC
S11337C0FC910D891E894801A12CB12CC12CD12C4E
S11337D0760109839A82AB82BC82CD82DE82EF823B
S11337E0F8865801C12CD12CE12CF12C00E010E01A
S11337F00E94092B0190F081E02DEB88FC88098D53
S11338001A8D0995811107C089899A8929853A8574
S1133810821B930B81C0898D9A8DAB89BC898A0FD9
S11338209B1F9A8F898FE985FA85EA1BFB0BFA8720
S1133830E9879D0140E050E060E070E080E090E0C6
S1133840D101D396AC90D397D496BC90D497D59607
S1133850CC90D597D696DC90D697D796EC90D79700
S1133860D896FC90D897D9960C91D997DA961C9152
S1133870DA970E94092BD3962C93D397D4963C9332
S1133880D497D5964C93D597D6965C93D697D796DE
S11338906C93D797D8967C93D897D9968C93D997CD
S11338A0DA969C93DA978B899C89ED89FE898E0F31
S11338B09F1FAF88B88C8A159B05E8F0B301A2015D
S11338C08D919C910E94AF162B013C0161157105ED
S11338D08105910571F4D101DB961D921D921D9213
S11338E01C92DE9789899A89E985FA858E1B9F0B3C
S11338F013C01E8A1D8AD101DB964D925D926D9292
S11339007C92DE97E985FA85EF2B09F00BCF898944
S11339109A8902C080E090E06A960FB6F894DEBF00
S11339200FBECDBFDF91CF911F910F91FF90EF900C
S1133930DF90CF90BF90AF909F908F907F906F90CB
S11339405F904F903F902F900895CF93DF9300970F
S113395091F06115710579F0FB0120A124FF0BC0E2
S1133960CCE9D1E028813981232B41F0E996F2E0BA
S1133970C734DF07B9F780E090E016C0DE01129685
S113398021E3FB0101900D922A95E1F79983888345
S1133990FB0181A192A1A3A1B4A18BAB9CABADAB64
S11339A0BEAB18AE1FAACE01DF91CF910895009748
S11339B019F0FC01118210820895FC01009761F056
S11339C043A154A165A176A143AB54AB65AB76ABDF
S11339D010AE17AA81E0089580E008952F923F92D7
S11339E04F925F926F927F928F929F92AF92BF920B
S11339F0CF92DF92EF92FF920F931F93CF93DF93B7
S1133A00CDB7DEB7E9970FB6F894DEBF0FBECDBFD2
S1133A1099AB88AB892B09F161157105F1F0A8A95F
S1133A20B9A92D903C901197F101008CF18DE02DF6
S1133A30FBABEAABD3964D905D906D907C90D6979E
S1133A40D7962D913C91D8973FA72EA72E173F07C5
S1133A5030F088A999A90E94DD1C80E005C1FE010F
S1133A60B19685E0DF011D928A95E9F781E3FB01B8
S1133A7011928A95E9F77AA369A341145104610468
S1133A80710409F093C0D101ED91FC9111978085E7
S1133A908B3039F49A964D905D906D907C909D9703
S1133AA085C0F101028CF38DE02DD10192968D91A8
S1133AB09C919397E81BF90BFBABEAAB77C08DA104
S1133AC08111C3C0EAA9FBA92EA53FA5E21BF30BF4
S1133AD0FDABECABA90160E070E080E090E0DC01BC
S1133AE02EA35FA368A779A78AA79BA7ACA7BDA7A6
S1133AF0411451046104710409F063C040E050E0D2
S1133B0060E070E080E090E0D1019296AC909297F2
S1133B109396BC9093979496CC9094979596DC90BA
S1133B2095979696EC9096979796FC90979798967B
S1133B300C91989799961C910E94092B1CA21BA288
S1133B40D101ED91FC910280F381E02DDE0191968B
S1133B504D01A7E5AA2EA7E1BA2ECCA8DDA8B0E2B4
S1133B60EB2EF12C8E010F5F1F4F0995882309F46A
S1133B7074CF8BA19CA1EEA5FFA5E80FF91FFFA7A9
S1133B80EEA72AA93BA9E217F30708F498CFB301DB
S1133B90A201C1010E94AF162B013C016115710500
S1133BA08105910509F44DC01FA61EA6B301A2010B
S1133BB042505109610971094EAB5FAB68AF79AFEF
S1133BC07ECF2114310461F1B2E04B16510461043B
S1133BD0710430F1F101208D318D40E050E06EA987
S1133BE07FA988AD99AD0E94C02AD1015A96AC90A4
S1133BF05A975B96BC905B975C96CC905C975D966D
S1133C00DC905D975E96EC905E975F96FC905F9774
S1133C1090960C91909791961C910E94092B08C044
S1133C2020E030E040E050E060E070E080E090E0D0
S1133C30AEA0BFA0C8A4D9A4EAA4FBA40CA51DA54A
S1133C407BCF8DA1882309F404CFA8A9B9A9D39661
S1133C504D925D926D927C92D697EEA5FFA5D89673
S1133C60FC93EE93D7978DA1E9960FB6F894DEBF37
S1133C700FBECDBFDF91CF911F910F91FF90EF90B9
S1133C80DF90CF90BF90AF909F908F907F906F9078
S1133C905F904F903F902F9008958F929F92AF9294
S1133CA0BF92CF92DF92EF92FF920F931F93CF9325
S1133CB0DF935C01EB018A01009709F46AC0209745
S1133CC009F467C08881882309F463C0411551054C
S1133CD009F45FC08F3209F4219681E3F80111924F
S1133CE08A95E9F780E1F80180A38881811102C0F7
S1133CF081E050C0B801C5010E94A51C7C01009759
S1133D0009F447C06FE270E0CE010E94C22B009715
S1133D1041F0C82ECC1A4C012FEF821A920AD12CF2
S1133D2016C0FE0101900020E9F73197EC1BFD0B52
S1133D30CE2E4E018E0E911CF2CFF8010190002080
S1133D40E9F73197E01BF10BEC15FD0539F0B801EB
S1133D50C7010E94EE1C8111F0CF17C0A601B80163
S1133D60CE010E94DD2B892B91F7C7010E94D71C3D
S1133D70CC0DDD1D8881882309F4BACFF80180A118
S1133D8084FF07C0E401E12CF12CC7010E94D71C79
S1133D90ACCF80E0DF91CF911F910F91FF90EF9016
S1133DA0DF90CF90BF90AF909F908F900895CF9366
S1133DB0DF93EC010E946F2882E00E94C024CE01B0
S1133DC00E945825DF91CF910C9407200F931899E6
S1133DD03DC000E020E030E040E050E06EE872E2F8
S1133DE08FEC91E20E941B2090935A038093590315
S1133DF0892BB1F40FEF20E030E040E050E06EE8B2
S1133E0072E28FEC91E20E941B2090935A038093FC
S1133E105903892B29F48CEF90E10E94D71E16C018
S1133E208091590390915A030E940F189093600354
S1133E3080935F03892B61F486EE90E10E94D71E84
S1133E408091590390915A030E94B62080E001C0EA
S1133E5081E00F91089580915B0390915C030E942F
S1133E609E1A80915D0390915E030E94D71C8091FD
S1133E705F03909160030E945A1A809159039091B4
S1133E805A030C94B62048E253E0BC0180915F03CE
S1133E90909160030E944D1E68E273E080915F037D
S1133EA0909160030E94A51C90935E0380935D0330
S1133EB0892B41F481ED90E10E94D71E0E942B1FB3
S1133EC080E0089581E00895CF93DF93EC0167EFDC
S1133ED072E080915D0390915E030E94EE1C882342
S1133EE011F1BE0187EF92E00E94CD2B892B79F767
S1133EF080915D0390915E030E94DD1C67EF72E088
S1133F0080915F03909160030E94601A90935C0318
S1133F1080935B03892B11F081E005C08CEB90E169
S1133F200E94D71E80E0DF91CF91089580915B03BA
S1133F3090915C030C949E1AEF92FF920F931F933F
S1133F40CF93DF93CDB7DEB7A0970FB6F894DEBF5B
S1133F500FBECDBFAE014F5F5F4F60E270E025E062
S1133F60880F991F2A95E1F70E946F24CE010196CC
S1133F700E94641F00E010E08823D9F040E250E082
S1133F80BE016F5F7F4F80915B0390915C030E9441
S1133F90A41A7C011816190654F4AE014F5F5F4F42
S1133FA0B701C8010E9498240E0D1F1DE7CF0E947F
S1133FB0961F802FA0960FB6F894DEBF0FBECDBF1C
S1133FC0DF91CF911F910F91FF90EF900895BC0165
S1133FD080915D0390915E030C94EE1C96B198233E
S1133FE081E009F080E0089586B18E738E33E1F3A9
S1133FF086B180958E73089586B18E738E3331F0B9
S113400062E084EF91E00E941E26F6CF089583E1DA
S113401091E10E9458253599FECF0C94FC1F86B17E
S1134020867019F086B1887121F40E94FC1F81E02A
S1134030089580E008955F926F927F928F929F928D
S1134040AF92BF92CF92DF92EF92FF920F931F93A2
S1134050CF93DF93CDB7DEB760970FB6F894DEBF8A
S11340600FBECDBF6C015B013A014901502E009790
S113407019F480E090E064C061157105D1F383E028
S11340808017BCF307FF05C0809169038111F1CF4C
S11340901DC0A0E10A02F0011124E254FE4F9F2F3B
S11340A0990F990B80E1E82EF12C8E010F5F1F4FC1
S11340B09F01492F592F692F792F892FF6010995CF
S11340C08823B9F28D818111DFCFD3CF81E1E1E67D
S11340D0F3E0DF011D928A95E9F7D0926203C09262
S11340E06103B0926403A0926303709266036092CA
S11340F06503909268038092670357FC1CC08D810E
S113410080936903CE0109960E94661060936A0346
S113411070936B0380936C0390936D03CE010D96A3
S11341200E94661060936E0370936F038093700314
S11341309093710303C08FEF8093690381E693E04A
S113414060960FB6F894DEBF0FBECDBFDF91CF915E
S11341501F910F91FF90EF90DF90CF90BF90AF90A1
S11341609F908F907F906F905F900895009721F0BB
S1134170FC01108681E0089580E008958EBD0DB4A1
S113418007FEFDCF8DB58F778DBD08958FEF8EBD62
S11341900DB407FEFDCF8DB58F778DBD8EB5089517
S11341A01F93CF93DF9300D000D0CDB7DEB7182F85
S11341B04C835B836A8379830E94C620812F806449
S11341C00E94BE207981872F0E94BE206A81862F9B
S11341D00E94BE205B81852F0E94BE204C81842FCB
S11341E00E94BE20112321F0183039F487E801C061
S11341F085E90E94BE201AE004C08FEFFACF115067
S113420021F00E94C6208F3FD1F30F900F900F90A2
S11342100F90DF91CF911F91089583B180958170A4
S11342200895CF92DF92EF92FF921F93CF93DF9383
S11342302098289A239A259A219A2498299A83E5E2
S11342408CBD8DB58E7F8DBD109272030E940D21A1
S1134250882309F46DC0CAE00E94C620C150E1F76A
S11342602998C0E0D2E040E050E0BA0180E00E942A
S1134270D020813021F021972097A9F758C04AEA2D
S113428051E060E070E088E00E94D02082FD15C01B
S11342900E94C6200E94C6200E94C62080FF48C0FB
S11342A00E94C6208A3A09F043C08091720382605A
S11342B080937203C0E0D0E829C040E050E0BA0126
S11342C087E30E94D02040E050E0BA0189E20E94D6
S11342D0D02082FDEFCF809172038160E9CF81FD10
S11342E01BC0C12CD12C760140E050E0BA0187E319
S11342F00E94D020B701A60189E20E94D020182F85
S1134300117080FF17C02197209789F08091720364
S1134310982F937021F706C0C12CD12CE12C80E496
S1134320F82EE2CF40E050E0BA0181E0E6CF299ACE
S113433010E02CC0C0917203C1FF17C040E050E0F0
S1134340BA018AE30E94D020882311F0299A1EC062
S11343500E94C62086FF03C0C460C09372030E94FB
S1134360C6200E94C6200E94C62040E052E060E0C1
S113437070E080E10E94D020299A811107C08CB599
S11343808C7F8CBD8DB581608DBD11E0812FDF9157
S1134390CF911F91FF90EF90DF90CF9008952F92CF
S11343A03F924F925F926F927F928F929F92AF92C1
S11343B0BF92CF92DF92EF92FF920F931F93CF930E
S11343C0DF93CDB7DEB72E970FB6F894DEBF0FBEDE
S11343D0CDBF19012A013B014C011C830B83FE86CE
S11343E0ED864D855E85452B09F47EC091013170C3
S11343F03A83298340E050E060E070E0CB012D83F4
S11344003E834F83588769877A878B879C8791017E
S1134410A201B301C401AD80BE80C12CD12CE12C1A
S1134420F12C00E010E00E941E2BE12CE2E0FE2EB5
S1134430E981FA81EE1AFF0AED85FE85EE15FF0586
S113444008F47F012998E0917203E2FF03C009E0B8
S11344500E94ED2ABA01422F532F81E10E94D020FD
S1134460882319F0299A80E040C00E94C6208E3F1C
S1134470E1F7C980DA80CE0CDF1C00E010E00E9476
S1134480C62029813A810217130748F00C151D052F
S113449030F4EB81FC8180833196FC83EB830F5FE6
S11344A01F4F0115F2E01F0751F70E94C6200E941A
S11344B0C620299A0E94C6202D853E852E193F09C3
S11344C03E872D87970140E050E060E070E080E097
S11344D090E051016201730184010E94092B1901CA
S11344E02A013B014C017DCF81E02E960FB6F89452
S11344F0DEBF0FBECDBFDF91CF911F910F91FF9013
S1134500EF90DF90CF90BF90AF909F908F907F906F
S11345106F905F904F903F902F9008952F923F920D
S11345204F925F926F927F928F929F92AF92BF92BF
S1134530CF92DF92EF92FF920F931F93CF93DF936B
S1134540CDB7DEB768970FB6F894DEBF0FBECDBF08
S113455029833A834B835C836D837E838F8398871F
S11345601A8B098B37011601BC8AAB8A9E8A8D8A05
S1134570012B09F4EAC0E114F10409F4E6C0CE14F5
S1134580DF0408F4E2C0AB2809F4DFC029982989C4
S11345903A892E0D3F1D388F2F8B49815A815170D6
S11345A05A874987412CF2E05F2E441A550A8091BC
S11345B0720382FF14C029813A814B815C816D8131
S11345C07E818F81988509E00E94ED2AF22FE32FE6
S11345D0942F852F4F2F5E2F692F782F0DC069855B
S11345E07A85CB01A0E0B0E049815A816B817C815E
S11345F0481B590B6A0B7B0B81E10E94D020882356
S113460011F0299AA2C00E94C6208E3FE1F700E073
S113461010E089859A850817190729F00E94C62099
S11346200F5F1F4FF6CF4C014614570468F0261451
S1134630370450F009891A8909C046185708261802
S113464037084114510471F5912C33C02F89388DEA
S11346500217130731F00E94C620F80181938F01DD
S1134660F5CF940140E050E060E070E080E090E03D
S1134670A980BA80CB80DC80ED80FE800F81188514
S11346800E94092BED88FE8889019A01AB01BC01C7
S113469089899A89EB89FC8909958111CECF99245E
S11346A0939407C0860C971C2114310409F0BCCFE5
S11346B0CBCF4114510431F00E94C620F1E04F1ACF
S11346C05108F7CF0E94C6200E94C6202614370442
S11346D0B8F149855A859A0140E050E060E070E005
S11346E0CB0129873A874B875C876D877E878F87C5
S11346F0988B20E032E040E050E060E070E080E041
S113470090E0A984BA84C12CD12CE12CF12C00E0D6
S113471010E00E941E2BA980BA80CB80DC80ED8043
S1134720FE800F8118850E94092B29833A834B83CD
S11347305C836D837E838F839887992009F42DCFC2
S1134740299A0E94C62081E001C080E068960FB6D5
S1134750F894DEBF0FBECDBFDF91CF911F910F91B3
S1134760FF90EF90DF90CF90BF90AF909F908F908D
S11347707F906F905F904F903F902F900895409856
S11347809DB591609DBD91E09EBD0DB407FEFDCF2A
S11347909DB591609DBD8EBD0DB407FEFDCF409AC1
S11347A0089540988DB581608DBD82E08EBD0DB4B5
S11347B007FEFDCF8DB581608DBD1EBC0DB407FE17
S11347C0FDCF8DB581608DBD1EBC0DB407FEFDCF40
S11347D080E090E0A1E0B0E02DB521602DBD1EBCCD
S11347E00DB407FEFDCF0197A109B1090097A105FA
S11347F0B10591F7409A0895389A409A80E40E944E
S1134800BF230C94D12340982DB521602DBD22E007
S11348102EBD0DB407FEFDCF2DB521602DBD9EBD6F
S11348200DB407FEFDCF9DB591609DBD8EBD0DB449
S113483007FEFDCF8DB581608DBD6EBD0DB407FE45
S1134840FDCF409A089540982DB521602DBD23E0F9
S11348502EBD0DB407FEFDCF2DB521602DBD9EBD2F
S11348600DB407FEFDCF9DB591609DBD8EBD0DB409
S113487007FEFDCF8DB581608DBD1EBC0DB407FE56
S1134880FDCF409A8EB5089540982DB521602DBD79
S113489023E02EBD0DB407FEFDCF2DB521602DBD47
S11348A09EBD0DB407FEFDCF9DB591609DBD8EBD2F
S11348B00DB407FEFDCF8DB581608DBD1EBC0DB45A
S11348C007FEFDCF8EB590E02DB521602DBD1EBC39
S11348D00DB407FEFDCF2EB5409A922B0895409853
S11348E02DB521602DBD23E02EBD0DB407FEFDCFF7
S11348F02DB521602DBD9EBD0DB407FEFDCF9DB528
S113490091609DBD8EBD0DB407FEFDCFFA01640F0D
S1134910751FE617F70751F08DB581608DBD1EBC7C
S11349200DB407FEFDCF8EB58193F3CF409A089561
S113493040982DB521602DBD22E02EBD0DB407FE9B
S1134940FDCF2DB521602DBD9EBD0DB407FEFDCF5D
S11349509DB591609DBD8EBD0DB407FEFDCFFA01DE
S1134960640F751FE617F70749F091918DB58160C3
S11349708DBD9EBD0DB407FEFDCFF4CF409A0895C2
S113498080930E0108951092740380910E0181307A
S113499071F018F08230A9F0089520917303822FEA
S11349A090E0CE9714F42A5F13C086E015C02091DE
S11349B07303822F90E0C69714F4265F09C08AE03F
S11349C00BC020917303822F90E0CA9724F4285FD0
S11349D020937303089588E00C94A5280F93909175
S11349E00E019130F9F018F09230A1F14EC08031EF
S11349F008F04BC096E0899F900111242A59324E49
S1134A0000E046E060917303809174030E94D6260F
S1134A10809174038C5F809374038E37B0F10F918F
S1134A200C94C324803188F59AE0899F9001112465
S1134A302A53334E00E04AE060917303809174037B
S1134A400E94D62680917403885F809374038A370A
S1134A50E0F0E5CF8A3019F390EE980F9536A8F47C
S1134A6098E0899F900111242256374E00E048E0D7
S1134A7060917303809174030E94D626809174031D
S1134A808A5F809374038C3750F60F910895809356
S1134A907403609373030895CF93DF93EC018991BA
S1134AA0882319F00E94EE24FACFDF91CF91089564
S1134AB0CF93DF93FC018491EF012196882321F0A9
S1134AC00E94EE24FE01F7CFDF91CF9108950F935A
S1134AD01F93CF93DF9300D000D01F92CDB7DEB7E2
S1134AE013E0482F4F70212F30E0E1E0F0E0EC0FAD
S1134AF0FD1FE20FF31F4A3010F4405D01C0495C12
S1134B00408334E0969587953A95E1F711506150CA
S1134B10009739F7062F80E26D830E94EE246D81A1
S1134B20912F961B20E3892F860F662349F0E1E03D
S1134B30F0E0EC0FFD1FE80FF11D20836150F3CF6F
S1134B4081E0810F801B843068F411E0180FE1E0EC
S1134B50F0E0EC0FFD1FE80FF11D80810E94EE24B0
S1134B60812FF1CF0F900F900F900F900F90DF9146
S1134B70CF911F910F910895FF920F931F93CF939D
S1134B80DF93EC01062F0E946F2882E080930E01D0
S1134B909E012F5F3F4FFE01149140E2F42E11233A
S1134BA0A9F110927403F0927303E9011A30B9F079
S1134BB0812F0E94EE242196FE013197149180E208
S1134BC00E94EE1F882349F00E946F28DF91CF9145
S1134BD01F910F91FF900C94FC1F1111E7CF18E067
S1134BE000937703809177038111FCCF81E00E94C9
S1134BF0A52880E20E94EE1F8111E6CF115081F7B3
S1134C009E012F5F3F4FFE011491C9CFC0E2009374
S1134C107703809177038111FCCF81E00E94A5285E
S1134C2080E20E94EE1F8111CFCFC15081F7CCCF1B
S1134C30569A83E085BD82E484BD0895CF93C62F40
S1134C409C0140E050E068E478EE81E090E00E944E
S1134C50372A215027BD569AC0937603CF910895E1
S1134C60CF93DF931F92CDB7DEB78F70E82FF0E0BC
S1134C70EE0FFF1FEA53F24E8591949149830E94EF
S1134C801E264981442321F0809176038111FCCFB3
S1134C900F90DF91CF91089514BC569A80937603B8
S1134CA080917603882341F00E94992B80FF02C0F3
S1134CB05E9AF6CF5E98F4CF569882E484BD089548
S1134CC0229A82EC8093C20082E090E09093C50027
S1134CD08093C40087EF93E09093890080938800C9
S1134CE083E693E090938B0080938A0083E3809320
S1134CF0800089E1809381001092C600EFE6F0E025
S1134D00808184608083089588589C4FFC0160836F
S1134D10089587FD4AC0683408F047C0E82FE59538
S1134D20E595E595809587704130B9F018F04230EB
S1134D3049F10895FF27E7FDF09590E16902E00D40
S1134D40F11D1124E858FC4F21E030E001C0220F8E
S1134D508A95EAF78081822B27C0FF27E7FDF0952B
S1134D6090E16902E00DF11D1124E858FC4F21E0A7
S1134D7030E001C0220F8A95EAF72095808128232C
S1134D8020830895FF27E7FDF09590E16902E00D87
S1134D90F11D1124E858FC4F21E030E001C0220F3E
S1134DA08A95EAF78081822780830895AF92BF9223
S1134DB0CF92DF92EF92FF920F931F93CF93DF93E3
S1134DC0893F0CF484C09EE0960F963508F07FC0AE
S1134DD050E087FF2AC0819590E070E0E72FFF271D
S1134DE0E7FDF095E417F5070CF06EC0C1E0C60FBF
S1134DF06834C0F4E20FF31F013011F4E08101C004
S1134E00E491F0E16F02D0011124A858BC4F6C91D9
S1134E10082E01C0EE0F0A94EAF7F62FFE239F2B0B
S1134E20E627EC936C2F7F5FD9CF782F7770C72E4E
S1134E30172F1195177085958595859590E0D12C40
S1134E40E82EFF24E7FCF094ED2DFF27E7FDF09515
S1134E50E417F507CCF5BB24B394B60E683488F593
S1134E60E20FF31F013011F4E08101C0E491D70196
S1134E70F0E16F02A00DB11D1124ED01C858DC4F03
S1134E80A8806E2F70E0FB010C2C02C0F595E7950D
S1134E900A94E2F7FA2DFE239F2BEA25E8831123D7
S1134EA081F08F3071F0A758BC4FCC91FB01012EDB
S1134EB001C0EE0F0A94EAF76C2F6E23962BEC27B1
S1134EC0EC936B2DD394C0CF81E0911101C080E0AD
S1134ED0DF91CF911F910F91FF90EF90DF90CF90D2
S1134EE0BF90AF9008958F929F92BF92CF92DF921E
S1134EF0EF92FF920F931F93CF93DF93813F0CF4B4
S1134F00E1C09FE0960F973508F0DCC0FA013196B6
S1134F10893F04F538EF381B20E110E041E0460FEB
S1134F20683490F480E16802D0011124A858BC4F81
S1134F305C918081032E01C0880F0A94EAF7952FB3
S1134F409823192B85278C93642F21503296211195
S1134F50E5CFB5C087FF43C0782F7195885F90E196
S1134F6010E001E0060F6834A0F5A0E16A024001F8
S1134F701124E401C858DC4FB880AF0141505109F5
S1134F80DA012C91072E01C0220F0A94EAF73B2D77
S1134F9032273883C080D12C7601082E02C0F594C4
S1134FA0E7940A94E2F7432F4E254883D401A75887
S1134FB0BC4F6C91A601072E01C0440F0A94EAF776
S1134FC0562F5423152B2B21122BE3221E2946275F
S1134FD04C93602F915032969111C3CF70C0082F1B
S1134FE00770902F9195977085958595859520E10B
S1134FF0D22E10E0882E992487FC9094CC24C3945C
S1135000C60E683408F056C09401B0E16B02200D5E
S1135010311D1124D901A858BC4FBC90BF01615067
S11350207109EB01E880F12CA701002E02C055950F
S113503047950A94E2F75B2D5423152B4B254C938B
S11350408F30C1F1D9011196992381F0AD014858EF
S11350505C4FEA01B880B701092E01C0660F0A94BB
S1135060EAF77B2D7623172B6B256883A858BC4F52
S1135070FC90408150E0BA01002E02C075956795FE
S11350800A94E2F77F2D7623172B6F256C939923CF
S113509089F08E3079F0D901A658BC4F6C919A01F1
S11350A0092E01C0220F0A94EAF7362F3223132B5C
S11350B026272C936C2DDA943296D1109FCF81E061
S11350C0111101C080E0DF91CF911F910F91FF90EA
S11350D0EF90DF90CF90BF909F908F90089580E8DD
S11350E094E0E8E7F3E0DF019C011D922150304099
S11350F0E1F760E080E00C944725CF93DF938823A9
S113510009F18F7190E0EC0134E0CC0FDD1F3A958A
S1135110E1F748E450E0481B590B64E0440F551F85
S11351206A95E1F768E773E0CE0188589C4F0E94C6
S1135130A92BAE0160E070E088E793E0DF91CF91A6
S11351400C94BB2BDF91CF9108950F931F93CF93B2
S1135150DF93882351F18F71082F10E0E80174E088
S1135160CC0FDD1F7A95E1F748E450E0401B510B6A
S1135170E4E0440F551FEA95E1F7BE0168587C4FFF
S113518088E793E00E94A92B20EF2003C001219F10
S1135190900D1124AE0160E070E08850984FDF91CB
S11351A0CF911F910F910C94BB2BDF91CF911F9145
S11351B00F910895CF93DF93A8E7B3E0CD01409614
S11351C09D012F5F3F4FFC013197EF0121974881EB
S11351D060E1469FA0011124508152955F70542BC9
S11351E05083E217F30781F72C9122952F702C93AB
S11351F027E0883F920711F0DC01E0CFDF91CF91E7
S1135200089587E893E0FC013F97208140E1249FC3
S113521090011124318132953F70322B3193E8177C
S1135220F90799F780818295807F8083CF0140962A
S113523028E08730920739F708951F920F920FB62E
S11352400F9211242F938F939F93EF93FF93809149
S11352501001909111010196909311018093100116
S11352608331910509F43FC0ECF48630910589F14E
S113527054F4892B09F070C08BEF91E0909389006E
S1135280809388002DC08C30910551F1429709F02C
S113529063C087EF93E090938900809388008AE449
S11352A090E019C0873D9105C9F15CF48431910502
S11352B029F18834910509F04FC081E0809375038A
S11352C07AC08F3021E0920761F180319140B9F1C9
S11352D043C086ED91E090938B0080938A006BC06D
S11352E085E290E0F8CF80917703882309F463C0C6
S11352F0809177038150809377035DC0809176031A
S1135300882309F458C080917603815080937603F2
S11353108091760381114FC056984DC01092750349
S11353204AC080910F01882309F445C08FEF9FEF95
S1135330909311018093100110920F013CC0809151
S11353400F01811109C08FEF9FEF9093110180939A
S1135350100181E080930F0180917503882359F136
S11353601092C60088E08093C1001092C600E091BC
S11353701001F0911101E854F109F595E79594E0D5
S1135380EE0FFF1F9A95E1F7E858FC4FCF014096C6
S11353902091C00025FFFCCF21912093C600E8177F
S11353A0F907B1F78091C00086FFFCCF8091C1005E
S11353B0877F8093C100FF91EF919F918F912F91EF
S11353C00F900FBE0F901F901895DB018F939F9342
S11353D00E945C2ABF91AF91A29F800D911DA39F53
S11353E0900DB29F900D11240895991B79E004C08B
S11353F0991F961708F0961B881F7A95C9F7809510
S11354000895AA1BBB1B51E107C0AA1FBB1FA61707
S1135410B70710F0A61BB70B881F991F5A95A9F759
S113542080959095BC01CD010895A1E21A2EAA1B86
S1135430BB1BFD010DC0AA1FBB1FEE1FFF1FA21740
S1135440B307E407F50720F0A21BB30BE40BF50B3D
S1135450661F771F881F991F1A9469F760957095C6
S1135460809590959B01AC01BD01CF010895052E57
S113547097FB1EF400940E944E2A57FD07D00E9409
S1135480152A07FC03D04EF40C944E2A50954095EF
S1135490309521953F4F4F4F5F4F089590958095DC
S11354A0709561957F4F8F4F9F4F0895EE0FFF1FAB
S11354B00590F491E02D09940E943C2BA59F900D3A
S11354C0B49F900DA49F800D911D11240895DF9326
S11354D0CF931F930F939A9DF02D219FF00D8B9DD9
S11354E0F00D8A9DE02DF10D039FF00D029FE00D5C
S11354F0F11D4E9DE00DF11D5E9DF00D4F9DF00DD3
S11355007F936F93BF92AF925F934F93D5010E94A5
S11355103C2B8B01AC01D7010E943C2BEB01E80F23
S1135520F91FD6010E94B72A2F913F91D6010E94FC
S11355303C2BC60FD71FE81FF91FAF91BF910E94E4
S1135540B72A2F913F910E943C2BC60FD71FE81F0B
S1135550F91FD6010E943C2BE60FF71F9801BE01EC
S1135560CF0111240F911F91CF91DF9108950E94D3
S11355703C2B460F571FC81FD91F08F431960895B6
S1135580E894DF93CF93FC01DB010E943C2B7F93D3
S11355906F93E9019A01AC01BF93AF933F932F93AB
S11355A0DF010E943C2B26F46C1B7D0B820B930BBA
S11355B09E01EB01FC010E94B72AAF91BF912F918C
S11355C03F910E94B72ABE01CF01F9012F913F916B
S11355D0CF91DF91089597FB10F8169400080F936C
S11355E0083098F00850232F342F452F562F672F5B
S11355F0782F892F902DF4CF0594979587957795DB
S1135600679557954795379527950A95AAF70F916A
S113561008952A0D3B1D4C1D5D1D6E1D7F1D801FB1
S1135620911F08950024A7FD00942A0F301D401DEA
S1135630501D601D701D801D901D08952A193B0981
S11356404C095D096E097F09800B910B08952A1599
S11356503B054C055D056E057F05800791070895A0
S11356600024A7FD00942A17300540055005600565
S11356707005800590050895A29FB001B39FC001F5
S1135680A39F700D811D1124911DB29F700D811D6A
S11356901124911D08958F929F92AF92BF92CF9241
S11356A0DF92EF92FF92CF93DF93EC0168817981CF
S11356B08A819B81611571058105910521F464E25C
S11356C079ED8BE597E02DE133EF41E050E00E9466
S11356D0372A49015A019B01AC01A7EAB1E40E94AF
S11356E05C2A6B017C01ACEEB4EFA50194010E942D
S11356F0112CC60ED71EE81EF91EF7FE06C081E067
S1135700C81AD108E10880E8F80AC882D982EA8276
S1135710FB82C6019F77DF91CF91FF90EF90DF90DE
S1135720CF90BF90AF909F908F9008950E944B2B85
S1135730089580E091E00E944B2B0895A0E0B0E032
S11357408093000190930101A0930201B09303019F
S113575008956817790768F4FB01DC01E40FF51F6D
S1135760A40FB51F02C002900E9241505040D8F7CA
S113577008950C94052CDC0101C06D9341505040F8
S1135780E0F70895FC018191861721F08823D9F769
S1135790992708953197CF010895FB01DC018D917C
S11357A0019080190110D9F3990B0895FB01DC01D4
S11357B001900D920020E1F70895FB01DC014150B6
S11357C0504030F08D910190801919F40020B9F700
S11357D0881B990B0895FB0151915523A9F0BF0132
S11357E0DC014D9145174111E1F759F4CD010190C8
S11357F0002049F04D9140154111C9F3FB014111BD
S1135800EFCF81E090E001970895FB01DC0102C035
S113581001900D9241505040D8F70895B7FF0C9471
S11358205C2A0E945C2A821B930B0895F894FFCF94
S1135830010000002E42494E002E62696E000201F2
S1075840FFFF2F0033
S9030000FC
