:100000000C9490100C94AD100C94AD100C94AD1099
:100010000C94AD100C94AD100C94AD100C94AD106C
:100020000C94AD100C94AD100C94AD100C94AD105C
:100030000C948E290C94AD100C94AD100C94AD1052
:100040000C94AD100C94AD100C94AD100C94AD103C
:100050000C94AD100C94AD100C94AD100C94AD102C
:100060000C94AD100C94AD10BE12C312C812CD1278
:10007000D212D712DC121414541447145F146614ED
:100080006D1494147C1483140E1506161416211680
:100090002B16701693168F149A14A714B214BF144B
:1000A000D914E514EF14521752175217521752175A
:1000B000521702151A1529153315581567156F159E
:1000C0007E159215A515AB15B115C115D115E01505
:1000D000F01510094A6F6E6173204C696E64737479
:1000E0006564740000FF10456401A1926B006C3BD5
:1000F000DBC47B083B80100F683CA18E6935D89625
:1001000063004300101DA191D23263008C407CFF3C
:100110006B038CB26B004C0010277B057CFF102218
:100120006100A181FB1EF065A196F11EF0557101E1
:100130007B01310610286D086E0566006A01A196E4
:1001400080D0D0E57014306C103820A42109207DB7
:1001500020C44F42101821283463103D00E0A15400
:100160006D286E0A6C0ADDEA7D08FC1E3D58104AB7
:10017000A1726D346E196C05DDE57D08FC1E3D4CE9
:1001800010536D2D6E286C05DDE57D08FC1E3D4588
:10019000105BA195F065A19CF0336C00A19CFC1E46
:1001A000F065F029DDE57D057C013C0310656C20E0
:1001B000EC9E106FA19460006100F1556C366F0ADF
:1001C000214F00C17CFF3C001076100B33001097CC
:1001D000CC0F3C001096CC077C018C06A199FC1E2C
:1001E000F0654000109682D083E073054C001092B9
:1001F00072147CFF108DA191D2323F00109E00EE50
:10020000A191D2327301333A1092630000EE6C3543
:100210008B308BC53F00646300EE80407001800628
:100220006C00A199FC1EF0557C013C0510A8A19C16
:10023000F43320B86C78FC15FC073C0010B320B8F0
:1002400000EEA19DF065F0306C376B1BDCBAA19E0F
:10025000F065F0306C41DCBA00EE46001102A1916D
:10026000D56276FF46001102D5624F0011028CE084
:100270007C058C654F001103D56275FB66008CD040
:1002800060008BC08B553F0010DF7C14700110D8CC
:10029000A199F01EF06570FFF055A1964000DCE5D5
:1002A0006C0AFC18A194F0656CFF80C3F055300017
:1002B00010F4A195F0657001F0556C006B00A199E8
:1002C000FC1EF06530007B017C013C0510F63B0014
:1002D000110274016F4200EEA191D232D562630027
:1002E000660000EE6B006C08ECA16BFF6C10ECA1DB
:1002F0006B014B00111C48016B0148786BFFA18E0C
:100300006935D89688B4D89611256C20EC9E1125B5
:100310003600112585806635A191D5626F06214F83
:1003200000EEF00730001137601EF01567003D2128
:1003300011326AFF11353D0711366A016701213814
:1003400000EE8BD06C0089B081E0A199FC1EF065B5
:1003500040001146A196D91589A48174D9157C0154
:100360007B143C05113A8DA48E744E30646300EE0C
:10037000FF15FF073F00115000EE3C0C1E1E3333EB
:100380003F6161F31F0C0C0C0C0C0C8C8CDF070113
:1003900001010101010161E7E78383838383838393
:1003A00083E7FB190161E161010119FB9F86C6E644
:1003B000E6B69E9E8EE6E494E790F787808080877D
:1003C00088888888AF66884828C64CAAACAA4AE0C4
:1003D00088C088E0000018FF3C00183CFF81423CC8
:1003E0003C3C423C5A5A7E7E0000243C24000018CB
:1003F000183C7EFF1818FF225588000000000000FE
:1004000000000000000000000000000000000000EC
:10041000101B626C696E6B7920322E303020432EB7
:10042000204567656265726720313939310A4A6152
:100430006371756573204465736368656E65732CBD
:1004400020323031350000E0A001600091098106C2
:10045000901291096020E0A1102B600223B500D119
:1004600071FF310010226020E0A1102B00E060003D
:100470006100A53A9012A539F0658200630A8325D0
:10048000F329602AD015F00A400220464004204398
:100490003020102E104E320A72011048320172FFC5
:1004A0008020A539F055600F23B500EE00E08003F1
:1004B0008113A3BAF1556005A3BCF0558773866319
:1004C000230C00E0231D6E4087E26E2787E168342D
:1004D00069186A706B006C046D3422FAA3DDDAB817
:1004E000DCD8A539F06523B5213A3E001083A3BCC2
:1004F000F0658500C4FF845221CDC4FF845222617F
:100500006020E0A1234136F710698E6023936E646A
:10051000239323411057F007400010D580808006B8
:10052000800681A08106810680154000109440015C
:10053000109440FF109410AD80908006800681B02A
:10054000810681068015400010A2400110A240FFE4
:1005500010A210ADA3DDDAB86A706B00DAB86EF3E2
:1005600087E26E0487E16E322393808080068006E6
:1005700081C0810681068015400010BB400110BB80
:1005800040FF10BB106F80908006800681D08106EE
:1005900081068015400010C9400110C940FF10C9F4
:1005A000106FA3DDDCD86C046D34DCD86ECF87E22D
:1005B0006E2087E16E192393106F605A23AA22FAE6
:1005C000A3DDDAB8DCD86E4087E3807080E23000CB
:1005D000105B8E602393239B00E066246714A3BB0B
:1005E000234966246720A3BA234964006510660185
:1005F000670FA509D460A519D560601423AA3E0031
:100600001130A509D460A519D5607404750434604F
:1006100010F1A509D460A519D560601423AA3E0085
:100620001130A509D460A519D5607604362D1101C5
:10063000A509D460A519D560601423AA3E00113025
:10064000A509D460A519D56074FC75FC340011109F
:10065000A509D460A519D560601423AA3E00113005
:10066000A509D460A519D56076FC3601112010F1DA
:10067000A519D560A529D560601EF015F0073000DA
:100680001136104E83706E0383E2848085906E0471
:10069000EEA1116B6E02EEA111776E10EEA1118327
:1006A0006E08EEA1118F43037504430075FC4302ED
:1006B0007404430174FC80408150233182006E0831
:1006C00080E23000119B6E07802082E24205119F7C
:1006D000420611AB420711C822FA6EFC87E287314D
:1006E0008840895012FA8040815071042331820081
:1006F0006E0880E23000114B63037504115980408D
:10070000815071FC233182006E0880E23000114B71
:10071000630075FC115980408150700423318200C0
:100720006E0880E23000114B63027404115980405E
:10073000815070FC233182006E0880E23000114B42
:10074000630174FC115922FAD8988EF000EE6EF015
:1007500080E28031F055A3E1D45876016105F007BD
:100760004000F11811646EF080E28031F055A3E58D
:10077000D458760480A081B023316EF080E230003E
:1007800011BB6E0C87E380C081D023316EF080E214
:10079000300011C46E3087E360FFF018F01511646B
:1007A00043016474430264001164827083706E0CB0
:1007B00082E280A081B02331A3DD6EF080E23000C0
:1007C00011E4DAB8420C7B0442007BFC42087A0454
:1007D00042047AFCDAB800EE6E80F1073100123C78
:1007E0003400123C8100830E3F0011FD839083B5DD
:1007F0004F0012183300120C87E3838083A54F004B
:1008000012303300122487E3123C838083A54F000B
:1008100012303300122487E3839083B54F001218FF
:100820003300120C87E3123C634081324100123CDA
:10083000DAB87B04DAB86EF387E2620C872100EE47
:10084000631081324100123CDAB87BFCDAB86EF3F7
:1008500087E26200872100EE632081324100123C72
:10086000DAB87A04DAB86EF387E26208872100EE1C
:10087000638081324100123CDAB87AFCDAB86EF358
:1008800087E26204872100EEC1F08012300012443A
:100890006E0C87E382E311D9DAB8800E4F00124B59
:1008A00062047AFC125C800E4F001251620C7B04D1
:1008B000125C800E4F00125762087A04125C800EA0
:1008C0004F00124062007BFCDAB86EF387E28721AA
:1008D00000EE827083706E3082E280C081D023315E
:1008E000A3DD6EF080E230001278DCD842307D0467
:1008F00042007DFC42207C0442107CFCDCD800EEEF
:100900006E80F107310012D4340012D48100830EBE
:100910004F001291839083D54F0012AD330012A087
:1009200087E3838083C54F0012C7330012BA87E381
:1009300012D4838083C54F0012C7330012BA87E3F5
:10094000839083D54F0012AD330012A087E312D4F9
:1009500063408132410012D4DCD87D04DCD887E3C7
:100960006ECF87E26230872100EE63108132410052
:1009700012D4DCD87DFCDCD887E36ECF87E262003E
:10098000872100EE63208132410012D4DCD87C0440
:10099000DCD887E36ECF87E26220872100EE638098
:1009A0008132410012D4DCD87CFCDCD887E36ECFE6
:1009B00087E26210872100EEC1F08012300012DD64
:1009C00087E36E3087E382E3126DDCD8800E4F0040
:1009D00012E462907CFC12F5800E4F0012EA623045
:1009E0007D0412F5800E4F0012F062A07C0412F517
:1009F000800E4F0012D862007DFCDCD86E4F87E27B
:100A0000872100EE80706E0380E2800E81808194E9
:100A10006E0481E241007001800E800E800EA3BD45
:100A2000F01ED8988EF000EE6E00A409FE1EFE1E89
:100A3000FE1EFE1EF365A53EFE1EFE1EFE1EFE1ED3
:100A4000F3557E013E80130D00EE822383336E0F3B
:100A500080208130233380E2800E800EA3E9F01ED7
:100A6000D23472043280132082237304434000EE98
:100A70001320700471048006800681068106810EB1
:100A8000810E810E810EA53EF11EF11EF01EF06555
:100A900000EEA3BCF0658006F0556020E0A113468F
:100AA00000EEF1656E01844382008310651083556A
:100AB0004F0082E54F00135C652782554F00135CA1
:100AC0008020813084E4134EF430D67A760C84434F
:100AD0008200831065E883554F0082E54F00137054
:100AE000650382554F0013708020813084E41362C7
:100AF000F430D67A760C8443820083106564835583
:100B00004F0082E54F0013808020813084E413760B
:100B1000F430D67A760C844382008310650A8355BC
:100B20004F00138D813084E41386F430D67A760C2E
:100B3000F130D67A00EEA3BAF16581E43F0070018E
:100B4000A3BAF15500EEA3BAF3658E008E254F00CF
:100B500000EE3E0013A78E108E354F0000EEA3BBB3
:100B6000F15500EE8EE36220F015E2A113B3F00719
:100B7000300013AD00EE6E0100EEF015F00730000E
:100B800013B600EE00000000050000226363777FCB
:100B90003E1C001C1E5D5D6F3E1C003C7E0F070F5F
:100BA0007E3C001C267F7F7B061C001E3F787078F1
:100BB0003F1E001C327F7F6F301C001C3E7F77631E
:100BC0006322001C3E6F5D5D1E1C001C3E49777F4A
:100BD000637F00000000080000000000000008081B
:100BE0000000000000000000000000000000000005
:100BF0000000000000008000000080800000000075
:100C00000000F000000000000000808080800000F4
:100C10000000F080808080808080F00000008000F4
:100C200000000C0808080808080808080808080850
:100C3000080D0C080808080808080808080808082B
:100C4000080D0A6505050505E50505E50505050524
:100C5000C50A0A6505050505E50505E5050505055A
:100C6000C50A0A050C08080F050C0D050808080D33
:100C7000050E0F050C08080F050C0D050808080DDA
:100C8000050A0A050A650605950A0A350505C50A15
:100C9000350505950A650505950A0A350506C50A4F
:100CA000050A0A050F0508080808080C080F0508BA
:100CB000080808080F0508080C080808080F050FA1
:100CC000050A0A7505B505050505C50A6505B505D5
:100CD000E50505E505B505C50A6505050505B5057F
:100CE000D50A0A050C080808080D050F050C080FA1
:100CF00005080F0508080D050F050C080808080D64
:100D0000050A0F050F650505C50A35E5950A650550
:100D1000B00505B505C50A35E5950A650505C50F94
:100D2000050F077405D5080F050E0F05080F050CF4
:100D3000080808080D05080F05080F05080F7505B8
:100D4000D4070A050A350505F50505B50505D508D5
:100D5000080D0C080F750505B50505F50505950A7F
:100D6000050A0A050808080D050C0808080D3505D0
:100D7000C50A0A6505950C0808080D050C08080F3A
:100D8000050A0A750506C50A050808080808080FB7
:100D900005080F050808080808080F050A65060574
:100DA000D50A0A050C0D050A3505050505E50505F5
:100DB000F50505F50505E505050505950A050C0D7F
:100DC000050A0A05080F0508080808080F050C0D94
:100DD00005080F050C0D0508080808080F05080F81
:100DE000050A0A350505B5050505050505950A0A2F
:100DF000350505950A0A35050505050505B50505F9
:100E0000950A0808080808080808080808080F08CC
:100E1000080808080F08080808080808080808084B
:100E2000080F01E0021004C809E40BF40BB409E553
:100E300004C9021301E70007018303F001FF00FF6B
:100E4000003F0F00108026404F205FA05DA04F2084
:100E500026409080CF00C00083001F80FF00FE006E
:100E6000F8000F001F803FC07FE07FE05FE047E0B9
:100E700020C09080CF00C08083C01F80FF00FE0094
:100E8000F800050073706565643A200000000000FA
:100E9000100F312E3030204B2E762E53656E676248
:100EA000757363682032342F342D2739340000FFE6
:100EB0006C0420A4653266326728835084606264C3
:100EC00069006A016B0000C120666001820560282C
:100ED0005200101BA0C8D348A0C8D34800C1D56891
:100EE0003F0010402066600132008205208483505C
:100EF00084606008E0A120586010E0A12054C00385
:100F00004000205DC0034000206180C020BD10244F
:100F100080B0700380068006F03080707011611B15
:100F2000D01A606420BD00C860006100A0CC90129F
:100F3000F00A40FF105010117501456E656D00EE0E
:100F4000600185054F00650000EE77014746674563
:100F500000EE600187054714671500EE8090612D53
:100F60008105881061008070A0C2D011808461006A
:100F7000D0117A014A046A014A01A0C34A02A0C4FE
:100F80004A03A0C561006000D0116008D0116070F4
:100F9000D0116078D01100EE320000EEC00F8074E6
:100FA00070086100A0C8622D4B1E20963B21D0180E
:100FB0007B0180908205390B790100EE7B03A0C68E
:100FC00080707005D0117008D0117008D0117008B1
:100FD000A0C7D011626400EE00E060006100A0D202
:100FE0009012620882C5F229602AD015F00A4002E8
:100FF00020BA400420B7302010A400E000EE3C07E7
:101000007C0110BC3C017CFF600FF015F007300044
:1010100010BE00EE8800880055002200FF00F80096
:10102000DBFFDB1824E7E7DB616E79206B65792E47
:101030002E2E000073706565643A2000636172743F
:10104000652053443F0A00435241534821206261C6
:1010500064206F70636F64650A00435241534821F6
:1010600020626164206F70636F64650A00464154BA
:10107000206472697665720A436F70797269676875
:101080007420323030362D323031320A526F6C617A
:101090006E642052696567656C0A004C454D0A43D1
:1010A00041520A574F524D0A414C49454E0A424C53
:1010B000494E4B590A4A4F594D55530A737065654D
:1010C0006420746573740A007661725B5D3A002077
:1010D00053503A00493A0050433A0045636865630B
:1010E000206F75766572742E20666963682E0A001B
:1010F000456368656320616363657320726570652D
:1011000072742E0A004563686563206163636573CA
:101110002066696368696572730A00456368656380
:1011200020616363657320706172746974696F6EA6
:101130000A0000E060006100A02B9012620261FFD3
:10114000F00A400261004012610140106102401447
:10115000610340046104400C610540086106400AD7
:10116000610740226108403261094030610A403421
:10117000610B4024610C402C610D4028610E402A17
:10118000610F31FF912510064A6F79737469636BA3
:10119000206D75736963616C0A4A6163717565736B
:1011A000204465736368656E65730A3230313500BB
:1011B0000A626F75746F6E2E2E2E0000E020C269D9
:1011C00000680078019E0860108E058E066D006C28
:1011D000006B006A642087206D20B34A00102B60EA
:1011E00008E0A1101C6010E0A110206020E0A11018
:1011F00024102B20B37CFF7AFF102920B37C017AC6
:10120000FF102920B37BFE3A017AFF7AFF90442039
:10121000B320B3206D8EC4607F8E028DB47B01201D
:101220006D4F01104B20B34A00103B601420461054
:101230001020B3600A610490116004204620B3605E
:1012400004901120461010F015F0073000104700F0
:10125000EE20B3600280B53F01105C600280C53FA4
:1012600001105C5E70105C7901A0E8610062109171
:10127000221060A0E26100621091222070603C2088
:10128000466020E09E10646101620A9121E0A11095
:101290006900E01004A0CFDED000EE6100620AA178
:1012A0000CF933207CA0DFD1257104A10CF8332088
:1012B0007C00EE6300A10CF31EF065F029D12571CE
:1012C0000473013303107D00EE6500C77F9008634F
:1012D0001080359006807590073F018700847074F8
:1012E00010C10F90098107835083753F01109E83C1
:1012F0005083453F0110AD9009800680153F007175
:1013000001900970FF80173F0071FFC3038306330C
:101310000071FE710195137501900855001096003B
:10132000EE610062006300A10CFA33A10CF31EF021
:1013300065F030D12A71087301330310B800EEA0B4
:10134000F06100920982069122910900D160032088
:101350004671FF310010C800EE03C006601FF83F61
:10136000FC2004AFF56C362C346FF6A0053FFC3F33
:10137000FC12902448600CC0062040408080007918
:101380006F75206372617368656400636F6E677266
:101390006174756C6174696F6E21004C454D0A4A29
:1013A000616371756573204465736368656E657309
:1013B0000A436F7079726967687420323031342C57
:1013C000323031350A6C6963656E63652047504C75
:1013D0007633000000000000E0A02C600061009067
:1013E00012633C60006100F31571013F007001F36E
:1013F000073300100964006508201F640065108031
:1014000010201F623CF215F207320010186020E035
:101410009E100000FDA032F0336300A032F31EF0F6
:1014200065F029D455740473013303102200EE7360
:10143000706565642074657374000000000000FF2F
:10144000FFFFFFFFFFFFFFFFFFFFFFFFFFFFFFFFAC
:10145000FFFFFFFFFFFFFFFFFFFFFFFFFFFFFFFF9C
:10146000FFFFFFFFFFFFFFFFFFFFFFFFFFFFFFFF8C
:10147000FE03FCFFE7CF800FFFFFFFFFFFFFFFFF33
:10148000F800FCFFE7CF8007FFFFFFFFFFFFFFFF34
:10149000F0FC7CFFE7CF9FE3FFFFFFFFFFFFFFFFB5
:1014A000E3FE3CFFE7CF9FF1FFFFFFFFFFFFFFFFE2
:1014B000C7FF1CFFE7CF9FF9FFFFFFFFFFFFFFFF05
:1014C000CFFF9CFFE7CF9FF9F83FE0FE60FFFFFFF3
:1014D0008FFFFCFFE7CF9FF9E01F803E007FFFFFFB
:1014E0009FFFFCFFE7CF9FF9C78F1F1E1E3FFFFF27
:1014F0009FFFFCFFE7CF9FF1CFC73F9E3F3FFFFF1E
:101500009FFFFC0007CF9FE39FE63F8E7F3FFFFFDB
:101510009FFFFC0007CF80079FFE7FCE7F3FFFFF2E
:101520009FFFFCFFE7CF801F9FFE7FCE7F3FFFFF27
:101530009FFFFCFFE7CF9FFF9FFE7FCE7F3FFFFF18
:10154000CFFF9CFFE7CF9FFF9FFE7FCE7F3FFFFF38
:10155000CFFF1CFFE7CF9FFF9FE67FCE7F3FFFFFC0
:10156000C7FF3CFFE7CF9FFF9FE63F8E7F3FFFFF18
:10157000E3FE3CFFE7CF9FFFCFCF3F9E7F3FFFFFC4
:10158000F1F87CFFE7CF9FFFC78F1F1E7F3FFFFF54
:10159000F800FCFFE7CF9FFFE01F803E7F3FFFFF8B
:1015A000FE03FCFFE7CF9FFFF83FE0FE7F3FFFFF1A
:1015B000FFFFFFFFFFFFFFFFFFFFFFFFFFFFFFFF3B
:1015C000FFFFFFFFFFFFFFFFFFFFFFFFFFFFFFFF2B
:1015D000FFFFFFFFFFDFFFFFF87FC7FFFFFFFFFFFA
:1015E000FFFFFFFFFFFFFFFFF77FBBFFFFFFFFFFD7
:1015F000FFFFFFFFFFFFFFFFEFBF7DFFFFFFFFFFCD
:10160000FFF7DC7A61DF1E8FFFBF7DFFFFFFFFFF6B
:10161000FFF7DBB9DEDEEE77FFBF7DFFFFFFFFFFE9
:10162000FFFBB7DBDFDDF6F7FF7F7DFFFFFFFFFF8F
:10163000FFFBB7DBDFDDF6F7FF7F7DFFFFFFFFFF7F
:10164000FFFD701BE1DDF6F7FEFF7DFFFFFFFFFFF3
:10165000FFFD77FBFEDDF6F7FDFF7DFFFFFFFFFFE0
:10166000FFFD77DBFEDDF6F7FBFF7DFFFFFFFFFFF2
:10167000FFFEFBBBDEDEEEF7F7FFBBFFFFFFFFFF6A
:10168000FFFEFC7BE1DF1EF7E03BC7FFFFFFFFFF34
:10169000FFFFFFFFFFFFFFFFFFFFFFFFFFFFFFFF5A
:1016A000FFFFFFFFFFFFFFFFFFFFFFFFFFFFFFFF4A
:1016B000FFFFFFFFFFFFFFFFFFFFFFFFFFFFFFFF3A
:1016C000FFFFFFFFFFFFFFFFFFFFFFFFFFFFFFFF2A
:1016D000FFFFFFFFFFFFFFFFFFFFFFFFFFFFFFFF1A
:1016E000FFF1FFFFFEFEFBF1C7BC3FFFFFFFFFFF67
:1016F000FFEEFFFFFFFEFBEEBB3DFFFFFFFFFFFF27
:10170000FFDFC69BAACA91FEBABBFFFFFFFFFFFF28
:10171000FFDFBA6BA6B26BFEBBB87FFFFFFFFFFF18
:10172000FFDFBAED6EBAEBFDBBBFBFFFFFFFFFFFF0
:10173000FFDFBAED6EBAEBFBBBBFBFFFFFFFFFFFE2
:10174000FFEEBA6EEEB2EBF7BBBBBFFFFFFFFFFFD2
:10175000FFF1C69EEECAE9E0C7BC7FFFFFFFFFFFB7
:10176000FFFFFEFEFFFBFFFFFFFFFFFFFFFFFFFF8F
:10177000FFFFFEFDFF87FFFFFFFFFFFFFFFFFFFFF4
:10178000FFFFFFFFFFFFFFFFFFFFDFFFFFFFFFFF89
:10179000FF7FFFFFFFFF87FFFFDFAFFFFFFFFFFFC1
:1017A000FF7FFFFFFFFFBBFFFFDFFFFFFFFFFFFF2D
:1017B000FF638E57638FBD8E38D38C38E3FFFFFFF6
:1017C000FF5D75975D77BD75D74D75D75DFFFFFFE1
:1017D000FF617DD7419FBD0677DD05D067FFFFFF25
:1017E000FB5D7DD75FEFBD7FB7DD7DD7FBFFFFFFE3
:1017F000FB5975965D77BB75D75D75D75DFFFFFFAC
:10180000FCE58E59638F878E38DD8DD8E3FFFFFFAF
:10181000FFFFFFDFFFFFFFFFFFFFFFFFFFFFFFFFF8
:10182000FFFFFFDFFFFFFFFFFFFFFFFFFFFFFFFFE8
:10183000FFFFFFFFFFFFFFFFFFFFFFFFFFFFFFFFB8
:10184000FFFFFFFFFFFFFFFFFFFFFFFFFFFFFFFFA8
:10185000FFFFFFFFFFFFFFFFFFFFFFFFFFFFFFFF98
:10186000FFFFFFFFFFFFFFFFFFFFFFFFFFFFFFFF88
:10187000FFFFFFFFFFFFFFFFFFFFFFFFFFFFFFFF78
:10188000FFFFFFFFFFFFFFFFFFFFFFFFFFFFFFFF68
:10189000FFFFFFFFFFFFFFFFFFFFFFFFFFFFFFFF58
:1018A000FFFFFFFFFFFFFFFFFFFFFFFFFFFFFFFF48
:1018B000FFFFFFFFFFFFFFFFFFFFFFFFFFFFFFFF38
:1018C000FFFFFFFFFFFFFFFFFFFFFFFFFFFFFFFF28
:1018D000FFFFFFFFFFFFFFFFFFFFFFFFFFFFFFFF18
:1018E000FFFFFFFFFFFFFFFFFFFFFFFFFFFFFFFF08
:1018F000FFFFFFFFFFFFFFFFFFFFFFFFFFFFFFFFF8
:10190000FFFFFFFFFFFFFFFFFFFFFFFFFFFFFFFFE7
:10191000FFFFFFFFFFFFFFFFFFFFFFFFFFFFFFFFD7
:10192000FFFFFFFFFFFFFFFFFFFFFFFFFFFFFFFFC7
:10193000FFFFFFFFFFFFFFFFFFFFFFFFFFFFFFFFB7
:10194000FFFFFFFFFFFFFFFFFFFFFFFFFFFFFFFFA7
:10195000FFFFFFFFFFFFFFFFFFFFFFFFFFFFFFFF97
:10196000FFFFFFFFFFFFFFFFFFFFFFFFFFFFFFFF87
:10197000FFFFFFFFFFFFFFFFFFFFFFFFFFFFFFFF77
:10198000FFFFFFFFFFFFFFFFFFFFFFFFFFFFFFFF67
:10199000FFFFFFFFFFFFFFFFFFFFFFFFFFFFFFFF57
:1019A000FFFFFFFFFFFFFFFFFFFFFFFFFFFFFFFF47
:1019B000FFFFFFFFFFFFFFFFFFFFFFFFFFFFFFFF37
:1019C000FFFFFFFFFFFFFFFFFFFFFFFFFFFFFFFF27
:1019D000FFFFFFFFFFFFFFFFFFFFFFFFFFFFFFFF17
:1019E000FFFFFFFFFFFFFFFFFFFFFFFFFFFFFFFF07
:1019F000FFFFFFFFFFFFFFFFFFFFFFFFFFFFFFFFF7
:101A0000FFFFFFFFFFFFFFFFFFFFFFFFFFFFFFFFE6
:101A1000FFFFFFFFFFFFFFFFFFFFFFFFFFFFFFFFD6
:101A2000FFFFFFFFFFFFFFFFFFFFFFFFFFFFFFFFC6
:101A3000FFFFFFFFFFFFFFFFFFFFFFFFFFFFFF00B5
:101A40000000000000000020202020200020005086
:101A5000505000000000005050F850F85050002046
:101A600078A07028F02000C0C810204098180060AE
:101A700090A040A890680060204000000000001086
:101A80002040404020100040201010102040000056
:101A900020A870A8200000002020F82020000000CE
:101AA00000000060204000000000F0000000000086
:101AB00000000000606000000810204080000070FE
:101AC0008898A8C8887000206020202020F8007026
:101AD0008810204080F800F00808F00808F0001096
:101AE000305090F8101000F88080F00808F00030B6
:101AF0004080F088887000F8081020404040007056
:101B00008888708888700070888870080870000065
:101B100060600060600000006060006020400010B5
:101B2000204080402010000000F800F80000004035
:101B3000201008102040007088081020002000703D
:101B4000880868A8A87000708888F888888800F0DD
:101B50008888F08888F0007880808080807800F025
:101B60008888888888F000F88080F88080F800F8FD
:101B70008080F880808000788080B08888700088BD
:101B80008888F888888800702020202020700078BD
:101B9000080808089060008890A0C0A09088008085
:101BA0008080808080F80088D8A88888888800880D
:101BB00088C8A8988888007088888888887000F00D
:101BC0008888F08080800070888888A8987800F0E5
:101BD0008888F0A0908800788080700808F000F86D
:101BE000202020202020008888888888887000880D
:101BF00088888888502000888888A8A8D888008885
:101C0000885020508888008888885020202000F83C
:101C10001020408080F8006040404040406000005C
:101C20008040201008000018080808080818002044
:101C300050880000000000000000000000F8004094
:101C400020100000000000000070087888780080F4
:101C50008080B0C888F00000007080808870000824
:101C60000808689888780000007088F88070003054
:101C70004840E04040400000007888887808708044
:101C800080B0C88888880000200020202020001014
:101C900000301010906000808090A0C0A090006084
:101CA000202020202070000000D0A8A888880000F4
:101CB00000B0C8888888000000708888887000009C
:101CC00000F08888F080800000689090B050180084
:101CD00000B0C880808000000070807008F0004074
:101CE00040E0404048300000008888889868000044
:101CF0000088888850200000008888A8A85000002C
:101D0000008850205088000000888888780870007B
:101D100000F8102040F80020404080404020002083
:101D200020202020202000402020102020400000E3
:101D30000040A810000000FCFCFCFCFCFCFCFC408B
:101D40002010F810204000102040F8402010002003
:101D500070A8202020000000202020A87020000073
:101D600070F8F8F87000007C82868A92A2C2827CA9
:101D70000008182808080808083E003844820408AB
:101D8000102040FE00384482023C02824438008425
:101D90008484847E04040404007E8080807C0202AB
:101DA00002FE0078848080FC8282827C007E820435
:101DB00008080808080800384482827C8282443877
:101DC0000038448282463A0204380038448282FE57
:101DD0008282828200FC828282FC828282FC003EBD
:101DE000408080808080403E00F8848282828282AF
:101DF00084F800FE808080FE808080FE00FE80806F
:101E000080FE8080808000E0A0A0A0E000C0404074
:101E100040E000E020E080E000E020E020E000A0E2
:101E2000A0E0202000E080E020E0008080E0A0E052
:101E300000E02020202000E0A0E0A0E000E0A0E002
:101E4000202000E0A0E0A0A000C0A0C0A0C000E052
:101E5000808080E000C0A0A0A0C000E080E080E022
:101E600000E080E08080000B022A024B026E0293A9
:101E700002BA02E40210033F037003A403DC031759
:101E80000455049704DD04100E576F726D00524222
:101E90003932000000003E05002B7C0000061E01C8
:101EA00000040000FF00E0A006FE65A0CCF055FC99
:101EB0001E710131001013A0B5DAB3D421D43174EE
:101EC00003347A101AA0BE6304D329D429720932CC
:101ED0003F1021A003F065A001F033632E2073A012
:101EE00001F533207220A6A0BDD76176FE36111011
:101EF00030630AF315A0CCF81EF065840080A0F0D2
:101F000055A14CF81EF065810080B0F055A0B634A4
:101F100000D413A0B1F91EF165A0B8DAB28A048B1F
:101F200014A0B5DAB33F00107FC00F400020A478A2
:101F30000198E068006108E19E6600E19E1061364C
:101F40000010617902660689626110E19E6700E116
:101F50009E106B3700106B79FE67068972F30733AA
:101F600000105710352072A001F5336300647CA087
:101F700001F265F029D4357306F129D4357306F2E0
:101F800029D43500EE20AEA0B5DAB3DAB33F0010A5
:101F90008A6402F4187501206F1054640AF418DA88
:101FA000B38A058B15A0B8DAB2A003F0658055801E
:101FB000504F00F0556064F015F0073000109900A4
:101FC000C88100A0C39012F00A302010A0100E7E2D
:101FD0000100EEA0B9CC7C7C02CD3C7D02DCD74F69
:101FE0000000EEA0B9DCD710A7040000FCFC000044
:101FF00004E0E0E0A0E0000040387CDEFEFE7C383B
:1020000000F0008080808080808080800073656C1C
:1020100065637420726573746172742E2E2E0000D5
:1020200000000000000000000000000000000000B0
:1020300000000000000000000000000000000000A0
:102040000000000000000000000000000000000090
:102050000000000000000000000000000000000080
:102060000000000000000000000000000000000070
:102070000000000000000000000000000000000060
:102080000000000000000000000000000000000050
:102090000000000000000000000000000000000040
:1020A0000000000000000000000000000000000030
:1020B0000000000000000000000000000000000020
:1020C0000000000000000000000000000000000010
:1020D0000000000000000000000000000000000000
:1020E00000000000000000000000000000000000F0
:1020F00000000000000000000000000000000000E0
:1021000000000000000000000000000000000000CF
:1021100000000000000000000000000000000000BF
:1021200011241FBECFEFD8E0DEBFCDBF11E0A0E08D
:10213000B1E0EAE2F9E502C005900D92A431B107E1
:10214000D9F727E0A4E1B1E001C01D92A83FB20792
:10215000E1F70E9428130C94932C0C940000FC01CE
:10216000818190E0982F88272081822B0895FC019F
:1021700023816281862F90E0A0E0B0E07727662778
:10218000922B2081622B2181722B0895EF92FF9276
:102190000F931F93CF93DF938C017B01C0E0D0E0BE
:1021A000CE15DF0549F0F801EC0FFD1F6491CE015B
:1021B0000E94A4242196F4CFDF91CF911F910F911B
:1021C000FF90EF900895DF92EF92FF920F931F938D
:1021D000CF93DF93CDB7DEB7A0970FB6F894DEBFED
:1021E0000FBECDBF29E0289F7001299FF00C11245C
:1021F00085E0EE0CFF1C8A95E1F700E010E0D12CA1
:10220000AE014F5F5F4F60E270E0C8018E0D9F1D11
:102210000E94E9248981882391F080E20E94502560
:10222000CE0101960E94AE2586E08D1510F00E9429
:102230002525D394005E1F4F89E0D812E1CF8D2D64
:10224000A0960FB6F894DEBF0FBECDBFDF91CF9141
:102250001F910F91FF90EF90DF9008959F92AF92A2
:10226000BF92CF92DF92EF92FF920F931F93CF9383
:10227000DF936C010E94E02882E0809377038091D5
:1022800077038111FCCF80E090E00E94E310982E4C
:10229000C0E0D0E0E12CF12C99E0A92E00E02FE382
:1022A0003DE148E01C2F110F110F110F612F80E04D
:1022B0000E9447270E94A720B82E2FE33DE148E067
:1022C000612F80E00E94472788E0B81631F18B1516
:1022D00040F082E0B816D9F184E0B81609F44AC09B
:1022E00066C080E1B816F1F080E2B81260C00E94CA
:1022F000AF2029E02E9DC0012F9D900D11248C0F41
:102300009D1FDF91CF911F910F91FF90EF90DF9074
:10231000CF90BF90AF909F900895E114F10409F41D
:1023200044C01CC0E7012196AC9E9001AD9E300DCB
:1023300011242C153D0544F40E94E028CE010E9492
:10234000E310982E7E0131C0C92DD0E002C0209745
:1023500011F021972CC0E114F10449F181E0E81A51
:10236000F1080E94E028C7010E94E310982EC7E000
:10237000D0E01DC0292D30E021503109C217D3070C
:1023800014F4219614C087010F5F1F4FA09E900187
:10239000A19E300D11242C153D054CF40E94E0281F
:1023A000C8010E94E310982E7801C0E0D0E086B109
:1023B0008E738E3309F472CF41E062E08B2D0E9460
:1023C0009426F5CF0F931F93CF93DF93CDB7DEB74E
:1023D000C155D1090FB6F894DEBF0FBECDBF6296CE
:1023E0001FAE629700E010E0CE0101960E949A2095
:1023F000882369F189A184FD26C069E071E0CE01DE
:1024000001960E94682C892B41F464E071E0CE01B2
:1024100001960E94682C892BB1F0BE016F5F7F4F3F
:10242000CE01C2960E94532CAE014E5C5F4F60E21B
:1024300070E0C80135E0880F991F3A95E1F70E94D6
:1024400006250F5F1F4F011588E018076CF21AAAC6
:10245000AE014E5C5F4F60E270E0C80125E0880F7E
:10246000991F2A95E1F70E940625C801CF5ADF4F30
:102470000FB6F894DEBF0FBECDBFDF91CF911F9195
:102480000F9108950E94E211009791F00E942E1181
:1024900097FD0EC00E944F20882351F00E94E02833
:1024A0000E94CB13823021F48AE590E10C947A13D8
:1024B00008958F929F92AF92BF92CF92DF92EF9248
:1024C000FF920F931F93CF93DF93CDB7DEB7A09703
:1024D0000FB6F894DEBF0FBECDBFCE0101967C01D2
:1024E00080E2F70111928A95E9F7A12CB12CC12C59
:1024F000D12C00E010E0F0E28F2EC8010196F80127
:10250000E556FF4E9490992009F1D7018C01FAE02D
:102510009F1649F09D920F5F1F4FF801E656FF4E40
:1025200094909110F4CFA70160E270E0C5010E9481
:1025300006258FEFC81AD80AF701882D11928A95BF
:10254000E9F790E2A90EB11C9110D7CFA70160E284
:1025500070E0C601E5E0880F991FEA95E1F70E9457
:1025600006250E94E028C6010E942E1187309105A1
:1025700098F5FC01EC5CFF4F0C94D32A6CE172E0FF
:102580008BEB91E11DC06CEA71E080E99EE018C020
:1025900068E972E087E89EE113C06EE373E082EDC4
:1025A00090E00EC060E87AE080E194E009C06EE758
:1025B00070E082E391E104C068E670E087ED93E1AA
:1025C0000E94C6100E94E0280E94CB13823021F4A2
:1025D00087E490E10E947A13A0960FB6F894DEBFCC
:1025E0000FBECDBFDF91CF911F910F91FF90EF9064
:1025F000DF90CF90BF90AF909F908F900895CF9332
:10260000DF93C0E0D0E0FE01E15CFB4E6491CE01BF
:102610000E94F5262196C03884E0D807A1F78CE304
:102620008093770380917703882361F086B18E735E
:102630008E33C1F362E088EE93E00E94822610920E
:102640007703F0CF0E94AF20DF91CF910C94E02868
:1026500080E880936100109261000E94D02682E0A1
:102660000E94222584B1886284B980E58CBD8DB535
:1026700081608DBD87B1817C87B988B18E6388B94F
:102680000E947A260E949D247894809184009091E3
:1026900085000E941B2C0E94FF120E94C4218823E7
:1026A00051F00E94991F882331F082E191E00E944D
:1026B000F61FC82F07C08DB581608DBD8CB58C7F8E
:1026C0008CBDC0E064E08DE690E10E941E260E9471
:1026D000E02882E00E942225CC2319F00E944212B9
:1026E000F6CF8CE390E10E94BA250E94BA200E94A6
:1026F0005912EDCFCF93DF93EC010E94E02882E0E6
:102700000E942225CE010E94BA2587ED90E10E9409
:10271000BA25809134019091350164E002970E94BE
:10272000C9258091590162E090E00E94C9258091FD
:102730005A0162E090E00E94C9250E94252584ED9F
:1027400090E10E94BA2564E08091360190913701B2
:102750000E94C9258FEC90E10E94BA258091380132
:1027600062E090E00E94C9250E94252588EC90E156
:102770000E94BA25C9E3D1E0899162E090E00E940D
:10278000C92581E0C934D807B9F70E942525DF9112
:10279000CF910C94BA206F927F929F92AF92BF928A
:1027A000CF92DF92EF92FF920F931F93CF93DF931D
:1027B0001F92CDB7DEB710923501109234011092FE
:1027C000380110923701109236011AE066246394A2
:1027D000712CE8E4FE2EF0E8EF2E0E94C220811159
:1027E0005FC380913401909135010E94CD24809384
:1027F000590190935A01A0903401B0903501D50150
:102800001296B0933501A0933401D82E082F0F7083
:10281000892F92959F704D2D42954F7050E0455CE9
:102820005F4FFA010C94D32A982F907F903C21F4AB
:102830008F700E94EE28D1CF903D21F48F700E94BE
:102840001629CBCF8C3F01F150F48E3E61F08B3FC7
:10285000C1F0803E09F026C30E94E028BECF8D3F24
:1028600009F0BBCF1DC3E09138018FEF8E0F80932D
:102870003801F0E0EE0FFF1FEC5CFE4F87A190A542
:1028800043C20E944B29A9CF0E947229A6CF409132
:1028900038014F5F40933801E42FF0E0EE0FFF1F47
:1028A000EC5CFE4FB0A7A7A3282F30E03D29220FF4
:1028B000331F3F7030933501209334018ECFA02F0A
:1028C000B0E0AC5CBE4F15969C9113C0A02FB0E059
:1028D000AC5CBE4F15969C91B9C0202F30E02C5CAB
:1028E0003E4FA92FB0E0AC5CBE4FF9019581159623
:1028F0008C91981372CF83C1E02FF0E0EC5CFE4F17
:102900009581980F3CC1482F4F7050E04F305105D2
:1029100008F0C8C2FA01E55BFF4F0C94D32AE92FF7
:10292000F0E0EC5CFE4F8581E02FF0E0EC5CFE4FC8
:10293000858353CFE02FF0E0EC5CFE4FA92FB0E091
:10294000AC5CBE4F15968C919581892BF1CFE02F11
:10295000F0E0EC5CFE4FA92FB0E0AC5CBE4F1596EA
:102960008C911CC1E02FF0E0EC5CFE4FA92FB0E091
:10297000AC5CBE4F15968C9195818927D9CFE02FFD
:10298000F0E0EC5CFE4F2581A92FB0E0AC5CBE4FBF
:1029900015968C91982F920F958390E0820F911D40
:1029A00021E08F3F910509F00CF420E020934801CD
:1029B00014CFE02FF0E0EC5CFE4F2581A92FB0E0B2
:1029C000AC5CBE4F15969C9114C0E02FF0E0EC5C1F
:1029D000FE4F8581982F9695958381707EC1E92F52
:1029E000F0E0EC5CFE4F2581E02FF0E0EC5CFE4F68
:1029F0009581822F891B858381E0291708F06DC19D
:102A000080E06BC1E02FF0E0EC5CFE4F8581982FF9
:102A1000990F9583881F8827881F5FC1482F4F70A3
:102A200050E04F30510508F03DC2465A5F4FFA0161
:102A30000C94D32A202F30E02C5C3E4FA92FB0E01D
:102A4000AC5CBE4FF901958115968C919813D7C057
:102A5000C4CEA92FB0E0AC5CBE4FE02FF0E0EC5C40
:102A6000FE4F40E045C082E099830E942225998173
:102A7000A92FB0E0AC5CBE4FE02FF0E0EC5CFE4F65
:102A800015966C9185810E94A925809136019091BF
:102A900037019C012F5F3F4F309337012093360160
:102AA0000E94B824882309F498CE0E945025EDCFC7
:102AB000A92FB0E0AC5CBE4FE02FF0E0EC5CFE4F25
:102AC00042E015966C9185810E94FA2686CE892F68
:102AD000F0E10F9F800D11240E94B0267ECEA92F19
:102AE000B0E0AC5CBE4FE02FF0E0EC5CFE4F41E0AC
:102AF00015966C9185810E9494266FCEE0913801E5
:102B0000EF5FE0933801F0E0EE0FFF1FEC5CFE4F4B
:102B1000A02FB0E0AC5CBE4F15968C9190E090A7D2
:102B200087A35BCEE09138018FEF8E0F8093380141
:102B3000A02FB0E0AC5CBE4FF0E0EE0FFF1FEC5CEE
:102B4000FE4F87A115968C9348CEE02FF0E0EC5C09
:102B5000FE4FE58242CEE02FF0E0EC5CFE4FF582C6
:102B60003CCEE02FF0E0EC5CFE4F9770930102C08A
:102B7000220F331F9A95E2F7C9019581982B95830F
:102B80002CCEE02FF0E0EC5CFE4F9770930102C07A
:102B9000220F331F9A95E2F7C90180959581892309
:102BA000C7CEE02FF0E0EC5CFE4F9770930102C0BF
:102BB000220F331F9A95E2F7C90195819827DFCF3D
:102BC000A02FB0E0AC5CBE4F15962C9130E0977012
:102BD00002C0359527959A95E2F720FFFECD0FC0EC
:102BE000A02FB0E0AC5CBE4F15962C9130E09770F2
:102BF00002C0359527959A95E2F720FDEECDF501B7
:102C00003496F0933501E0933401E7CD282F30E07E
:102C10003D29220F331F3F70309337012093360137
:102C200080919B01816016C190913901282F30E07D
:102C30003D29220F331F3F70290F311D290F311DF0
:102C400039CE0E94162CE02FF0E0EC5CFE4F909104
:102C50005A01982394CF8F70982EC02ED12CA92E74
:102C6000B12C8091360190913701911014C044E14C
:102C700051E060E270E00E94E924D501AC5CBE4FF7
:102C8000F601EC5CFE4F44E151E015966C918581B4
:102C90000E94E42722C020919B0120FD09C0D5019C
:102CA000AC5CBE4FF601EC5CFE4F00E09C010FC037
:102CB000692D70E044E151E00E94E924D501AC5C4B
:102CC000BE4FF601EC5CFE4F01E024E131E0492DFE
:102CD00015966C9185810E944727809348017DCD90
:102CE0008E3919F0813AA9F0DDC0E02FF0E0EC5CFC
:102CF000FE4F85810E94A120882309F46ECD80912A
:102D000034019091350102969093350180933401FE
:102D100064CDE02FF0E0EC5CFE4F85810E94A120A5
:102D200081115BCDECCF893209F46EC018F5853185
:102D300009F458C048F4873009F451C08A3009F0CA
:102D4000B1C00E94A720F0CD883109F453C08E3164
:102D500009F0A8C0E02FF0E0EC5CFE4F25818091E7
:102D6000360190913701820F911D90933701809326
:102D7000360133CD853509F470C0D8F4803309F4B9
:102D800054C0833309F08EC0E02FF0E0EC5CFE4FBE
:102D90008581612F0E94722A909316010E94722AE7
:102DA000909315018093140144E151E063E070E0D9
:102DB0005AC0853709F45EC0853809F466C0853687
:102DC00009F070C0602F70E06F5F7F4F49E351E002
:102DD00080913601909137010E94E924FECC8091C8
:102DE0007703A2CDE02FF0E0EC5CFE4F858180936D
:102DF0007703F3CCE02FF0E0EC5CFE4F65818BE0D5
:102E000092E00E948226E9CCE02FF0E0EC5CFE4FDD
:102E1000858136E0839FC0011124895F914E909394
:102E200037018093360180E010C0E02FF0E0EC5CC9
:102E3000FE4F8581EAE08E9FC00111248959924E90
:102E4000909337018093360181E00E942225809182
:102E50009B018E7F80939B01C0CC602F70E06F5FE1
:102E60007F4F49E351E080913601909137010E94F4
:102E70000625B3CC80E0E82FF0E0EC5CFE4F9581B6
:102E8000958B8F5F0817B8F7A8CC80E0E82FF0E0AB
:102E9000EC5CFE4F958995838F5F0817B8F79DCC42
:102EA00081E001C082E00F90DF91CF911F910F91DF
:102EB000FF90EF90DF90CF90BF90AF909F907F906A
:102EC0006F9008956F927F928F929F92AF92BF9270
:102ED000CF92DF92EF92FF920F931F93CF93DF93E6
:102EE00000D000D0CDB7DEB74C01CB01BA018114C0
:102EF000910409F476C0623071058105910508F4EA
:102F000070C0D401ED91FC912085608071802B30E0
:102F100089F524E030E040E050E00E943D2BF401D0
:102F2000A284B384C484D584E684F784008911899B
:102F30000E94862BF4E0EF2EF12C8E010F5F1F4FC5
:102F4000F3010995882309F44CC049815A816B81AA
:102F50007C81411551056105710509F442C0DB0111
:102F6000CA01805F9F4FAF4FBF404097A105B10599
:102F7000A0F537C022E030E040E050E00E943D2B59
:102F8000D4011A96AC901A971B96BC901B971C966E
:102F9000CC901C971D96DC901D971E96EC901E976A
:102FA0001F96FC901F9750960C91509751961C912C
:102FB0000E94862BE2E0EE2EF12C8E010F5F1F4F58
:102FC000F3010995882369F089819A81AC0160E059
:102FD00070E001978F3E9F4F20F4342F252FCB01B7
:102FE00004C030E020E080E090E0632F722F0F906B
:102FF0000F900F900F90DF91CF911F910F91FF9045
:10300000EF90DF90CF90BF90AF909F908F907F9088
:103010006F9008958F929F92AF92BF92CF92DF925E
:10302000EF92FF920F931F93CF93DF936C01D70121
:10303000CD91DC91119712968D919C91139780966A
:1030400013969C938E931297F6018081853E09F426
:103050008BC0882309F488C083858F3009F484C02D
:1030600081E3DE011D928A95E9F709A71AA72BA72C
:103070003CA74DA75EA76FA778ABD601AE0180E055
:103080009C91903299F0FA019083F601248523FFF8
:1030900007C02C9121542A3118F4905EFA019083D4
:1030A0008F5F11964F5F5F4F883051F79881953051
:1030B00011F495EE9883D60118969C91903211F1F7
:1030C000FE01E80FF11D9EE29083F601389634E090
:1030D000380F8F5F90819032A9F0AE01480F511DDB
:1030E000DA019C93D6011C962C9124FF07C0208105
:1030F00021542A3118F4905EDA019C938F5F319647
:103100008313E8CFFE01E80FF11D1082F6018385DD
:1031100088A3C6014A960E94AF104C01A12CB12C85
:1031200089A29AA2ABA2BCA2C60144960E94AF108B
:10313000AC0160E070E0BA015527442748295929BD
:103140006A297B2949A35AA36BA37CA3C6014C9689
:103150000E94B7106DA37EA38FA398A781E0D7012B
:1031600014968C9380E001C081E0DF91CF911F9194
:103170000F91FF90EF90DF90CF90BF90AF909F9016
:103180008F9008952F923F924F925F926F927F920D
:103190008F929F92AF92BF92CF92DF92EF92FF9267
:1031A0000F931F93CF93DF93CDB7DEB7C954D109E7
:1031B0000FB6F894DEBF0FBECDBF9FA38EA3892BA1
:1031C00009F40FC28091C5029091C602892B09F0C3
:1031D00008C2E5ECF2E082E3DF011D928A95E9F78F
:1031E000EEA1FFA1F093C602E093C502618572854E
:1031F0008385948520E032E040E050E00E943D2B42
:10320000322E232E6A0168AB79AB8AAB9BABABE065
:103210000E948F2BAEA1BFA1ED91FC91B5E2EB2EE8
:10322000F12C8E010F5F1F4F0995811105C010927F
:10323000C6021092C502D5C1CE0101960E94AF1000
:103240009FA78EA7CE0104960E94AF108C01AB8081
:10325000AEAEBE80BFAECE0107960E94AF102296E2
:103260009FAF8EAF2297CE0109960E94AF103C010E
:10327000CE010C960E94AF1099AF88AFCE01469652
:103280000E94B7104B015C01CE014A960E94B71014
:103290006CAB7DAB8EAB9FABCE0182960E94B7101C
:1032A0002A966CAF7DAF8EAF9FAF2A9781149104A1
:1032B000A104B10439F46114710409F4B8CF4301D5
:1032C000A12CB12CE8ACF9ACE114F10441F0C70138
:1032D000A0E0B0E08CAB9DABAEABBFAB09C08CA99E
:1032E0009DA9AEA9BFA9892B8A2B8B2B09F49FCF4F
:1032F00024013501401A510A610871089FAD892FD8
:1033000090E0A0E0B0E026968CAF9DAFAEAFBFAF2F
:1033100026972CA93DA94EA95FA9BC01CD010E9409
:10332000622A461A570A680A790A8EA59FA501974C
:1033300022962EAD3FAD229745E0220F331F4A95CE
:10334000E1F7820F931F6EA57FA50E947E2A461A81
:10335000570A61087108AEAD2A2F30E040E050E016
:10336000C301B2010E94922A2AAF3BAF4CAF5DAFBE
:10337000253FBFE03B074105510508F458CF253FE5
:103380003F4F4105510530F486E0AEA1BFA118962C
:103390008C9304C08BE0EEA1FFA180878CE2E7EC68
:1033A000F2E0DF011D928A95E9F7EEA5FFA52F0156
:1033B000612C712CC501B401A30192010E943D2B27
:1033C0002093C7023093C8024093C9025093CA02A7
:1033D0006093CB027093CC028093CD029093CE0287
:1033E000B80180E090E0A30192010E943D2BA32C44
:1033F000B22CE8A8F9A80AA91BA90E94862B28AB21
:1034000039AB4AAB5BAB1B014C012093CF0230932D
:10341000D0024093D1025093D2026093D3023092F3
:10342000D4028093D5029092D6026AAD7BAD8CAD6A
:103430009DAD6E5F7F4F8F4F9F4FAEA1BFA118967E
:103440002C91263029F422E030E040E050E004C026
:1034500024E030E040E050E00E94622A6093D7020E
:103460007093D8028093D9029093DA02EEA5FFA55B
:10347000F093DC02E093DB02AEACAE9EC001AF9EE7
:10348000900D11249093DE028093DD02AEA1BFA1C6
:1034900018968C91863009F057C0E8ADF9AD9F01C0
:1034A00040E050E0C301B2010E943D2BAFACB12C13
:1034B000C12CD12CE12CF12C00E010E00E94E42A78
:1034C000A8A8B9A8CAA8DBA8710184010E94862B0C
:1034D00019012A013B014C012093E7023092E802D6
:1034E0004093E9025092EA026093EB027092EC0280
:1034F0008093ED029092EE022296AEACBFAC229782
:10350000B50180E090E020E230E040E050E00E9431
:103510003D2B59016A017B018C019101A201B3018C
:10352000C4010E94862B2093DF023093E002409377
:10353000E1025093E2026093E3027093E40280930D
:10354000E5029093E6024AC0CEA4DFA4B60180E073
:1035500090E026962CAD3DAD4EAD5FAD26970E9416
:103560003D2BCCA8DDA8EEA8FFA856016701E12CF1
:10357000F12C8701AEA2BFA2C8A6D9A6EAA6FBA6D7
:103580000CA71DA7E12CF12C00E010E00E94E42A1A
:10359000A8A8B9A8CAA8DBA8710184010E94862B3B
:1035A0002093DF023093E0024093E1025093E20265
:1035B0006093E3027093E4028093E5029093E60245
:1035C0002A96ECACFDAC0EAD1FAD2A97E092EF024F
:1035D000F092F0020093F1021093F20285EC92E077
:1035E00002C080E090E0C75BDF4F0FB6F894DEBF0B
:1035F0000FBECDBFDF91CF911F910F91FF90EF9044
:10360000DF90CF90BF90AF909F908F907F906F9002
:103610005F904F903F902F900895009719F0FC0114
:10362000118210820895CF93DF93009799F061156E
:10363000710581F0FB0120A124FD0CC020914702FF
:1036400030914802232B49F0209186023091870265
:10365000232B31F080E090E021C0C7E4D2E002C02B
:10366000C6E8D2E0DE01129621E3FB0101900D9243
:103670002A95E1F7998388831BAA1CAA1DAA1EAA72
:103680001FAA18AE19AE1AAEFB0181A192A1A3A187
:10369000B4A18BAF9CAFADAFBEAFCE01DF91CF91E8
:1036A0000895009719F0FC011182108208952F925D
:1036B0003F924F925F926F927F928F929F92AF92C2
:1036C000BF92CF92DF92EF92FF920F931F93CF930F
:1036D000DF93CDB7DEB76A970FB6F894DEBF0FBEA3
:1036E000CDBF1C017A8F698F5A8B498B009719F4D3
:1036F0008FEF9FEFC4C1A98CBA8CAB28C9F3C988DE
:10370000DA88C114D104A1F3DC01D396BC91B9834A
:10371000FC01F4A9FA83DC01D596BC91BB83FC01C2
:10372000F6A9FC83DC01D796BC91BD83FC01F0AD0A
:10373000FE83DC01D996BC91BF83FC01F2ADF88712
:10374000DC0197964D905D906D907C909A979601D4
:1037500040E050E060E070E080E090E0A980BA8056
:10376000CB80DC80ED80FE800F8118850E94862B47
:1037700063015201E12CF12C87014986BA86CB8680
:10378000DC86ED86FE860F87188BE12CF12C00E09D
:1037900010E00E94A42B59F050F06201E980FA80F9
:1037A000CE18DF08DA8AC98ACD2809F466C1D101AA
:1037B000ED91FC911197A08CB18CB88EAF8ADB96FD
:1037C0004D905D906D907C90DE97411451046104A2
:1037D000710409F04DC093964D905D906D907C9072
:1037E00096974114510461047104A9F4E1E0F0E0FA
:1037F00029813A814B815C816D817E818F819885A1
:10380000A0E00E94AD2B11F4E0E0F0E088279927BA
:103810008E1B9F0B34C129813A814B815C816D8164
:103820007E818F819885A0E00E94AD2B09F1C9802F
:10383000DA80EB80FC800F89188D4801A12CB12C17
:10384000C814D904EA04FB0498F0C818D908EA0897
:10385000FB08B301A201D1018D919C910E946217D6
:103860002B013C01611571058105910549F740CF98
:10387000EF89F88D3197A980BA80EA21FB21FE8B70
:10388000ED8BC988DA88DA86C986D1018D909C9043
:103890008114910479F1B2E04B1651046104710472
:1038A00048F1F401808D918D9C0140E050E0C3010E
:1038B000B20162507109810991090E943D2BD40126
:1038C0005A96AC905A975B96BC905B975C96CC905E
:1038D0005C975D96DC905D975E96EC905E975F9648
:1038E000FC905F9790960C91909791961C910E94F6
:1038F000862B08C020E030E040E050E060E070E05F
:1039000080E090E0EF89F88DAD88BE88EA19FB0968
:10391000FC8BEB8BC984DA84CE16DF0610F4DC8ACC
:10392000CB8AD401ED91FC910D891E894801A12C0F
:10393000B12CC12CD12C760109839A82AB82BC8236
:10394000CD82DE82EF82F8865801C12CD12CE12C89
:10395000F12C00E010E00E94862B0190F081E02D18
:10396000EB88FC88098D1A8D0995811107C089891A
:103970009A8929853A85821B930B81C0898D9A8DFE
:10398000AB89BC898A0F9B1F9A8F898FE985FA853D
:10399000EA1BFB0BFA87E9879D0140E050E060E0FD
:1039A00070E080E090E0D101D396AC90D397D496AC
:1039B000BC90D497D596CC90D597D696DC90D697D8
:1039C000D796EC90D797D896FC90D897D9960C912B
:1039D000D997DA961C91DA970E94862BD3962C936E
:1039E000D397D4963C93D497D5964C93D597D696A7
:1039F0005C93D697D7966C93D797D8967C93D897A5
:103A0000D9968C93D997DA969C93DA978B899C896F
:103A1000ED89FE898E0F9F1FAF88B88C8A159B0594
:103A2000E8F0B301A2018D919C910E9462172B01D5
:103A30003C01611571058105910571F4D101DB9699
:103A40001D921D921D921C92DE9789899A89E985A3
:103A5000FA858E1B9F0B13C01E8A1D8AD101DB962F
:103A60004D925D926D927C92DE97E985FA85EF2BFF
:103A700009F00BCF89899A8902C080E090E06A96AC
:103A80000FB6F894DEBF0FBECDBFDF91CF911F916F
:103A90000F91FF90EF90DF90CF90BF90AF909F90ED
:103AA0008F907F906F905F904F903F902F900895F0
:103AB000CF93DF93009791F06115710579F0FB01C9
:103AC00020A124FF0BC0CCE9D1E028813981232B30
:103AD00041F0E996F2E0C734DF07B9F780E090E003
:103AE00016C0DE01129621E3FB0101900D922A958A
:103AF000E1F799838883FB0181A192A1A3A1B4A1DD
:103B00008BAB9CABADABBEAB18AE1FAACE01DF91A9
:103B1000CF910895009719F0FC0111821082089549
:103B2000FC01009761F043A154A165A176A143ABCC
:103B300054AB65AB76AB10AE17AA81E0089580E078
:103B400008952F923F924F925F926F927F928F9241
:103B50009F92AF92BF92CF92DF92EF92FF920F931C
:103B60001F93CF93DF93CDB7DEB7E9970FB6F894E5
:103B7000DEBF0FBECDBF99AB88AB892B09F16115B4
:103B80007105F1F0A8A9B9A92D903C901197F10108
:103B9000008CF18DE02DFBABEAABD3964D905D90A0
:103BA0006D907C90D697D7962D913C91D8973FA752
:103BB0002EA72E173F0730F088A999A90E94901DC3
:103BC00080E005C1FE01B19685E0DF011D928A9576
:103BD000E9F781E3FB0111928A95E9F77AA369A3DA
:103BE000411451046104710409F093C0D101ED91B5
:103BF000FC91119780858B3039F49A964D905D90A9
:103C00006D907C909D9785C0F101028CF38DE02D25
:103C1000D10192968D919C919397E81BF90BFBAB88
:103C2000EAAB77C08DA18111C3C0EAA9FBA92EA57B
:103C30003FA5E21BF30BFDABECABA90160E070E02C
:103C400080E090E0DC012EA35FA368A779A78AA794
:103C50009BA7ACA7BDA7411451046104710409F0EE
:103C600063C040E050E060E070E080E090E0D101AF
:103C70009296AC9092979396BC9093979496CC9092
:103C800094979596DC9095979696EC909697979644
:103C9000FC90979798960C91989799961C910E94F2
:103CA000862B1CA21BA2D101ED91FC910280F38115
:103CB000E02DDE0191964D01AAE0AA2EA8E1BA2ED0
:103CC000CCA8DDA8B0E2EB2EF12C8E010F5F1F4FC8
:103CD0000995882309F474CF8BA19CA1EEA5FFA5BB
:103CE000E80FF91FFFA7EEA72AA93BA9E217F307E0
:103CF00008F498CFB301A201C1010E9462172B0101
:103D00003C01611571058105910509F44DC01FA69F
:103D10001EA6B301A20142505109610971094EABBF
:103D20005FAB68AF79AF7ECF2114310461F1B2E0AF
:103D30004B1651046104710430F1F101208D318D75
:103D400040E050E06EA97FA988AD99AD0E943D2B5F
:103D5000D1015A96AC905A975B96BC905B975C9653
:103D6000CC905C975D96DC905D975E96EC905E974C
:103D70005F96FC905F9790960C91909791961C910E
:103D80000E94862B08C020E030E040E050E060E078
:103D900070E080E090E0AEA0BFA0C8A4D9A4EAA4DF
:103DA000FBA40CA51DA57BCF8DA1882309F404CF0E
:103DB000A8A9B9A9D3964D925D926D927C92D6979F
:103DC000EEA5FFA5D896FC93EE93D7978DA1E99623
:103DD0000FB6F894DEBF0FBECDBFDF91CF911F911C
:103DE0000F91FF90EF90DF90CF90BF90AF909F909A
:103DF0008F907F906F905F904F903F902F9008959D
:103E00008F929F92AF92BF92CF92DF92EF92FF92EA
:103E10000F931F93CF93DF935C01EB018A0100970F
:103E200009F46AC0209709F467C08881882309F4DF
:103E300063C04115510509F45FC08F3209F4219622
:103E400081E3F80111928A95E9F780E1F80180A3F6
:103E50008881811102C081E050C0B801C5010E9473
:103E6000581D7C01009709F447C06FE270E0CE0155
:103E70000E943F2C009741F0C82ECC1A4C012FEF26
:103E8000821A920AD12C16C0FE0101900020E9F797
:103E90003197EC1BFD0BCE2E4E018E0E911CF2CFF6
:103EA000F80101900020E9F73197E01BF10BEC15C8
:103EB000FD0539F0B801C7010E94A11D8111F0CFA5
:103EC00017C0A601B801CE010E945A2C892B91F788
:103ED000C7010E948A1DCC0DDD1D8881882309F44D
:103EE000BACFF80180A184FF07C0E401E12CF12CD6
:103EF000C7010E948A1DACCF80E0DF91CF911F9156
:103F00000F91FF90EF90DF90CF90BF90AF909F9078
:103F10008F900895CF93DF93EC010E94E02882E018
:103F20000E942225CE010E94BA25DF91CF910C94E8
:103F3000BA200F9318993DC000E020E030E040E047
:103F400050E061E473E282E892E20E94CE20909316
:103F50005A0380935903892BB1F40FEF20E030E02E
:103F600040E050E061E473E282E892E20E94CE20F9
:103F700090935A0380935903892B29F48BE191E1A3
:103F80000E948A1F16C08091590390915A030E9483
:103F9000C2189093600380935F03892B61F485E0DE
:103FA00091E10E948A1F8091590390915A030E94C7
:103FB000692180E001C081E00F91089580915B0349
:103FC00090915C030E94511B80915D0390915E0370
:103FD0000E948A1D80915F03909160030E940D1BD7
:103FE0008091590390915A030C94692148E253E05F
:103FF000BC0180915F03909160030E94001F68E202
:1040000073E080915F03909160030E94581D90932C
:104010005E0380935D03892B41F480EF90E10E9461
:104020008A1F0E94DE1F80E0089581E00895CF93EB
:10403000DF93EC0167EF72E080915D0390915E0386
:104040000E94A11D882311F1BE0187EF92E00E941A
:104050004A2C892B79F780915D0390915E030E9431
:10406000901D67EF72E080915F03909160030E9462
:10407000131B90935C0380935B03892B11F081E009
:1040800005C08BED90E10E948A1F80E0DF91CF9107
:10409000089580915B0390915C030C94511BEF9207
:1040A000FF920F931F93CF93DF93CDB7DEB7A09707
:1040B0000FB6F894DEBF0FBECDBFAE014F5F5F4FAE
:1040C00060E270E025E0880F991F2A95E1F70E94D1
:1040D000E924CE0101960E94172000E010E0882319
:1040E000D9F040E250E0BE016F5F7F4F80915B03EB
:1040F00090915C030E94571B7C011816190654F41A
:10410000AE014F5F5F4FB701C8010E9406250E0D3B
:104110001F1DE7CF0E944920802FA0960FB6F8946C
:10412000DEBF0FBECDBFDF91CF911F910F91FF90EA
:10413000EF900895BC0180915D0390915E030C9413
:10414000A11D96B1982381E009F080E0089586B121
:104150008E738E33E1F386B180958E73089586B1A8
:104160008E738E3331F062E084EF91E00E948226FC
:10417000F6CF089580EB91E10E94BA253599FECFE4
:104180000C94AF2086B1867019F086B1887121F445
:104190000E94AF2081E0089580E008955F926F92C1
:1041A0007F928F929F92AF92BF92CF92DF92EF92C7
:1041B000FF920F931F93CF93DF93CDB7DEB7609736
:1041C0000FB6F894DEBF0FBECDBF6C015B013A01A4
:1041D0004901502E009719F480E090E064C0611509
:1041E0007105D1F383E08017BCF307FF05C0809110
:1041F00069038111F1CF1DC0A0E10A02F001112471
:10420000E254FE4F9F2F990F990B80E1E82EF12C7D
:104210008E010F5F1F4F9F01492F592F692F792F53
:10422000892FF60109958823B9F28D818111DFCF9D
:10423000D3CF81E1E1E6F3E0DF011D928A95E9F752
:10424000D0926203C0926103B0926403A0926303B0
:104250007092660360926503909268038092670390
:1042600057FC1CC08D8180936903CE0109960E9482
:10427000B71060936A0370936B0380936C03909301
:104280006D03CE010D960E94B71060936E0370937C
:104290006F03809370039093710303C08FEF80933B
:1042A000690381E693E060960FB6F894DEBF0FBE17
:1042B000CDBFDF91CF911F910F91FF90EF90DF90D5
:1042C000CF90BF90AF909F908F907F906F905F90B6
:1042D0000895009721F0FC01108681E0089580E0A8
:1042E00008958EBD0DB407FEFDCF8DB58F778DBDC2
:1042F00008958FEF8EBD0DB407FEFDCF8DB58F777E
:104300008DBD8EB508951F93CF93DF9300D000D05D
:10431000CDB7DEB7182F4C835B836A8379830E9405
:104320007921812F80640E9471217981872F0E94D9
:1043300071216A81862F0E9471215B81852F0E94E5
:1043400071214C81842F0E947121112321F018309A
:1043500039F487E801C085E90E9471211AE004C0A0
:104360008FEFFACF115021F00E9479218F3FD1F3C6
:104370000F900F900F900F90DF91CF911F910895A4
:1043800083B1809581700895CF92DF92EF92FF9272
:104390001F93CF93DF932098289A239A259A219AE6
:1043A0002498299A83E58CBD8DB58E7F8DBD1092A2
:1043B00072030E94C021882309F46DC0CAE00E94E4
:1043C0007921C150E1F72998C0E0D2E040E050E007
:1043D000BA0180E00E948321813021F0219720974B
:1043E000A9F758C04AEA51E060E070E088E00E9416
:1043F000832182FD15C00E9479210E9479210E94AB
:10440000792180FF48C00E9479218A3A09F043C08F
:1044100080917203826080937203C0E0D0E829C06B
:1044200040E050E0BA0187E30E94832140E050E081
:10443000BA0189E20E94832182FDEFCF809172034D
:104440008160E9CF81FD1BC0C12CD12C760140E0F9
:1044500050E0BA0187E30E948321B701A60189E2F7
:104460000E948321182F117080FF17C02197209779
:1044700089F080917203982F937021F706C0C12CA8
:10448000D12CE12C80E4F82EE2CF40E050E0BA01DC
:1044900081E0E6CF299A10E02CC0C0917203C1FFE1
:1044A00017C040E050E0BA018AE30E9483218823CC
:1044B00011F0299A1EC00E94792186FF03C0C460B2
:1044C000C09372030E9479210E9479210E94792170
:1044D00040E052E060E070E080E10E948321299A90
:1044E000811107C08CB58C7F8CBD8DB581608DBD71
:1044F00011E0812FDF91CF911F91FF90EF90DF901E
:10450000CF9008952F923F924F925F926F927F9239
:104510008F929F92AF92BF92CF92DF92EF92FF92D3
:104520000F931F93CF93DF93CDB7DEB72E970FB6C0
:10453000F894DEBF0FBECDBF19012A013B014C012B
:104540001C830B83FE86ED864D855E85452B09F425
:104550007EC0910131703A83298340E050E060E0F1
:1045600070E0CB012D833E834F83588769877A871C
:104570008B879C879101A201B301C401AD80BE80ED
:10458000C12CD12CE12CF12C00E010E00E949B2BDF
:10459000E12CE2E0FE2EE981FA81EE1AFF0AED85B8
:1045A000FE85EE15FF0508F47F012998E09172035E
:1045B000E2FF03C009E00E946A2BBA01422F532F89
:1045C00081E10E948321882319F0299A80E040C06C
:1045D0000E9479218E3FE1F7C980DA80CE0CDF1C82
:1045E00000E010E00E94792129813A810217130727
:1045F00048F00C151D0530F4EB81FC818083319669
:10460000FC83EB830F5F1F4F0115F2E01F0751F78B
:104610000E9479210E947921299A0E9479212D8571
:104620003E852E193F093E872D87970140E050E0D7
:1046300060E070E080E090E051016201730184016C
:104640000E94862B19012A013B014C017DCF81E09C
:104650002E960FB6F894DEBF0FBECDBFDF91CF917F
:104660001F910F91FF90EF90DF90CF90BF90AF9090
:104670009F908F907F906F905F904F903F902F9082
:1046800008952F923F924F925F926F927F928F92F6
:104690009F92AF92BF92CF92DF92EF92FF920F93D1
:1046A0001F93CF93DF93CDB7DEB768970FB6F8941B
:1046B000DEBF0FBECDBF29833A834B835C836D83FE
:1046C0007E838F8398871A8B098B37011601BC8AEA
:1046D000AB8A9E8A8D8A012B09F4EAC0E114F104A9
:1046E00009F4E6C0CE14DF0408F4E2C0AB2809F4F4
:1046F000DFC0299829893A892E0D3F1D388F2F8BCD
:1047000049815A8151705A874987412CF2E05F2EC6
:10471000441A550A8091720382FF14C029813A819C
:104720004B815C816D817E818F81988509E00E943B
:104730006A2BF22FE32F942F852F4F2F5E2F692F97
:10474000782F0DC069857A85CB01A0E0B0E0498162
:104750005A816B817C81481B590B6A0B7B0B81E171
:104760000E948321882311F0299AA2C00E947921F6
:104770008E3FE1F700E010E089859A850817190758
:1047800029F00E9479210F5F1F4FF6CF4C0146148C
:10479000570468F02614370450F009891A8909C0B3
:1047A00046185708261837084114510471F5912C02
:1047B00033C02F89388D0217130731F00E947921F9
:1047C000F80181938F01F5CF940140E050E060E063
:1047D00070E080E090E0A980BA80CB80DC80ED8042
:1047E000FE800F8118850E94862BED88FE88890146
:1047F0009A01AB01BC0189899A89EB89FC890995E9
:104800008111CECF9924939407C0860C971C211454
:10481000310409F0BCCFCBCF4114510431F00E94D8
:104820007921F1E04F1A5108F7CF0E9479210E94B7
:10483000792126143704B8F149855A859A0140E058
:1048400050E060E070E0CB0129873A874B875C87B6
:104850006D877E878F87988B20E032E040E050E0C4
:1048600060E070E080E090E0A984BA84C12CD12C93
:10487000E12CF12C00E010E00E949B2BA980BA8073
:10488000CB80DC80ED80FE800F8118850E94862B16
:1048900029833A834B835C836D837E838F839887E0
:1048A000992009F42DCF299A0E94792181E001C035
:1048B00080E068960FB6F894DEBF0FBECDBFDF91E3
:1048C000CF911F910F91FF90EF90DF90CF90BF900D
:1048D000AF909F908F907F906F905F904F903F90A0
:1048E0002F900895409891E09EBD0DB407FEFDCF36
:1048F0008EBD0DB407FEFDCF409A0895409882E02A
:104900008EBD0DB407FEFDCF1EBC0DB407FEFDCF5E
:104910001EBC0DB407FEFDCF80E090E0A1E0B0E04A
:104920001EBC0DB407FEFDCF0197A109B109009788
:10493000A105B105A9F7409A0895389A409A80E4F4
:104940000E9472240C947E24409822E02EBD0DB467
:1049500007FEFDCF9EBD0DB407FEFDCF8EBD0DB48D
:1049600007FEFDCF6EBD0DB407FEFDCF409A089542
:10497000409823E02EBD0DB407FEFDCF9EBD0DB4C3
:1049800007FEFDCF8EBD0DB407FEFDCF1EBC0DB4DE
:1049900007FEFDCF409A8EB50895409823E02EBDC6
:1049A0000DB407FEFDCF9EBD0DB407FEFDCF8EBD3D
:1049B0000DB407FEFDCF1EBC0DB407FEFDCF8EB5B6
:1049C00090E01EBC0DB407FEFDCF2EB5409A922B91
:1049D0000895409823E02EBD0DB407FEFDCF9EBD87
:1049E0000DB407FEFDCF8EBD0DB407FEFDCFFA015D
:1049F000640F751FE617F70739F01EBC0DB407FEEC
:104A0000FDCF8EB58193F6CF409A0895409822E06D
:104A10002EBD0DB407FEFDCF9EBD0DB407FEFDCF2C
:104A20008EBD0DB407FEFDCFFA01640F751FE617AA
:104A3000F70731F081918EBD0DB407FEFDCFF7CFA2
:104A4000409A089580930E01089510927403809106
:104A50000E01813071F018F08230A9F00895209194
:104A60007303822F90E0CE9714F42A5F13C086E080
:104A700015C020917303822F90E0C69714F4265F2F
:104A800009C08AE00BC020917303822F90E0CA977F
:104A900024F4285F20937303089588E00C9416296A
:104AA0000F9390910E019130F9F018F09230A1F12E
:104AB0004EC0803108F04BC096E0899F90011124D0
:104AC000295F314E00E046E06091730380917403EA
:104AD0000E944727809174038C5F809374038E3704
:104AE000B0F10F910C942525803188F59AE0899FCB
:104AF000900111242959324E00E04AE0609173037D
:104B0000809174030E94472780917403885F80938B
:104B100074038A37E0F0E5CF8A3019F390EE980FEE
:104B20009536A8F498E0899F90011124215C364EB7
:104B300000E048E060917303809174030E9447276E
:104B4000809174038A5F809374038C3750F60F91C1
:104B5000089580937403609373030895CF93DF9354
:104B6000EC018991882319F00E945025FACFDF913A
:104B7000CF910895CF93DF93FC018491EF012196AB
:104B8000882321F00E945025FE01F7CFDF91CF91BD
:104B900008950F931F93CF93DF9300D000D01F92FF
:104BA000CDB7DEB713E0482F4F70212F30E0E1E0A2
:104BB000F0E0EC0FFD1FE20FF31F4A3010F4405DF0
:104BC00001C0495C408334E0969587953A95E1F7BA
:104BD00011506150009739F7062F80E26D830E94D3
:104BE00050256D81912F961B20E3892F860F662318
:104BF00049F0E1E0F0E0EC0FFD1FE80FF11D20832C
:104C00006150F3CF81E0810F801B843068F411E0A4
:104C1000180FE1E0F0E0EC0FFD1FE80FF11D8081BF
:104C20000E945025812FF1CF0F900F900F900F9081
:104C30000F90DF91CF911F910F910895FF920F93E5
:104C40001F93CF93DF93EC01062F0E94E02882E0B0
:104C500080930E019E012F5F3F4FFE01149140E2B1
:104C6000F42E1123A9F110927403F0927303E90159
:104C70001A30B9F0812F0E9450252196FE013197FC
:104C8000149180E20E94A120882349F00E94E0282C
:104C9000DF91CF911F910F91FF900C94AF201111D4
:104CA000E7CF18E000937703809177038111FCCF61
:104CB00081E00E94162980E20E94A1208111E6CFA6
:104CC000115081F79E012F5F3F4FFE011491C9CF14
:104CD000C0E200937703809177038111FCCF81E0DC
:104CE0000E94162980E20E94A1208111CFCFC150DD
:104CF00081F7CCCF8AB181648AB983E085BD82E433
:104D000084BD0895CF93C62F9C0140E050E068E435
:104D100078EE81E090E00E94B42A215027BD589A95
:104D2000C0937603CF910895CF93DF931F92CDB7B1
:104D3000DEB78F70E82FF0E0EE0FFF1FE959F14E5C
:104D40008591949149830E9482264981442321F0D0
:104D5000809176038111FCCF0F90DF91CF91089560
:104D600014BC589A8093760380917603869541F01F
:104D70000E94162C80FF02C05E9AF6CF5E98F4CF98
:104D8000589880917603882341F00E94162C80FF6A
:104D900002C05E9AF6CF5E98F4CF82E484BD089597
:104DA000229A2A9882EC8093C20082E090E090934D
:104DB000C5008093C40087EF93E0909389008093AF
:104DC000880083E693E090938B0080938A0083E3CE
:104DD0008093800089E1809381001092C600EFE605
:104DE000F0E0808184608083089588589C4FFC01A6
:104DF0006083089587FD4AC0683408F047C0E82FF3
:104E0000E595E595E595809587704130B9F018F006
:104E1000423049F10895FF27E7FDF09590E16902DE
:104E2000E00DF11D1124E858FC4F21E030E001C0F5
:104E3000220F8A95EAF78081822B27C0FF27E7FDA2
:104E4000F09590E16902E00DF11D1124E858FC4F46
:104E500021E030E001C0220F8A95EAF72095808199
:104E6000282320830895FF27E7FDF09590E169024C
:104E7000E00DF11D1124E858FC4F21E030E001C0A5
:104E8000220F8A95EAF78081822780830895AF9266
:104E9000BF92CF92DF92EF92FF920F931F93CF9327
:104EA000DF93893F0CF484C09EE0960F963508F09E
:104EB0007FC050E087FF2AC0819590E070E0E72F27
:104EC000FF27E7FDF095E417F5070CF06EC0C1E091
:104ED000C60F6834C0F4E20FF31F013011F4E08113
:104EE00001C0E491F0E16F02D0011124A858BC4F39
:104EF0006C91082E01C0EE0F0A94EAF7F62FFE23FC
:104F00009F2BE627EC936C2F7F5FD9CF782F77709C
:104F1000C72E172F1195177085958595859590E06B
:104F2000D12CE82EFF24E7FCF094ED2DFF27E7FDC0
:104F3000F095E417F507CCF5BB24B394B60E6834AE
:104F400088F5E20FF31F013011F4E08101C0E49114
:104F5000D701F0E16F02A00DB11D1124ED01C85879
:104F6000DC4FA8806E2F70E0FB010C2C02C0F59581
:104F7000E7950A94E2F7FA2DFE239F2BEA25E883B2
:104F8000112381F08F3071F0A758BC4FCC91FB01F9
:104F9000012E01C0EE0F0A94EAF76C2F6E23962BB8
:104FA000EC27EC936B2DD394C0CF81E0911101C01D
:104FB00080E0DF91CF911F910F91FF90EF90DF90F4
:104FC000CF90BF90AF9008958F929F92BF92CF9253
:104FD000DF92EF92FF920F931F93CF93DF93813F66
:104FE0000CF4E1C09FE0960F973508F0DCC0FA01A1
:104FF0003196893F04F538EF381B20E110E041E09D
:10500000460F683490F480E16802D0011124A8585A
:10501000BC4F5C918081032E01C0880F0A94EAF78F
:10502000952F9823192B85278C93642F2150329626
:105030002111E5CFB5C087FF43C0782F7195885FF8
:1050400090E110E001E0060F6834A0F5A0E16A02EB
:1050500040011124E401C858DC4FB880AF01415031
:105060005109DA012C91072E01C0220F0A94EAF7A8
:105070003B2D32273883C080D12C7601082E02C008
:10508000F594E7940A94E2F7432F4E254883D40120
:10509000A758BC4F6C91A601072E01C0440F0A947B
:1050A000EAF7562F5423152B2B21122BE3221E290E
:1050B00046274C93602F915032969111C3CF70C008
:1050C000082F0770902F91959770859585958595F8
:1050D00020E1D22E10E0882E992487FC9094CC24D5
:1050E000C394C60E683408F056C09401B0E16B0258
:1050F000200D311D1124D901A858BC4FBC90BF010F
:1051000061507109EB01E880F12CA701002E02C06B
:10511000559547950A94E2F75B2D5423152B4B25A3
:105120004C938F30C1F1D9011196992381F0AD01D3
:1051300048585C4FEA01B880B701092E01C0660FDC
:105140000A94EAF77B2D7623172B6B256883A858E2
:10515000BC4FFC90408150E0BA01002E02C0759512
:1051600067950A94E2F77F2D7623172B6F256C93B2
:10517000992389F08E3079F0D901A658BC4F6C91F3
:105180009A01092E01C0220F0A94EAF7362F322322
:10519000132B26272C936C2DDA943296D1109FCFA7
:1051A00081E0111101C080E0DF91CF911F910F913B
:1051B000FF90EF90DF90CF90BF909F908F900895D9
:1051C00080E894E0E8E7F3E0DF019C011D922150C4
:1051D0003040E1F760E080E00C94A925CF93DF93A5
:1051E000882309F18F7190E0EC0134E0CC0FDD1FD2
:1051F0003A95E1F748E450E0481B590B64E0440F4E
:10520000551F6A95E1F768E773E0CE0188589C4F17
:105210000E94262CAE0160E070E088E793E0DF9109
:10522000CF910C94382CDF91CF9108950F931F9359
:10523000CF93DF93882351F18F71082F10E0E8019D
:1052400074E0CC0FDD1F7A95E1F748E450E0401B95
:10525000510BE4E0440F551FEA95E1F7BE01685891
:105260007C4F88E793E00E94262C20EF2003C001AA
:10527000219F900D1124AE0160E070E08850984F9E
:10528000DF91CF911F910F910C94382CDF91CF912A
:105290001F910F910895CF93DF93A8E7B3E0CD015D
:1052A00040969D012F5F3F4FFC013197EF01219701
:1052B000488160E1469FA0011124508152955F70A2
:1052C000542B5083E217F30781F72C9122952F700E
:1052D0002C9327E0883F920711F0DC01E0CFDF91AB
:1052E000CF91089587E893E0FC013F97208140E14A
:1052F000249F90011124318132953F70322B3193DC
:10530000E817F90799F780818295807F8083CF0124
:10531000409628E08730920739F708951F920F9240
:105320000FB60F9211242F938F939F93EF93FF93B8
:105330008091100190911101019690931101809339
:1053400010018331910509F44AC0ECF486309105CF
:10535000E1F154F4892B09F06EC08BEF91E090934A
:1053600089008093880038C08C309105A9F142975C
:1053700009F061C087EF93E09093890080938800E3
:105380008AE490E024C0873D910509F443C05CF4B1
:105390008431910579F18834910509F04CC081E0A0
:1053A0008093750385C08F3021E09207B1F1803181
:1053B000914009F040C08FEF9FEF909311018093CF
:1053C000100181E080930F0173C086ED91E090930E
:1053D0008B0080938A006CC085E290E0F8CF8091CA
:1053E0007703882309F464C0809177038150809308
:1053F00077035EC080917603882309F459C08091B9
:10540000760381508093760380917603811150C09A
:1054100058984EC0109275034BC080910F0188239D
:1054200009F446C08FEF9FEF909311018093100114
:1054300010920F013DC080917503882309F438C094
:10544000E6E5F4E58894F795E7958091840083700C
:10545000E80FF11D09940000000000000000109208
:10546000C60088E08093C100E0911001F091110125
:10547000E854F109F595E79594E0EE0FFF1F9A9532
:10548000E1F7E858FC4FCF0140962091C00025FF7E
:10549000FCCF21912093C600E817F907B1F780915E
:1054A000C00086FFFCCF8091C100877F8093C10040
:1054B000FF91EF919F918F912F910F900FBE0F90C1
:1054C0001F901895DB018F939F930E94D92ABF915B
:1054D000AF91A29F800D911DA39F900DB29F900D43
:1054E00011240895991B79E004C0991F961708F0BC
:1054F000961B881F7A95C9F780950895AA1BBB1B38
:1055000051E107C0AA1FBB1FA617B70710F0A61BC3
:10551000B70B881F991F5A95A9F780959095BC01E4
:10552000CD010895A1E21A2EAA1BBB1BFD010DC0DF
:10553000AA1FBB1FEE1FFF1FA217B307E407F50743
:1055400020F0A21BB30BE40BF50B661F771F881F1F
:10555000991F1A9469F760957095809590959B01B5
:10556000AC01BD01CF010895052E97FB1EF40094F8
:105570000E94CB2A57FD07D00E94922A07FC03D035
:105580004EF40C94CB2A50954095309521953F4F81
:105590004F4F5F4F089590958095709561957F4F1F
:1055A0008F4F9F4F0895EE0FFF1F0590F491E02D50
:1055B00009940E94B92BA59F900DB49F900DA49FB4
:1055C000800D911D11240895DF93CF931F930F93A6
:1055D0009A9DF02D219FF00D8B9DF00D8A9DE02D61
:1055E000F10D039FF00D029FE00DF11D4E9DE00DAA
:1055F000F11D5E9DF00D4F9DF00D7F936F93BF9257
:10560000AF925F934F93D5010E94B92B8B01AC01F0
:10561000D7010E94B92BEB01E80FF91FD6010E94B8
:10562000342B2F913F91D6010E94B92BC60FD71F63
:10563000E81FF91FAF91BF910E94342B2F913F912A
:105640000E94B92BC60FD71FE81FF91FD6010E9471
:10565000B92BE60FF71F9801BE01CF0111240F915E
:105660001F91CF91DF9108950E94B92B460F571FCC
:10567000C81FD91F08F431960895E894DF93CF939B
:10568000FC01DB010E94B92B7F936F93E9019A0122
:10569000AC01BF93AF933F932F93DF010E94B92BCF
:1056A00026F46C1B7D0B820B930B9E01EB01FC011E
:1056B0000E94342BAF91BF912F913F910E94342BC8
:1056C000BE01CF01F9012F913F91CF91DF91089554
:1056D00097FB10F8169400080F93083098F00850C4
:1056E000232F342F452F562F672F782F892F902D5A
:1056F000F4CF059497958795779567955795479536
:10570000379527950A95AAF70F9108952A0D3B1D05
:105710004C1D5D1D6E1D7F1D801F911F089500246F
:10572000A7FD00942A0F301D401D501D601D701DE7
:10573000801D901D08952A193B094C095D096E09C9
:105740007F09800B910B08952A153B054C055D05DB
:105750006E057F058007910708950024A7FD00943A
:105760002A17300540055005600570058005900535
:105770000895A29FB001B39FC001A39F700D811D2A
:105780001124911DB29F700D811D1124911D08954A
:105790008F929F92AF92BF92CF92DF92EF92FF9241
:1057A000CF93DF93EC01688179818A819B816115B8
:1057B00071058105910521F464E279ED8BE597E0AF
:1057C0002DE133EF41E050E00E94B42A49015A0133
:1057D0009B01AC01A7EAB1E40E94D92A6B017C01CC
:1057E000ACEEB4EFA50194010E948E2CC60ED71E1C
:1057F000E81EF91EF7FE06C081E0C81AD108E108CC
:1058000080E8F80AC882D982EA82FB82C6019F77C3
:10581000DF91CF91FF90EF90DF90CF90BF90AF904E
:105820009F908F9008950E94C82B089580E091E08A
:105830000E94C82B0895A0E0B0E0809300019093EF
:105840000101A0930201B09303010895681779073D
:1058500068F4FB01DC01E40FF51FA40FB51F02C0C3
:1058600002900E9241505040D8F708950C94822C2B
:10587000DC0101C06D9341505040E0F70895FC01F8
:105880008191861721F08823D9F7992708953197B8
:10589000CF010895FB01DC018D9101908019011069
:1058A000D9F3990B0895FB01DC0101900D920020C2
:1058B000E1F70895FB01DC014150504030F08D913B
:1058C0000190801919F40020B9F7881B990B0895ED
:1058D000FB0151915523A9F0BF01DC014D91451702
:1058E0004111E1F759F4CD010190002049F04D91AB
:1058F00040154111C9F3FB014111EFCF81E090E068
:1059000001970895FB01DC0102C001900D92415006
:105910005040D8F70895B7FF0C94D92A0E94D92A8D
:0A592000821B930B0895F894FFCF4B
:10592A00010000002E42494E002E62696E000201FB
:04593A00FFFF2F003C
:00000001FF
